{
    "contractName": "DFAdminFacet",
    "abi": [
        {
            "anonymous": false,
            "inputs": [
                {
                    "indexed": false,
                    "internalType": "uint256",
                    "name": "loc",
                    "type": "uint256"
                },
                {
                    "indexed": false,
                    "internalType": "address",
                    "name": "owner",
                    "type": "address"
                },
                {
                    "indexed": false,
                    "internalType": "enum ArtifactType",
                    "name": "artifactType",
                    "type": "uint8"
                }
            ],
            "name": "AdminGiveSpaceship",
            "type": "event"
        },
        {
            "anonymous": false,
            "inputs": [
                {
                    "indexed": false,
                    "internalType": "uint256",
                    "name": "loc",
                    "type": "uint256"
                },
                {
                    "indexed": false,
                    "internalType": "address",
                    "name": "newOwner",
                    "type": "address"
                }
            ],
            "name": "AdminOwnershipChanged",
            "type": "event"
        },
        {
            "anonymous": false,
            "inputs": [
                {
                    "indexed": false,
                    "internalType": "uint256",
                    "name": "loc",
                    "type": "uint256"
                }
            ],
            "name": "AdminPlanetCreated",
            "type": "event"
        },
        {
            "anonymous": false,
            "inputs": [
                {
                    "indexed": false,
                    "internalType": "bool",
                    "name": "paused",
                    "type": "bool"
                }
            ],
            "name": "PauseStateChanged",
            "type": "event"
        },
        {
            "inputs": [
                {
                    "internalType": "address",
                    "name": "playerAddress",
                    "type": "address"
                },
                {
                    "internalType": "uint256",
                    "name": "amount",
                    "type": "uint256"
                }
            ],
            "name": "addScore",
            "outputs": [],
            "stateMutability": "nonpayable",
            "type": "function"
        },
        {
            "inputs": [
                {
                    "internalType": "uint256",
                    "name": "locationId",
                    "type": "uint256"
                },
                {
                    "internalType": "address",
                    "name": "owner",
                    "type": "address"
                },
                {
                    "internalType": "enum ArtifactType",
                    "name": "artifactType",
                    "type": "uint8"
                }
            ],
            "name": "adminGiveSpaceShip",
            "outputs": [],
            "stateMutability": "nonpayable",
            "type": "function"
        },
        {
            "inputs": [
                {
                    "internalType": "uint256",
                    "name": "locationId",
                    "type": "uint256"
                },
                {
                    "internalType": "uint256",
                    "name": "perlin",
                    "type": "uint256"
                }
            ],
            "name": "adminInitializePlanet",
            "outputs": [],
            "stateMutability": "nonpayable",
            "type": "function"
        },
        {
            "inputs": [
                {
                    "internalType": "uint256",
                    "name": "_newRadius",
                    "type": "uint256"
                }
            ],
            "name": "adminSetWorldRadius",
            "outputs": [],
            "stateMutability": "nonpayable",
            "type": "function"
        },
        {
            "inputs": [
                {
                    "internalType": "uint256",
                    "name": "newCooldown",
                    "type": "uint256"
                }
            ],
            "name": "changeLocationRevealCooldown",
            "outputs": [],
            "stateMutability": "nonpayable",
            "type": "function"
        },
        {
            "inputs": [
                {
                    "internalType": "uint256",
                    "name": "_newConstant",
                    "type": "uint256"
                }
            ],
            "name": "changeWorldRadiusMin",
            "outputs": [],
            "stateMutability": "nonpayable",
            "type": "function"
        },
        {
            "inputs": [
                {
                    "components": [
                        {
                            "internalType": "uint256",
                            "name": "location",
                            "type": "uint256"
                        },
                        {
                            "internalType": "uint256",
                            "name": "perlin",
                            "type": "uint256"
                        },
                        {
                            "internalType": "uint256",
                            "name": "level",
                            "type": "uint256"
                        },
                        {
                            "internalType": "enum PlanetType",
                            "name": "planetType",
                            "type": "uint8"
                        },
                        {
                            "internalType": "bool",
                            "name": "requireValidLocationId",
                            "type": "bool"
                        }
                    ],
                    "internalType": "struct AdminCreatePlanetArgs",
                    "name": "args",
                    "type": "tuple"
                }
            ],
            "name": "createPlanet",
            "outputs": [],
            "stateMutability": "nonpayable",
            "type": "function"
        },
        {
            "inputs": [
                {
                    "internalType": "address",
                    "name": "playerAddress",
                    "type": "address"
                },
                {
                    "internalType": "uint256",
                    "name": "amount",
                    "type": "uint256"
                }
            ],
            "name": "deductScore",
            "outputs": [],
            "stateMutability": "nonpayable",
            "type": "function"
        },
        {
            "inputs": [],
            "name": "pause",
            "outputs": [],
            "stateMutability": "nonpayable",
            "type": "function"
        },
        {
            "inputs": [
                {
                    "internalType": "address",
                    "name": "newOwner",
                    "type": "address"
                },
                {
                    "internalType": "uint256[2]",
                    "name": "_a",
                    "type": "uint256[2]"
                },
                {
                    "internalType": "uint256[2][2]",
                    "name": "_b",
                    "type": "uint256[2][2]"
                },
                {
                    "internalType": "uint256[2]",
                    "name": "_c",
                    "type": "uint256[2]"
                },
                {
                    "internalType": "uint256[8]",
                    "name": "_input",
                    "type": "uint256[8]"
                }
            ],
            "name": "safeSetOwner",
            "outputs": [],
            "stateMutability": "nonpayable",
            "type": "function"
        },
        {
            "inputs": [
                {
                    "internalType": "uint256",
                    "name": "planetId",
                    "type": "uint256"
                },
                {
                    "internalType": "address",
                    "name": "newOwner",
                    "type": "address"
                }
            ],
            "name": "setOwner",
            "outputs": [],
            "stateMutability": "nonpayable",
            "type": "function"
        },
        {
            "inputs": [
                {
                    "internalType": "bool",
                    "name": "enabled",
                    "type": "bool"
                }
            ],
            "name": "setPlanetTransferEnabled",
            "outputs": [],
            "stateMutability": "nonpayable",
            "type": "function"
        },
        {
            "inputs": [
                {
                    "internalType": "uint256",
                    "name": "newTokenMintEndTime",
                    "type": "uint256"
                }
            ],
            "name": "setTokenMintEndTime",
            "outputs": [],
            "stateMutability": "nonpayable",
            "type": "function"
        },
        {
            "inputs": [],
            "name": "unpause",
            "outputs": [],
            "stateMutability": "nonpayable",
            "type": "function"
        },
        {
            "inputs": [],
            "name": "withdraw",
            "outputs": [],
            "stateMutability": "nonpayable",
            "type": "function"
        }
    ],
    "bytecode": "608060405234801561001057600080fd5b5061207b806100206000396000f3fe608060405234801561001057600080fd5b50600436106100f55760003560e01c80637fd3924711610097578063d119db4c11610066578063d119db4c146101ac578063e3aecc54146101bf578063ea8046a0146101d2578063f1cb497a146101e557600080fd5b80637fd392471461016b5780638456cb591461017e578063944e667914610186578063bcb324d81461019957600080fd5b80633ccfd60b116100d35780633ccfd60b146101355780633f4ba83a1461013d57806350e1ade3146101455780637b05ea6e1461015857600080fd5b806302531a47146100fa57806319ce75261461010f57806332d5cef414610122575b600080fd5b61010d610108366004611555565b6101f8565b005b61010d61011d3660046116a4565b610224565b61010d610130366004611555565b61034b565b61010d6103db565b61010d610412565b61010d610153366004611555565b6104d9565b61010d610166366004611756565b6104f1565b61010d610179366004611782565b6105dd565b61010d61065a565b61010d6101943660046117c0565b610710565b61010d6101a73660046117f1565b61074a565b61010d6101ba366004611756565b610aa7565b61010d6101cd366004611870565b610b35565b61010d6101e0366004611555565b6113b0565b61010d6101f33660046118b6565b6113c8565b6102006114a8565b7f5fb65bb339c6bd3f2609a7342e6cb046e09f3e40f45242a5971904b021b5bb6c55565b61022c6114a8565b8051610236611531565b6000828152600e91909101602052604090205460ff166102c15760405163700fc49360e11b815273__$5588a372fe54cd4953e82f0bc5932376ed$__9063e01f89269061029090889088908890889060009060040161193a565b60006040518083038186803b1580156102a857600080fd5b505af41580156102bc573d6000803e3d6000fd5b505050505b6102c9611531565b6000828152600c9190910160205260409020600701546102e7611531565b6000838152600c919091016020526040902060090155610305611531565b6000828152600c919091016020526040902060050154610323611531565b6000838152600c91909101602052604090206004015561034381876105dd565b505050505050565b6103536114a8565b807f5fb65bb339c6bd3f2609a7342e6cb046e09f3e40f45242a5971904b021b5bb536001018190555073__$6b7b4f300876ea7c4892437e01c3ce569a$__63eaae46536040518163ffffffff1660e01b815260040160006040518083038186803b1580156103c057600080fd5b505af41580156103d4573d6000803e3d6000fd5b5050505050565b6103e36114a8565b60405133904780156108fc02916000818181858888f1935050505015801561040f573d6000803e3d6000fd5b50565b61041a6114a8565b610422611531565b54600160a01b900460ff1661047e5760405162461bcd60e51b815260206004820152601860248201527f47616d6520697320616c726561647920756e706175736564000000000000000060448201526064015b60405180910390fd5b6000610488611531565b8054911515600160a01b0260ff60a01b19909216919091179055604051600081527f4543baa938cb97f5073ec206ad35638cdb1f4db8f677d31579b2f6fe7d18c14a906020015b60405180910390a1565b6104e16114a8565b806104ea611531565b6009015550565b6104f96114a8565b6000610503611531565b6001600160a01b038416600090815260129190910160205260409020805490915060ff1661056b5760405162461bcd60e51b81526020600482015260156024820152741c1b185e595c88191bd95cc81b9bdd08195e1a5cdd605a1b6044820152606401610475565b80600401548211156105bf5760405162461bcd60e51b815260206004820152601a60248201527f747269656420746f20646564756374206d7563682073636f72650000000000006044820152606401610475565b818160040160008282546105d391906119e5565b9091555050505050565b6105e56114a8565b806105ee611531565b6000848152600c91909101602090815260409182902080546001600160a01b0319166001600160a01b039485161790558151858152928416908301527fe122bcb5a2c1ab58804715b8f43c4414ec77d77167268cc38dc72d8301107bf291015b60405180910390a15050565b6106626114a8565b61066a611531565b54600160a01b900460ff16156106bb5760405162461bcd60e51b815260206004820152601660248201527511d85b59481a5cc8185b1c9958591e481c185d5cd95960521b6044820152606401610475565b60016106c5611531565b8054911515600160a01b0260ff60a01b19909216919091179055604051600181527f4543baa938cb97f5073ec206ad35638cdb1f4db8f677d31579b2f6fe7d18c14a906020016104cf565b6107186114a8565b7f5fb65bb339c6bd3f2609a7342e6cb046e09f3e40f45242a5971904b021b5bb6a805460ff1916911515919091179055565b6107526114a8565b7f5fb65bb339c6bd3f2609a7342e6cb046e09f3e40f45242a5971904b021b5bb535460ff166107c35760405162461bcd60e51b815260206004820152601f60248201527f61646d696e2063616e206e6f206c6f6e6765722061646420706c616e657473006044820152606401610475565b80608001511561089057805160405163646a81f560e11b8152600481019190915273__$6b7b4f300876ea7c4892437e01c3ce569a$__9063c8d503ea90602401602060405180830381865af4158015610820573d6000803e3d6000fd5b505050506040513d601f19601f820116820180604052508101906108449190611a0c565b6108905760405162461bcd60e51b815260206004820152601b60248201527f4e6f7420612076616c696420706c616e6574206c6f636174696f6e00000000006044820152606401610475565b6020810151604051630e61190360e31b815260009173__$6b7b4f300876ea7c4892437e01c3ce569a$__91637308c818916108d19160040190815260200190565b602060405180830381865af41580156108ee573d6000803e3d6000fd5b505050506040513d601f19601f820116820180604052508101906109129190611a38565b905073__$5588a372fe54cd4953e82f0bc5932376ed$__632caa23fc6040518060e0016040528085600001518152602001856020015181526020018560400151815260200161097e7f5fb65bb339c6bd3f2609a7342e6cb046e09f3e40f45242a5971904b021b5bb5390565b60030154815260200184600381111561099957610999611a53565b8152602001856060015160048111156109b4576109b4611a53565b815260006020909101526040516001600160e01b031960e084901b1681526109df9190600401611a8d565b60006040518083038186803b1580156109f757600080fd5b505af4158015610a0b573d6000803e3d6000fd5b50505050610a17611531565b8251600691909101805460018181018355600092835260209092200191909155610a3f611531565b600501836040015181548110610a5757610a576118d8565b906000526020600020016000828254610a709190611aed565b909155505081516040519081527f4cea35aae122363317e2962f1f094b4ee7be8c7ed501f8d609090702310431be9060200161064e565b610aaf6114a8565b6000610ab9611531565b6001600160a01b038416600090815260129190910160205260409020805490915060ff16610b215760405162461bcd60e51b81526020600482015260156024820152741c1b185e595c88191bd95cc81b9bdd08195e1a5cdd605a1b6044820152606401610475565b818160040160008282546105d39190611aed565b610b3d6114a8565b610b45611531565b6000848152600f91909101602052604090205460ff16610ba75760405162461bcd60e51b815260206004820152601960248201527f706c616e6574206973206e6f7420696e697469616c697a6564000000000000006044820152606401610475565b604051634de0d22960e11b815273__$08a8c16b42bbff68ac2e13e90bef3361ff$__90639bc1a45290610bde908490600401611b15565b602060405180830381865af4158015610bfb573d6000803e3d6000fd5b505050506040513d601f19601f82011682018060405250810190610c1f9190611a0c565b610c765760405162461bcd60e51b815260206004820152602260248201527f61727469666163742074797065206d7573742062652061207370616365207368604482015261069760f41b6064820152608401610475565b60405163fa96074f60e01b815260009073__$08a8c16b42bbff68ac2e13e90bef3361ff$__9063fa96074f90610cb490879087908790600401611b29565b602060405180830381865af4158015610cd1573d6000803e3d6000fd5b505050506040513d601f19601f82011682018060405250810190610cf59190611b54565b90506000610d01611531565b6000838152601691909101602090815260409182902082516101a081018452815460ff90811615158252600183015493820193909352600282015493810193909352600381015490916060840191166005811115610d6157610d61611a53565b6005811115610d7257610d72611a53565b81526020016003820160019054906101000a900460ff16600a811115610d9a57610d9a611a53565b600a811115610dab57610dab611a53565b81526004820154602082015260058201546001600160a01b0381166040830152606090910190600160a01b900460ff16600e811115610dec57610dec611a53565b600e811115610dfd57610dfd611a53565b815260068201546020820152600782015460408201526008820154606082015260098201546080820152600a909101546001600160a01b031660a09091015290506000610e48611531565b6000878152600c91909101602090815260409182902082516101a08101845281546001600160a01b03168152600182015492810192909252600281015492820192909252600382015460608201526004808301546080830152600583015460a0830152600683015460c0830152600783015460e083015260088301546101008301526009830154610120830152600a830154610140830152600b83015491929161016084019160ff90911690811115610f0357610f03611a53565b6004811115610f1457610f14611a53565b8152600b9190910154610100900460ff16151560209091015290506000610f39611531565b6000888152600e91909101602090815260409182902082516101a081018452815460ff9081161515825260018301549382019390935260028201549381019390935260038082015460608501526004820154919260808501921690811115610fa357610fa3611a53565b6003811115610fb457610fb4611a53565b815260058201546020820152600682015460408201526007820154606082015260088201546080820152600982015460ff908116151560a0830152600a83015460c0830152600b83015416151560e0820152600c90910154610100909101529050600061101f611531565b6000898152600f919091016020908152604091829020825160a081018452815460ff161515815260018201549281019290925260028101546001600160a01b0390811683850152600382015460608401526004918201541660808301529151631fc6b0c760e21b815290925073__$5588a372fe54cd4953e82f0bc5932376ed$__91637f1ac31c916110b991889188918891889101611cc7565b6103e060405180830381865af41580156110d7573d6000803e3d6000fd5b505050506040513d601f19601f820116820180604052508101906110fb9190611f50565b919450925090508261110b611531565b600c0160008a815260200190815260200160002060008201518160000160006101000a8154816001600160a01b0302191690836001600160a01b031602179055506020820151816001015560408201518160020155606082015181600301556080820151816004015560a0820151816005015560c0820151816006015560e082015181600701556101008201518160080155610120820151816009015561014082015181600a015561016082015181600b0160006101000a81548160ff021916908360048111156111de576111de611a53565b02179055506101809190910151600b90910180549115156101000261ff00199092169190911790558161120f611531565b60008a8152600e9190910160209081526040918290208351815490151560ff1991821617825591840151600180830191909155928401516002820155606084015160038083019190915560808501516004830180549395919490931691849081111561127d5761127d611a53565b021790555060a0820151600582015560c0820151600682015560e08201516007820155610100820151600882015561012082015160098201805491151560ff19928316179055610140830151600a830155610160830151600b830180549115159190921617905561018090910151600c90910155806112fa611531565b60008a8152600f9190910160209081526040918290208351815460ff1916901515178155908301516001820155828201516002820180546001600160a01b03199081166001600160a01b03938416179091556060850151600384015560809094015160049092018054909416911617909155517f2246671d1302c2b118c9a4288e96c893947032c469b02476b8a67ea4c18342b49061139e908a908a908a90611b29565b60405180910390a15050505050505050565b6113b86114a8565b806113c1611531565b6001015550565b6113d06114a8565b6113d8611531565b6000838152600f91909101602052604090205460ff161561143b5760405162461bcd60e51b815260206004820152601d60248201527f706c616e657420697320616c726561647920696e697469616c697a65640000006044820152606401610475565b604051630facbb3f60e11b815260048101839052602481018290526000604482015273__$5588a372fe54cd4953e82f0bc5932376ed$__90631f59767e9060640160006040518083038186803b15801561149457600080fd5b505af4158015610343573d6000803e3d6000fd5b7fc8fcad8db84d3cc18b4c41d551ea0ee66dd599cde068d998e57d5e09332c131c600401546001600160a01b0316331461152f5760405162461bcd60e51b815260206004820152602260248201527f4c69624469616d6f6e643a204d75737420626520636f6e7472616374206f776e60448201526132b960f11b6064820152608401610475565b565b7fcb7f1a525606efcbba7baaf9b0b55c468d0fd558cbf767967f538834dfa1232e90565b60006020828403121561156757600080fd5b5035919050565b6001600160a01b038116811461040f57600080fd5b634e487b7160e01b600052604160045260246000fd5b6040516101a0810167ffffffffffffffff811182821017156115bd576115bd611583565b60405290565b6040805190810167ffffffffffffffff811182821017156115bd576115bd611583565b600082601f8301126115f757600080fd5b6115ff6115c3565b80604084018581111561161157600080fd5b845b8181101561162b578035845260209384019301611613565b509095945050505050565b600082601f83011261164757600080fd5b60405161010080820182811067ffffffffffffffff8211171561166c5761166c611583565b6040528301818582111561167f57600080fd5b845b82811015611699578035825260209182019101611681565b509195945050505050565b600080600080600061022086880312156116bd57600080fd5b85356116c88161156e565b945060206116d8888883016115e6565b945087607f8801126116e957600080fd5b6116f16115c3565b8060e089018a81111561170357600080fd5b60608a015b818110156117285761171a8c826115e6565b845292840192604001611708565b508196506117368b826115e6565b95505050505061174a876101208801611636565b90509295509295909350565b6000806040838503121561176957600080fd5b82356117748161156e565b946020939093013593505050565b6000806040838503121561179557600080fd5b8235915060208301356117a78161156e565b809150509250929050565b801515811461040f57600080fd5b6000602082840312156117d257600080fd5b81356117dd816117b2565b9392505050565b6005811061040f57600080fd5b600060a0828403121561180357600080fd5b60405160a0810181811067ffffffffffffffff8211171561182657611826611583565b80604052508235815260208301356020820152604083013560408201526060830135611851816117e4565b60608201526080830135611864816117b2565b60808201529392505050565b60008060006060848603121561188557600080fd5b8335925060208401356118978161156e565b91506040840135600f81106118ab57600080fd5b809150509250925092565b600080604083850312156118c957600080fd5b50508035926020909101359150565b634e487b7160e01b600052603260045260246000fd5b8060005b60028110156119115781518452602093840193909101906001016118f2565b50505050565b8060005b600881101561191157815184526020938401939091019060010161191b565b610220810161194982886118ee565b6040808301876000805b6002808210611962575061199c565b835185845b83811015611985578251825260209283019290910190600101611967565b505050938501935060209290920191600101611953565b50505050506119ae60c08301866118ee565b6119bc610100830185611917565b8215156102008301529695505050505050565b634e487b7160e01b600052601160045260246000fd5b6000828210156119f7576119f76119cf565b500390565b8051611a07816117b2565b919050565b600060208284031215611a1e57600080fd5b81516117dd816117b2565b805160048110611a0757600080fd5b600060208284031215611a4a57600080fd5b6117dd82611a29565b634e487b7160e01b600052602160045260246000fd5b60048110611a7957611a79611a53565b9052565b60058110611a7957611a79611a53565b600060e082019050825182526020830151602083015260408301516040830152606083015160608301526080830151611ac96080840182611a69565b5060a0830151611adc60a0840182611a7d565b5060c0928301511515919092015290565b60008219821115611b0057611b006119cf565b500190565b600f8110611a7957611a79611a53565b60208101611b238284611b05565b92915050565b8381526001600160a01b038316602082015260608101611b4c6040830184611b05565b949350505050565b600060208284031215611b6657600080fd5b5051919050565b60068110611a7957611a79611a53565b600b8110611a7957611a79611a53565b80516001600160a01b031682526020810151602083015260408101516040830152606081015160608301526080810151608083015260a081015160a083015260c081015160c083015260e081015160e083015261010080820151818401525061012080820151818401525061014080820151818401525061016080820151611c1782850182611a7d565b50506101808181015180151584830152611911565b8051151582526020810151602083015260408101516040830152606081015160608301526080810151611c626080840182611a69565b5060a081015160a083015260c081015160c083015260e081015160e083015261010080820151818401525061012080820151611ca18285018215159052565b505061014081810151908301526101608082015115159083015261018090810151910152565b845115158152610580810160208601516020830152604086015160408301526060860151611cf86060840182611b6d565b506080860151611d0b6080840182611b7d565b5060a086015160a083015260c0860151611d3060c08401826001600160a01b03169052565b5060e0860151611d4360e0840182611b05565b506101008681015190830152610120808701519083015261014080870151908301526101608087015190830152610180808701516001600160a01b031690830152611d926101a0830186611b8d565b611da0610340830185611c2c565b825115156104e0830152602083015161050083015260408301516001600160a01b03908116610520840152606084015161054084015260808401511661056083015295945050505050565b8051611a078161156e565b8051611a07816117e4565b60006101a08284031215611e1457600080fd5b611e1c611599565b9050611e27826119fc565b8152602082015160208201526040820151604082015260608201516060820152611e5360808301611a29565b608082015260a082015160a082015260c082015160c082015260e082015160e0820152610100808301518183015250610120611e908184016119fc565b908201526101408281015190820152610160611ead8184016119fc565b818301525061018080830151818301525092915050565b600060a08284031215611ed657600080fd5b60405160a0810181811067ffffffffffffffff82111715611ef957611ef9611583565b80604052508091508251611f0c816117b2565b8152602083810151908201526040830151611f268161156e565b6040820152606083810151908201526080830151611f438161156e565b6080919091015292915050565b60008060008385036103e0811215611f6757600080fd5b6101a080821215611f7757600080fd5b611f7f611599565b9150611f8a86611deb565b82526020860151602083015260408601516040830152606086015160608301526080860151608083015260a086015160a083015260c086015160c083015260e086015160e0830152610100808701518184015250610120808701518184015250610140808701518184015250610160612004818801611df6565b908301526101806120168782016119fc565b818401525081945061202a87828801611e01565b9350505061203c856103408601611ec4565b9050925092509256fea2646970667358221220ecfbcbe1e39bbb112d8e84182d87eaff55af2bec22edc599a813a2fdf7fd6d1664736f6c634300080d0033",
    "sourcePath": "/Users/lele/Downloads/eth-master/contracts/facets/DFAdminFacet.sol",
    "compiler": {
        "name": "solc",
        "version": "0.8.13+commit.abaa5c0e"
    },
    "functionHashes": {
        "addScore(address,uint256)": "d119db4c",
        "adminGiveSpaceShip(uint256,address,uint8)": "e3aecc54",
        "adminInitializePlanet(uint256,uint256)": "f1cb497a",
        "adminSetWorldRadius(uint256)": "50e1ade3",
        "changeLocationRevealCooldown(uint256)": "02531a47",
        "changeWorldRadiusMin(uint256)": "32d5cef4",
        "createPlanet((uint256,uint256,uint256,uint8,bool))": "bcb324d8",
        "deductScore(address,uint256)": "7b05ea6e",
        "pause()": "8456cb59",
        "safeSetOwner(address,uint256[2],uint256[2][2],uint256[2],uint256[8])": "19ce7526",
        "setOwner(uint256,address)": "7fd39247",
        "setPlanetTransferEnabled(bool)": "944e6679",
        "setTokenMintEndTime(uint256)": "ea8046a0",
        "unpause()": "3f4ba83a",
        "withdraw()": "3ccfd60b"
    },
    "gasEstimates": {
        "creation": {
            "codeDepositCost": "1663000",
            "executionCost": "1743",
            "totalCost": "1664743"
        },
        "external": {
            "addScore(address,uint256)": "29082",
            "adminGiveSpaceShip(uint256,address,uint8)": "infinite",
            "adminInitializePlanet(uint256,uint256)": "infinite",
            "adminSetWorldRadius(uint256)": "24599",
            "changeLocationRevealCooldown(uint256)": "24518",
            "changeWorldRadiusMin(uint256)": "infinite",
            "createPlanet((uint256,uint256,uint256,uint8,bool))": "infinite",
            "deductScore(address,uint256)": "31278",
            "pause()": "infinite",
            "safeSetOwner(address,uint256[2],uint256[2][2],uint256[2],uint256[8])": "infinite",
            "setOwner(uint256,address)": "28239",
            "setPlanetTransferEnabled(bool)": "26760",
            "setTokenMintEndTime(uint256)": "24598",
            "unpause()": "infinite",
            "withdraw()": "infinite"
        }
    }
}