{
    "contractName": "DFArtifactFacet",
    "abi": [
        {
            "anonymous": false,
            "inputs": [
                {
                    "indexed": true,
                    "internalType": "address",
                    "name": "owner",
                    "type": "address"
                },
                {
                    "indexed": true,
                    "internalType": "address",
                    "name": "operator",
                    "type": "address"
                },
                {
                    "indexed": true,
                    "internalType": "uint256",
                    "name": "tokenId",
                    "type": "uint256"
                }
            ],
            "name": "Approval",
            "type": "event"
        },
        {
            "anonymous": false,
            "inputs": [
                {
                    "indexed": true,
                    "internalType": "address",
                    "name": "owner",
                    "type": "address"
                },
                {
                    "indexed": true,
                    "internalType": "address",
                    "name": "operator",
                    "type": "address"
                },
                {
                    "indexed": false,
                    "internalType": "bool",
                    "name": "approved",
                    "type": "bool"
                }
            ],
            "name": "ApprovalForAll",
            "type": "event"
        },
        {
            "anonymous": false,
            "inputs": [
                {
                    "indexed": false,
                    "internalType": "address",
                    "name": "player",
                    "type": "address"
                },
                {
                    "indexed": false,
                    "internalType": "uint256",
                    "name": "artifactId",
                    "type": "uint256"
                },
                {
                    "indexed": false,
                    "internalType": "uint256",
                    "name": "loc",
                    "type": "uint256"
                }
            ],
            "name": "ArtifactActivated",
            "type": "event"
        },
        {
            "anonymous": false,
            "inputs": [
                {
                    "indexed": false,
                    "internalType": "address",
                    "name": "player",
                    "type": "address"
                },
                {
                    "indexed": false,
                    "internalType": "uint256",
                    "name": "artifactId",
                    "type": "uint256"
                },
                {
                    "indexed": false,
                    "internalType": "uint256",
                    "name": "loc",
                    "type": "uint256"
                }
            ],
            "name": "ArtifactDeactivated",
            "type": "event"
        },
        {
            "anonymous": false,
            "inputs": [
                {
                    "indexed": false,
                    "internalType": "address",
                    "name": "player",
                    "type": "address"
                },
                {
                    "indexed": false,
                    "internalType": "uint256",
                    "name": "artifactId",
                    "type": "uint256"
                },
                {
                    "indexed": false,
                    "internalType": "uint256",
                    "name": "loc",
                    "type": "uint256"
                }
            ],
            "name": "ArtifactDeposited",
            "type": "event"
        },
        {
            "anonymous": false,
            "inputs": [
                {
                    "indexed": false,
                    "internalType": "address",
                    "name": "player",
                    "type": "address"
                },
                {
                    "indexed": false,
                    "internalType": "uint256",
                    "name": "artifactId",
                    "type": "uint256"
                },
                {
                    "indexed": false,
                    "internalType": "uint256",
                    "name": "loc",
                    "type": "uint256"
                }
            ],
            "name": "ArtifactFound",
            "type": "event"
        },
        {
            "anonymous": false,
            "inputs": [
                {
                    "indexed": false,
                    "internalType": "address",
                    "name": "player",
                    "type": "address"
                },
                {
                    "indexed": false,
                    "internalType": "uint256",
                    "name": "artifactId",
                    "type": "uint256"
                },
                {
                    "indexed": false,
                    "internalType": "uint256",
                    "name": "loc",
                    "type": "uint256"
                }
            ],
            "name": "ArtifactWithdrawn",
            "type": "event"
        },
        {
            "anonymous": false,
            "inputs": [
                {
                    "indexed": false,
                    "internalType": "address",
                    "name": "player",
                    "type": "address"
                },
                {
                    "indexed": false,
                    "internalType": "uint256",
                    "name": "loc",
                    "type": "uint256"
                }
            ],
            "name": "PlanetProspected",
            "type": "event"
        },
        {
            "anonymous": false,
            "inputs": [
                {
                    "indexed": true,
                    "internalType": "address",
                    "name": "from",
                    "type": "address"
                },
                {
                    "indexed": true,
                    "internalType": "address",
                    "name": "to",
                    "type": "address"
                },
                {
                    "indexed": true,
                    "internalType": "uint256",
                    "name": "tokenId",
                    "type": "uint256"
                }
            ],
            "name": "Transfer",
            "type": "event"
        },
        {
            "inputs": [
                {
                    "internalType": "uint256",
                    "name": "locationId",
                    "type": "uint256"
                },
                {
                    "internalType": "uint256",
                    "name": "artifactId",
                    "type": "uint256"
                },
                {
                    "internalType": "uint256",
                    "name": "wormholeTo",
                    "type": "uint256"
                }
            ],
            "name": "activateArtifact",
            "outputs": [],
            "stateMutability": "nonpayable",
            "type": "function"
        },
        {
            "inputs": [
                {
                    "components": [
                        {
                            "internalType": "uint256",
                            "name": "tokenId",
                            "type": "uint256"
                        },
                        {
                            "internalType": "address",
                            "name": "discoverer",
                            "type": "address"
                        },
                        {
                            "internalType": "uint256",
                            "name": "planetId",
                            "type": "uint256"
                        },
                        {
                            "internalType": "enum ArtifactRarity",
                            "name": "rarity",
                            "type": "uint8"
                        },
                        {
                            "internalType": "enum Biome",
                            "name": "biome",
                            "type": "uint8"
                        },
                        {
                            "internalType": "enum ArtifactType",
                            "name": "artifactType",
                            "type": "uint8"
                        },
                        {
                            "internalType": "address",
                            "name": "owner",
                            "type": "address"
                        },
                        {
                            "internalType": "address",
                            "name": "controller",
                            "type": "address"
                        }
                    ],
                    "internalType": "struct DFTCreateArtifactArgs",
                    "name": "args",
                    "type": "tuple"
                }
            ],
            "name": "adminGiveArtifact",
            "outputs": [],
            "stateMutability": "nonpayable",
            "type": "function"
        },
        {
            "inputs": [
                {
                    "internalType": "address",
                    "name": "operator",
                    "type": "address"
                },
                {
                    "internalType": "uint256",
                    "name": "tokenId",
                    "type": "uint256"
                }
            ],
            "name": "approve",
            "outputs": [],
            "stateMutability": "payable",
            "type": "function"
        },
        {
            "inputs": [
                {
                    "internalType": "address",
                    "name": "account",
                    "type": "address"
                }
            ],
            "name": "balanceOf",
            "outputs": [
                {
                    "internalType": "uint256",
                    "name": "",
                    "type": "uint256"
                }
            ],
            "stateMutability": "view",
            "type": "function"
        },
        {
            "inputs": [
                {
                    "components": [
                        {
                            "internalType": "uint256",
                            "name": "tokenId",
                            "type": "uint256"
                        },
                        {
                            "internalType": "address",
                            "name": "discoverer",
                            "type": "address"
                        },
                        {
                            "internalType": "uint256",
                            "name": "planetId",
                            "type": "uint256"
                        },
                        {
                            "internalType": "enum ArtifactRarity",
                            "name": "rarity",
                            "type": "uint8"
                        },
                        {
                            "internalType": "enum Biome",
                            "name": "biome",
                            "type": "uint8"
                        },
                        {
                            "internalType": "enum ArtifactType",
                            "name": "artifactType",
                            "type": "uint8"
                        },
                        {
                            "internalType": "address",
                            "name": "owner",
                            "type": "address"
                        },
                        {
                            "internalType": "address",
                            "name": "controller",
                            "type": "address"
                        }
                    ],
                    "internalType": "struct DFTCreateArtifactArgs",
                    "name": "args",
                    "type": "tuple"
                }
            ],
            "name": "createArtifact",
            "outputs": [
                {
                    "components": [
                        {
                            "internalType": "bool",
                            "name": "isInitialized",
                            "type": "bool"
                        },
                        {
                            "internalType": "uint256",
                            "name": "id",
                            "type": "uint256"
                        },
                        {
                            "internalType": "uint256",
                            "name": "planetDiscoveredOn",
                            "type": "uint256"
                        },
                        {
                            "internalType": "enum ArtifactRarity",
                            "name": "rarity",
                            "type": "uint8"
                        },
                        {
                            "internalType": "enum Biome",
                            "name": "planetBiome",
                            "type": "uint8"
                        },
                        {
                            "internalType": "uint256",
                            "name": "mintedAtTimestamp",
                            "type": "uint256"
                        },
                        {
                            "internalType": "address",
                            "name": "discoverer",
                            "type": "address"
                        },
                        {
                            "internalType": "enum ArtifactType",
                            "name": "artifactType",
                            "type": "uint8"
                        },
                        {
                            "internalType": "uint256",
                            "name": "activations",
                            "type": "uint256"
                        },
                        {
                            "internalType": "uint256",
                            "name": "lastActivated",
                            "type": "uint256"
                        },
                        {
                            "internalType": "uint256",
                            "name": "lastDeactivated",
                            "type": "uint256"
                        },
                        {
                            "internalType": "uint256",
                            "name": "wormholeTo",
                            "type": "uint256"
                        },
                        {
                            "internalType": "address",
                            "name": "controller",
                            "type": "address"
                        }
                    ],
                    "internalType": "struct Artifact",
                    "name": "",
                    "type": "tuple"
                }
            ],
            "stateMutability": "nonpayable",
            "type": "function"
        },
        {
            "inputs": [
                {
                    "internalType": "uint256",
                    "name": "locationId",
                    "type": "uint256"
                }
            ],
            "name": "deactivateArtifact",
            "outputs": [],
            "stateMutability": "nonpayable",
            "type": "function"
        },
        {
            "inputs": [
                {
                    "internalType": "uint256",
                    "name": "locationId",
                    "type": "uint256"
                },
                {
                    "internalType": "uint256",
                    "name": "artifactId",
                    "type": "uint256"
                }
            ],
            "name": "depositArtifact",
            "outputs": [],
            "stateMutability": "nonpayable",
            "type": "function"
        },
        {
            "inputs": [
                {
                    "internalType": "uint256",
                    "name": "tokenId",
                    "type": "uint256"
                }
            ],
            "name": "doesArtifactExist",
            "outputs": [
                {
                    "internalType": "bool",
                    "name": "",
                    "type": "bool"
                }
            ],
            "stateMutability": "view",
            "type": "function"
        },
        {
            "inputs": [
                {
                    "internalType": "uint256[2]",
                    "name": "_a",
                    "type": "uint256[2]"
                },
                {
                    "internalType": "uint256[2][2]",
                    "name": "_b",
                    "type": "uint256[2][2]"
                },
                {
                    "internalType": "uint256[2]",
                    "name": "_c",
                    "type": "uint256[2]"
                },
                {
                    "internalType": "uint256[7]",
                    "name": "_input",
                    "type": "uint256[7]"
                }
            ],
            "name": "findArtifact",
            "outputs": [],
            "stateMutability": "nonpayable",
            "type": "function"
        },
        {
            "inputs": [
                {
                    "internalType": "uint256",
                    "name": "tokenId",
                    "type": "uint256"
                }
            ],
            "name": "getApproved",
            "outputs": [
                {
                    "internalType": "address",
                    "name": "",
                    "type": "address"
                }
            ],
            "stateMutability": "view",
            "type": "function"
        },
        {
            "inputs": [
                {
                    "internalType": "uint256",
                    "name": "tokenId",
                    "type": "uint256"
                }
            ],
            "name": "getArtifact",
            "outputs": [
                {
                    "components": [
                        {
                            "internalType": "bool",
                            "name": "isInitialized",
                            "type": "bool"
                        },
                        {
                            "internalType": "uint256",
                            "name": "id",
                            "type": "uint256"
                        },
                        {
                            "internalType": "uint256",
                            "name": "planetDiscoveredOn",
                            "type": "uint256"
                        },
                        {
                            "internalType": "enum ArtifactRarity",
                            "name": "rarity",
                            "type": "uint8"
                        },
                        {
                            "internalType": "enum Biome",
                            "name": "planetBiome",
                            "type": "uint8"
                        },
                        {
                            "internalType": "uint256",
                            "name": "mintedAtTimestamp",
                            "type": "uint256"
                        },
                        {
                            "internalType": "address",
                            "name": "discoverer",
                            "type": "address"
                        },
                        {
                            "internalType": "enum ArtifactType",
                            "name": "artifactType",
                            "type": "uint8"
                        },
                        {
                            "internalType": "uint256",
                            "name": "activations",
                            "type": "uint256"
                        },
                        {
                            "internalType": "uint256",
                            "name": "lastActivated",
                            "type": "uint256"
                        },
                        {
                            "internalType": "uint256",
                            "name": "lastDeactivated",
                            "type": "uint256"
                        },
                        {
                            "internalType": "uint256",
                            "name": "wormholeTo",
                            "type": "uint256"
                        },
                        {
                            "internalType": "address",
                            "name": "controller",
                            "type": "address"
                        }
                    ],
                    "internalType": "struct Artifact",
                    "name": "",
                    "type": "tuple"
                }
            ],
            "stateMutability": "view",
            "type": "function"
        },
        {
            "inputs": [
                {
                    "internalType": "uint256",
                    "name": "idx",
                    "type": "uint256"
                }
            ],
            "name": "getArtifactAtIndex",
            "outputs": [
                {
                    "components": [
                        {
                            "internalType": "bool",
                            "name": "isInitialized",
                            "type": "bool"
                        },
                        {
                            "internalType": "uint256",
                            "name": "id",
                            "type": "uint256"
                        },
                        {
                            "internalType": "uint256",
                            "name": "planetDiscoveredOn",
                            "type": "uint256"
                        },
                        {
                            "internalType": "enum ArtifactRarity",
                            "name": "rarity",
                            "type": "uint8"
                        },
                        {
                            "internalType": "enum Biome",
                            "name": "planetBiome",
                            "type": "uint8"
                        },
                        {
                            "internalType": "uint256",
                            "name": "mintedAtTimestamp",
                            "type": "uint256"
                        },
                        {
                            "internalType": "address",
                            "name": "discoverer",
                            "type": "address"
                        },
                        {
                            "internalType": "enum ArtifactType",
                            "name": "artifactType",
                            "type": "uint8"
                        },
                        {
                            "internalType": "uint256",
                            "name": "activations",
                            "type": "uint256"
                        },
                        {
                            "internalType": "uint256",
                            "name": "lastActivated",
                            "type": "uint256"
                        },
                        {
                            "internalType": "uint256",
                            "name": "lastDeactivated",
                            "type": "uint256"
                        },
                        {
                            "internalType": "uint256",
                            "name": "wormholeTo",
                            "type": "uint256"
                        },
                        {
                            "internalType": "address",
                            "name": "controller",
                            "type": "address"
                        }
                    ],
                    "internalType": "struct Artifact",
                    "name": "",
                    "type": "tuple"
                }
            ],
            "stateMutability": "view",
            "type": "function"
        },
        {
            "inputs": [
                {
                    "internalType": "address",
                    "name": "playerId",
                    "type": "address"
                }
            ],
            "name": "getPlayerArtifactIds",
            "outputs": [
                {
                    "internalType": "uint256[]",
                    "name": "",
                    "type": "uint256[]"
                }
            ],
            "stateMutability": "view",
            "type": "function"
        },
        {
            "inputs": [
                {
                    "internalType": "uint256",
                    "name": "locationId",
                    "type": "uint256"
                }
            ],
            "name": "giveSpaceShips",
            "outputs": [],
            "stateMutability": "nonpayable",
            "type": "function"
        },
        {
            "inputs": [
                {
                    "internalType": "address",
                    "name": "account",
                    "type": "address"
                },
                {
                    "internalType": "address",
                    "name": "operator",
                    "type": "address"
                }
            ],
            "name": "isApprovedForAll",
            "outputs": [
                {
                    "internalType": "bool",
                    "name": "",
                    "type": "bool"
                }
            ],
            "stateMutability": "view",
            "type": "function"
        },
        {
            "inputs": [],
            "name": "name",
            "outputs": [
                {
                    "internalType": "string",
                    "name": "",
                    "type": "string"
                }
            ],
            "stateMutability": "view",
            "type": "function"
        },
        {
            "inputs": [
                {
                    "internalType": "uint256",
                    "name": "tokenId",
                    "type": "uint256"
                }
            ],
            "name": "ownerOf",
            "outputs": [
                {
                    "internalType": "address",
                    "name": "",
                    "type": "address"
                }
            ],
            "stateMutability": "view",
            "type": "function"
        },
        {
            "inputs": [
                {
                    "internalType": "uint256",
                    "name": "locationId",
                    "type": "uint256"
                }
            ],
            "name": "prospectPlanet",
            "outputs": [],
            "stateMutability": "nonpayable",
            "type": "function"
        },
        {
            "inputs": [
                {
                    "internalType": "address",
                    "name": "from",
                    "type": "address"
                },
                {
                    "internalType": "address",
                    "name": "to",
                    "type": "address"
                },
                {
                    "internalType": "uint256",
                    "name": "tokenId",
                    "type": "uint256"
                }
            ],
            "name": "safeTransferFrom",
            "outputs": [],
            "stateMutability": "payable",
            "type": "function"
        },
        {
            "inputs": [
                {
                    "internalType": "address",
                    "name": "from",
                    "type": "address"
                },
                {
                    "internalType": "address",
                    "name": "to",
                    "type": "address"
                },
                {
                    "internalType": "uint256",
                    "name": "tokenId",
                    "type": "uint256"
                },
                {
                    "internalType": "bytes",
                    "name": "data",
                    "type": "bytes"
                }
            ],
            "name": "safeTransferFrom",
            "outputs": [],
            "stateMutability": "payable",
            "type": "function"
        },
        {
            "inputs": [
                {
                    "internalType": "address",
                    "name": "operator",
                    "type": "address"
                },
                {
                    "internalType": "bool",
                    "name": "status",
                    "type": "bool"
                }
            ],
            "name": "setApprovalForAll",
            "outputs": [],
            "stateMutability": "nonpayable",
            "type": "function"
        },
        {
            "inputs": [
                {
                    "internalType": "bytes4",
                    "name": "interfaceId",
                    "type": "bytes4"
                }
            ],
            "name": "supportsInterface",
            "outputs": [
                {
                    "internalType": "bool",
                    "name": "",
                    "type": "bool"
                }
            ],
            "stateMutability": "view",
            "type": "function"
        },
        {
            "inputs": [],
            "name": "symbol",
            "outputs": [
                {
                    "internalType": "string",
                    "name": "",
                    "type": "string"
                }
            ],
            "stateMutability": "view",
            "type": "function"
        },
        {
            "inputs": [
                {
                    "internalType": "uint256",
                    "name": "index",
                    "type": "uint256"
                }
            ],
            "name": "tokenByIndex",
            "outputs": [
                {
                    "internalType": "uint256",
                    "name": "",
                    "type": "uint256"
                }
            ],
            "stateMutability": "view",
            "type": "function"
        },
        {
            "inputs": [
                {
                    "internalType": "address",
                    "name": "owner",
                    "type": "address"
                },
                {
                    "internalType": "uint256",
                    "name": "index",
                    "type": "uint256"
                }
            ],
            "name": "tokenOfOwnerByIndex",
            "outputs": [
                {
                    "internalType": "uint256",
                    "name": "",
                    "type": "uint256"
                }
            ],
            "stateMutability": "view",
            "type": "function"
        },
        {
            "inputs": [
                {
                    "internalType": "uint256",
                    "name": "tokenId",
                    "type": "uint256"
                }
            ],
            "name": "tokenURI",
            "outputs": [
                {
                    "internalType": "string",
                    "name": "",
                    "type": "string"
                }
            ],
            "stateMutability": "view",
            "type": "function"
        },
        {
            "inputs": [],
            "name": "totalSupply",
            "outputs": [
                {
                    "internalType": "uint256",
                    "name": "",
                    "type": "uint256"
                }
            ],
            "stateMutability": "view",
            "type": "function"
        },
        {
            "inputs": [
                {
                    "internalType": "uint256",
                    "name": "tokenId",
                    "type": "uint256"
                },
                {
                    "internalType": "address",
                    "name": "newOwner",
                    "type": "address"
                }
            ],
            "name": "transferArtifact",
            "outputs": [],
            "stateMutability": "nonpayable",
            "type": "function"
        },
        {
            "inputs": [
                {
                    "internalType": "address",
                    "name": "from",
                    "type": "address"
                },
                {
                    "internalType": "address",
                    "name": "to",
                    "type": "address"
                },
                {
                    "internalType": "uint256",
                    "name": "tokenId",
                    "type": "uint256"
                }
            ],
            "name": "transferFrom",
            "outputs": [],
            "stateMutability": "payable",
            "type": "function"
        },
        {
            "inputs": [
                {
                    "components": [
                        {
                            "internalType": "bool",
                            "name": "isInitialized",
                            "type": "bool"
                        },
                        {
                            "internalType": "uint256",
                            "name": "id",
                            "type": "uint256"
                        },
                        {
                            "internalType": "uint256",
                            "name": "planetDiscoveredOn",
                            "type": "uint256"
                        },
                        {
                            "internalType": "enum ArtifactRarity",
                            "name": "rarity",
                            "type": "uint8"
                        },
                        {
                            "internalType": "enum Biome",
                            "name": "planetBiome",
                            "type": "uint8"
                        },
                        {
                            "internalType": "uint256",
                            "name": "mintedAtTimestamp",
                            "type": "uint256"
                        },
                        {
                            "internalType": "address",
                            "name": "discoverer",
                            "type": "address"
                        },
                        {
                            "internalType": "enum ArtifactType",
                            "name": "artifactType",
                            "type": "uint8"
                        },
                        {
                            "internalType": "uint256",
                            "name": "activations",
                            "type": "uint256"
                        },
                        {
                            "internalType": "uint256",
                            "name": "lastActivated",
                            "type": "uint256"
                        },
                        {
                            "internalType": "uint256",
                            "name": "lastDeactivated",
                            "type": "uint256"
                        },
                        {
                            "internalType": "uint256",
                            "name": "wormholeTo",
                            "type": "uint256"
                        },
                        {
                            "internalType": "address",
                            "name": "controller",
                            "type": "address"
                        }
                    ],
                    "internalType": "struct Artifact",
                    "name": "updatedArtifact",
                    "type": "tuple"
                }
            ],
            "name": "updateArtifact",
            "outputs": [],
            "stateMutability": "nonpayable",
            "type": "function"
        },
        {
            "inputs": [
                {
                    "internalType": "uint256",
                    "name": "locationId",
                    "type": "uint256"
                },
                {
                    "internalType": "uint256",
                    "name": "artifactId",
                    "type": "uint256"
                }
            ],
            "name": "withdrawArtifact",
            "outputs": [],
            "stateMutability": "nonpayable",
            "type": "function"
        }
    ],
    "bytecode": "608060405234801561001057600080fd5b50614370806100206000396000f3fe6080604052600436106101d85760003560e01c806370a0823111610102578063a22cb46511610095578063c918aebd11610064578063c918aebd1461054c578063d72fd4111461056c578063e76aa4291461058c578063e985e9c5146105ac57600080fd5b8063a22cb465146104d9578063b88d4fde146104f9578063c429fee81461050c578063c87b56dd1461052c57600080fd5b80639513a2ad116100d15780639513a2ad1461046457806395d89b411461048457806398d042f214610499578063991182da146104b957600080fd5b806370a08231146103e457806370e0f0ce146104045780638465ad441461042457806392d93a121461044457600080fd5b80631f94f5401161017a578063314d1ff711610149578063314d1ff71461036457806342842e0e146103915780634f6ccce7146103a45780636352211e146103c457600080fd5b80631f94f540146102f1578063204155f41461031157806323b872dd146103315780632f745c591461034457600080fd5b8063095ea7b3116101b6578063095ea7b31461026c5780630be72d831461028157806318160ddd146102ae5780631cff9804146102d157600080fd5b806301ffc9a7146101dd57806306fdde0314610212578063081812fc14610234575b600080fd5b3480156101e957600080fd5b506101fd6101f836600461371c565b6105cc565b60405190151581526020015b60405180910390f35b34801561021e57600080fd5b5061022761060f565b6040516102099190613791565b34801561024057600080fd5b5061025461024f3660046137a4565b6106c0565b6040516001600160a01b039091168152602001610209565b61027f61027a3660046137d4565b6106cb565b005b34801561028d57600080fd5b506102a161029c3660046137a4565b6107f0565b6040516102099190613848565b3480156102ba57600080fd5b506102c361094e565b604051908152602001610209565b3480156102dd57600080fd5b5061027f6102ec3660046137a4565b61095d565b3480156102fd57600080fd5b506101fd61030c3660046137a4565b610f01565b34801561031d57600080fd5b5061027f61032c366004613a09565b610f1d565b61027f61033f366004613ad6565b611142565b34801561035057600080fd5b506102c361035f3660046137d4565b61117f565b34801561037057600080fd5b5061038461037f366004613b12565b611192565b6040516102099190613b2d565b61027f61039f366004613ad6565b611234565b3480156103b057600080fd5b506102c36103bf3660046137a4565b61124f565b3480156103d057600080fd5b506102546103df3660046137a4565b61125a565b3480156103f057600080fd5b506102c36103ff366004613b12565b611265565b34801561041057600080fd5b5061027f61041f366004613b71565b611270565b34801561043057600080fd5b506102a161043f3660046137a4565b6113ac565b34801561045057600080fd5b5061027f61045f366004613b71565b61141c565b34801561047057600080fd5b5061027f61047f366004613b93565b611552565b34801561049057600080fd5b506102276116c7565b3480156104a557600080fd5b5061027f6104b4366004613c0f565b6116f8565b3480156104c557600080fd5b5061027f6104d4366004613ced565b611aa2565b3480156104e557600080fd5b5061027f6104f4366004613d19565b611b23565b61027f610507366004613d50565b611c06565b34801561051857600080fd5b5061027f610527366004613e10565b611c4a565b34801561053857600080fd5b506102276105473660046137a4565b611d86565b34801561055857600080fd5b5061027f6105673660046137a4565b611fd0565b34801561057857600080fd5b506102a1610587366004613e10565b6120c9565b34801561059857600080fd5b5061027f6105a73660046137a4565b6123a0565b3480156105b857600080fd5b506101fd6105c7366004613ec7565b6124d3565b6001600160e01b0319811660009081527f326d0c59a7612f6a9919e2a8ee333c80ba689d8ba2634de89c85cbb04832e705602052604081205460ff165b92915050565b60607f99574a7094154bb123ae6ae102096f0bf9679b85a5cd1e727aaa0ae5f132e6b1805461063d90613ef1565b80601f016020809104026020016040519081016040528092919081815260200182805461066990613ef1565b80156106b65780601f1061068b576101008083540402835291602001916106b6565b820191906000526020600020905b81548152906001019060200180831161069957829003601f168201915b5050505050905090565b6000610609826124df565b6106d6828234612578565b60006106e18261125a565b9050806001600160a01b0316836001600160a01b0316036107535760405162461bcd60e51b815260206004820152602160248201527f4552433732313a20617070726f76616c20746f2063757272656e74206f776e656044820152603960f91b60648201526084015b60405180910390fd5b336001600160a01b038216148061076f575061076f81336124d3565b6107e15760405162461bcd60e51b815260206004820152603860248201527f4552433732313a20617070726f76652063616c6c6572206973206e6f74206f7760448201527f6e6572206e6f7220617070726f76656420666f7220616c6c0000000000000000606482015260840161074a565b6107eb83836125da565b505050565b6107f861363c565b610800612667565b601601600061080e8461124f565b8152602080820192909252604090810160002081516101a081018352815460ff90811615158252600183015494820194909452600282015492810192909252600381015491929091606084019116600581111561086d5761086d6137fe565b600581111561087e5761087e6137fe565b81526020016003820160019054906101000a900460ff16600a8111156108a6576108a66137fe565b600a8111156108b7576108b76137fe565b81526004820154602082015260058201546001600160a01b0381166040830152606090910190600160a01b900460ff16600e8111156108f8576108f86137fe565b600e811115610909576109096137fe565b815260068201546020820152600782015460408201526008820154606082015260098201546080820152600a909101546001600160a01b031660a09091015292915050565b600061095861268b565b905090565b604051633af32abf60e01b81523360048201523090633af32abf90602401602060405180830381865afa158015610998573d6000803e3d6000fd5b505050506040513d601f19601f820116820180604052508101906109bc9190613f2b565b806109df57506109ca6126a4565b6001600160a01b0316336001600160a01b0316145b610a2b5760405162461bcd60e51b815260206004820152601960248201527f506c61796572206973206e6f742077686974656c697374656400000000000000604482015260640161074a565b610a33612667565b336000908152601291909101602052604090206007015460ff1615610a9a5760405162461bcd60e51b815260206004820152601c60248201527f706c6179657220616c726561647920636c61696d656420736869707300000000604482015260640161074a565b33610aa3612667565b6000838152600c9190910160205260409020546001600160a01b0316148015610aee5750610acf612667565b6000828152600c9190910160205260409020600b0154610100900460ff165b610b4f5760405162461bcd60e51b815260206004820152602c60248201527f796f752063616e206f6e6c7920737061776e207368697073206f6e20796f757260448201526b081a1bdb59481c1b185b995d60a21b606482015260840161074a565b6000610b59612667565b6000838152600c91909101602052604080822054905163fa96074f60e01b81526001600160a01b03909116925073__$08a8c16b42bbff68ac2e13e90bef3361ff$__9063fa96074f90610bb59086908690600a90600401613f48565b602060405180830381865af4158015610bd2573d6000803e3d6000fd5b505050506040513d601f19601f82011682018060405250810190610bf69190613f6b565b9050600073__$08a8c16b42bbff68ac2e13e90bef3361ff$__63fa96074f8585600b6040518463ffffffff1660e01b8152600401610c3693929190613f48565b602060405180830381865af4158015610c53573d6000803e3d6000fd5b505050506040513d601f19601f82011682018060405250810190610c779190613f6b565b9050600073__$08a8c16b42bbff68ac2e13e90bef3361ff$__63fa96074f8686600c6040518463ffffffff1660e01b8152600401610cb793929190613f48565b602060405180830381865af4158015610cd4573d6000803e3d6000fd5b505050506040513d601f19601f82011682018060405250810190610cf89190613f6b565b9050600073__$08a8c16b42bbff68ac2e13e90bef3361ff$__63fa96074f8787600d6040518463ffffffff1660e01b8152600401610d3893929190613f48565b602060405180830381865af4158015610d55573d6000803e3d6000fd5b505050506040513d601f19601f82011682018060405250810190610d799190613f6b565b9050600073__$08a8c16b42bbff68ac2e13e90bef3361ff$__63fa96074f8888600e6040518463ffffffff1660e01b8152600401610db993929190613f48565b602060405180830381865af4158015610dd6573d6000803e3d6000fd5b505050506040513d601f19601f82011682018060405250810190610dfa9190613f6b565b90506000805160206142fb833981519152338689604051610e1d93929190613f84565b60405180910390a16000805160206142fb833981519152338589604051610e4693929190613f84565b60405180910390a16000805160206142fb833981519152338489604051610e6f93929190613f84565b60405180910390a16000805160206142fb833981519152338389604051610e9893929190613f84565b60405180910390a16000805160206142fb833981519152338289604051610ec193929190613f84565b60405180910390a16001610ed3612667565b33600090815260129190910160205260409020600701805460ff191691151591909117905550505050505050565b60006106098260008051602061431b8339815191525b906126d2565b610f25612667565b546001600160a01b0316331480610f545750610f3f6126a4565b6001600160a01b0316336001600160a01b0316145b610f705760405162461bcd60e51b815260040161074a90613fa5565b610f8d8160200151610f1760008051602061431b83398151915290565b610ff25760405162461bcd60e51b815260206004820152603060248201527f796f752063616e6e6f742075706461746520616e20617274696661637420746860448201526f185d08191bd95cdb89dd08195e1a5cdd60821b606482015260840161074a565b80610ffb612667565b602080840151600090815260169290920181526040918290208351815490151560ff19918216178255918401516001808301919091559284015160028201556060840151600382018054929491939092169083600581111561105f5761105f6137fe565b0217905550608082015160038201805461ff00191661010083600a811115611089576110896137fe565b021790555060a0820151600482015560c08201516005820180546001600160a01b039092166001600160a01b031983168117825560e0850151926001600160a81b03191617600160a01b83600e8111156110e5576110e56137fe565b0217905550610100820151600682015561012082015160078201556101408201516008820155610160820151600982015561018090910151600a90910180546001600160a01b0319166001600160a01b0390921691909117905550565b61114e838383346126de565b6111583382612746565b6111745760405162461bcd60e51b815260040161074a90614002565b6107eb838383612816565b600061118b83836129d3565b9392505050565b6060600061119f83611265565b905060008167ffffffffffffffff8111156111bc576111bc61390c565b6040519080825280602002602001820160405280156111e5578160200160208202803683370190505b50905060005b8281101561122c576111fd858261117f565b82828151811061120f5761120f614052565b6020908102919091010152806112248161407e565b9150506111eb565b509392505050565b6107eb83838360405180602001604052806000815250611c06565b6000610609826129ee565b600061060982612a08565b600061060982612a73565b611278612667565b54600160a01b900460ff16156112a05760405162461bcd60e51b815260040161074a90614097565b604051633f324cf360e01b81526004810183905273__$5588a372fe54cd4953e82f0bc5932376ed$__90633f324cf39060240160006040518083038186803b1580156112eb57600080fd5b505af41580156112ff573d6000803e3d6000fd5b5050604051633870786760e11b8152600481018590526024810184905273__$08a8c16b42bbff68ac2e13e90bef3361ff$__92506370e0f0ce915060440160006040518083038186803b15801561135557600080fd5b505af4158015611369573d6000803e3d6000fd5b505050507f48ad4f34e4e8702c2cce499eb073f2d87362784e89bd342cc867ddbaf6e58c113382846040516113a093929190613f84565b60405180910390a15050565b6113b461363c565b6113bc612667565b6000838152601691909101602090815260409182902082516101a081018452815460ff9081161515825260018301549382019390935260028201549381019390935260038101549091606084019116600581111561086d5761086d6137fe565b611424612667565b54600160a01b900460ff161561144c5760405162461bcd60e51b815260040161074a90614097565b604051633f324cf360e01b81526004810183905273__$5588a372fe54cd4953e82f0bc5932376ed$__90633f324cf39060240160006040518083038186803b15801561149757600080fd5b505af41580156114ab573d6000803e3d6000fd5b5050604051630a7d0cc360e41b8152600481018590526024810184905230604482015273__$08a8c16b42bbff68ac2e13e90bef3361ff$__925063a7d0cc30915060640160006040518083038186803b15801561150757600080fd5b505af415801561151b573d6000803e3d6000fd5b505050507f59545c981f6380604ebc25911ef7315d4175b9ab6c0fbf03409eb3b17220bb513382846040516113a093929190613f84565b61155a612667565b54600160a01b900460ff16156115825760405162461bcd60e51b815260040161074a90614097565b604051633f324cf360e01b81526004810184905273__$5588a372fe54cd4953e82f0bc5932376ed$__90633f324cf39060240160006040518083038186803b1580156115cd57600080fd5b505af41580156115e1573d6000803e3d6000fd5b505050508060001461165157604051633f324cf360e01b81526004810182905273__$5588a372fe54cd4953e82f0bc5932376ed$__90633f324cf39060240160006040518083038186803b15801561163857600080fd5b505af415801561164c573d6000803e3d6000fd5b505050505b604051639513a2ad60e01b815260048101849052602481018390526044810182905273__$08a8c16b42bbff68ac2e13e90bef3361ff$__90639513a2ad9060640160006040518083038186803b1580156116aa57600080fd5b505af41580156116be573d6000803e3d6000fd5b50505050505050565b60607f99574a7094154bb123ae6ae102096f0bf9679b85a5cd1e727aaa0ae5f132e6b1600101805461063d90613ef1565b611700612667565b54600160a01b900460ff16156117285760405162461bcd60e51b815260040161074a90614097565b611730612667565b6001015442106117825760405162461bcd60e51b815260206004820152601b60248201527f546f6b656e206d696e7420706572696f642068617320656e6465640000000000604482015260640161074a565b80516020808301516040805160a08101825281860151815260608087015194820194909452608086015191810191909152909173__$6b7b4f300876ea7c4892437e01c3ce569a$__916326c7e61891810186600560200201518152602001866006600781106117f3576117f3614052565b602002015181525060016040518363ffffffff1660e01b815260040161181a9291906140bf565b602060405180830381865af4158015611837573d6000803e3d6000fd5b505050506040513d601f19601f8201168201806040525081019061185b9190613f2b565b50604051633f324cf360e01b81526004810183905273__$5588a372fe54cd4953e82f0bc5932376ed$__90633f324cf39060240160006040518083038186803b1580156118a757600080fd5b505af41580156118bb573d6000803e3d6000fd5b505050506118e67f2849cb27302bb32c0c7252ab45487d42296bcddad804f932e0b0589e515a937490565b5460ff166119c7576040516313c3e6cf60e31b815273__$3d6e8b05f53a3662324d76e554a41ef6b3$__90639e1f36789061192b90899089908990899060040161411c565b602060405180830381865af4158015611948573d6000803e3d6000fd5b505050506040513d601f19601f8201168201806040525081019061196c9190613f2b565b6119c75760405162461bcd60e51b815260206004820152602660248201527f62696f6d65207a6b534e41524b206661696c656420646f65736e27742063686560448201526518dac81bdd5d60d21b606482015260840161074a565b60408051606081018252838152602081018381523082840190815292516376293ff160e01b81529151600483015251602482015290516001600160a01b0316604482015260009073__$08a8c16b42bbff68ac2e13e90bef3361ff$__906376293ff190606401602060405180830381865af4158015611a4a573d6000803e3d6000fd5b505050506040513d601f19601f82011682018060405250810190611a6e9190613f6b565b90506000805160206142fb833981519152338285604051611a9193929190613f84565b60405180910390a150505050505050565b611aaa612667565b546001600160a01b0316331480611ad95750611ac46126a4565b6001600160a01b0316336001600160a01b0316145b611af55760405162461bcd60e51b815260040161074a90613fa5565b6001600160a01b038116611b1057611b0c82612b1e565b5050565b611b0c611b1c8361125a565b8284612816565b336001600160a01b03831603611b7b5760405162461bcd60e51b815260206004820152601960248201527f4552433732313a20617070726f766520746f2063616c6c657200000000000000604482015260640161074a565b3360008181527f3c7bf052874fa81625121783266a03507bd2cd48b16e571c01a04e8dd3fb07aa602090815260408083206001600160a01b03871680855290835292819020805460ff191686151590811790915590519081529192917f17307eab39ab6107e8899845ad3d59bd9653f200f220920489ca2b5937696c31910160405180910390a35050565b611c12848484346126de565b611c1c3383612746565b611c385760405162461bcd60e51b815260040161074a90614002565b611c4484848484612bdc565b50505050565b611c526126a4565b6001600160a01b0316336001600160a01b031614611cc65760405162461bcd60e51b815260206004820152602b60248201527f4f6e6c792041646d696e20616464726573732063616e20706572666f726d207460448201526a3434b99030b1ba34b7b71760a91b606482015260840161074a565b6000611cd1826120c9565b9050611ce1816020015130611aa2565b60208101516040808401519051637418b16160e11b815273__$6b7b4f300876ea7c4892437e01c3ce569a$__9263e83162c292611d2992600401918252602082015260400190565b60006040518083038186803b158015611d4157600080fd5b505af4158015611d55573d6000803e3d6000fd5b505050506000805160206142fb8339815191528260c00151826020015184604001516040516113a093929190613f84565b6060611da08260008051602061431b833981519152610f17565b611e045760405162461bcd60e51b815260206004820152602f60248201527f4552433732314d657461646174613a2055524920717565727920666f72206e6f60448201526e3732bc34b9ba32b73a103a37b5b2b760891b606482015260840161074a565b60008281527f99574a7094154bb123ae6ae102096f0bf9679b85a5cd1e727aaa0ae5f132e6b46020526040812080547f99574a7094154bb123ae6ae102096f0bf9679b85a5cd1e727aaa0ae5f132e6b1929190611e6090613ef1565b80601f0160208091040260200160405190810160405280929190818152602001828054611e8c90613ef1565b8015611ed95780601f10611eae57610100808354040283529160200191611ed9565b820191906000526020600020905b815481529060010190602001808311611ebc57829003601f168201915b505050505090506000826002018054611ef190613ef1565b80601f0160208091040260200160405190810160405280929190818152602001828054611f1d90613ef1565b8015611f6a5780601f10611f3f57610100808354040283529160200191611f6a565b820191906000526020600020905b815481529060010190602001808311611f4d57829003601f168201915b505050505090508051600003611f8257509392505050565b815115611fb5578082604051602001611f9c9291906141a0565b6040516020818303038152906040529350505050919050565b80611fbf86612c5a565b604051602001611f9c9291906141a0565b611fd8612667565b54600160a01b900460ff16156120005760405162461bcd60e51b815260040161074a90614097565b604051633f324cf360e01b81526004810182905273__$5588a372fe54cd4953e82f0bc5932376ed$__90633f324cf39060240160006040518083038186803b15801561204b57600080fd5b505af415801561205f573d6000803e3d6000fd5b505060405163c918aebd60e01b81526004810184905273__$08a8c16b42bbff68ac2e13e90bef3361ff$__925063c918aebd915060240160006040518083038186803b1580156120ae57600080fd5b505af41580156120c2573d6000803e3d6000fd5b5050505050565b6120d161363c565b6120d9612667565b546001600160a01b031633148061210857506120f36126a4565b6001600160a01b0316336001600160a01b0316145b6121245760405162461bcd60e51b815260040161074a90613fa5565b8151600111156121765760405162461bcd60e51b815260206004820152601c60248201527f6172746966616374206964206d75737420626520706f73697469766500000000604482015260640161074a565b6121888260c001518360000151612d5b565b6000604051806101a001604052806001151581526020018460000151815260200184604001518152602001846060015160058111156121c9576121c96137fe565b81526020018460800151600a8111156121e4576121e46137fe565b815260200142815260200184602001516001600160a01b031681526020018460a00151600e811115612218576122186137fe565b8152602001600081526020016000815260200160008152602001600081526020018460e001516001600160a01b0316815250905080612255612667565b8451600090815260169190910160209081526040918290208351815490151560ff1991821617825591840151600180830191909155928401516002820155606084015160038201805492949193909216908360058111156122b8576122b86137fe565b0217905550608082015160038201805461ff00191661010083600a8111156122e2576122e26137fe565b021790555060a0820151600482015560c08201516005820180546001600160a01b039092166001600160a01b031983168117825560e0850151926001600160a81b03191617600160a01b83600e81111561233e5761233e6137fe565b0217905550610100820151600682015561012082015160078201556101408201516008820155610160820151600982015561018090910151600a90910180546001600160a01b0319166001600160a01b0390921691909117905590505b919050565b6123a8612667565b54600160a01b900460ff16156123d05760405162461bcd60e51b815260040161074a90614097565b604051633f324cf360e01b81526004810182905273__$5588a372fe54cd4953e82f0bc5932376ed$__90633f324cf39060240160006040518083038186803b15801561241b57600080fd5b505af415801561242f573d6000803e3d6000fd5b505060405163e76aa42960e01b81526004810184905273__$08a8c16b42bbff68ac2e13e90bef3361ff$__925063e76aa429915060240160006040518083038186803b15801561247e57600080fd5b505af4158015612492573d6000803e3d6000fd5b505060408051338152602081018590527f133e35e21e24fa1cd40129f5e449f8fe1bffd66bf86383ff2b1f6d39d680d6e1935001905060405180910390a150565b600061118b8383612e91565b600060008051602061431b8339815191526124fa81846126d2565b61255b5760405162461bcd60e51b815260206004820152602c60248201527f4552433732313a20617070726f76656420717565727920666f72206e6f6e657860448201526b34b9ba32b73a103a37b5b2b760a11b606482015260840161074a565b60009283526003016020525060409020546001600160a01b031690565b80156107eb5760405162461bcd60e51b815260206004820152602b60248201527f4552433732313a2070617961626c6520617070726f76652063616c6c73206e6f60448201526a1d081cdd5c1c1bdc9d195960aa1b606482015260840161074a565b60008181527f3c7bf052874fa81625121783266a03507bd2cd48b16e571c01a04e8dd3fb07a96020526040902080546001600160a01b0319166001600160a01b038416908117909155819061262e82612a08565b6001600160a01b03167f8c5be1e5ebec7d5bd14f71427d1e84f3dd0314c0f7b2291e5b200ac8c7c3b92560405160405180910390a45050565b7fcb7f1a525606efcbba7baaf9b0b55c468d0fd558cbf767967f538834dfa1232e90565b600061095860008051602061431b833981519152612ede565b7fc8fcad8db84d3cc18b4c41d551ea0ee66dd599cde068d998e57d5e09332c1320546001600160a01b031690565b600061118b8383612ee9565b80156127415760405162461bcd60e51b815260206004820152602c60248201527f4552433732313a2070617961626c65207472616e736665722063616c6c73206e60448201526b1bdd081cdd5c1c1bdc9d195960a21b606482015260840161074a565b611c44565b60006127608260008051602061431b833981519152610f17565b6127b85760405162461bcd60e51b815260206004820152602360248201527f4552433732313a20717565727920666f72206e6f6e6578697374656e7420746f60448201526235b2b760e91b606482015260840161074a565b60006127c383612a08565b9050806001600160a01b0316846001600160a01b031614806127fe5750836001600160a01b03166127f3846124df565b6001600160a01b0316145b8061280e575061280e8185612e91565b949350505050565b826001600160a01b031661282982612a08565b6001600160a01b0316146128915760405162461bcd60e51b815260206004820152602960248201527f4552433732313a207472616e73666572206f6620746f6b656e2074686174206960448201526839903737ba1037bbb760b91b606482015260840161074a565b6001600160a01b0382166128f35760405162461bcd60e51b8152602060048201526024808201527f4552433732313a207472616e7366657220746f20746865207a65726f206164646044820152637265737360e01b606482015260840161074a565b6128fe838383612f01565b6129096000826125da565b6001600160a01b03831660009081527f3c7bf052874fa81625121783266a03507bd2cd48b16e571c01a04e8dd3fb07a86020526040902060008051602061431b8339815191529061295a9083612f0c565b506001600160a01b0383166000908152600282016020526040902061297f9083612f18565b5061298b818385612f24565b5081836001600160a01b0316856001600160a01b03167fddf252ad1be2c89b69c2b068fc378daa952ba7f163c4a11628f55a4df523b3ef60405160405180910390a450505050565b600061118b60008051602061431b8339815191528484612f3a565b600061060960008051602061431b83398151915283612f5e565b600080612a2360008051602061431b83398151915284612f74565b90506001600160a01b0381166106095760405162461bcd60e51b815260206004820152601560248201527422a9219b99189d1034b73b30b634b21037bbb732b960591b604482015260640161074a565b60006001600160a01b038216612ade5760405162461bcd60e51b815260206004820152602a60248201527f4552433732313a2062616c616e636520717565727920666f7220746865207a65604482015269726f206164647265737360b01b606482015260840161074a565b6001600160a01b03821660009081527f3c7bf052874fa81625121783266a03507bd2cd48b16e571c01a04e8dd3fb07a86020526040902061060990612f80565b6000612b2982612a08565b9050612b3781600084612f01565b612b426000836125da565b6001600160a01b03811660009081527f3c7bf052874fa81625121783266a03507bd2cd48b16e571c01a04e8dd3fb07a86020526040902060008051602061431b83398151915290612b939084612f0c565b50612b9e8184612f8a565b5060405183906000906001600160a01b038516907fddf252ad1be2c89b69c2b068fc378daa952ba7f163c4a11628f55a4df523b3ef908390a4505050565b612be7848484612816565b612bf384848484612f96565b611c445760405162461bcd60e51b815260206004820152603260248201527f4552433732313a207472616e7366657220746f206e6f6e20455243373231526560448201527131b2b4bb32b91034b6b83632b6b2b73a32b960711b606482015260840161074a565b606081600003612c815750506040805180820190915260018152600360fc1b602082015290565b8160005b8115612cab5780612c958161407e565b9150612ca49050600a836141e5565b9150612c85565b60008167ffffffffffffffff811115612cc657612cc661390c565b6040519080825280601f01601f191660200182016040528015612cf0576020820181803683370190505b5090505b841561280e57612d056001836141f9565b9150612d12600a86614210565b612d1d906030614224565b60f81b818381518110612d3257612d32614052565b60200101906001600160f81b031916908160001a905350612d54600a866141e5565b9450612cf4565b6001600160a01b038216612db15760405162461bcd60e51b815260206004820181905260248201527f4552433732313a206d696e7420746f20746865207a65726f2061646472657373604482015260640161074a565b60008051602061431b833981519152612dca81836126d2565b15612e175760405162461bcd60e51b815260206004820152601c60248201527f4552433732313a20746f6b656e20616c7265616479206d696e74656400000000604482015260640161074a565b612e2360008484612f01565b6001600160a01b03831660009081526002820160205260409020612e479083612f18565b50612e53818385612f24565b5060405182906001600160a01b038516906000907fddf252ad1be2c89b69c2b068fc378daa952ba7f163c4a11628f55a4df523b3ef908290a4505050565b6001600160a01b0391821660009081527f3c7bf052874fa81625121783266a03507bd2cd48b16e571c01a04e8dd3fb07aa6020908152604080832093909416825291909152205460ff1690565b600061060982612f80565b6000818152600183016020526040812054151561118b565b6107eb838383613067565b600061118b8383613072565b600061118b838361313f565b600061280e84846001600160a01b03851661318e565b6001600160a01b0382166000908152600284016020526040812061280e908361322d565b600080612f6b8484613239565b50949350505050565b600061118b8383613255565b6000610609825490565b600061118b83836132e8565b60006001600160a01b0384163b612faf5750600161280e565b600061303063150b7a0260e01b33888787604051602401612fd3949392919061423c565b604051602081830303815290604052906001600160e01b0319166020820180516001600160e01b0383818316178352505050506040518060600160405280603281526020016142c9603291396001600160a01b03881691906133c6565b90506000818060200190518101906130489190614279565b6001600160e01b031916630a85bd0160e11b1492505050949350505050565b6107eb8383836133d5565b60008181526001830160205260408120548015613135578354600090859060001981019081106130a4576130a4614052565b90600052602060002001549050808560000160018403815481106130ca576130ca614052565b60009182526020808320909101929092559182526001860190526040902081905583548490806130fc576130fc614296565b60019003818190600052602060002001600090559055836001016000848152602001908152602001600020600090556001915050610609565b6000915050610609565b600081815260018301602052604081205461318657508154600181810184556000848152602080822090930184905584548482528286019093526040902091909155610609565b506000610609565b60008281526001840160205260408120548082036131f557505060408051808201825283815260208082018481528654600181810189556000898152848120955160029093029095019182559151908201558654868452818801909252929091205561118b565b8285600001600183038154811061320e5761320e614052565b906000526020600020906002020160010181905550600091505061118b565b600061118b8383613419565b6000808080613248868661349f565b9097909650945050505050565b60008181526001830160205260408120548082036132b55760405162461bcd60e51b815260206004820152601e60248201527f456e756d657261626c654d61703a206e6f6e6578697374656e74206b65790000604482015260640161074a565b8360000160018203815481106132cd576132cd614052565b90600052602060002090600202016001015491505092915050565b600081815260018301602052604081205480156131355783546000908590600019810190811061331a5761331a614052565b906000526020600020906002020190508085600001600184038154811061334357613343614052565b600091825260208083208454600290930201918255600193840154918401919091559254815290860190915260409020819055835484908061338757613387614296565b60008281526020808220600260001990940193840201828155600190810183905592909355858152868201909252604082209190915591506106099050565b606061280e848460008561353c565b6001600160a01b0382166107eb5760008181527f99574a7094154bb123ae6ae102096f0bf9679b85a5cd1e727aaa0ae5f132e6b4602052604081206107eb916136b0565b815460009082106134775760405162461bcd60e51b815260206004820152602260248201527f456e756d657261626c655365743a20696e646578206f7574206f6620626f756e604482015261647360f01b606482015260840161074a565b82600001828154811061348c5761348c614052565b9060005260206000200154905092915050565b8154600090819083106134ff5760405162461bcd60e51b815260206004820152602260248201527f456e756d657261626c654d61703a20696e646578206f7574206f6620626f756e604482015261647360f01b606482015260840161074a565b600084600001848154811061351657613516614052565b906000526020600020906002020190508060000154816001015492509250509250929050565b6060843b6135a05760405162461bcd60e51b815260206004820152602b60248201527f416464726573735574696c733a2066756e6374696f6e2063616c6c20746f206e60448201526a1bdb8b58dbdb9d1c9858dd60aa1b606482015260840161074a565b600080866001600160a01b031685876040516135bc91906142ac565b60006040518083038185875af1925050503d80600081146135f9576040519150601f19603f3d011682016040523d82523d6000602084013e6135fe565b606091505b5091509150811561361257915061280e9050565b8051156136225780518082602001fd5b8360405162461bcd60e51b815260040161074a9190613791565b604080516101a0810182526000808252602082018190529181018290529060608201908152602001600081526000602082018190526040820181905260609091019081526020016000815260200160008152602001600081526020016000815260200160006001600160a01b031681525090565b5080546136bc90613ef1565b6000825580601f106136cc575050565b601f0160209004906000526020600020908101906136ea91906136ed565b50565b5b8082111561370257600081556001016136ee565b5090565b6001600160e01b0319811681146136ea57600080fd5b60006020828403121561372e57600080fd5b813561118b81613706565b60005b8381101561375457818101518382015260200161373c565b83811115611c445750506000910152565b6000815180845261377d816020860160208601613739565b601f01601f19169290920160200192915050565b60208152600061118b6020830184613765565b6000602082840312156137b657600080fd5b5035919050565b80356001600160a01b038116811461239b57600080fd5b600080604083850312156137e757600080fd5b6137f0836137bd565b946020939093013593505050565b634e487b7160e01b600052602160045260246000fd5b60068110613824576138246137fe565b9052565b600b8110613824576138246137fe565b600f8110613824576138246137fe565b8151151581526101a08101602083015160208301526040830151604083015260608301516138796060840182613814565b50608083015161388c6080840182613828565b5060a083015160a083015260c08301516138b160c08401826001600160a01b03169052565b5060e08301516138c460e0840182613838565b506101008381015190830152610120808401519083015261014080840151908301526101608084015190830152610180928301516001600160a01b0316929091019190915290565b634e487b7160e01b600052604160045260246000fd5b6040516101a0810167ffffffffffffffff811182821017156139465761394661390c565b60405290565b6040805190810167ffffffffffffffff811182821017156139465761394661390c565b60405160e0810167ffffffffffffffff811182821017156139465761394661390c565b604051601f8201601f1916810167ffffffffffffffff811182821017156139bb576139bb61390c565b604052919050565b80151581146136ea57600080fd5b803561239b816139c3565b80356006811061239b57600080fd5b8035600b811061239b57600080fd5b8035600f811061239b57600080fd5b60006101a08284031215613a1c57600080fd5b613a24613922565b613a2d836139d1565b81526020830135602082015260408301356040820152613a4f606084016139dc565b6060820152613a60608084016139eb565b608082015260a083013560a0820152613a7b60c084016137bd565b60c0820152613a8c60e084016139fa565b60e08201526101008381013590820152610120808401359082015261014080840135908201526101608084013590820152610180613acb8185016137bd565b908201529392505050565b600080600060608486031215613aeb57600080fd5b613af4846137bd565b9250613b02602085016137bd565b9150604084013590509250925092565b600060208284031215613b2457600080fd5b61118b826137bd565b6020808252825182820181905260009190848201906040850190845b81811015613b6557835183529284019291840191600101613b49565b50909695505050505050565b60008060408385031215613b8457600080fd5b50508035926020909101359150565b600080600060608486031215613ba857600080fd5b505081359360208301359350604090920135919050565b600082601f830112613bd057600080fd5b613bd861394c565b806040840185811115613bea57600080fd5b845b81811015613c04578035845260209384019301613bec565b509095945050505050565b6000806000806101e0808688031215613c2757600080fd5b613c318787613bbf565b9450604087605f880112613c4457600080fd5b613c4c61394c565b8060c089018a811115613c5e57600080fd5b838a015b81811015613c8357613c748c82613bbf565b84526020909301928401613c62565b50819750613c918b82613bbf565b9650505050508661011f870112613ca757600080fd5b613caf61396f565b908601908088831115613cc157600080fd5b61010088015b83811015613cdf578035835260209283019201613cc7565b509598949750929550505050565b60008060408385031215613d0057600080fd5b82359150613d10602084016137bd565b90509250929050565b60008060408385031215613d2c57600080fd5b613d35836137bd565b91506020830135613d45816139c3565b809150509250929050565b60008060008060808587031215613d6657600080fd5b613d6f856137bd565b93506020613d7e8187016137bd565b935060408601359250606086013567ffffffffffffffff80821115613da257600080fd5b818801915088601f830112613db657600080fd5b813581811115613dc857613dc861390c565b613dda601f8201601f19168501613992565b91508082528984828501011115613df057600080fd5b808484018584013760008482840101525080935050505092959194509250565b6000610100808385031215613e2457600080fd5b6040519081019067ffffffffffffffff82118183101715613e4757613e4761390c565b8160405283358152613e5b602085016137bd565b602082015260408401356040820152613e76606085016139dc565b6060820152613e87608085016139eb565b6080820152613e9860a085016139fa565b60a0820152613ea960c085016137bd565b60c0820152613eba60e085016137bd565b60e0820152949350505050565b60008060408385031215613eda57600080fd5b613ee3836137bd565b9150613d10602084016137bd565b600181811c90821680613f0557607f821691505b602082108103613f2557634e487b7160e01b600052602260045260246000fd5b50919050565b600060208284031215613f3d57600080fd5b815161118b816139c3565b8381526001600160a01b03831660208201526060810161280e6040830184613838565b600060208284031215613f7d57600080fd5b5051919050565b6001600160a01b039390931683526020830191909152604082015260600190565b6020808252603b908201527f4f6e6c792074686520436f7265206f722041646d696e2061646472657373657360408201527f2063616e20666964646c652077697468206172746966616374732e0000000000606082015260800190565b60208082526030908201527f4552433732313a207472616e736665722063616c6c6572206973206e6f74206f60408201526f1ddb995c881bdc88185c1c1c9bdd995960821b606082015260800190565b634e487b7160e01b600052603260045260246000fd5b634e487b7160e01b600052601160045260246000fd5b60006001820161409057614090614068565b5060010190565b6020808252600e908201526d11d85b59481a5cc81c185d5cd95960921b604082015260600190565b60c08101818460005b60058110156140e75781518352602092830192909101906001016140c8565b50505082151560a08301529392505050565b8060005b6002811015611c445781518452602093840193909101906001016140fd565b6101e0810161412b82876140f9565b60408083018660005b600281101561415b576141488383516140f9565b9183019160209190910190600101614134565b5050505061416c60c08301856140f9565b61010082018360005b6007811015614194578151835260209283019290910190600101614175565b50505095945050505050565b600083516141b2818460208801613739565b8351908301906141c6818360208801613739565b01949350505050565b634e487b7160e01b600052601260045260246000fd5b6000826141f4576141f46141cf565b500490565b60008282101561420b5761420b614068565b500390565b60008261421f5761421f6141cf565b500690565b6000821982111561423757614237614068565b500190565b6001600160a01b038581168252841660208201526040810183905260806060820181905260009061426f90830184613765565b9695505050505050565b60006020828403121561428b57600080fd5b815161118b81613706565b634e487b7160e01b600052603160045260246000fd5b600082516142be818460208701613739565b919091019291505056fe4552433732313a207472616e7366657220746f206e6f6e20455243373231526563656976657220696d706c656d656e746572a6b2e3472225444bec652f00ae684c35bcb609cdb2b3d58ca3596df3d53eca523c7bf052874fa81625121783266a03507bd2cd48b16e571c01a04e8dd3fb07a6a26469706673582212200a9e310c5f90fd9e5213a470f8290d13bdbb70079cd3f6f1885ef8165fc7445164736f6c634300080d0033",
    "sourcePath": "/Users/lele/Downloads/eth-master/contracts/facets/DFArtifactFacet.sol",
    "compiler": {
        "name": "solc",
        "version": "0.8.13+commit.abaa5c0e"
    },
    "functionHashes": {
        "activateArtifact(uint256,uint256,uint256)": "9513a2ad",
        "adminGiveArtifact((uint256,address,uint256,uint8,uint8,uint8,address,address))": "c429fee8",
        "approve(address,uint256)": "095ea7b3",
        "balanceOf(address)": "70a08231",
        "createArtifact((uint256,address,uint256,uint8,uint8,uint8,address,address))": "d72fd411",
        "deactivateArtifact(uint256)": "c918aebd",
        "depositArtifact(uint256,uint256)": "92d93a12",
        "doesArtifactExist(uint256)": "1f94f540",
        "findArtifact(uint256[2],uint256[2][2],uint256[2],uint256[7])": "98d042f2",
        "getApproved(uint256)": "081812fc",
        "getArtifact(uint256)": "8465ad44",
        "getArtifactAtIndex(uint256)": "0be72d83",
        "getPlayerArtifactIds(address)": "314d1ff7",
        "giveSpaceShips(uint256)": "1cff9804",
        "isApprovedForAll(address,address)": "e985e9c5",
        "name()": "06fdde03",
        "ownerOf(uint256)": "6352211e",
        "prospectPlanet(uint256)": "e76aa429",
        "safeTransferFrom(address,address,uint256)": "42842e0e",
        "safeTransferFrom(address,address,uint256,bytes)": "b88d4fde",
        "setApprovalForAll(address,bool)": "a22cb465",
        "supportsInterface(bytes4)": "01ffc9a7",
        "symbol()": "95d89b41",
        "tokenByIndex(uint256)": "4f6ccce7",
        "tokenOfOwnerByIndex(address,uint256)": "2f745c59",
        "tokenURI(uint256)": "c87b56dd",
        "totalSupply()": "18160ddd",
        "transferArtifact(uint256,address)": "991182da",
        "transferFrom(address,address,uint256)": "23b872dd",
        "updateArtifact((bool,uint256,uint256,uint8,uint8,uint256,address,uint8,uint256,uint256,uint256,uint256,address))": "204155f4",
        "withdrawArtifact(uint256,uint256)": "70e0f0ce"
    },
    "gasEstimates": {
        "creation": {
            "codeDepositCost": "3452800",
            "executionCost": "3860",
            "totalCost": "3456660"
        },
        "external": {
            "activateArtifact(uint256,uint256,uint256)": "infinite",
            "adminGiveArtifact((uint256,address,uint256,uint8,uint8,uint8,address,address))": "infinite",
            "approve(address,uint256)": "infinite",
            "balanceOf(address)": "infinite",
            "createArtifact((uint256,address,uint256,uint8,uint8,uint8,address,address))": "infinite",
            "deactivateArtifact(uint256)": "infinite",
            "depositArtifact(uint256,uint256)": "infinite",
            "doesArtifactExist(uint256)": "infinite",
            "findArtifact(uint256[2],uint256[2][2],uint256[2],uint256[7])": "infinite",
            "getApproved(uint256)": "infinite",
            "getArtifact(uint256)": "infinite",
            "getArtifactAtIndex(uint256)": "infinite",
            "getPlayerArtifactIds(address)": "infinite",
            "giveSpaceShips(uint256)": "infinite",
            "isApprovedForAll(address,address)": "infinite",
            "name()": "infinite",
            "ownerOf(uint256)": "infinite",
            "prospectPlanet(uint256)": "infinite",
            "safeTransferFrom(address,address,uint256)": "infinite",
            "safeTransferFrom(address,address,uint256,bytes)": "infinite",
            "setApprovalForAll(address,bool)": "26699",
            "supportsInterface(bytes4)": "2608",
            "symbol()": "infinite",
            "tokenByIndex(uint256)": "infinite",
            "tokenOfOwnerByIndex(address,uint256)": "infinite",
            "tokenURI(uint256)": "infinite",
            "totalSupply()": "infinite",
            "transferArtifact(uint256,address)": "infinite",
            "transferFrom(address,address,uint256)": "infinite",
            "updateArtifact((bool,uint256,uint256,uint8,uint8,uint256,address,uint8,uint256,uint256,uint256,uint256,address))": "infinite",
            "withdrawArtifact(uint256,uint256)": "infinite"
        }
    }
}