{
    "contractName": "DFCaptureFacet",
    "abi": [
        {
            "anonymous": false,
            "inputs": [
                {
                    "indexed": false,
                    "internalType": "address",
                    "name": "player",
                    "type": "address"
                },
                {
                    "indexed": false,
                    "internalType": "uint256",
                    "name": "loc",
                    "type": "uint256"
                }
            ],
            "name": "PlanetCaptured",
            "type": "event"
        },
        {
            "anonymous": false,
            "inputs": [
                {
                    "indexed": false,
                    "internalType": "address",
                    "name": "player",
                    "type": "address"
                },
                {
                    "indexed": false,
                    "internalType": "uint256",
                    "name": "loc",
                    "type": "uint256"
                }
            ],
            "name": "PlanetInvaded",
            "type": "event"
        },
        {
            "inputs": [
                {
                    "internalType": "uint256",
                    "name": "locationId",
                    "type": "uint256"
                }
            ],
            "name": "capturePlanet",
            "outputs": [],
            "stateMutability": "nonpayable",
            "type": "function"
        },
        {
            "inputs": [
                {
                    "internalType": "uint256",
                    "name": "n",
                    "type": "uint256"
                }
            ],
            "name": "getIntFromUInt",
            "outputs": [
                {
                    "internalType": "int256",
                    "name": "",
                    "type": "int256"
                }
            ],
            "stateMutability": "pure",
            "type": "function"
        },
        {
            "inputs": [
                {
                    "internalType": "uint256[2]",
                    "name": "_a",
                    "type": "uint256[2]"
                },
                {
                    "internalType": "uint256[2][2]",
                    "name": "_b",
                    "type": "uint256[2][2]"
                },
                {
                    "internalType": "uint256[2]",
                    "name": "_c",
                    "type": "uint256[2]"
                },
                {
                    "internalType": "uint256[9]",
                    "name": "_input",
                    "type": "uint256[9]"
                }
            ],
            "name": "invadePlanet",
            "outputs": [],
            "stateMutability": "nonpayable",
            "type": "function"
        },
        {
            "inputs": [
                {
                    "internalType": "uint256",
                    "name": "x",
                    "type": "uint256"
                },
                {
                    "internalType": "uint256",
                    "name": "y",
                    "type": "uint256"
                }
            ],
            "name": "planetInCaptureZone",
            "outputs": [
                {
                    "internalType": "bool",
                    "name": "",
                    "type": "bool"
                }
            ],
            "stateMutability": "nonpayable",
            "type": "function"
        }
    ],
    "bytecode": "608060405234801561001057600080fd5b50611e42806100206000396000f3fe608060405234801561001057600080fd5b506004361061004c5760003560e01c80634404a74a14610051578063580c07f514610066578063b69f62361461008e578063c8941a17146100a1575b600080fd5b61006461005f3660046115c3565b6100c2565b005b6100796100743660046116a1565b610777565b60405190151581526020015b60405180910390f35b61006461009c3660046116c3565b6109a9565b6100b46100af3660046116c3565b611152565b604051908152602001610085565b604051633af32abf60e01b81523360048201523090633af32abf90602401602060405180830381865afa1580156100fd573d6000803e3d6000fd5b505050506040513d601f19601f8201168201806040525081019061012191906116dc565b8061015557507fc8fcad8db84d3cc18b4c41d551ea0ee66dd599cde068d998e57d5e09332c1320546001600160a01b031633145b6101a25760405162461bcd60e51b8152602060048201526019602482015278141b185e595c881a5cc81b9bdd081dda1a5d195b1a5cdd1959603a1b60448201526064015b60405180910390fd5b6000805160206119e983398151915254600160a01b900460ff16156101fa5760405162461bcd60e51b815260206004820152600e60248201526d11d85b59481a5cc81c185d5cd95960921b6044820152606401610199565b7f5fb65bb339c6bd3f2609a7342e6cb046e09f3e40f45242a5971904b021b5bbab5460ff1661026b5760405162461bcd60e51b815260206004820152601a60248201527f63617074757265207a6f6e6573206172652064697361626c65640000000000006044820152606401610199565b8051604051630491055560e41b8152309063491055509061029690889088908890889060040161173d565b602060405180830381865afa1580156102b3573d6000803e3d6000fd5b505050506040513d601f19601f820116820180604052508101906102d791906116dc565b50604082015160608301516102ec9190610777565b6103385760405162461bcd60e51b815260206004820152601d60248201527f706c616e6574206973206e6f7420696e2063617074757265207a6f6e650000006044820152606401610199565b604051633f324cf360e01b81526004810182905273__$5588a372fe54cd4953e82f0bc5932376ed$__90633f324cf39060240160006040518083038186803b15801561038357600080fd5b505af4158015610397573d6000803e3d6000fd5b5050505060006103b26000805160206119e983398151915290565b6000838152600c91909101602090815260409182902082516101a08101845281546001600160a01b03168152600182015492810192909252600281015492820192909252600382015460608201526004808301546080830152600583015460a0830152600683015460c0830152600783015460e083015260088301546101008301526009830154610120830152600a830154610140830152600b83015491929161016084019160ff9091169081111561046d5761046d6117e4565b600481111561047e5761047e6117e4565b8152600b9190910154610100900460ff161515602090910152905060006104b06000805160206119e983398151915290565b6000848152600e91909101602090815260409182902082516101a081018452815460ff908116151582526001830154938201939093526002820154938101939093526003808201546060850152600482015491926080850192169081111561051a5761051a6117e4565b600381111561052b5761052b6117e4565b815260058201546020820152600682015460408201526007820154606082015260088201546080820152600982015460ff908116151560a0830152600a83015460c0830152600b83015416151560e0820152600c9091015461010090910152905060006000805160206119e9833981519152600f0160008581526020019081526020016000209050816101600151156105fc5760405162461bcd60e51b81526020600482015260136024820152721c1b185b995d081a5cc819195cdd1c9bde5959606a1b6044820152606401610199565b60028101546001600160a01b0316156106575760405162461bcd60e51b815260206004820152601960248201527f706c616e657420697320616c726561647920696e7661646564000000000000006044820152606401610199565b60048101546001600160a01b0316156106b25760405162461bcd60e51b815260206004820181905260248201527f706c616e65742068617320616c7265616479206265656e2063617074757265646044820152606401610199565b82516001600160a01b031633146107175760405162461bcd60e51b815260206004820152602360248201527f796f752063616e206f6e6c7920696e7661646520706c616e65747320796f752060448201526237bbb760e91b6064820152608401610199565b6002810180546001600160a01b0319163390811790915543600383015560408051918252602082018690527fc4c98289a1d378612fd24d7e1f2491de6d9d52c8aa776297710b2fd05723e0e7910160405180910390a15050505050505050565b6000610781611205565b7f5fb65bb339c6bd3f2609a7342e6cb046e09f3e40f45242a5971904b021b5bbad547fcb7f1a525606efcbba7baaf9b0b55c468d0fd558cbf767967f538834dfa12345546000916107d191611810565b9050804060006107e086611152565b905060006107ed86611152565b905060005b7fcb7f1a525606efcbba7baaf9b0b55c468d0fd558cbf767967f538834dfa1233754610821906113889061183d565b811015610999577f5fb65bb339c6bd3f2609a7342e6cb046e09f3e40f45242a5971904b021b5bbba546000906108579083611851565b905060005b7f5fb65bb339c6bd3f2609a7342e6cb046e09f3e40f45242a5971904b021b5bbba548110156109845760006108918284611870565b9050600087826040516020016108b1929190918252602082015260400190565b60408051601f19818403018152919052805160209091012090508060006108d882886112cf565b80519091506000906108ea908b611888565b9050600082602001518a6108fe9190611888565b9050600061092861090f83806118c7565b61091985806118c7565b610923919061194c565b6113dc565b7f5fb65bb339c6bd3f2609a7342e6cb046e09f3e40f45242a5971904b021b5bbae54909150811161096a5760019e5050505050505050505050505050506109a3565b50505050505050808061097c9061198d565b91505061085c565b505080806109919061198d565b9150506107f2565b5060009450505050505b92915050565b604051633af32abf60e01b81523360048201523090633af32abf90602401602060405180830381865afa1580156109e4573d6000803e3d6000fd5b505050506040513d601f19601f82011682018060405250810190610a0891906116dc565b80610a3c57507fc8fcad8db84d3cc18b4c41d551ea0ee66dd599cde068d998e57d5e09332c1320546001600160a01b031633145b610a845760405162461bcd60e51b8152602060048201526019602482015278141b185e595c881a5cc81b9bdd081dda1a5d195b1a5cdd1959603a1b6044820152606401610199565b6000805160206119e983398151915254600160a01b900460ff1615610adc5760405162461bcd60e51b815260206004820152600e60248201526d11d85b59481a5cc81c185d5cd95960921b6044820152606401610199565b7f5fb65bb339c6bd3f2609a7342e6cb046e09f3e40f45242a5971904b021b5bbab5460ff16610b4d5760405162461bcd60e51b815260206004820152601a60248201527f63617074757265207a6f6e6573206172652064697361626c65640000000000006044820152606401610199565b604051633f324cf360e01b81526004810182905273__$5588a372fe54cd4953e82f0bc5932376ed$__90633f324cf39060240160006040518083038186803b158015610b9857600080fd5b505af4158015610bac573d6000803e3d6000fd5b505050506000610bc76000805160206119e983398151915290565b6000838152600c91909101602090815260409182902082516101a08101845281546001600160a01b03168152600182015492810192909252600281015492820192909252600382015460608201526004808301546080830152600583015460a0830152600683015460c0830152600783015460e083015260088301546101008301526009830154610120830152600a830154610140830152600b83015491929161016084019160ff90911690811115610c8257610c826117e4565b6004811115610c9357610c936117e4565b8152600b9190910154610100900460ff16151560209091015290506000610cc56000805160206119e983398151915290565b6000848152600e91909101602090815260409182902082516101a081018452815460ff9081161515825260018301549382019390935260028201549381019390935260038082015460608501526004820154919260808501921690811115610d2f57610d2f6117e4565b6003811115610d4057610d406117e4565b815260058201546020820152600682015460408201526007820154606082015260088201546080820152600982015460ff908116151560a0830152600a83015460c0830152600b83015416151560e0820152600c9091015461010090910152905060006000805160206119e98339815191526000858152600f919091016020526040902060048101549091506001600160a01b031615610e2c5760405162461bcd60e51b815260206004820152602160248201527f706c616e6574732063616e206f6e6c79206265206361707475726564206f6e636044820152606560f81b6064820152608401610199565b81610160015115610e755760405162461bcd60e51b81526020600482015260136024820152721c1b185b995d081a5cc819195cdd1c9bde5959606a1b6044820152606401610199565b82516001600160a01b03163314610eda5760405162461bcd60e51b8152602060048201526024808201527f796f752063616e206f6e6c79206361707475726520706c616e65747320796f756044820152631037bbb760e11b6064820152608401610199565b60028101546001600160a01b0316610f485760405162461bcd60e51b815260206004820152602b60248201527f796f75206d75737420696e766164652074686520706c616e6574206265666f7260448201526a6520636170747572696e6760a81b6064820152608401610199565b604e8360a001516064610f5b9190611851565b610f65919061183d565b6080840151610f75906064611851565b1015610fd85760405162461bcd60e51b815260206004820152602c60248201527f706c616e6574206d75737420686176652038302520656e65726779206265666f60448201526b726520636170747572696e6760a01b6064820152608401610199565b7f5fb65bb339c6bd3f2609a7342e6cb046e09f3e40f45242a5971904b021b5bbb9546003820154439161100a91611870565b11156110775760405162461bcd60e51b815260206004820152603660248201527f796f752068617665206e6f742068656c642074686520706c616e6574206c6f6e60448201527519c8195b9bdd59da081d1bc818d85c1d1d5c99481a5d60521b6064820152608401610199565b6004810180546001600160a01b031916331790556110b27f5fb65bb339c6bd3f2609a7342e6cb046e09f3e40f45242a5971904b021b5bb5390565b605c01836101400151600a81106110cb576110cb6116fe565b01543360009081527fcb7f1a525606efcbba7baaf9b0b55c468d0fd558cbf767967f538834dfa1234060205260408120600401805490919061110e908490611870565b909155505060408051338152602081018690527f3fada7af0dd5c763c949d065a81c872ff0346bafa4541740de442c98eed0625d910160405180910390a150505050565b60007f30644e72e131a029b85045b68181585d2833e84879b9709143e1f593f00000018083106111d05760405162461bcd60e51b8152602060048201526024808201527f4e756d626572206f757473696465206f66204162736f6c7574654d6f64502052604482015263616e676560e01b6064820152608401610199565b6111db60028261183d565b8311156111fe576111ec8382611810565b6111f7906000611888565b9392505050565b5090919050565b7f5fb65bb339c6bd3f2609a7342e6cb046e09f3e40f45242a5971904b021b5bbad547f5fb65bb339c6bd3f2609a7342e6cb046e09f3e40f45242a5971904b021b5bbaa546000906112569043611810565b90506000611264838361183d565b905082611272826001611870565b61127c9190611851565b7f5fb65bb339c6bd3f2609a7342e6cb046e09f3e40f45242a5971904b021b5bbaa546112a89190611870565b7fcb7f1a525606efcbba7baaf9b0b55c468d0fd558cbf767967f538834dfa1234555505050565b604080518082019091526000808252602082015260006112f1610fff856119a6565b9050600061028b61130a83670de0b6b3a7640000611851565b611314919061183d565b9050600062ffffff6110006113298589611810565b611333919061183d565b61133d91906119a6565b9050610d1b600061135087611388611851565b61135a838561183d565b6113649190611870565b9050600061137185611435565b9050600061137e86611446565b90506040518060400160405280670de0b6b3a764000084866113a091906118c7565b6113aa91906119ba565b8152602001670de0b6b3a76400006113c284876118c7565b6113cc91906119ba565b90529a9950505050505050505050565b60008060026113ec846001611870565b6113f6919061183d565b90508291505b8181101561142f57905080600281611414818661183d565b61141e9190611870565b611428919061183d565b90506113fc565b50919050565b60006109a36715cc96efd11924eb83015b6757325bbf446493ac9081900663400000000204600061ffff600483901c1660ff601484901c1663100000008416156320000000851615158161148b5760ff92909203915b60006040518061044001604052806104048152602001611a09610404913960046002860102818101519192509063ffffffff602082901c8116908216818103890260101c6000886114de578183036114e2565b8184015b905087156114ee576000035b637fffffff670de0b6b3a76400008202059d9c50505050505050505050505050565b634e487b7160e01b600052604160045260246000fd5b6040805190810167ffffffffffffffff8111828210171561154957611549611510565b60405290565b604051610120810167ffffffffffffffff8111828210171561154957611549611510565b600082601f83011261158457600080fd5b61158c611526565b80604084018581111561159e57600080fd5b845b818110156115b85780358452602093840193016115a0565b509095945050505050565b6000806000806102208086880312156115db57600080fd5b6115e58787611573565b9450604087605f8801126115f857600080fd5b611600611526565b8060c089018a81111561161257600080fd5b838a015b81811015611637576116288c82611573565b84526020909301928401611616565b508197506116458b82611573565b9650505050508661011f87011261165b57600080fd5b61166361154f565b90860190808883111561167557600080fd5b61010088015b8381101561169357803583526020928301920161167b565b509598949750929550505050565b600080604083850312156116b457600080fd5b50508035926020909101359150565b6000602082840312156116d557600080fd5b5035919050565b6000602082840312156116ee57600080fd5b815180151581146111f757600080fd5b634e487b7160e01b600052603260045260246000fd5b8060005b6002811015611737578151845260209384019390910190600101611718565b50505050565b610220810161174c8287611714565b60408083018660005b6002808210611764575061179f565b82518460005b8381101561178857825182526020928301929091019060010161176a565b505050928401925060209190910190600101611755565b505050506117b060c0830185611714565b61010082018360005b60098110156117d85781518352602092830192909101906001016117b9565b50505095945050505050565b634e487b7160e01b600052602160045260246000fd5b634e487b7160e01b600052601160045260246000fd5b600082821015611822576118226117fa565b500390565b634e487b7160e01b600052601260045260246000fd5b60008261184c5761184c611827565b500490565b600081600019048311821515161561186b5761186b6117fa565b500290565b60008219821115611883576118836117fa565b500190565b60008083128015600160ff1b8501841216156118a6576118a66117fa565b6001600160ff1b03840183138116156118c1576118c16117fa565b50500390565b60006001600160ff1b03818413828413808216868404861116156118ed576118ed6117fa565b600160ff1b600087128281168783058912161561190c5761190c6117fa565b60008712925087820587128484161615611928576119286117fa565b8785058712818416161561193e5761193e6117fa565b505050929093029392505050565b600080821280156001600160ff1b038490038513161561196e5761196e6117fa565b600160ff1b8390038412811615611987576119876117fa565b50500190565b60006001820161199f5761199f6117fa565b5060010190565b6000826119b5576119b5611827565b500690565b6000826119c9576119c9611827565b600160ff1b8214600019841416156119e3576119e36117fa565b50059056fecb7f1a525606efcbba7baaf9b0b55c468d0fd558cbf767967f538834dfa1232e0000000000c90f8801921d20025b26d703242abf03ed26e604b6195d057f00350647d97c0710a34507d95b9e08a2009a096a90490a3308bc0afb68050bc3ac350c8bd35e0d53db920e1bc2e40ee387660fab272b1072a0481139f0cf120116d512c8106e138edbb1145576b1151bdf8515e2144416a81305176dd9de183366e818f8b83c19bdcbf31a82a0251b4732ef1c0b826a1ccf8cb31d934fe51e56ca1e1f19f97b1fdcdc1b209f701c2161b39f2223a4c522e541af23a6887e2467775725280c5d25e845b626a8218527679df42826b92828e5714a29a3c4852a61b1012b1f34eb2bdc4e6f2c98fbba2d553afb2e110a622ecc681e2f8752623041c76030fbc54d31b54a5d326e54c73326e2c233def2873496824f354d905636041ad936ba2013376f9e46382493b038d8fe93398cdd323a402dd13af2eeb73ba51e293c56ba703d07c1d53db832a53e680b2c3f1749b73fc5ec974073f21d4121589a41ce1e64427a41d04325c13543d09aec447acd50452456bc45cd358f46756827471cece647c3c22e4869e664490f57ee49b415334a581c9d4afb6c974b9e038f4c3fdff34ce100344d8162c34e2106174ebfe8a44f5e08e24ffb654c5097fc5e5133cc9451ced46e5269126e53028517539b2aef5433027d54ca0a4a556040e255f5a4d2568a34a9571deef957b0d2555842dd5458d40e8c5964649759f3de125a8279995b1035ce5b9d11535c290acc5cb420df5d3e52365dc79d7b5e50015d5ed77c895f5e0db25fe3b38d60686cce60ec382f616f146b61f1003e6271fa6862f201ac637114cc63ef328f646c59bf64e889256563bf9165ddfbd266573cbb66cf811f6746c7d767bd0fbc683257aa68a69e806919e31f698c246b69fd614a6a6d98a36adcc9646b4af2786bb812d06c24295f6c8f351b6cf934fb6d6227f96dca0d146e30e3496e96a99c6efb5f116f5f02b16fc1938470231099708378fe70e2cbc571410804719e2cd171fa394872552c8472af05a67307c3cf735f662573b5ebd0740b53fa745f9dd074b2c8837504d3447555bd4b75a585ce75f42c0a7641af3c768e0ea576d9498877235f2c776c4eda77b417df77fab988784033287884841378c7aba17909a92c794a7c11798a23b079c89f6d7a05eeac7a4210d87a7d055a7ab6cba37aef63237b26cb4e7b5d039d7b920b887bc5e28f7bf8882f7c29fbed7c5a3d4f7c894bdd7cb727237ce3ceb17d0f42177d3980eb7d628ac57d8a5f3f7db0fdf77dd6668e7dfa98a77e1d93e97e3f57fe7e5fe4927e7f39567e9d55fb7eba3a387ed5e5c57ef0585f7f0991c37f2191b37f3857f57f4de4507f62368e7f754e7f7f872bf27f97cebc7fa736b37fb563b27fc255957fce0c3d7fd8878d7fe1c76a7fe9cbbf7ff094777ff621817ffa72d07ffd88597fff62157fffffffa26469706673582212203465f4e7464c1773bbdec94a03f1cf42fe138653762e7198722eeef152a6f9a764736f6c634300080d0033",
    "sourcePath": "/Users/lele/Downloads/eth-master/contracts/facets/DFCaptureFacet.sol",
    "compiler": {
        "name": "solc",
        "version": "0.8.13+commit.abaa5c0e"
    },
    "functionHashes": {
        "capturePlanet(uint256)": "b69f6236",
        "getIntFromUInt(uint256)": "c8941a17",
        "invadePlanet(uint256[2],uint256[2][2],uint256[2],uint256[9])": "4404a74a",
        "planetInCaptureZone(uint256,uint256)": "580c07f5"
    },
    "gasEstimates": {
        "creation": {
            "codeDepositCost": "1549200",
            "executionCost": "1624",
            "totalCost": "1550824"
        },
        "external": {
            "capturePlanet(uint256)": "infinite",
            "getIntFromUInt(uint256)": "661",
            "invadePlanet(uint256[2],uint256[2][2],uint256[2],uint256[9])": "infinite",
            "planetInCaptureZone(uint256,uint256)": "infinite"
        },
        "internal": {
            "getZonePoint(uint256,uint256)": "infinite",
            "setNextGenerationBlock()": "infinite",
            "sqrt(uint256)": "infinite"
        }
    }
}