{
    "contractName": "DFCoreFacet",
    "abi": [
        {
            "anonymous": false,
            "inputs": [
                {
                    "indexed": false,
                    "internalType": "address",
                    "name": "revealer",
                    "type": "address"
                },
                {
                    "indexed": false,
                    "internalType": "uint256",
                    "name": "loc",
                    "type": "uint256"
                },
                {
                    "indexed": false,
                    "internalType": "uint256",
                    "name": "x",
                    "type": "uint256"
                },
                {
                    "indexed": false,
                    "internalType": "uint256",
                    "name": "y",
                    "type": "uint256"
                }
            ],
            "name": "LocationRevealed",
            "type": "event"
        },
        {
            "anonymous": false,
            "inputs": [
                {
                    "indexed": false,
                    "internalType": "address",
                    "name": "player",
                    "type": "address"
                },
                {
                    "indexed": false,
                    "internalType": "uint256",
                    "name": "loc",
                    "type": "uint256"
                },
                {
                    "indexed": false,
                    "internalType": "uint256",
                    "name": "tohatLevel",
                    "type": "uint256"
                }
            ],
            "name": "PlanetHatBought",
            "type": "event"
        },
        {
            "anonymous": false,
            "inputs": [
                {
                    "indexed": false,
                    "internalType": "address",
                    "name": "player",
                    "type": "address"
                },
                {
                    "indexed": false,
                    "internalType": "uint256",
                    "name": "loc",
                    "type": "uint256"
                },
                {
                    "indexed": false,
                    "internalType": "uint256",
                    "name": "amount",
                    "type": "uint256"
                }
            ],
            "name": "PlanetSilverWithdrawn",
            "type": "event"
        },
        {
            "anonymous": false,
            "inputs": [
                {
                    "indexed": false,
                    "internalType": "address",
                    "name": "sender",
                    "type": "address"
                },
                {
                    "indexed": false,
                    "internalType": "uint256",
                    "name": "loc",
                    "type": "uint256"
                },
                {
                    "indexed": false,
                    "internalType": "address",
                    "name": "receiver",
                    "type": "address"
                }
            ],
            "name": "PlanetTransferred",
            "type": "event"
        },
        {
            "anonymous": false,
            "inputs": [
                {
                    "indexed": false,
                    "internalType": "address",
                    "name": "player",
                    "type": "address"
                },
                {
                    "indexed": false,
                    "internalType": "uint256",
                    "name": "loc",
                    "type": "uint256"
                },
                {
                    "indexed": false,
                    "internalType": "uint256",
                    "name": "branch",
                    "type": "uint256"
                },
                {
                    "indexed": false,
                    "internalType": "uint256",
                    "name": "toBranchLevel",
                    "type": "uint256"
                }
            ],
            "name": "PlanetUpgraded",
            "type": "event"
        },
        {
            "anonymous": false,
            "inputs": [
                {
                    "indexed": false,
                    "internalType": "address",
                    "name": "player",
                    "type": "address"
                },
                {
                    "indexed": false,
                    "internalType": "uint256",
                    "name": "loc",
                    "type": "uint256"
                }
            ],
            "name": "PlayerInitialized",
            "type": "event"
        },
        {
            "inputs": [
                {
                    "internalType": "uint256",
                    "name": "_location",
                    "type": "uint256"
                }
            ],
            "name": "buyHat",
            "outputs": [],
            "stateMutability": "payable",
            "type": "function"
        },
        {
            "inputs": [
                {
                    "internalType": "uint256[2]",
                    "name": "_a",
                    "type": "uint256[2]"
                },
                {
                    "internalType": "uint256[2][2]",
                    "name": "_b",
                    "type": "uint256[2][2]"
                },
                {
                    "internalType": "uint256[2]",
                    "name": "_c",
                    "type": "uint256[2]"
                },
                {
                    "internalType": "uint256[9]",
                    "name": "_input",
                    "type": "uint256[9]"
                }
            ],
            "name": "checkRevealProof",
            "outputs": [
                {
                    "internalType": "bool",
                    "name": "",
                    "type": "bool"
                }
            ],
            "stateMutability": "view",
            "type": "function"
        },
        {
            "inputs": [
                {
                    "internalType": "uint256",
                    "name": "location",
                    "type": "uint256"
                },
                {
                    "internalType": "uint256",
                    "name": "timestamp",
                    "type": "uint256"
                }
            ],
            "name": "getRefreshedPlanet",
            "outputs": [
                {
                    "components": [
                        {
                            "internalType": "address",
                            "name": "owner",
                            "type": "address"
                        },
                        {
                            "internalType": "uint256",
                            "name": "range",
                            "type": "uint256"
                        },
                        {
                            "internalType": "uint256",
                            "name": "speed",
                            "type": "uint256"
                        },
                        {
                            "internalType": "uint256",
                            "name": "defense",
                            "type": "uint256"
                        },
                        {
                            "internalType": "uint256",
                            "name": "population",
                            "type": "uint256"
                        },
                        {
                            "internalType": "uint256",
                            "name": "populationCap",
                            "type": "uint256"
                        },
                        {
                            "internalType": "uint256",
                            "name": "populationGrowth",
                            "type": "uint256"
                        },
                        {
                            "internalType": "uint256",
                            "name": "silverCap",
                            "type": "uint256"
                        },
                        {
                            "internalType": "uint256",
                            "name": "silverGrowth",
                            "type": "uint256"
                        },
                        {
                            "internalType": "uint256",
                            "name": "silver",
                            "type": "uint256"
                        },
                        {
                            "internalType": "uint256",
                            "name": "planetLevel",
                            "type": "uint256"
                        },
                        {
                            "internalType": "enum PlanetType",
                            "name": "planetType",
                            "type": "uint8"
                        },
                        {
                            "internalType": "bool",
                            "name": "isHomePlanet",
                            "type": "bool"
                        }
                    ],
                    "internalType": "struct Planet",
                    "name": "",
                    "type": "tuple"
                },
                {
                    "components": [
                        {
                            "internalType": "bool",
                            "name": "isInitialized",
                            "type": "bool"
                        },
                        {
                            "internalType": "uint256",
                            "name": "createdAt",
                            "type": "uint256"
                        },
                        {
                            "internalType": "uint256",
                            "name": "lastUpdated",
                            "type": "uint256"
                        },
                        {
                            "internalType": "uint256",
                            "name": "perlin",
                            "type": "uint256"
                        },
                        {
                            "internalType": "enum SpaceType",
                            "name": "spaceType",
                            "type": "uint8"
                        },
                        {
                            "internalType": "uint256",
                            "name": "upgradeState0",
                            "type": "uint256"
                        },
                        {
                            "internalType": "uint256",
                            "name": "upgradeState1",
                            "type": "uint256"
                        },
                        {
                            "internalType": "uint256",
                            "name": "upgradeState2",
                            "type": "uint256"
                        },
                        {
                            "internalType": "uint256",
                            "name": "hatLevel",
                            "type": "uint256"
                        },
                        {
                            "internalType": "bool",
                            "name": "hasTriedFindingArtifact",
                            "type": "bool"
                        },
                        {
                            "internalType": "uint256",
                            "name": "prospectedBlockNumber",
                            "type": "uint256"
                        },
                        {
                            "internalType": "bool",
                            "name": "destroyed",
                            "type": "bool"
                        },
                        {
                            "internalType": "uint256",
                            "name": "spaceJunk",
                            "type": "uint256"
                        }
                    ],
                    "internalType": "struct PlanetExtendedInfo",
                    "name": "",
                    "type": "tuple"
                },
                {
                    "components": [
                        {
                            "internalType": "bool",
                            "name": "isInitialized",
                            "type": "bool"
                        },
                        {
                            "internalType": "uint256",
                            "name": "pausers",
                            "type": "uint256"
                        },
                        {
                            "internalType": "address",
                            "name": "invader",
                            "type": "address"
                        },
                        {
                            "internalType": "uint256",
                            "name": "invadeStartBlock",
                            "type": "uint256"
                        },
                        {
                            "internalType": "address",
                            "name": "capturer",
                            "type": "address"
                        }
                    ],
                    "internalType": "struct PlanetExtendedInfo2",
                    "name": "",
                    "type": "tuple"
                },
                {
                    "internalType": "uint256[12]",
                    "name": "eventsToRemove",
                    "type": "uint256[12]"
                },
                {
                    "internalType": "uint256[12]",
                    "name": "artifactsToAdd",
                    "type": "uint256[12]"
                }
            ],
            "stateMutability": "view",
            "type": "function"
        },
        {
            "inputs": [
                {
                    "internalType": "uint256[2]",
                    "name": "_a",
                    "type": "uint256[2]"
                },
                {
                    "internalType": "uint256[2][2]",
                    "name": "_b",
                    "type": "uint256[2][2]"
                },
                {
                    "internalType": "uint256[2]",
                    "name": "_c",
                    "type": "uint256[2]"
                },
                {
                    "internalType": "uint256[8]",
                    "name": "_input",
                    "type": "uint256[8]"
                }
            ],
            "name": "initializePlayer",
            "outputs": [
                {
                    "internalType": "uint256",
                    "name": "",
                    "type": "uint256"
                }
            ],
            "stateMutability": "nonpayable",
            "type": "function"
        },
        {
            "inputs": [
                {
                    "internalType": "uint256",
                    "name": "location",
                    "type": "uint256"
                }
            ],
            "name": "refreshPlanet",
            "outputs": [],
            "stateMutability": "nonpayable",
            "type": "function"
        },
        {
            "inputs": [
                {
                    "internalType": "uint256[2]",
                    "name": "_a",
                    "type": "uint256[2]"
                },
                {
                    "internalType": "uint256[2][2]",
                    "name": "_b",
                    "type": "uint256[2][2]"
                },
                {
                    "internalType": "uint256[2]",
                    "name": "_c",
                    "type": "uint256[2]"
                },
                {
                    "internalType": "uint256[9]",
                    "name": "_input",
                    "type": "uint256[9]"
                }
            ],
            "name": "revealLocation",
            "outputs": [
                {
                    "internalType": "uint256",
                    "name": "",
                    "type": "uint256"
                }
            ],
            "stateMutability": "nonpayable",
            "type": "function"
        },
        {
            "inputs": [
                {
                    "internalType": "uint256",
                    "name": "_location",
                    "type": "uint256"
                },
                {
                    "internalType": "address",
                    "name": "_player",
                    "type": "address"
                }
            ],
            "name": "transferPlanet",
            "outputs": [],
            "stateMutability": "nonpayable",
            "type": "function"
        },
        {
            "inputs": [
                {
                    "internalType": "uint256",
                    "name": "_location",
                    "type": "uint256"
                },
                {
                    "internalType": "uint256",
                    "name": "_branch",
                    "type": "uint256"
                }
            ],
            "name": "upgradePlanet",
            "outputs": [
                {
                    "internalType": "uint256",
                    "name": "",
                    "type": "uint256"
                },
                {
                    "internalType": "uint256",
                    "name": "",
                    "type": "uint256"
                }
            ],
            "stateMutability": "nonpayable",
            "type": "function"
        },
        {
            "inputs": [
                {
                    "internalType": "uint256",
                    "name": "locationId",
                    "type": "uint256"
                },
                {
                    "internalType": "uint256",
                    "name": "amount",
                    "type": "uint256"
                }
            ],
            "name": "withdrawSilver",
            "outputs": [],
            "stateMutability": "nonpayable",
            "type": "function"
        }
    ],
    "bytecode": "608060405234801561001057600080fd5b50611f16806100206000396000f3fe6080604052600436106100865760003560e01c806373a853811161005957806373a85381146101225780638f0742bf146101575780639fd4d4d414610188578063a44751a71461019b578063d161f02c146101c957600080fd5b806308a703701461008b5780633f324cf3146100ad578063443a397c146100cd57806349105550146100ed575b600080fd5b34801561009757600080fd5b506100ab6100a6366004611486565b6101e9565b005b3480156100b957600080fd5b506100ab6100c83660046114b6565b610525565b3480156100d957600080fd5b506100ab6100e83660046114cf565b6105bb565b3480156100f957600080fd5b5061010d6101083660046115f3565b61069d565b60405190151581526020015b60405180910390f35b34801561012e57600080fd5b5061014261013d3660046114cf565b6108ab565b60408051928352602083019190915201610119565b34801561016357600080fd5b506101776101723660046114cf565b610959565b6040516101199594939291906117aa565b6100ab6101963660046114b6565b610a33565b3480156101a757600080fd5b506101bb6101b63660046115f3565b610c2f565b604051908152602001610119565b3480156101d557600080fd5b506101bb6101e43660046118be565b610f13565b6101f16112fc565b54600160a01b900460ff16156102225760405162461bcd60e51b815260040161021990611975565b60405180910390fd5b7f5fb65bb339c6bd3f2609a7342e6cb046e09f3e40f45242a5971904b021b5bb6a5460ff166102935760405162461bcd60e51b815260206004820152601f60248201527f706c616e6574207472616e7366657272696e672069732064697361626c6564006044820152606401610219565b61029b6112fc565b6000838152600e91909101602052604090205460ff1615156001146102fe5760405162461bcd60e51b8152602060048201526019602482015278141b185b995d081a5cc81b9bdd081a5b9a5d1a585b1a5e9959603a1b6044820152606401610219565b61030782610525565b336103106112fc565b6000848152600c9190910160205260409020546001600160a01b0316146103495760405162461bcd60e51b81526004016102199061199d565b336001600160a01b038216036103a15760405162461bcd60e51b815260206004820152601e60248201527f43616e6e6f74207472616e7366657220706c616e657420746f2073656c6600006044820152606401610219565b6103a96112fc565b6001600160a01b0382166000908152601291909101602052604090205460ff166104305760405162461bcd60e51b815260206004820152603260248201527f43616e206f6e6c79207472616e73666572206f776e65727368697020746f20696044820152716e697469616c697a656420706c617965727360701b6064820152608401610219565b6104386112fc565b6000838152600e9190910160205260409020600b015460ff16156104a85760405162461bcd60e51b815260206004820152602160248201527f63616e2774207472616e7366657220612064657374726f79656420706c616e656044820152601d60fa1b6064820152608401610219565b806104b16112fc565b6000848152600c91909101602090815260409182902080546001600160a01b0319166001600160a01b039485161790558151338152908101859052918316908201527f1d92e9b511fc71a1213860ad7a4111448dc643ec0b6726a6edb81c06f3230db1906060015b60405180910390a15050565b61052d6112fc565b54600160a01b900460ff16156105555760405162461bcd60e51b815260040161021990611975565b604051633f324cf360e01b81526004810182905273__$5588a372fe54cd4953e82f0bc5932376ed$__90633f324cf39060240160006040518083038186803b1580156105a057600080fd5b505af41580156105b4573d6000803e3d6000fd5b5050505050565b6105c36112fc565b54600160a01b900460ff16156105eb5760405162461bcd60e51b815260040161021990611975565b6105f482610525565b60405163110e8e5f60e21b8152600481018390526024810182905273__$5588a372fe54cd4953e82f0bc5932376ed$__9063443a397c9060440160006040518083038186803b15801561064657600080fd5b505af415801561065a573d6000803e3d6000fd5b505060408051338152602081018690529081018490527ff7e58fc4b0905079f485f6d32c17942662c0e6785cfffe7dc539b11404632cdd92506060019050610519565b60007f2849cb27302bb32c0c7252ab45487d42296bcddad804f932e0b0589e515a93745460ff1661078b57604051630d20293f60e41b815273__$3d6e8b05f53a3662324d76e554a41ef6b3$__9063d20293f090610705908890889088908890600401611a4b565b602060405180830381865af4158015610722573d6000803e3d6000fd5b505050506040513d601f19601f820116820180604052508101906107469190611abd565b61078b5760405162461bcd60e51b81526020600482015260166024820152754661696c65642072657665616c20706620636865636b60501b6044820152606401610219565b73__$6b7b4f300876ea7c4892437e01c3ce569a$__6326c7e6186040518060a00160405280856004600981106107c3576107c3611adf565b60200201518152602001856005600981106107e0576107e0611adf565b60200201518152602001856006600981106107fd576107fd611adf565b602002015181526020018560076009811061081a5761081a611adf565b602002015181526020018560086009811061083757610837611adf565b602002015181525060006040518363ffffffff1660e01b815260040161085e929190611af5565b602060405180830381865af415801561087b573d6000803e3d6000fd5b505050506040513d601f19601f8201168201806040525081019061089f9190611abd565b50600195945050505050565b6000806108b66112fc565b54600160a01b900460ff16156108de5760405162461bcd60e51b815260040161021990611975565b6108e784610525565b6040516373a8538160e01b8152600481018590526024810184905273__$5588a372fe54cd4953e82f0bc5932376ed$__906373a853819060440160006040518083038186803b15801561093957600080fd5b505af415801561094d573d6000803e3d6000fd5b50959694955050505050565b61096161134e565b6109696113d0565b6040805160a08101825260008082526020820181905291810182905260608101829052608081019190915261099c61144f565b6109a461144f565b604051638f0742bf60e01b8152600481018890526024810187905273__$5588a372fe54cd4953e82f0bc5932376ed$__90638f0742bf906044016106e060405180830381865af41580156109fc573d6000803e3d6000fd5b505050506040513d601f19601f82011682018060405250810190610a209190611d11565b939b929a50909850965090945092505050565b610a3b6112fc565b54600160a01b900460ff1615610a635760405162461bcd60e51b815260040161021990611975565b610a6b6112fc565b6000828152600e91909101602052604090205460ff161515600114610ace5760405162461bcd60e51b8152602060048201526019602482015278141b185b995d081a5cc81b9bdd081a5b9a5d1a585b1a5e9959603a1b6044820152606401610219565b610ad781610525565b33610ae06112fc565b6000838152600c9190910160205260409020546001600160a01b031614610b195760405162461bcd60e51b81526004016102199061199d565b6000610b236112fc565b6000838152600e919091016020526040902060080154610b4f906001901b670de0b6b3a7640000611e42565b9050803414610b935760405162461bcd60e51b815260206004820152601060248201526f15dc9bdb99c81d985b1d59481cd95b9d60821b6044820152606401610219565b6001610b9d6112fc565b600e0160008481526020019081526020016000206008016000828254610bc39190611e61565b909155507f191948a607e3727d3abe53efe0912f2c3a917df67e33365e530a0df0cd8a779e90503383610bf46112fc565b6000868152600e9190910160209081526040918290206008015482516001600160a01b03909516855290840192909252820152606001610519565b604051633af32abf60e01b81523360048201526000903090633af32abf90602401602060405180830381865afa158015610c6d573d6000803e3d6000fd5b505050506040513d601f19601f82011682018060405250810190610c919190611abd565b80610cb45750610c9f611320565b6001600160a01b0316336001600160a01b0316145b610cfc5760405162461bcd60e51b8152602060048201526019602482015278141b185e595c881a5cc81b9bdd081dda1a5d195b1a5cdd1959603a1b6044820152606401610219565b610d088585858561069d565b610d4d5760405162461bcd60e51b81526020600482015260166024820152754661696c65642072657665616c20706620636865636b60501b6044820152606401610219565b610d556112fc565b82516000908152600e91909101602052604090205460ff16610de95781516020830151604051630facbb3f60e11b8152600481019290925260248201526000604482015273__$5588a372fe54cd4953e82f0bc5932376ed$__90631f59767e9060640160006040518083038186803b158015610dd057600080fd5b505af4158015610de4573d6000803e3d6000fd5b505050505b815160208301516040840151606085015173__$5588a372fe54cd4953e82f0bc5932376ed$__9363f35f65139390929091610e22611320565b60405160e087901b6001600160e01b031916815260048101959095526024850193909352604484019190915260648301526001600160a01b0316331415608482015260a40160006040518083038186803b158015610e7f57600080fd5b505af4158015610e93573d6000803e3d6000fd5b505050507fcc285dee81e69d685f5f8f01302f91e90dc2563f95dc92b247bb5e0332d569593383600060098110610ecc57610ecc611adf565b6020908102919091015160408087015160608089015183516001600160a01b03979097168752948601939093529084015282015260800160405180910390a1949350505050565b604051633af32abf60e01b81523360048201526000903090633af32abf90602401602060405180830381865afa158015610f51573d6000803e3d6000fd5b505050506040513d601f19601f82011682018060405250810190610f759190611abd565b80610f985750610f83611320565b6001600160a01b0316336001600160a01b0316145b610fe05760405162461bcd60e51b8152602060048201526019602482015278141b185e595c881a5cc81b9bdd081dda1a5d195b1a5cdd1959603a1b6044820152606401610219565b60405163700fc49360e11b815273__$5588a372fe54cd4953e82f0bc5932376ed$__9063e01f892690611020908890889088908890600190600401611e79565b60006040518083038186803b15801561103857600080fd5b505af415801561104c573d6000803e3d6000fd5b5050505060008260006008811061106557611065611adf565b60209081029190910151908401516040808601519051633add78a160e21b8152600481018490526024810183905260448101829052929350909173__$5588a372fe54cd4953e82f0bc5932376ed$__9063eb75e28490606401602060405180830381865af41580156110db573d6000803e3d6000fd5b505050506040513d601f19601f820116820180604052508101906110ff9190611abd565b61110857600080fd5b6111106112fc565b6008018054600181810183556000928352602080842090920180546001600160a01b031916339081179091556040805161012081018252928352928201524291810191909152606081018590526080810182905260a0810182905260c081019190915260e0810161119e7f5fb65bb339c6bd3f2609a7342e6cb046e09f3e40f45242a5971904b021b5bb5390565b604a0154815260006020909101526111b46112fc565b3360009081526012919091016020908152604080832084518154938601516001600160a81b0319909416901515610100600160a81b031916176101006001600160a01b039094168402178155848201516001820155606085015160028201556080850151600382015560a085015160048083019190915560c0860151600583015560e0860151600683015592909401516007909401805460ff191694151594909417909355825163eaae465360e01b8152925173__$6b7b4f300876ea7c4892437e01c3ce569a$__9363eaae46539381840193909291829003018186803b15801561129e57600080fd5b505af41580156112b2573d6000803e3d6000fd5b505060408051338152602081018790527f5765df5ce7cf4175ef997923b4936159dcf3cea059434dab4643214d690a2b95935001905060405180910390a150909695505050505050565b7fcb7f1a525606efcbba7baaf9b0b55c468d0fd558cbf767967f538834dfa1232e90565b7fc8fcad8db84d3cc18b4c41d551ea0ee66dd599cde068d998e57d5e09332c1320546001600160a01b031690565b604051806101a0016040528060006001600160a01b0316815260200160008152602001600081526020016000815260200160008152602001600081526020016000815260200160008152602001600081526020016000815260200160008152602001600060048111156113c3576113c36116ac565b8152600060209091015290565b604051806101a001604052806000151581526020016000815260200160008152602001600081526020016000600381111561140d5761140d6116ac565b81526020016000815260200160008152602001600081526020016000815260200160001515815260200160008152602001600015158152602001600081525090565b604051806101800160405280600c906020820280368337509192915050565b6001600160a01b038116811461148357600080fd5b50565b6000806040838503121561149957600080fd5b8235915060208301356114ab8161146e565b809150509250929050565b6000602082840312156114c857600080fd5b5035919050565b600080604083850312156114e257600080fd5b50508035926020909101359150565b634e487b7160e01b600052604160045260246000fd5b6040516101a0810167ffffffffffffffff8111828210171561152b5761152b6114f1565b60405290565b6040805190810167ffffffffffffffff8111828210171561152b5761152b6114f1565b600082601f83011261156557600080fd5b61156d611531565b80604084018581111561157f57600080fd5b845b81811015611599578035845260209384019301611581565b509095945050505050565b600082601f8301126115b557600080fd5b6115bd611531565b8060808401858111156115cf57600080fd5b845b81811015611599576115e38782611554565b84526020909301926040016115d1565b60008060008061022080868803121561160b57600080fd5b6116158787611554565b945061162487604088016115a4565b93506116338760c08801611554565b92508661011f87011261164557600080fd5b604051610120810181811067ffffffffffffffff82111715611669576116696114f1565b60405290860190808883111561167e57600080fd5b61010088015b8381101561169c578035825260209182019101611684565b5050809250505092959194509250565b634e487b7160e01b600052602160045260246000fd5b600581106116d2576116d26116ac565b9052565b600481106116d2576116d26116ac565b805115158252602081015160208301526040810151604083015260608101516060830152608081015161171c60808401826116d6565b5060a081015160a083015260c081015160c083015260e081015160e08301526101008082015181840152506101208082015161175b8285018215159052565b505061014081810151908301526101608082015115159083015261018090810151910152565b8060005b600c8110156117a4578151845260209384019390910190600101611785565b50505050565b85516001600160a01b031681526106e081016020870151602083015260408701516040830152606087015160608301526080870151608083015260a087015160a083015260c087015160c083015260e087015160e083015261010080880151818401525061012080880151818401525061014080880151818401525061016080880151611839828501826116c2565b5050610180878101511515908301526118566101a08301876116e6565b84511515610340830152602085015161036083015260408501516001600160a01b0390811661038084015260608601516103a08401526080860151166103c08301526118a66103e0830185611781565b6118b4610560830184611781565b9695505050505050565b6000806000806102008086880312156118d657600080fd5b6118e08787611554565b94506118ef87604088016115a4565b93506118fe8760c08801611554565b92506101008761011f88011261191357600080fd5b60405181810181811067ffffffffffffffff82111715611935576119356114f1565b60405291870191808984111561194a57600080fd5b918801915b8383101561196757823581526020928301920161194f565b509598949750929550505050565b6020808252600e908201526d11d85b59481a5cc81c185d5cd95960921b604082015260600190565b60208082526038908201527f4f6e6c79206f776e6572206163636f756e742063616e20706572666f726d207460408201527f686174206f7065726174696f6e206f6e20706c616e65742e0000000000000000606082015260800190565b8060005b60028110156117a45781518452602093840193909101906001016119fe565b8060005b60028110156117a457611a358483516119fa565b6040939093019260209190910190600101611a21565b6102208101611a5a82876119fa565b611a676040830186611a1d565b611a7460c08301856119fa565b61010082018360005b6009811015611a9c578151835260209283019290910190600101611a7d565b50505095945050505050565b80518015158114611ab857600080fd5b919050565b600060208284031215611acf57600080fd5b611ad882611aa8565b9392505050565b634e487b7160e01b600052603260045260246000fd5b60c08101818460005b6005811015611b1d578151835260209283019290910190600101611afe565b50505082151560a08301529392505050565b8051611ab88161146e565b805160058110611ab857600080fd5b805160048110611ab857600080fd5b60006101a08284031215611b6b57600080fd5b611b73611507565b9050611b7e82611aa8565b8152602082015160208201526040820151604082015260608201516060820152611baa60808301611b49565b608082015260a082015160a082015260c082015160c082015260e082015160e0820152610100808301518183015250610120611be7818401611aa8565b908201526101408281015190820152610160611c04818401611aa8565b818301525061018080830151818301525092915050565b600060a08284031215611c2d57600080fd5b60405160a0810181811067ffffffffffffffff82111715611c5057611c506114f1565b604052905080611c5f83611aa8565b8152602083015160208201526040830151611c798161146e565b6040820152606083810151908201526080830151611c968161146e565b6080919091015292915050565b600082601f830112611cb457600080fd5b60405161018080820182811067ffffffffffffffff82111715611cd957611cd96114f1565b60405283018185821115611cec57600080fd5b845b82811015611d06578051825260209182019101611cee565b509195945050505050565b60008060008060008587036106e0811215611d2b57600080fd5b6101a080821215611d3b57600080fd5b611d43611507565b9150611d4e88611b2f565b82526020880151602083015260408801516040830152606088015160608301526080880151608083015260a088015160a083015260c088015160c083015260e088015160e0830152610100808901518184015250610120808901518184015250610140808901518184015250610160611dc8818a01611b3a565b90830152610180611dda898201611aa8565b8184015250819650611dee89828a01611b58565b95505050611e00876103408801611c1b565b9250611e10876103e08801611ca3565b9150611e20876105608801611ca3565b90509295509295909350565b634e487b7160e01b600052601160045260246000fd5b6000816000190483118215151615611e5c57611e5c611e2c565b500290565b60008219821115611e7457611e74611e2c565b500190565b6102208101611e8882886119fa565b611e956040830187611a1d565b611ea260c08301866119fa565b61010082018460005b6008811015611eca578151835260209283019290910190600101611eab565b505050821515610200830152969550505050505056fea2646970667358221220d25cc29cb8e50f11f7c9cd51824910b6722240b9efe3d7559edbcd71e2a4d0be64736f6c634300080d0033",
    "sourcePath": "/Users/lele/Downloads/eth-master/contracts/facets/DFCoreFacet.sol",
    "compiler": {
        "name": "solc",
        "version": "0.8.13+commit.abaa5c0e"
    },
    "functionHashes": {
        "buyHat(uint256)": "9fd4d4d4",
        "checkRevealProof(uint256[2],uint256[2][2],uint256[2],uint256[9])": "49105550",
        "getRefreshedPlanet(uint256,uint256)": "8f0742bf",
        "initializePlayer(uint256[2],uint256[2][2],uint256[2],uint256[8])": "d161f02c",
        "refreshPlanet(uint256)": "3f324cf3",
        "revealLocation(uint256[2],uint256[2][2],uint256[2],uint256[9])": "a44751a7",
        "transferPlanet(uint256,address)": "08a70370",
        "upgradePlanet(uint256,uint256)": "73a85381",
        "withdrawSilver(uint256,uint256)": "443a397c"
    },
    "gasEstimates": {
        "creation": {
            "codeDepositCost": "1591600",
            "executionCost": "1666",
            "totalCost": "1593266"
        },
        "external": {
            "buyHat(uint256)": "infinite",
            "checkRevealProof(uint256[2],uint256[2][2],uint256[2],uint256[9])": "infinite",
            "getRefreshedPlanet(uint256,uint256)": "infinite",
            "initializePlayer(uint256[2],uint256[2][2],uint256[2],uint256[8])": "infinite",
            "refreshPlanet(uint256)": "infinite",
            "revealLocation(uint256[2],uint256[2][2],uint256[2],uint256[9])": "infinite",
            "transferPlanet(uint256,address)": "infinite",
            "upgradePlanet(uint256,uint256)": "infinite",
            "withdrawSilver(uint256,uint256)": "infinite"
        }
    }
}