{
    "contractName": "DFDebugFacet",
    "abi": [
        {
            "inputs": [
                {
                    "internalType": "uint256",
                    "name": "locationId",
                    "type": "uint256"
                }
            ],
            "name": "adminFillPlanet",
            "outputs": [],
            "stateMutability": "nonpayable",
            "type": "function"
        }
    ],
    "bytecode": "608060405234801561001057600080fd5b506101eb806100206000396000f3fe608060405234801561001057600080fd5b506004361061002b5760003560e01c80630ab4683514610030575b600080fd5b61004361003e36600461019c565b610045565b005b61004d610113565b60008181527fcb7f1a525606efcbba7baaf9b0b55c468d0fd558cbf767967f538834dfa1233c602052604090205460ff166100cf5760405162461bcd60e51b815260206004820152601960248201527f706c616e6574206973206e6f7420696e697469616c697a65640000000000000060448201526064015b60405180910390fd5b60009081527fcb7f1a525606efcbba7baaf9b0b55c468d0fd558cbf767967f538834dfa1233a60205260409020600781015460098201556005810154600490910155565b7fc8fcad8db84d3cc18b4c41d551ea0ee66dd599cde068d998e57d5e09332c131c600401546001600160a01b0316331461019a5760405162461bcd60e51b815260206004820152602260248201527f4c69624469616d6f6e643a204d75737420626520636f6e7472616374206f776e60448201526132b960f11b60648201526084016100c6565b565b6000602082840312156101ae57600080fd5b503591905056fea264697066735822122095b92fd83241570e6fde89352d15aae4fa52d2f1a5b04eb7e9b78c65bedcec9c64736f6c634300080d0033",
    "sourcePath": "/Users/lele/Downloads/eth-master/contracts/facets/DFDebugFacet.sol",
    "compiler": {
        "name": "solc",
        "version": "0.8.13+commit.abaa5c0e"
    },
    "functionHashes": {
        "adminFillPlanet(uint256)": "0ab46835"
    },
    "gasEstimates": {
        "creation": {
            "codeDepositCost": "98200",
            "executionCost": "147",
            "totalCost": "98347"
        },
        "external": {
            "adminFillPlanet(uint256)": "53066"
        }
    }
}