{
    "contractName": "DFGetterFacet",
    "abi": [
        {
            "inputs": [],
            "name": "TOKEN_MINT_END_TIMESTAMP",
            "outputs": [
                {
                    "internalType": "uint256",
                    "name": "",
                    "type": "uint256"
                }
            ],
            "stateMutability": "view",
            "type": "function"
        },
        {
            "inputs": [],
            "name": "adminAddress",
            "outputs": [
                {
                    "internalType": "address",
                    "name": "",
                    "type": "address"
                }
            ],
            "stateMutability": "view",
            "type": "function"
        },
        {
            "inputs": [
                {
                    "internalType": "uint256",
                    "name": "key",
                    "type": "uint256"
                }
            ],
            "name": "artifactIdToPlanetId",
            "outputs": [
                {
                    "internalType": "uint256",
                    "name": "",
                    "type": "uint256"
                }
            ],
            "stateMutability": "view",
            "type": "function"
        },
        {
            "inputs": [
                {
                    "internalType": "uint256",
                    "name": "key",
                    "type": "uint256"
                }
            ],
            "name": "artifactIdToVoyageId",
            "outputs": [
                {
                    "internalType": "uint256",
                    "name": "",
                    "type": "uint256"
                }
            ],
            "stateMutability": "view",
            "type": "function"
        },
        {
            "inputs": [
                {
                    "internalType": "uint256",
                    "name": "startIdx",
                    "type": "uint256"
                },
                {
                    "internalType": "uint256",
                    "name": "endIdx",
                    "type": "uint256"
                }
            ],
            "name": "bulkGetArtifacts",
            "outputs": [
                {
                    "components": [
                        {
                            "components": [
                                {
                                    "internalType": "bool",
                                    "name": "isInitialized",
                                    "type": "bool"
                                },
                                {
                                    "internalType": "uint256",
                                    "name": "id",
                                    "type": "uint256"
                                },
                                {
                                    "internalType": "uint256",
                                    "name": "planetDiscoveredOn",
                                    "type": "uint256"
                                },
                                {
                                    "internalType": "enum ArtifactRarity",
                                    "name": "rarity",
                                    "type": "uint8"
                                },
                                {
                                    "internalType": "enum Biome",
                                    "name": "planetBiome",
                                    "type": "uint8"
                                },
                                {
                                    "internalType": "uint256",
                                    "name": "mintedAtTimestamp",
                                    "type": "uint256"
                                },
                                {
                                    "internalType": "address",
                                    "name": "discoverer",
                                    "type": "address"
                                },
                                {
                                    "internalType": "enum ArtifactType",
                                    "name": "artifactType",
                                    "type": "uint8"
                                },
                                {
                                    "internalType": "uint256",
                                    "name": "activations",
                                    "type": "uint256"
                                },
                                {
                                    "internalType": "uint256",
                                    "name": "lastActivated",
                                    "type": "uint256"
                                },
                                {
                                    "internalType": "uint256",
                                    "name": "lastDeactivated",
                                    "type": "uint256"
                                },
                                {
                                    "internalType": "uint256",
                                    "name": "wormholeTo",
                                    "type": "uint256"
                                },
                                {
                                    "internalType": "address",
                                    "name": "controller",
                                    "type": "address"
                                }
                            ],
                            "internalType": "struct Artifact",
                            "name": "artifact",
                            "type": "tuple"
                        },
                        {
                            "components": [
                                {
                                    "internalType": "uint256",
                                    "name": "popCapMultiplier",
                                    "type": "uint256"
                                },
                                {
                                    "internalType": "uint256",
                                    "name": "popGroMultiplier",
                                    "type": "uint256"
                                },
                                {
                                    "internalType": "uint256",
                                    "name": "rangeMultiplier",
                                    "type": "uint256"
                                },
                                {
                                    "internalType": "uint256",
                                    "name": "speedMultiplier",
                                    "type": "uint256"
                                },
                                {
                                    "internalType": "uint256",
                                    "name": "defMultiplier",
                                    "type": "uint256"
                                }
                            ],
                            "internalType": "struct Upgrade",
                            "name": "upgrade",
                            "type": "tuple"
                        },
                        {
                            "components": [
                                {
                                    "internalType": "uint256",
                                    "name": "popCapMultiplier",
                                    "type": "uint256"
                                },
                                {
                                    "internalType": "uint256",
                                    "name": "popGroMultiplier",
                                    "type": "uint256"
                                },
                                {
                                    "internalType": "uint256",
                                    "name": "rangeMultiplier",
                                    "type": "uint256"
                                },
                                {
                                    "internalType": "uint256",
                                    "name": "speedMultiplier",
                                    "type": "uint256"
                                },
                                {
                                    "internalType": "uint256",
                                    "name": "defMultiplier",
                                    "type": "uint256"
                                }
                            ],
                            "internalType": "struct Upgrade",
                            "name": "timeDelayedUpgrade",
                            "type": "tuple"
                        },
                        {
                            "internalType": "address",
                            "name": "owner",
                            "type": "address"
                        },
                        {
                            "internalType": "uint256",
                            "name": "locationId",
                            "type": "uint256"
                        },
                        {
                            "internalType": "uint256",
                            "name": "voyageId",
                            "type": "uint256"
                        }
                    ],
                    "internalType": "struct ArtifactWithMetadata[]",
                    "name": "ret",
                    "type": "tuple[]"
                }
            ],
            "stateMutability": "view",
            "type": "function"
        },
        {
            "inputs": [
                {
                    "internalType": "uint256[]",
                    "name": "ids",
                    "type": "uint256[]"
                }
            ],
            "name": "bulkGetArtifactsByIds",
            "outputs": [
                {
                    "components": [
                        {
                            "components": [
                                {
                                    "internalType": "bool",
                                    "name": "isInitialized",
                                    "type": "bool"
                                },
                                {
                                    "internalType": "uint256",
                                    "name": "id",
                                    "type": "uint256"
                                },
                                {
                                    "internalType": "uint256",
                                    "name": "planetDiscoveredOn",
                                    "type": "uint256"
                                },
                                {
                                    "internalType": "enum ArtifactRarity",
                                    "name": "rarity",
                                    "type": "uint8"
                                },
                                {
                                    "internalType": "enum Biome",
                                    "name": "planetBiome",
                                    "type": "uint8"
                                },
                                {
                                    "internalType": "uint256",
                                    "name": "mintedAtTimestamp",
                                    "type": "uint256"
                                },
                                {
                                    "internalType": "address",
                                    "name": "discoverer",
                                    "type": "address"
                                },
                                {
                                    "internalType": "enum ArtifactType",
                                    "name": "artifactType",
                                    "type": "uint8"
                                },
                                {
                                    "internalType": "uint256",
                                    "name": "activations",
                                    "type": "uint256"
                                },
                                {
                                    "internalType": "uint256",
                                    "name": "lastActivated",
                                    "type": "uint256"
                                },
                                {
                                    "internalType": "uint256",
                                    "name": "lastDeactivated",
                                    "type": "uint256"
                                },
                                {
                                    "internalType": "uint256",
                                    "name": "wormholeTo",
                                    "type": "uint256"
                                },
                                {
                                    "internalType": "address",
                                    "name": "controller",
                                    "type": "address"
                                }
                            ],
                            "internalType": "struct Artifact",
                            "name": "artifact",
                            "type": "tuple"
                        },
                        {
                            "components": [
                                {
                                    "internalType": "uint256",
                                    "name": "popCapMultiplier",
                                    "type": "uint256"
                                },
                                {
                                    "internalType": "uint256",
                                    "name": "popGroMultiplier",
                                    "type": "uint256"
                                },
                                {
                                    "internalType": "uint256",
                                    "name": "rangeMultiplier",
                                    "type": "uint256"
                                },
                                {
                                    "internalType": "uint256",
                                    "name": "speedMultiplier",
                                    "type": "uint256"
                                },
                                {
                                    "internalType": "uint256",
                                    "name": "defMultiplier",
                                    "type": "uint256"
                                }
                            ],
                            "internalType": "struct Upgrade",
                            "name": "upgrade",
                            "type": "tuple"
                        },
                        {
                            "components": [
                                {
                                    "internalType": "uint256",
                                    "name": "popCapMultiplier",
                                    "type": "uint256"
                                },
                                {
                                    "internalType": "uint256",
                                    "name": "popGroMultiplier",
                                    "type": "uint256"
                                },
                                {
                                    "internalType": "uint256",
                                    "name": "rangeMultiplier",
                                    "type": "uint256"
                                },
                                {
                                    "internalType": "uint256",
                                    "name": "speedMultiplier",
                                    "type": "uint256"
                                },
                                {
                                    "internalType": "uint256",
                                    "name": "defMultiplier",
                                    "type": "uint256"
                                }
                            ],
                            "internalType": "struct Upgrade",
                            "name": "timeDelayedUpgrade",
                            "type": "tuple"
                        },
                        {
                            "internalType": "address",
                            "name": "owner",
                            "type": "address"
                        },
                        {
                            "internalType": "uint256",
                            "name": "locationId",
                            "type": "uint256"
                        },
                        {
                            "internalType": "uint256",
                            "name": "voyageId",
                            "type": "uint256"
                        }
                    ],
                    "internalType": "struct ArtifactWithMetadata[]",
                    "name": "ret",
                    "type": "tuple[]"
                }
            ],
            "stateMutability": "view",
            "type": "function"
        },
        {
            "inputs": [
                {
                    "internalType": "uint256",
                    "name": "startIdx",
                    "type": "uint256"
                },
                {
                    "internalType": "uint256",
                    "name": "endIdx",
                    "type": "uint256"
                }
            ],
            "name": "bulkGetPlanetArrivals",
            "outputs": [
                {
                    "components": [
                        {
                            "internalType": "uint256",
                            "name": "id",
                            "type": "uint256"
                        },
                        {
                            "internalType": "address",
                            "name": "player",
                            "type": "address"
                        },
                        {
                            "internalType": "uint256",
                            "name": "fromPlanet",
                            "type": "uint256"
                        },
                        {
                            "internalType": "uint256",
                            "name": "toPlanet",
                            "type": "uint256"
                        },
                        {
                            "internalType": "uint256",
                            "name": "popArriving",
                            "type": "uint256"
                        },
                        {
                            "internalType": "uint256",
                            "name": "silverMoved",
                            "type": "uint256"
                        },
                        {
                            "internalType": "uint256",
                            "name": "departureTime",
                            "type": "uint256"
                        },
                        {
                            "internalType": "uint256",
                            "name": "arrivalTime",
                            "type": "uint256"
                        },
                        {
                            "internalType": "enum ArrivalType",
                            "name": "arrivalType",
                            "type": "uint8"
                        },
                        {
                            "internalType": "uint256",
                            "name": "carriedArtifactId",
                            "type": "uint256"
                        },
                        {
                            "internalType": "uint256",
                            "name": "distance",
                            "type": "uint256"
                        }
                    ],
                    "internalType": "struct ArrivalData[][]",
                    "name": "",
                    "type": "tuple[][]"
                }
            ],
            "stateMutability": "view",
            "type": "function"
        },
        {
            "inputs": [
                {
                    "internalType": "uint256[]",
                    "name": "ids",
                    "type": "uint256[]"
                }
            ],
            "name": "bulkGetPlanetArrivalsByIds",
            "outputs": [
                {
                    "components": [
                        {
                            "internalType": "uint256",
                            "name": "id",
                            "type": "uint256"
                        },
                        {
                            "internalType": "address",
                            "name": "player",
                            "type": "address"
                        },
                        {
                            "internalType": "uint256",
                            "name": "fromPlanet",
                            "type": "uint256"
                        },
                        {
                            "internalType": "uint256",
                            "name": "toPlanet",
                            "type": "uint256"
                        },
                        {
                            "internalType": "uint256",
                            "name": "popArriving",
                            "type": "uint256"
                        },
                        {
                            "internalType": "uint256",
                            "name": "silverMoved",
                            "type": "uint256"
                        },
                        {
                            "internalType": "uint256",
                            "name": "departureTime",
                            "type": "uint256"
                        },
                        {
                            "internalType": "uint256",
                            "name": "arrivalTime",
                            "type": "uint256"
                        },
                        {
                            "internalType": "enum ArrivalType",
                            "name": "arrivalType",
                            "type": "uint8"
                        },
                        {
                            "internalType": "uint256",
                            "name": "carriedArtifactId",
                            "type": "uint256"
                        },
                        {
                            "internalType": "uint256",
                            "name": "distance",
                            "type": "uint256"
                        }
                    ],
                    "internalType": "struct ArrivalData[][]",
                    "name": "",
                    "type": "tuple[][]"
                }
            ],
            "stateMutability": "view",
            "type": "function"
        },
        {
            "inputs": [
                {
                    "internalType": "uint256[]",
                    "name": "planetIds",
                    "type": "uint256[]"
                }
            ],
            "name": "bulkGetPlanetArtifacts",
            "outputs": [
                {
                    "components": [
                        {
                            "components": [
                                {
                                    "internalType": "bool",
                                    "name": "isInitialized",
                                    "type": "bool"
                                },
                                {
                                    "internalType": "uint256",
                                    "name": "id",
                                    "type": "uint256"
                                },
                                {
                                    "internalType": "uint256",
                                    "name": "planetDiscoveredOn",
                                    "type": "uint256"
                                },
                                {
                                    "internalType": "enum ArtifactRarity",
                                    "name": "rarity",
                                    "type": "uint8"
                                },
                                {
                                    "internalType": "enum Biome",
                                    "name": "planetBiome",
                                    "type": "uint8"
                                },
                                {
                                    "internalType": "uint256",
                                    "name": "mintedAtTimestamp",
                                    "type": "uint256"
                                },
                                {
                                    "internalType": "address",
                                    "name": "discoverer",
                                    "type": "address"
                                },
                                {
                                    "internalType": "enum ArtifactType",
                                    "name": "artifactType",
                                    "type": "uint8"
                                },
                                {
                                    "internalType": "uint256",
                                    "name": "activations",
                                    "type": "uint256"
                                },
                                {
                                    "internalType": "uint256",
                                    "name": "lastActivated",
                                    "type": "uint256"
                                },
                                {
                                    "internalType": "uint256",
                                    "name": "lastDeactivated",
                                    "type": "uint256"
                                },
                                {
                                    "internalType": "uint256",
                                    "name": "wormholeTo",
                                    "type": "uint256"
                                },
                                {
                                    "internalType": "address",
                                    "name": "controller",
                                    "type": "address"
                                }
                            ],
                            "internalType": "struct Artifact",
                            "name": "artifact",
                            "type": "tuple"
                        },
                        {
                            "components": [
                                {
                                    "internalType": "uint256",
                                    "name": "popCapMultiplier",
                                    "type": "uint256"
                                },
                                {
                                    "internalType": "uint256",
                                    "name": "popGroMultiplier",
                                    "type": "uint256"
                                },
                                {
                                    "internalType": "uint256",
                                    "name": "rangeMultiplier",
                                    "type": "uint256"
                                },
                                {
                                    "internalType": "uint256",
                                    "name": "speedMultiplier",
                                    "type": "uint256"
                                },
                                {
                                    "internalType": "uint256",
                                    "name": "defMultiplier",
                                    "type": "uint256"
                                }
                            ],
                            "internalType": "struct Upgrade",
                            "name": "upgrade",
                            "type": "tuple"
                        },
                        {
                            "components": [
                                {
                                    "internalType": "uint256",
                                    "name": "popCapMultiplier",
                                    "type": "uint256"
                                },
                                {
                                    "internalType": "uint256",
                                    "name": "popGroMultiplier",
                                    "type": "uint256"
                                },
                                {
                                    "internalType": "uint256",
                                    "name": "rangeMultiplier",
                                    "type": "uint256"
                                },
                                {
                                    "internalType": "uint256",
                                    "name": "speedMultiplier",
                                    "type": "uint256"
                                },
                                {
                                    "internalType": "uint256",
                                    "name": "defMultiplier",
                                    "type": "uint256"
                                }
                            ],
                            "internalType": "struct Upgrade",
                            "name": "timeDelayedUpgrade",
                            "type": "tuple"
                        },
                        {
                            "internalType": "address",
                            "name": "owner",
                            "type": "address"
                        },
                        {
                            "internalType": "uint256",
                            "name": "locationId",
                            "type": "uint256"
                        },
                        {
                            "internalType": "uint256",
                            "name": "voyageId",
                            "type": "uint256"
                        }
                    ],
                    "internalType": "struct ArtifactWithMetadata[][]",
                    "name": "",
                    "type": "tuple[][]"
                }
            ],
            "stateMutability": "view",
            "type": "function"
        },
        {
            "inputs": [
                {
                    "internalType": "uint256",
                    "name": "startIdx",
                    "type": "uint256"
                },
                {
                    "internalType": "uint256",
                    "name": "endIdx",
                    "type": "uint256"
                }
            ],
            "name": "bulkGetPlanetIds",
            "outputs": [
                {
                    "internalType": "uint256[]",
                    "name": "ret",
                    "type": "uint256[]"
                }
            ],
            "stateMutability": "view",
            "type": "function"
        },
        {
            "inputs": [
                {
                    "internalType": "uint256",
                    "name": "startIdx",
                    "type": "uint256"
                },
                {
                    "internalType": "uint256",
                    "name": "endIdx",
                    "type": "uint256"
                }
            ],
            "name": "bulkGetPlanets",
            "outputs": [
                {
                    "components": [
                        {
                            "internalType": "address",
                            "name": "owner",
                            "type": "address"
                        },
                        {
                            "internalType": "uint256",
                            "name": "range",
                            "type": "uint256"
                        },
                        {
                            "internalType": "uint256",
                            "name": "speed",
                            "type": "uint256"
                        },
                        {
                            "internalType": "uint256",
                            "name": "defense",
                            "type": "uint256"
                        },
                        {
                            "internalType": "uint256",
                            "name": "population",
                            "type": "uint256"
                        },
                        {
                            "internalType": "uint256",
                            "name": "populationCap",
                            "type": "uint256"
                        },
                        {
                            "internalType": "uint256",
                            "name": "populationGrowth",
                            "type": "uint256"
                        },
                        {
                            "internalType": "uint256",
                            "name": "silverCap",
                            "type": "uint256"
                        },
                        {
                            "internalType": "uint256",
                            "name": "silverGrowth",
                            "type": "uint256"
                        },
                        {
                            "internalType": "uint256",
                            "name": "silver",
                            "type": "uint256"
                        },
                        {
                            "internalType": "uint256",
                            "name": "planetLevel",
                            "type": "uint256"
                        },
                        {
                            "internalType": "enum PlanetType",
                            "name": "planetType",
                            "type": "uint8"
                        },
                        {
                            "internalType": "bool",
                            "name": "isHomePlanet",
                            "type": "bool"
                        }
                    ],
                    "internalType": "struct Planet[]",
                    "name": "ret",
                    "type": "tuple[]"
                }
            ],
            "stateMutability": "view",
            "type": "function"
        },
        {
            "inputs": [
                {
                    "internalType": "uint256[]",
                    "name": "ids",
                    "type": "uint256[]"
                }
            ],
            "name": "bulkGetPlanetsByIds",
            "outputs": [
                {
                    "components": [
                        {
                            "internalType": "address",
                            "name": "owner",
                            "type": "address"
                        },
                        {
                            "internalType": "uint256",
                            "name": "range",
                            "type": "uint256"
                        },
                        {
                            "internalType": "uint256",
                            "name": "speed",
                            "type": "uint256"
                        },
                        {
                            "internalType": "uint256",
                            "name": "defense",
                            "type": "uint256"
                        },
                        {
                            "internalType": "uint256",
                            "name": "population",
                            "type": "uint256"
                        },
                        {
                            "internalType": "uint256",
                            "name": "populationCap",
                            "type": "uint256"
                        },
                        {
                            "internalType": "uint256",
                            "name": "populationGrowth",
                            "type": "uint256"
                        },
                        {
                            "internalType": "uint256",
                            "name": "silverCap",
                            "type": "uint256"
                        },
                        {
                            "internalType": "uint256",
                            "name": "silverGrowth",
                            "type": "uint256"
                        },
                        {
                            "internalType": "uint256",
                            "name": "silver",
                            "type": "uint256"
                        },
                        {
                            "internalType": "uint256",
                            "name": "planetLevel",
                            "type": "uint256"
                        },
                        {
                            "internalType": "enum PlanetType",
                            "name": "planetType",
                            "type": "uint8"
                        },
                        {
                            "internalType": "bool",
                            "name": "isHomePlanet",
                            "type": "bool"
                        }
                    ],
                    "internalType": "struct Planet[]",
                    "name": "ret",
                    "type": "tuple[]"
                }
            ],
            "stateMutability": "view",
            "type": "function"
        },
        {
            "inputs": [
                {
                    "internalType": "uint256[]",
                    "name": "ids",
                    "type": "uint256[]"
                }
            ],
            "name": "bulkGetPlanetsDataByIds",
            "outputs": [
                {
                    "components": [
                        {
                            "components": [
                                {
                                    "internalType": "address",
                                    "name": "owner",
                                    "type": "address"
                                },
                                {
                                    "internalType": "uint256",
                                    "name": "range",
                                    "type": "uint256"
                                },
                                {
                                    "internalType": "uint256",
                                    "name": "speed",
                                    "type": "uint256"
                                },
                                {
                                    "internalType": "uint256",
                                    "name": "defense",
                                    "type": "uint256"
                                },
                                {
                                    "internalType": "uint256",
                                    "name": "population",
                                    "type": "uint256"
                                },
                                {
                                    "internalType": "uint256",
                                    "name": "populationCap",
                                    "type": "uint256"
                                },
                                {
                                    "internalType": "uint256",
                                    "name": "populationGrowth",
                                    "type": "uint256"
                                },
                                {
                                    "internalType": "uint256",
                                    "name": "silverCap",
                                    "type": "uint256"
                                },
                                {
                                    "internalType": "uint256",
                                    "name": "silverGrowth",
                                    "type": "uint256"
                                },
                                {
                                    "internalType": "uint256",
                                    "name": "silver",
                                    "type": "uint256"
                                },
                                {
                                    "internalType": "uint256",
                                    "name": "planetLevel",
                                    "type": "uint256"
                                },
                                {
                                    "internalType": "enum PlanetType",
                                    "name": "planetType",
                                    "type": "uint8"
                                },
                                {
                                    "internalType": "bool",
                                    "name": "isHomePlanet",
                                    "type": "bool"
                                }
                            ],
                            "internalType": "struct Planet",
                            "name": "planet",
                            "type": "tuple"
                        },
                        {
                            "components": [
                                {
                                    "internalType": "bool",
                                    "name": "isInitialized",
                                    "type": "bool"
                                },
                                {
                                    "internalType": "uint256",
                                    "name": "createdAt",
                                    "type": "uint256"
                                },
                                {
                                    "internalType": "uint256",
                                    "name": "lastUpdated",
                                    "type": "uint256"
                                },
                                {
                                    "internalType": "uint256",
                                    "name": "perlin",
                                    "type": "uint256"
                                },
                                {
                                    "internalType": "enum SpaceType",
                                    "name": "spaceType",
                                    "type": "uint8"
                                },
                                {
                                    "internalType": "uint256",
                                    "name": "upgradeState0",
                                    "type": "uint256"
                                },
                                {
                                    "internalType": "uint256",
                                    "name": "upgradeState1",
                                    "type": "uint256"
                                },
                                {
                                    "internalType": "uint256",
                                    "name": "upgradeState2",
                                    "type": "uint256"
                                },
                                {
                                    "internalType": "uint256",
                                    "name": "hatLevel",
                                    "type": "uint256"
                                },
                                {
                                    "internalType": "bool",
                                    "name": "hasTriedFindingArtifact",
                                    "type": "bool"
                                },
                                {
                                    "internalType": "uint256",
                                    "name": "prospectedBlockNumber",
                                    "type": "uint256"
                                },
                                {
                                    "internalType": "bool",
                                    "name": "destroyed",
                                    "type": "bool"
                                },
                                {
                                    "internalType": "uint256",
                                    "name": "spaceJunk",
                                    "type": "uint256"
                                }
                            ],
                            "internalType": "struct PlanetExtendedInfo",
                            "name": "info",
                            "type": "tuple"
                        },
                        {
                            "components": [
                                {
                                    "internalType": "bool",
                                    "name": "isInitialized",
                                    "type": "bool"
                                },
                                {
                                    "internalType": "uint256",
                                    "name": "pausers",
                                    "type": "uint256"
                                },
                                {
                                    "internalType": "address",
                                    "name": "invader",
                                    "type": "address"
                                },
                                {
                                    "internalType": "uint256",
                                    "name": "invadeStartBlock",
                                    "type": "uint256"
                                },
                                {
                                    "internalType": "address",
                                    "name": "capturer",
                                    "type": "address"
                                }
                            ],
                            "internalType": "struct PlanetExtendedInfo2",
                            "name": "info2",
                            "type": "tuple"
                        },
                        {
                            "components": [
                                {
                                    "internalType": "uint256",
                                    "name": "locationId",
                                    "type": "uint256"
                                },
                                {
                                    "internalType": "uint256",
                                    "name": "x",
                                    "type": "uint256"
                                },
                                {
                                    "internalType": "uint256",
                                    "name": "y",
                                    "type": "uint256"
                                },
                                {
                                    "internalType": "address",
                                    "name": "revealer",
                                    "type": "address"
                                }
                            ],
                            "internalType": "struct RevealedCoords",
                            "name": "revealedCoords",
                            "type": "tuple"
                        }
                    ],
                    "internalType": "struct PlanetData[]",
                    "name": "ret",
                    "type": "tuple[]"
                }
            ],
            "stateMutability": "view",
            "type": "function"
        },
        {
            "inputs": [
                {
                    "internalType": "uint256",
                    "name": "startIdx",
                    "type": "uint256"
                },
                {
                    "internalType": "uint256",
                    "name": "endIdx",
                    "type": "uint256"
                }
            ],
            "name": "bulkGetPlanetsExtendedInfo",
            "outputs": [
                {
                    "components": [
                        {
                            "internalType": "bool",
                            "name": "isInitialized",
                            "type": "bool"
                        },
                        {
                            "internalType": "uint256",
                            "name": "createdAt",
                            "type": "uint256"
                        },
                        {
                            "internalType": "uint256",
                            "name": "lastUpdated",
                            "type": "uint256"
                        },
                        {
                            "internalType": "uint256",
                            "name": "perlin",
                            "type": "uint256"
                        },
                        {
                            "internalType": "enum SpaceType",
                            "name": "spaceType",
                            "type": "uint8"
                        },
                        {
                            "internalType": "uint256",
                            "name": "upgradeState0",
                            "type": "uint256"
                        },
                        {
                            "internalType": "uint256",
                            "name": "upgradeState1",
                            "type": "uint256"
                        },
                        {
                            "internalType": "uint256",
                            "name": "upgradeState2",
                            "type": "uint256"
                        },
                        {
                            "internalType": "uint256",
                            "name": "hatLevel",
                            "type": "uint256"
                        },
                        {
                            "internalType": "bool",
                            "name": "hasTriedFindingArtifact",
                            "type": "bool"
                        },
                        {
                            "internalType": "uint256",
                            "name": "prospectedBlockNumber",
                            "type": "uint256"
                        },
                        {
                            "internalType": "bool",
                            "name": "destroyed",
                            "type": "bool"
                        },
                        {
                            "internalType": "uint256",
                            "name": "spaceJunk",
                            "type": "uint256"
                        }
                    ],
                    "internalType": "struct PlanetExtendedInfo[]",
                    "name": "ret",
                    "type": "tuple[]"
                }
            ],
            "stateMutability": "view",
            "type": "function"
        },
        {
            "inputs": [
                {
                    "internalType": "uint256[]",
                    "name": "ids",
                    "type": "uint256[]"
                }
            ],
            "name": "bulkGetPlanetsExtendedInfo2ByIds",
            "outputs": [
                {
                    "components": [
                        {
                            "internalType": "bool",
                            "name": "isInitialized",
                            "type": "bool"
                        },
                        {
                            "internalType": "uint256",
                            "name": "pausers",
                            "type": "uint256"
                        },
                        {
                            "internalType": "address",
                            "name": "invader",
                            "type": "address"
                        },
                        {
                            "internalType": "uint256",
                            "name": "invadeStartBlock",
                            "type": "uint256"
                        },
                        {
                            "internalType": "address",
                            "name": "capturer",
                            "type": "address"
                        }
                    ],
                    "internalType": "struct PlanetExtendedInfo2[]",
                    "name": "ret",
                    "type": "tuple[]"
                }
            ],
            "stateMutability": "view",
            "type": "function"
        },
        {
            "inputs": [
                {
                    "internalType": "uint256[]",
                    "name": "ids",
                    "type": "uint256[]"
                }
            ],
            "name": "bulkGetPlanetsExtendedInfoByIds",
            "outputs": [
                {
                    "components": [
                        {
                            "internalType": "bool",
                            "name": "isInitialized",
                            "type": "bool"
                        },
                        {
                            "internalType": "uint256",
                            "name": "createdAt",
                            "type": "uint256"
                        },
                        {
                            "internalType": "uint256",
                            "name": "lastUpdated",
                            "type": "uint256"
                        },
                        {
                            "internalType": "uint256",
                            "name": "perlin",
                            "type": "uint256"
                        },
                        {
                            "internalType": "enum SpaceType",
                            "name": "spaceType",
                            "type": "uint8"
                        },
                        {
                            "internalType": "uint256",
                            "name": "upgradeState0",
                            "type": "uint256"
                        },
                        {
                            "internalType": "uint256",
                            "name": "upgradeState1",
                            "type": "uint256"
                        },
                        {
                            "internalType": "uint256",
                            "name": "upgradeState2",
                            "type": "uint256"
                        },
                        {
                            "internalType": "uint256",
                            "name": "hatLevel",
                            "type": "uint256"
                        },
                        {
                            "internalType": "bool",
                            "name": "hasTriedFindingArtifact",
                            "type": "bool"
                        },
                        {
                            "internalType": "uint256",
                            "name": "prospectedBlockNumber",
                            "type": "uint256"
                        },
                        {
                            "internalType": "bool",
                            "name": "destroyed",
                            "type": "bool"
                        },
                        {
                            "internalType": "uint256",
                            "name": "spaceJunk",
                            "type": "uint256"
                        }
                    ],
                    "internalType": "struct PlanetExtendedInfo[]",
                    "name": "ret",
                    "type": "tuple[]"
                }
            ],
            "stateMutability": "view",
            "type": "function"
        },
        {
            "inputs": [
                {
                    "internalType": "uint256",
                    "name": "startIdx",
                    "type": "uint256"
                },
                {
                    "internalType": "uint256",
                    "name": "endIdx",
                    "type": "uint256"
                }
            ],
            "name": "bulkGetPlayerIds",
            "outputs": [
                {
                    "internalType": "address[]",
                    "name": "ret",
                    "type": "address[]"
                }
            ],
            "stateMutability": "view",
            "type": "function"
        },
        {
            "inputs": [
                {
                    "internalType": "uint256",
                    "name": "startIdx",
                    "type": "uint256"
                },
                {
                    "internalType": "uint256",
                    "name": "endIdx",
                    "type": "uint256"
                }
            ],
            "name": "bulkGetPlayers",
            "outputs": [
                {
                    "components": [
                        {
                            "internalType": "bool",
                            "name": "isInitialized",
                            "type": "bool"
                        },
                        {
                            "internalType": "address",
                            "name": "player",
                            "type": "address"
                        },
                        {
                            "internalType": "uint256",
                            "name": "initTimestamp",
                            "type": "uint256"
                        },
                        {
                            "internalType": "uint256",
                            "name": "homePlanetId",
                            "type": "uint256"
                        },
                        {
                            "internalType": "uint256",
                            "name": "lastRevealTimestamp",
                            "type": "uint256"
                        },
                        {
                            "internalType": "uint256",
                            "name": "score",
                            "type": "uint256"
                        },
                        {
                            "internalType": "uint256",
                            "name": "spaceJunk",
                            "type": "uint256"
                        },
                        {
                            "internalType": "uint256",
                            "name": "spaceJunkLimit",
                            "type": "uint256"
                        },
                        {
                            "internalType": "bool",
                            "name": "claimedShips",
                            "type": "bool"
                        }
                    ],
                    "internalType": "struct Player[]",
                    "name": "ret",
                    "type": "tuple[]"
                }
            ],
            "stateMutability": "view",
            "type": "function"
        },
        {
            "inputs": [
                {
                    "internalType": "uint256[]",
                    "name": "ids",
                    "type": "uint256[]"
                }
            ],
            "name": "bulkGetRevealedCoordsByIds",
            "outputs": [
                {
                    "components": [
                        {
                            "internalType": "uint256",
                            "name": "locationId",
                            "type": "uint256"
                        },
                        {
                            "internalType": "uint256",
                            "name": "x",
                            "type": "uint256"
                        },
                        {
                            "internalType": "uint256",
                            "name": "y",
                            "type": "uint256"
                        },
                        {
                            "internalType": "address",
                            "name": "revealer",
                            "type": "address"
                        }
                    ],
                    "internalType": "struct RevealedCoords[]",
                    "name": "ret",
                    "type": "tuple[]"
                }
            ],
            "stateMutability": "view",
            "type": "function"
        },
        {
            "inputs": [
                {
                    "internalType": "uint256",
                    "name": "startIdx",
                    "type": "uint256"
                },
                {
                    "internalType": "uint256",
                    "name": "endIdx",
                    "type": "uint256"
                }
            ],
            "name": "bulkGetRevealedPlanetIds",
            "outputs": [
                {
                    "internalType": "uint256[]",
                    "name": "ret",
                    "type": "uint256[]"
                }
            ],
            "stateMutability": "view",
            "type": "function"
        },
        {
            "inputs": [
                {
                    "internalType": "uint256[]",
                    "name": "ids",
                    "type": "uint256[]"
                }
            ],
            "name": "bulkGetVoyagesByIds",
            "outputs": [
                {
                    "components": [
                        {
                            "internalType": "uint256",
                            "name": "id",
                            "type": "uint256"
                        },
                        {
                            "internalType": "address",
                            "name": "player",
                            "type": "address"
                        },
                        {
                            "internalType": "uint256",
                            "name": "fromPlanet",
                            "type": "uint256"
                        },
                        {
                            "internalType": "uint256",
                            "name": "toPlanet",
                            "type": "uint256"
                        },
                        {
                            "internalType": "uint256",
                            "name": "popArriving",
                            "type": "uint256"
                        },
                        {
                            "internalType": "uint256",
                            "name": "silverMoved",
                            "type": "uint256"
                        },
                        {
                            "internalType": "uint256",
                            "name": "departureTime",
                            "type": "uint256"
                        },
                        {
                            "internalType": "uint256",
                            "name": "arrivalTime",
                            "type": "uint256"
                        },
                        {
                            "internalType": "enum ArrivalType",
                            "name": "arrivalType",
                            "type": "uint8"
                        },
                        {
                            "internalType": "uint256",
                            "name": "carriedArtifactId",
                            "type": "uint256"
                        },
                        {
                            "internalType": "uint256",
                            "name": "distance",
                            "type": "uint256"
                        }
                    ],
                    "internalType": "struct ArrivalData[]",
                    "name": "ret",
                    "type": "tuple[]"
                }
            ],
            "stateMutability": "view",
            "type": "function"
        },
        {
            "inputs": [
                {
                    "internalType": "uint256",
                    "name": "artifactId",
                    "type": "uint256"
                }
            ],
            "name": "getArtifactById",
            "outputs": [
                {
                    "components": [
                        {
                            "components": [
                                {
                                    "internalType": "bool",
                                    "name": "isInitialized",
                                    "type": "bool"
                                },
                                {
                                    "internalType": "uint256",
                                    "name": "id",
                                    "type": "uint256"
                                },
                                {
                                    "internalType": "uint256",
                                    "name": "planetDiscoveredOn",
                                    "type": "uint256"
                                },
                                {
                                    "internalType": "enum ArtifactRarity",
                                    "name": "rarity",
                                    "type": "uint8"
                                },
                                {
                                    "internalType": "enum Biome",
                                    "name": "planetBiome",
                                    "type": "uint8"
                                },
                                {
                                    "internalType": "uint256",
                                    "name": "mintedAtTimestamp",
                                    "type": "uint256"
                                },
                                {
                                    "internalType": "address",
                                    "name": "discoverer",
                                    "type": "address"
                                },
                                {
                                    "internalType": "enum ArtifactType",
                                    "name": "artifactType",
                                    "type": "uint8"
                                },
                                {
                                    "internalType": "uint256",
                                    "name": "activations",
                                    "type": "uint256"
                                },
                                {
                                    "internalType": "uint256",
                                    "name": "lastActivated",
                                    "type": "uint256"
                                },
                                {
                                    "internalType": "uint256",
                                    "name": "lastDeactivated",
                                    "type": "uint256"
                                },
                                {
                                    "internalType": "uint256",
                                    "name": "wormholeTo",
                                    "type": "uint256"
                                },
                                {
                                    "internalType": "address",
                                    "name": "controller",
                                    "type": "address"
                                }
                            ],
                            "internalType": "struct Artifact",
                            "name": "artifact",
                            "type": "tuple"
                        },
                        {
                            "components": [
                                {
                                    "internalType": "uint256",
                                    "name": "popCapMultiplier",
                                    "type": "uint256"
                                },
                                {
                                    "internalType": "uint256",
                                    "name": "popGroMultiplier",
                                    "type": "uint256"
                                },
                                {
                                    "internalType": "uint256",
                                    "name": "rangeMultiplier",
                                    "type": "uint256"
                                },
                                {
                                    "internalType": "uint256",
                                    "name": "speedMultiplier",
                                    "type": "uint256"
                                },
                                {
                                    "internalType": "uint256",
                                    "name": "defMultiplier",
                                    "type": "uint256"
                                }
                            ],
                            "internalType": "struct Upgrade",
                            "name": "upgrade",
                            "type": "tuple"
                        },
                        {
                            "components": [
                                {
                                    "internalType": "uint256",
                                    "name": "popCapMultiplier",
                                    "type": "uint256"
                                },
                                {
                                    "internalType": "uint256",
                                    "name": "popGroMultiplier",
                                    "type": "uint256"
                                },
                                {
                                    "internalType": "uint256",
                                    "name": "rangeMultiplier",
                                    "type": "uint256"
                                },
                                {
                                    "internalType": "uint256",
                                    "name": "speedMultiplier",
                                    "type": "uint256"
                                },
                                {
                                    "internalType": "uint256",
                                    "name": "defMultiplier",
                                    "type": "uint256"
                                }
                            ],
                            "internalType": "struct Upgrade",
                            "name": "timeDelayedUpgrade",
                            "type": "tuple"
                        },
                        {
                            "internalType": "address",
                            "name": "owner",
                            "type": "address"
                        },
                        {
                            "internalType": "uint256",
                            "name": "locationId",
                            "type": "uint256"
                        },
                        {
                            "internalType": "uint256",
                            "name": "voyageId",
                            "type": "uint256"
                        }
                    ],
                    "internalType": "struct ArtifactWithMetadata",
                    "name": "ret",
                    "type": "tuple"
                }
            ],
            "stateMutability": "view",
            "type": "function"
        },
        {
            "inputs": [],
            "name": "getArtifactPointValues",
            "outputs": [
                {
                    "internalType": "uint256[6]",
                    "name": "",
                    "type": "uint256[6]"
                }
            ],
            "stateMutability": "view",
            "type": "function"
        },
        {
            "inputs": [
                {
                    "internalType": "uint256",
                    "name": "locationId",
                    "type": "uint256"
                }
            ],
            "name": "getArtifactsOnPlanet",
            "outputs": [
                {
                    "components": [
                        {
                            "components": [
                                {
                                    "internalType": "bool",
                                    "name": "isInitialized",
                                    "type": "bool"
                                },
                                {
                                    "internalType": "uint256",
                                    "name": "id",
                                    "type": "uint256"
                                },
                                {
                                    "internalType": "uint256",
                                    "name": "planetDiscoveredOn",
                                    "type": "uint256"
                                },
                                {
                                    "internalType": "enum ArtifactRarity",
                                    "name": "rarity",
                                    "type": "uint8"
                                },
                                {
                                    "internalType": "enum Biome",
                                    "name": "planetBiome",
                                    "type": "uint8"
                                },
                                {
                                    "internalType": "uint256",
                                    "name": "mintedAtTimestamp",
                                    "type": "uint256"
                                },
                                {
                                    "internalType": "address",
                                    "name": "discoverer",
                                    "type": "address"
                                },
                                {
                                    "internalType": "enum ArtifactType",
                                    "name": "artifactType",
                                    "type": "uint8"
                                },
                                {
                                    "internalType": "uint256",
                                    "name": "activations",
                                    "type": "uint256"
                                },
                                {
                                    "internalType": "uint256",
                                    "name": "lastActivated",
                                    "type": "uint256"
                                },
                                {
                                    "internalType": "uint256",
                                    "name": "lastDeactivated",
                                    "type": "uint256"
                                },
                                {
                                    "internalType": "uint256",
                                    "name": "wormholeTo",
                                    "type": "uint256"
                                },
                                {
                                    "internalType": "address",
                                    "name": "controller",
                                    "type": "address"
                                }
                            ],
                            "internalType": "struct Artifact",
                            "name": "artifact",
                            "type": "tuple"
                        },
                        {
                            "components": [
                                {
                                    "internalType": "uint256",
                                    "name": "popCapMultiplier",
                                    "type": "uint256"
                                },
                                {
                                    "internalType": "uint256",
                                    "name": "popGroMultiplier",
                                    "type": "uint256"
                                },
                                {
                                    "internalType": "uint256",
                                    "name": "rangeMultiplier",
                                    "type": "uint256"
                                },
                                {
                                    "internalType": "uint256",
                                    "name": "speedMultiplier",
                                    "type": "uint256"
                                },
                                {
                                    "internalType": "uint256",
                                    "name": "defMultiplier",
                                    "type": "uint256"
                                }
                            ],
                            "internalType": "struct Upgrade",
                            "name": "upgrade",
                            "type": "tuple"
                        },
                        {
                            "components": [
                                {
                                    "internalType": "uint256",
                                    "name": "popCapMultiplier",
                                    "type": "uint256"
                                },
                                {
                                    "internalType": "uint256",
                                    "name": "popGroMultiplier",
                                    "type": "uint256"
                                },
                                {
                                    "internalType": "uint256",
                                    "name": "rangeMultiplier",
                                    "type": "uint256"
                                },
                                {
                                    "internalType": "uint256",
                                    "name": "speedMultiplier",
                                    "type": "uint256"
                                },
                                {
                                    "internalType": "uint256",
                                    "name": "defMultiplier",
                                    "type": "uint256"
                                }
                            ],
                            "internalType": "struct Upgrade",
                            "name": "timeDelayedUpgrade",
                            "type": "tuple"
                        },
                        {
                            "internalType": "address",
                            "name": "owner",
                            "type": "address"
                        },
                        {
                            "internalType": "uint256",
                            "name": "locationId",
                            "type": "uint256"
                        },
                        {
                            "internalType": "uint256",
                            "name": "voyageId",
                            "type": "uint256"
                        }
                    ],
                    "internalType": "struct ArtifactWithMetadata[]",
                    "name": "ret",
                    "type": "tuple[]"
                }
            ],
            "stateMutability": "view",
            "type": "function"
        },
        {
            "inputs": [],
            "name": "getCumulativeRarities",
            "outputs": [
                {
                    "internalType": "uint256[]",
                    "name": "",
                    "type": "uint256[]"
                }
            ],
            "stateMutability": "view",
            "type": "function"
        },
        {
            "inputs": [],
            "name": "getDefaultStats",
            "outputs": [
                {
                    "components": [
                        {
                            "internalType": "string",
                            "name": "label",
                            "type": "string"
                        },
                        {
                            "internalType": "uint256",
                            "name": "populationCap",
                            "type": "uint256"
                        },
                        {
                            "internalType": "uint256",
                            "name": "populationGrowth",
                            "type": "uint256"
                        },
                        {
                            "internalType": "uint256",
                            "name": "range",
                            "type": "uint256"
                        },
                        {
                            "internalType": "uint256",
                            "name": "speed",
                            "type": "uint256"
                        },
                        {
                            "internalType": "uint256",
                            "name": "defense",
                            "type": "uint256"
                        },
                        {
                            "internalType": "uint256",
                            "name": "silverGrowth",
                            "type": "uint256"
                        },
                        {
                            "internalType": "uint256",
                            "name": "silverCap",
                            "type": "uint256"
                        },
                        {
                            "internalType": "uint256",
                            "name": "barbarianPercentage",
                            "type": "uint256"
                        }
                    ],
                    "internalType": "struct PlanetDefaultStats[]",
                    "name": "",
                    "type": "tuple[]"
                }
            ],
            "stateMutability": "pure",
            "type": "function"
        },
        {
            "inputs": [],
            "name": "getGameConstants",
            "outputs": [
                {
                    "components": [
                        {
                            "internalType": "bool",
                            "name": "ADMIN_CAN_ADD_PLANETS",
                            "type": "bool"
                        },
                        {
                            "internalType": "bool",
                            "name": "WORLD_RADIUS_LOCKED",
                            "type": "bool"
                        },
                        {
                            "internalType": "uint256",
                            "name": "WORLD_RADIUS_MIN",
                            "type": "uint256"
                        },
                        {
                            "internalType": "uint256",
                            "name": "MAX_NATURAL_PLANET_LEVEL",
                            "type": "uint256"
                        },
                        {
                            "internalType": "uint256",
                            "name": "TIME_FACTOR_HUNDREDTHS",
                            "type": "uint256"
                        },
                        {
                            "internalType": "uint256",
                            "name": "PERLIN_THRESHOLD_1",
                            "type": "uint256"
                        },
                        {
                            "internalType": "uint256",
                            "name": "PERLIN_THRESHOLD_2",
                            "type": "uint256"
                        },
                        {
                            "internalType": "uint256",
                            "name": "PERLIN_THRESHOLD_3",
                            "type": "uint256"
                        },
                        {
                            "internalType": "uint256",
                            "name": "INIT_PERLIN_MIN",
                            "type": "uint256"
                        },
                        {
                            "internalType": "uint256",
                            "name": "INIT_PERLIN_MAX",
                            "type": "uint256"
                        },
                        {
                            "internalType": "uint256",
                            "name": "SPAWN_RIM_AREA",
                            "type": "uint256"
                        },
                        {
                            "internalType": "uint256",
                            "name": "BIOME_THRESHOLD_1",
                            "type": "uint256"
                        },
                        {
                            "internalType": "uint256",
                            "name": "BIOME_THRESHOLD_2",
                            "type": "uint256"
                        },
                        {
                            "internalType": "uint256[10]",
                            "name": "PLANET_LEVEL_THRESHOLDS",
                            "type": "uint256[10]"
                        },
                        {
                            "internalType": "uint256",
                            "name": "PLANET_RARITY",
                            "type": "uint256"
                        },
                        {
                            "internalType": "bool",
                            "name": "PLANET_TRANSFER_ENABLED",
                            "type": "bool"
                        },
                        {
                            "internalType": "uint256",
                            "name": "PHOTOID_ACTIVATION_DELAY",
                            "type": "uint256"
                        },
                        {
                            "internalType": "uint256",
                            "name": "LOCATION_REVEAL_COOLDOWN",
                            "type": "uint256"
                        },
                        {
                            "internalType": "uint8[5][10][4]",
                            "name": "PLANET_TYPE_WEIGHTS",
                            "type": "uint8[5][10][4]"
                        },
                        {
                            "internalType": "uint256",
                            "name": "SILVER_SCORE_VALUE",
                            "type": "uint256"
                        },
                        {
                            "internalType": "uint256[6]",
                            "name": "ARTIFACT_POINT_VALUES",
                            "type": "uint256[6]"
                        },
                        {
                            "internalType": "bool",
                            "name": "SPACE_JUNK_ENABLED",
                            "type": "bool"
                        },
                        {
                            "internalType": "uint256",
                            "name": "SPACE_JUNK_LIMIT",
                            "type": "uint256"
                        },
                        {
                            "internalType": "uint256[10]",
                            "name": "PLANET_LEVEL_JUNK",
                            "type": "uint256[10]"
                        },
                        {
                            "internalType": "uint256",
                            "name": "ABANDON_SPEED_CHANGE_PERCENT",
                            "type": "uint256"
                        },
                        {
                            "internalType": "uint256",
                            "name": "ABANDON_RANGE_CHANGE_PERCENT",
                            "type": "uint256"
                        },
                        {
                            "internalType": "uint256",
                            "name": "GAME_START_BLOCK",
                            "type": "uint256"
                        },
                        {
                            "internalType": "bool",
                            "name": "CAPTURE_ZONES_ENABLED",
                            "type": "bool"
                        },
                        {
                            "internalType": "uint256",
                            "name": "CAPTURE_ZONE_COUNT",
                            "type": "uint256"
                        },
                        {
                            "internalType": "uint256",
                            "name": "CAPTURE_ZONE_CHANGE_BLOCK_INTERVAL",
                            "type": "uint256"
                        },
                        {
                            "internalType": "uint256",
                            "name": "CAPTURE_ZONE_RADIUS",
                            "type": "uint256"
                        },
                        {
                            "internalType": "uint256[10]",
                            "name": "CAPTURE_ZONE_PLANET_LEVEL_SCORE",
                            "type": "uint256[10]"
                        },
                        {
                            "internalType": "uint256",
                            "name": "CAPTURE_ZONE_HOLD_BLOCKS_REQUIRED",
                            "type": "uint256"
                        },
                        {
                            "internalType": "uint256",
                            "name": "CAPTURE_ZONES_PER_5000_WORLD_RADIUS",
                            "type": "uint256"
                        }
                    ],
                    "internalType": "struct GameConstants",
                    "name": "",
                    "type": "tuple"
                }
            ],
            "stateMutability": "pure",
            "type": "function"
        },
        {
            "inputs": [],
            "name": "getNPlanets",
            "outputs": [
                {
                    "internalType": "uint256",
                    "name": "",
                    "type": "uint256"
                }
            ],
            "stateMutability": "view",
            "type": "function"
        },
        {
            "inputs": [],
            "name": "getNPlayers",
            "outputs": [
                {
                    "internalType": "uint256",
                    "name": "",
                    "type": "uint256"
                }
            ],
            "stateMutability": "view",
            "type": "function"
        },
        {
            "inputs": [],
            "name": "getNRevealedPlanets",
            "outputs": [
                {
                    "internalType": "uint256",
                    "name": "",
                    "type": "uint256"
                }
            ],
            "stateMutability": "view",
            "type": "function"
        },
        {
            "inputs": [
                {
                    "internalType": "uint256",
                    "name": "arrivalId",
                    "type": "uint256"
                }
            ],
            "name": "getPlanetArrival",
            "outputs": [
                {
                    "components": [
                        {
                            "internalType": "uint256",
                            "name": "id",
                            "type": "uint256"
                        },
                        {
                            "internalType": "address",
                            "name": "player",
                            "type": "address"
                        },
                        {
                            "internalType": "uint256",
                            "name": "fromPlanet",
                            "type": "uint256"
                        },
                        {
                            "internalType": "uint256",
                            "name": "toPlanet",
                            "type": "uint256"
                        },
                        {
                            "internalType": "uint256",
                            "name": "popArriving",
                            "type": "uint256"
                        },
                        {
                            "internalType": "uint256",
                            "name": "silverMoved",
                            "type": "uint256"
                        },
                        {
                            "internalType": "uint256",
                            "name": "departureTime",
                            "type": "uint256"
                        },
                        {
                            "internalType": "uint256",
                            "name": "arrivalTime",
                            "type": "uint256"
                        },
                        {
                            "internalType": "enum ArrivalType",
                            "name": "arrivalType",
                            "type": "uint8"
                        },
                        {
                            "internalType": "uint256",
                            "name": "carriedArtifactId",
                            "type": "uint256"
                        },
                        {
                            "internalType": "uint256",
                            "name": "distance",
                            "type": "uint256"
                        }
                    ],
                    "internalType": "struct ArrivalData",
                    "name": "",
                    "type": "tuple"
                }
            ],
            "stateMutability": "view",
            "type": "function"
        },
        {
            "inputs": [
                {
                    "internalType": "uint256",
                    "name": "_location",
                    "type": "uint256"
                }
            ],
            "name": "getPlanetArrivals",
            "outputs": [
                {
                    "components": [
                        {
                            "internalType": "uint256",
                            "name": "id",
                            "type": "uint256"
                        },
                        {
                            "internalType": "address",
                            "name": "player",
                            "type": "address"
                        },
                        {
                            "internalType": "uint256",
                            "name": "fromPlanet",
                            "type": "uint256"
                        },
                        {
                            "internalType": "uint256",
                            "name": "toPlanet",
                            "type": "uint256"
                        },
                        {
                            "internalType": "uint256",
                            "name": "popArriving",
                            "type": "uint256"
                        },
                        {
                            "internalType": "uint256",
                            "name": "silverMoved",
                            "type": "uint256"
                        },
                        {
                            "internalType": "uint256",
                            "name": "departureTime",
                            "type": "uint256"
                        },
                        {
                            "internalType": "uint256",
                            "name": "arrivalTime",
                            "type": "uint256"
                        },
                        {
                            "internalType": "enum ArrivalType",
                            "name": "arrivalType",
                            "type": "uint8"
                        },
                        {
                            "internalType": "uint256",
                            "name": "carriedArtifactId",
                            "type": "uint256"
                        },
                        {
                            "internalType": "uint256",
                            "name": "distance",
                            "type": "uint256"
                        }
                    ],
                    "internalType": "struct ArrivalData[]",
                    "name": "ret",
                    "type": "tuple[]"
                }
            ],
            "stateMutability": "view",
            "type": "function"
        },
        {
            "inputs": [
                {
                    "internalType": "uint256",
                    "name": "locationId",
                    "type": "uint256"
                },
                {
                    "internalType": "uint256",
                    "name": "idx",
                    "type": "uint256"
                }
            ],
            "name": "getPlanetEvent",
            "outputs": [
                {
                    "components": [
                        {
                            "internalType": "uint256",
                            "name": "id",
                            "type": "uint256"
                        },
                        {
                            "internalType": "enum PlanetEventType",
                            "name": "eventType",
                            "type": "uint8"
                        },
                        {
                            "internalType": "uint256",
                            "name": "timeTrigger",
                            "type": "uint256"
                        },
                        {
                            "internalType": "uint256",
                            "name": "timeAdded",
                            "type": "uint256"
                        }
                    ],
                    "internalType": "struct PlanetEventMetadata",
                    "name": "",
                    "type": "tuple"
                }
            ],
            "stateMutability": "view",
            "type": "function"
        },
        {
            "inputs": [
                {
                    "internalType": "uint256",
                    "name": "locationId",
                    "type": "uint256"
                }
            ],
            "name": "getPlanetEventsCount",
            "outputs": [
                {
                    "internalType": "uint256",
                    "name": "",
                    "type": "uint256"
                }
            ],
            "stateMutability": "view",
            "type": "function"
        },
        {
            "inputs": [],
            "name": "getPlanetLevelThresholds",
            "outputs": [
                {
                    "internalType": "uint256[]",
                    "name": "",
                    "type": "uint256[]"
                }
            ],
            "stateMutability": "view",
            "type": "function"
        },
        {
            "inputs": [
                {
                    "internalType": "address",
                    "name": "playerId",
                    "type": "address"
                }
            ],
            "name": "getPlayerSpaceJunkLimit",
            "outputs": [
                {
                    "internalType": "uint256",
                    "name": "",
                    "type": "uint256"
                }
            ],
            "stateMutability": "view",
            "type": "function"
        },
        {
            "inputs": [],
            "name": "getRevealCooldown",
            "outputs": [
                {
                    "internalType": "uint256",
                    "name": "",
                    "type": "uint256"
                }
            ],
            "stateMutability": "view",
            "type": "function"
        },
        {
            "inputs": [
                {
                    "internalType": "uint256",
                    "name": "locationId",
                    "type": "uint256"
                }
            ],
            "name": "getRevealedCoords",
            "outputs": [
                {
                    "components": [
                        {
                            "internalType": "uint256",
                            "name": "locationId",
                            "type": "uint256"
                        },
                        {
                            "internalType": "uint256",
                            "name": "x",
                            "type": "uint256"
                        },
                        {
                            "internalType": "uint256",
                            "name": "y",
                            "type": "uint256"
                        },
                        {
                            "internalType": "address",
                            "name": "revealer",
                            "type": "address"
                        }
                    ],
                    "internalType": "struct RevealedCoords",
                    "name": "",
                    "type": "tuple"
                }
            ],
            "stateMutability": "view",
            "type": "function"
        },
        {
            "inputs": [],
            "name": "getSnarkConstants",
            "outputs": [
                {
                    "components": [
                        {
                            "internalType": "bool",
                            "name": "DISABLE_ZK_CHECKS",
                            "type": "bool"
                        },
                        {
                            "internalType": "uint256",
                            "name": "PLANETHASH_KEY",
                            "type": "uint256"
                        },
                        {
                            "internalType": "uint256",
                            "name": "SPACETYPE_KEY",
                            "type": "uint256"
                        },
                        {
                            "internalType": "uint256",
                            "name": "BIOMEBASE_KEY",
                            "type": "uint256"
                        },
                        {
                            "internalType": "bool",
                            "name": "PERLIN_MIRROR_X",
                            "type": "bool"
                        },
                        {
                            "internalType": "bool",
                            "name": "PERLIN_MIRROR_Y",
                            "type": "bool"
                        },
                        {
                            "internalType": "uint256",
                            "name": "PERLIN_LENGTH_SCALE",
                            "type": "uint256"
                        }
                    ],
                    "internalType": "struct SnarkConstants",
                    "name": "",
                    "type": "tuple"
                }
            ],
            "stateMutability": "pure",
            "type": "function"
        },
        {
            "inputs": [],
            "name": "getTypeWeights",
            "outputs": [
                {
                    "internalType": "uint8[5][10][4]",
                    "name": "",
                    "type": "uint8[5][10][4]"
                }
            ],
            "stateMutability": "view",
            "type": "function"
        },
        {
            "inputs": [],
            "name": "getUpgrades",
            "outputs": [
                {
                    "components": [
                        {
                            "internalType": "uint256",
                            "name": "popCapMultiplier",
                            "type": "uint256"
                        },
                        {
                            "internalType": "uint256",
                            "name": "popGroMultiplier",
                            "type": "uint256"
                        },
                        {
                            "internalType": "uint256",
                            "name": "rangeMultiplier",
                            "type": "uint256"
                        },
                        {
                            "internalType": "uint256",
                            "name": "speedMultiplier",
                            "type": "uint256"
                        },
                        {
                            "internalType": "uint256",
                            "name": "defMultiplier",
                            "type": "uint256"
                        }
                    ],
                    "internalType": "struct Upgrade[4][3]",
                    "name": "",
                    "type": "tuple[4][3]"
                }
            ],
            "stateMutability": "pure",
            "type": "function"
        },
        {
            "inputs": [],
            "name": "paused",
            "outputs": [
                {
                    "internalType": "bool",
                    "name": "",
                    "type": "bool"
                }
            ],
            "stateMutability": "view",
            "type": "function"
        },
        {
            "inputs": [
                {
                    "internalType": "uint256",
                    "name": "key",
                    "type": "uint256"
                }
            ],
            "name": "planetArrivals",
            "outputs": [
                {
                    "components": [
                        {
                            "internalType": "uint256",
                            "name": "id",
                            "type": "uint256"
                        },
                        {
                            "internalType": "address",
                            "name": "player",
                            "type": "address"
                        },
                        {
                            "internalType": "uint256",
                            "name": "fromPlanet",
                            "type": "uint256"
                        },
                        {
                            "internalType": "uint256",
                            "name": "toPlanet",
                            "type": "uint256"
                        },
                        {
                            "internalType": "uint256",
                            "name": "popArriving",
                            "type": "uint256"
                        },
                        {
                            "internalType": "uint256",
                            "name": "silverMoved",
                            "type": "uint256"
                        },
                        {
                            "internalType": "uint256",
                            "name": "departureTime",
                            "type": "uint256"
                        },
                        {
                            "internalType": "uint256",
                            "name": "arrivalTime",
                            "type": "uint256"
                        },
                        {
                            "internalType": "enum ArrivalType",
                            "name": "arrivalType",
                            "type": "uint8"
                        },
                        {
                            "internalType": "uint256",
                            "name": "carriedArtifactId",
                            "type": "uint256"
                        },
                        {
                            "internalType": "uint256",
                            "name": "distance",
                            "type": "uint256"
                        }
                    ],
                    "internalType": "struct ArrivalData",
                    "name": "",
                    "type": "tuple"
                }
            ],
            "stateMutability": "view",
            "type": "function"
        },
        {
            "inputs": [
                {
                    "internalType": "uint256",
                    "name": "key",
                    "type": "uint256"
                }
            ],
            "name": "planetArtifacts",
            "outputs": [
                {
                    "internalType": "uint256[]",
                    "name": "",
                    "type": "uint256[]"
                }
            ],
            "stateMutability": "view",
            "type": "function"
        },
        {
            "inputs": [
                {
                    "internalType": "uint256",
                    "name": "level",
                    "type": "uint256"
                }
            ],
            "name": "planetDefaultStats",
            "outputs": [
                {
                    "components": [
                        {
                            "internalType": "string",
                            "name": "label",
                            "type": "string"
                        },
                        {
                            "internalType": "uint256",
                            "name": "populationCap",
                            "type": "uint256"
                        },
                        {
                            "internalType": "uint256",
                            "name": "populationGrowth",
                            "type": "uint256"
                        },
                        {
                            "internalType": "uint256",
                            "name": "range",
                            "type": "uint256"
                        },
                        {
                            "internalType": "uint256",
                            "name": "speed",
                            "type": "uint256"
                        },
                        {
                            "internalType": "uint256",
                            "name": "defense",
                            "type": "uint256"
                        },
                        {
                            "internalType": "uint256",
                            "name": "silverGrowth",
                            "type": "uint256"
                        },
                        {
                            "internalType": "uint256",
                            "name": "silverCap",
                            "type": "uint256"
                        },
                        {
                            "internalType": "uint256",
                            "name": "barbarianPercentage",
                            "type": "uint256"
                        }
                    ],
                    "internalType": "struct PlanetDefaultStats",
                    "name": "",
                    "type": "tuple"
                }
            ],
            "stateMutability": "view",
            "type": "function"
        },
        {
            "inputs": [
                {
                    "internalType": "uint256",
                    "name": "key",
                    "type": "uint256"
                }
            ],
            "name": "planetEvents",
            "outputs": [
                {
                    "components": [
                        {
                            "internalType": "uint256",
                            "name": "id",
                            "type": "uint256"
                        },
                        {
                            "internalType": "enum PlanetEventType",
                            "name": "eventType",
                            "type": "uint8"
                        },
                        {
                            "internalType": "uint256",
                            "name": "timeTrigger",
                            "type": "uint256"
                        },
                        {
                            "internalType": "uint256",
                            "name": "timeAdded",
                            "type": "uint256"
                        }
                    ],
                    "internalType": "struct PlanetEventMetadata[]",
                    "name": "",
                    "type": "tuple[]"
                }
            ],
            "stateMutability": "view",
            "type": "function"
        },
        {
            "inputs": [],
            "name": "planetEventsCount",
            "outputs": [
                {
                    "internalType": "uint256",
                    "name": "",
                    "type": "uint256"
                }
            ],
            "stateMutability": "view",
            "type": "function"
        },
        {
            "inputs": [
                {
                    "internalType": "uint256",
                    "name": "idx",
                    "type": "uint256"
                }
            ],
            "name": "planetIds",
            "outputs": [
                {
                    "internalType": "uint256",
                    "name": "",
                    "type": "uint256"
                }
            ],
            "stateMutability": "view",
            "type": "function"
        },
        {
            "inputs": [],
            "name": "planetLevelsCount",
            "outputs": [
                {
                    "internalType": "uint256",
                    "name": "",
                    "type": "uint256"
                }
            ],
            "stateMutability": "view",
            "type": "function"
        },
        {
            "inputs": [
                {
                    "internalType": "uint256",
                    "name": "key",
                    "type": "uint256"
                }
            ],
            "name": "planets",
            "outputs": [
                {
                    "components": [
                        {
                            "internalType": "address",
                            "name": "owner",
                            "type": "address"
                        },
                        {
                            "internalType": "uint256",
                            "name": "range",
                            "type": "uint256"
                        },
                        {
                            "internalType": "uint256",
                            "name": "speed",
                            "type": "uint256"
                        },
                        {
                            "internalType": "uint256",
                            "name": "defense",
                            "type": "uint256"
                        },
                        {
                            "internalType": "uint256",
                            "name": "population",
                            "type": "uint256"
                        },
                        {
                            "internalType": "uint256",
                            "name": "populationCap",
                            "type": "uint256"
                        },
                        {
                            "internalType": "uint256",
                            "name": "populationGrowth",
                            "type": "uint256"
                        },
                        {
                            "internalType": "uint256",
                            "name": "silverCap",
                            "type": "uint256"
                        },
                        {
                            "internalType": "uint256",
                            "name": "silverGrowth",
                            "type": "uint256"
                        },
                        {
                            "internalType": "uint256",
                            "name": "silver",
                            "type": "uint256"
                        },
                        {
                            "internalType": "uint256",
                            "name": "planetLevel",
                            "type": "uint256"
                        },
                        {
                            "internalType": "enum PlanetType",
                            "name": "planetType",
                            "type": "uint8"
                        },
                        {
                            "internalType": "bool",
                            "name": "isHomePlanet",
                            "type": "bool"
                        }
                    ],
                    "internalType": "struct Planet",
                    "name": "",
                    "type": "tuple"
                }
            ],
            "stateMutability": "view",
            "type": "function"
        },
        {
            "inputs": [
                {
                    "internalType": "uint256",
                    "name": "key",
                    "type": "uint256"
                }
            ],
            "name": "planetsExtendedInfo",
            "outputs": [
                {
                    "components": [
                        {
                            "internalType": "bool",
                            "name": "isInitialized",
                            "type": "bool"
                        },
                        {
                            "internalType": "uint256",
                            "name": "createdAt",
                            "type": "uint256"
                        },
                        {
                            "internalType": "uint256",
                            "name": "lastUpdated",
                            "type": "uint256"
                        },
                        {
                            "internalType": "uint256",
                            "name": "perlin",
                            "type": "uint256"
                        },
                        {
                            "internalType": "enum SpaceType",
                            "name": "spaceType",
                            "type": "uint8"
                        },
                        {
                            "internalType": "uint256",
                            "name": "upgradeState0",
                            "type": "uint256"
                        },
                        {
                            "internalType": "uint256",
                            "name": "upgradeState1",
                            "type": "uint256"
                        },
                        {
                            "internalType": "uint256",
                            "name": "upgradeState2",
                            "type": "uint256"
                        },
                        {
                            "internalType": "uint256",
                            "name": "hatLevel",
                            "type": "uint256"
                        },
                        {
                            "internalType": "bool",
                            "name": "hasTriedFindingArtifact",
                            "type": "bool"
                        },
                        {
                            "internalType": "uint256",
                            "name": "prospectedBlockNumber",
                            "type": "uint256"
                        },
                        {
                            "internalType": "bool",
                            "name": "destroyed",
                            "type": "bool"
                        },
                        {
                            "internalType": "uint256",
                            "name": "spaceJunk",
                            "type": "uint256"
                        }
                    ],
                    "internalType": "struct PlanetExtendedInfo",
                    "name": "",
                    "type": "tuple"
                }
            ],
            "stateMutability": "view",
            "type": "function"
        },
        {
            "inputs": [
                {
                    "internalType": "uint256",
                    "name": "key",
                    "type": "uint256"
                }
            ],
            "name": "planetsExtendedInfo2",
            "outputs": [
                {
                    "components": [
                        {
                            "internalType": "bool",
                            "name": "isInitialized",
                            "type": "bool"
                        },
                        {
                            "internalType": "uint256",
                            "name": "pausers",
                            "type": "uint256"
                        },
                        {
                            "internalType": "address",
                            "name": "invader",
                            "type": "address"
                        },
                        {
                            "internalType": "uint256",
                            "name": "invadeStartBlock",
                            "type": "uint256"
                        },
                        {
                            "internalType": "address",
                            "name": "capturer",
                            "type": "address"
                        }
                    ],
                    "internalType": "struct PlanetExtendedInfo2",
                    "name": "",
                    "type": "tuple"
                }
            ],
            "stateMutability": "view",
            "type": "function"
        },
        {
            "inputs": [
                {
                    "internalType": "uint256",
                    "name": "idx",
                    "type": "uint256"
                }
            ],
            "name": "playerIds",
            "outputs": [
                {
                    "internalType": "address",
                    "name": "",
                    "type": "address"
                }
            ],
            "stateMutability": "view",
            "type": "function"
        },
        {
            "inputs": [
                {
                    "internalType": "address",
                    "name": "key",
                    "type": "address"
                }
            ],
            "name": "players",
            "outputs": [
                {
                    "components": [
                        {
                            "internalType": "bool",
                            "name": "isInitialized",
                            "type": "bool"
                        },
                        {
                            "internalType": "address",
                            "name": "player",
                            "type": "address"
                        },
                        {
                            "internalType": "uint256",
                            "name": "initTimestamp",
                            "type": "uint256"
                        },
                        {
                            "internalType": "uint256",
                            "name": "homePlanetId",
                            "type": "uint256"
                        },
                        {
                            "internalType": "uint256",
                            "name": "lastRevealTimestamp",
                            "type": "uint256"
                        },
                        {
                            "internalType": "uint256",
                            "name": "score",
                            "type": "uint256"
                        },
                        {
                            "internalType": "uint256",
                            "name": "spaceJunk",
                            "type": "uint256"
                        },
                        {
                            "internalType": "uint256",
                            "name": "spaceJunkLimit",
                            "type": "uint256"
                        },
                        {
                            "internalType": "bool",
                            "name": "claimedShips",
                            "type": "bool"
                        }
                    ],
                    "internalType": "struct Player",
                    "name": "",
                    "type": "tuple"
                }
            ],
            "stateMutability": "view",
            "type": "function"
        },
        {
            "inputs": [
                {
                    "internalType": "uint256",
                    "name": "key",
                    "type": "uint256"
                }
            ],
            "name": "revealedCoords",
            "outputs": [
                {
                    "components": [
                        {
                            "internalType": "uint256",
                            "name": "locationId",
                            "type": "uint256"
                        },
                        {
                            "internalType": "uint256",
                            "name": "x",
                            "type": "uint256"
                        },
                        {
                            "internalType": "uint256",
                            "name": "y",
                            "type": "uint256"
                        },
                        {
                            "internalType": "address",
                            "name": "revealer",
                            "type": "address"
                        }
                    ],
                    "internalType": "struct RevealedCoords",
                    "name": "",
                    "type": "tuple"
                }
            ],
            "stateMutability": "view",
            "type": "function"
        },
        {
            "inputs": [
                {
                    "internalType": "uint256",
                    "name": "idx",
                    "type": "uint256"
                }
            ],
            "name": "revealedPlanetIds",
            "outputs": [
                {
                    "internalType": "uint256",
                    "name": "",
                    "type": "uint256"
                }
            ],
            "stateMutability": "view",
            "type": "function"
        },
        {
            "inputs": [],
            "name": "worldRadius",
            "outputs": [
                {
                    "internalType": "uint256",
                    "name": "",
                    "type": "uint256"
                }
            ],
            "stateMutability": "view",
            "type": "function"
        }
    ],
    "bytecode": "608060405234801561001057600080fd5b506155e180620000216000396000f3fe608060405234801561001057600080fd5b50600436106103835760003560e01c806380cd44d5116101de578063d3a3f5511161010f578063ec935da2116100ad578063f9231d921161007c578063f9231d92146108ad578063fa37ca45146108cd578063fb9b90c2146108e0578063fc6f9468146108e857600080fd5b8063ec935da21461085a578063edb7ffe4146103db578063f1e28ee01461086d578063f6d5775a1461088d57600080fd5b8063dac40ae7116100e9578063dac40ae7146107f4578063dacb613514610814578063e2eb41ff14610827578063e654848a1461084757600080fd5b8063d3a3f551146107c6578063d4cc63e7146107d9578063da40b311146107e157600080fd5b8063ad4890911161017c578063bdc56af511610156578063bdc56af51461075e578063c012b11214610773578063c68b81261461079e578063ccf738e9146107a657600080fd5b8063ad48909114610723578063b5549e6414610736578063bb4908f21461075657600080fd5b806390960189116101b857806390960189146106bd578063975de613146106dd57806398f94a8e146106fd578063aaca42e91461071057600080fd5b806380cd44d51461067b578063865e1d3c1461068e5780638a05b329146106b557600080fd5b80634743be23116102b85780635c975abb116102565780636c7ffeec116102305780636c7ffeec14610628578063745297cc1461064857806376af38b41461057e57806378622ae61461066857600080fd5b80635c975abb146105f357806363ffb9ee1461060b578063695bd00c1461061357600080fd5b806352b07fb81161029257806352b07fb81461057e57806354113a1e1461059e578063542df7c7146105be5780635633aacd146105d357600080fd5b80634743be23146104f25780634d618eb1146105125780634eb0e9591461057657600080fd5b806326c1e750116103255780633f9d7c49116102ff5780633f9d7c491461047f57806340a727881461049f57806345510f22146104b257806346d7789d146104d257600080fd5b806326c1e750146104395780632a9b1a32146104595780633ee52a911461046c57600080fd5b80630e1d2115116103615780630e1d2115146103db57806313831479146103fb57806319519983146104115780631a3971c61461042657600080fd5b806304d74a391461038857806305b86be5146103b157806308d2e95a146103c6575b600080fd5b61039b610396366004614335565b6108f0565b6040516103a8919061441c565b60405180910390f35b6103b9610ab4565b6040516103a8919061446b565b6103ce610b15565b6040516103a8919061455a565b6103ee6103e93660046145bc565b610c76565b6040516103a89190614601565b610403610cd5565b6040519081526020016103a8565b610419610ce8565b6040516103a8919061468c565b6104036104343660046145bc565b610db8565b61044c6104473660046145bc565b610dd6565b6040516103a8919061474a565b6104036104673660046145bc565b610ed1565b61040361047a3660046145bc565b610f01565b61049261048d366004614759565b610f1f565b6040516103a8919061489a565b6104926104ad366004614335565b610fd7565b6104c56104c0366004614759565b6110a4565b6040516103a8919061492d565b6104e56104e0366004614759565b61145c565b6040516103a891906149b9565b610505610500366004614759565b611560565b6040516103a891906149fb565b61051a611696565b6040516103a89190600060e08201905082511515825260208301516020830152604083015160408301526060830151606083015260808301511515608083015260a0830151151560a083015260c083015160c083015292915050565b6104036117ee565b61059161058c3660046145bc565b611801565b6040516103a89190614a3d565b6105b16105ac366004614759565b6118da565b6040516103a89190614c19565b6105c66119f8565b6040516103a89190614cb4565b6105e66105e13660046145bc565b611e72565b6040516103a89190614ec9565b6105fb611f37565b60405190151581526020016103a8565b6103b9611f51565b61061b611fb0565b6040516103a89190614f0b565b61063b610636366004614335565b612076565b6040516103a89190615005565b61065b610656366004614759565b6121de565b6040516103a89190615048565b61039b610676366004614759565b612354565b61040361068936600461507a565b6124f4565b7f5fb65bb339c6bd3f2609a7342e6cb046e09f3e40f45242a5971904b021b5bb6c54610403565b610403612523565b6106d06106cb3660046145bc565b612536565b6040516103a89190615097565b6106f06106eb366004614335565b612661565b6040516103a891906150aa565b6106f061070b366004614759565b612816565b6103b961071e366004614335565b6129b0565b6104036107313660046145bc565b612a6a565b6107496107443660046145bc565b612a88565b6040516103a891906150ed565b610403612c0c565b610766612c1f565b6040516103a89190615100565b6107866107813660046145bc565b612c93565b6040516001600160a01b0390911681526020016103a8565b610403612ccc565b6107b96107b43660046145bc565b612cdf565b6040516103a8919061510e565b6103b96107d43660046145bc565b612dcf565b610403612e43565b6104036107ef3660046145bc565b612e56565b610807610802366004614335565b612e74565b6040516103a8919061511d565b61065b6108223660046145bc565b612f14565b61083a61083536600461507a565b6130fb565b6040516103a8919061512b565b6106d06108553660046151a5565b6131a3565b6106d0610868366004614335565b6134fd565b61088061087b3660046145bc565b613837565b6040516103a8919061524b565b6108a061089b366004614335565b6138cb565b6040516103a89190615259565b6108c06108bb3660046145bc565b61399a565b6040516103a8919061529a565b6103b96108db366004614335565b613c43565b610403613cfd565b610786613d10565b60606108fc83836152bf565b6001600160401b038111156109135761091361513a565b60405190808252806020026020018201604052801561094c57816020015b610939613d6c565b8152602001906001900390816109315790505b509050825b82811015610aad57610961613d48565b600e01600061096e613d48565b6006018381548110610982576109826152d6565b90600052602060002001548152602001908152602001600020604051806101a00160405290816000820160009054906101000a900460ff161515151581526020016001820154815260200160028201548152602001600382015481526020016004820160009054906101000a900460ff166003811115610a0457610a04614357565b6003811115610a1557610a15614357565b815260058201546020820152600682015460408201526007820154606082015260088201546080820152600982015460ff908116151560a0830152600a83015460c0830152600b83015416151560e0820152600c909101546101009091015282610a7f86846152bf565b81518110610a8f57610a8f6152d6565b60200260200101819052508080610aa5906152ec565b915050610951565b5092915050565b6060610abe613d48565b600301805480602002602001604051908101604052809291908181526020018280548015610b0b57602002820191906000526020600020905b815481526020019060010190808311610af7575b5050505050905090565b60607fc8b32c67c130c3ffee82ae8b12efdcc4a3964d2cf86dd6ece89dca12a93c0244805480602002602001604051908101604052809291908181526020016000905b82821015610c6d578382906000526020600020906009020160405180610120016040529081600082018054610b8c90615305565b80601f0160208091040260200160405190810160405280929190818152602001828054610bb890615305565b8015610c055780601f10610bda57610100808354040283529160200191610c05565b820191906000526020600020905b815481529060010190602001808311610be857829003601f168201915b505050505081526020016001820154815260200160028201548152602001600382015481526020016004820154815260200160058201548152602001600682015481526020016007820154815260200160088201548152505081526020019060010190610b58565b50505050905090565b610c7e613deb565b610c86613d48565b6000928352600d0160209081526040928390208351608081018552815481526001820154928101929092526002810154938201939093526003909201546001600160a01b031660608301525090565b6000610cdf613d48565b60010154905090565b610cf0613e1c565b60408051608081019091527f5fb65bb339c6bd3f2609a7342e6cb046e09f3e40f45242a5971904b021b5bb6d60046000835b82821015610c6d57604080516101408101909152600a8084028601906000835b82821015610da5576040805160a08101918290529085840190600590826000855b825461010083900a900460ff16815260206001928301818104948501949093039092029101808411610d63579050505050505081526020019060010190610d42565b5050505081526020019060010190610d22565b6000610dc2613d48565b600092835260110160205250604090205490565b610dde613e49565b610de6613d48565b6000838152600c91909101602090815260409182902082516101a08101845281546001600160a01b03168152600182015492810192909252600281015492820192909252600382015460608201526004808301546080830152600583015460a0830152600683015460c0830152600783015460e083015260088301546101008301526009830154610120830152600a830154610140830152600b83015491929161016084019160ff90911690811115610ea157610ea1614357565b6004811115610eb257610eb2614357565b8152600b9190910154610100900460ff16151560209091015292915050565b6000610edb613d48565b6007018281548110610eef57610eef6152d6565b90600052602060002001549050919050565b6000610f0b613d48565b600092835260130160205250604090205490565b60606000826001600160401b03811115610f3b57610f3b61513a565b604051908082528060200260200182016040528015610f6e57816020015b6060815260200190600190039081610f595790505b50905060005b83811015610fcd57610f9d858583818110610f9157610f916152d6565b90506020020135612f14565b828281518110610faf57610faf6152d6565b60200260200101819052508080610fc5906152ec565b915050610f74565b5090505b92915050565b60606000610fe584846152bf565b6001600160401b03811115610ffc57610ffc61513a565b60405190808252806020026020018201604052801561102f57816020015b606081526020019060019003908161101a5790505b509050835b83811015610fcd5761106b611047613d48565b600601828154811061105b5761105b6152d6565b9060005260206000200154612f14565b8261107687846152bf565b81518110611086576110866152d6565b6020026020010181905250808061109c906152ec565b915050611034565b6060816001600160401b038111156110be576110be61513a565b6040519080825280602002602001820160405280156110f757816020015b6110e4613ecb565b8152602001906001900390816110dc5790505b50905060005b82811015610aad576040518060800160405280611118613d48565b600c01600087878681811061112f5761112f6152d6565b6020908102929092013583525081810192909252604090810160002081516101a08101835281546001600160a01b03168152600182015493810193909352600281015491830191909152600381015460608301526004808201546080840152600582015460a0840152600682015460c0840152600782015460e084015260088201546101008401526009820154610120840152600a820154610140840152600b82015461016084019160ff909116908111156111ed576111ed614357565b60048111156111fe576111fe614357565b8152600b9190910154610100900460ff16151560209182015290825201611223613d48565b600e01600087878681811061123a5761123a6152d6565b905060200201358152602001908152602001600020604051806101a00160405290816000820160009054906101000a900460ff161515151581526020016001820154815260200160028201548152602001600382015481526020016004820160009054906101000a900460ff1660038111156112b8576112b8614357565b60038111156112c9576112c9614357565b81526005820154602080830191909152600683015460408301526007830154606083015260088301546080830152600983015460ff908116151560a0840152600a84015460c0840152600b84015416151560e0830152600c909201546101009091015290825201611338613d48565b600f01600087878681811061134f5761134f6152d6565b60209081029290920135835250818101929092526040908101600020815160a081018352815460ff161515815260018201548185015260028201546001600160a01b03908116938201939093526003820154606082015260049091015490911660808201528252016113bf613d48565b600d0160008787868181106113d6576113d66152d6565b60209081029290920135835250818101929092526040908101600020815160808101835281548152600182015493810193909352600281015491830191909152600301546001600160a01b031660608201529052825183908390811061143e5761143e6152d6565b60200260200101819052508080611454906152ec565b9150506110fd565b6060816001600160401b038111156114765761147661513a565b6040519080825280602002602001820160405280156114af57816020015b61149c613deb565b8152602001906001900390816114945790505b50905060005b82811015610aad576114c5613d48565b600d0160008585848181106114dc576114dc6152d6565b60209081029290920135835250818101929092526040908101600020815160808101835281548152600182015493810193909352600281015491830191909152600301546001600160a01b031660608201528251839083908110611542576115426152d6565b60200260200101819052508080611558906152ec565b9150506114b5565b6060816001600160401b0381111561157a5761157a61513a565b6040519080825280602002602001820160405280156115d357816020015b6040805160a0810182526000808252602080830182905292820181905260608201819052608082015282526000199092019101816115985790505b50905060005b82811015610aad576115e9613d48565b600f016000858584818110611600576116006152d6565b60209081029290920135835250818101929092526040908101600020815160a081018352815460ff161515815260018201549381019390935260028101546001600160a01b039081169284019290925260038101546060840152600401541660808201528251839083908110611678576116786152d6565b6020026020010181905250808061168e906152ec565b9150506115d9565b6116dc6040518060e00160405280600015158152602001600081526020016000815260200160008152602001600015158152602001600015158152602001600081525090565b506040805160e0810182527f2849cb27302bb32c0c7252ab45487d42296bcddad804f932e0b0589e515a93745460ff908116151582527f2849cb27302bb32c0c7252ab45487d42296bcddad804f932e0b0589e515a93755460208301527f2849cb27302bb32c0c7252ab45487d42296bcddad804f932e0b0589e515a937654928201929092527f2849cb27302bb32c0c7252ab45487d42296bcddad804f932e0b0589e515a93775460608201527f2849cb27302bb32c0c7252ab45487d42296bcddad804f932e0b0589e515a937854808316151560808301526101009004909116151560a08201527f2849cb27302bb32c0c7252ab45487d42296bcddad804f932e0b0589e515a93795460c082015290565b60006117f8613d48565b60090154905090565b611809613f2b565b611811613d48565b600083815260149190910160209081526040918290208251610160810184528154815260018201546001600160a01b031692810192909252600281015492820192909252600380830154606083015260048301546080830152600583015460a0830152600683015460c0830152600783015460e0830152600883015491929161010084019160ff909116908111156118ab576118ab614357565b60038111156118bc576118bc614357565b815260098201546020820152600a9091015460409091015292915050565b60606000826001600160401b038111156118f6576118f661513a565b60405190808252806020026020018201604052801561192957816020015b60608152602001906001900390816119145790505b50905060005b83811015610fcd576000611941613d48565b6015016000878785818110611958576119586152d6565b9050602002013581526020019081526020016000208054806020026020016040519081016040528092919081815260200182805480156119b757602002820191906000526020600020905b8154815260200190600101908083116119a3575b505050505090506119c7816131a3565b8383815181106119d9576119d96152d6565b60200260200101819052505080806119f0906152ec565b91505061192f565b611a00613f9f565b60408051610440810182527f5fb65bb339c6bd3f2609a7342e6cb046e09f3e40f45242a5971904b021b5bb53805460ff808216151584526101009182900416151560208401527f5fb65bb339c6bd3f2609a7342e6cb046e09f3e40f45242a5971904b021b5bb5454838501527f5fb65bb339c6bd3f2609a7342e6cb046e09f3e40f45242a5971904b021b5bb555460608401527f5fb65bb339c6bd3f2609a7342e6cb046e09f3e40f45242a5971904b021b5bb565460808401527f5fb65bb339c6bd3f2609a7342e6cb046e09f3e40f45242a5971904b021b5bb575460a08401527f5fb65bb339c6bd3f2609a7342e6cb046e09f3e40f45242a5971904b021b5bb585460c08401527f5fb65bb339c6bd3f2609a7342e6cb046e09f3e40f45242a5971904b021b5bb595460e08401527f5fb65bb339c6bd3f2609a7342e6cb046e09f3e40f45242a5971904b021b5bb5a54908301527f5fb65bb339c6bd3f2609a7342e6cb046e09f3e40f45242a5971904b021b5bb5b546101208301527f5fb65bb339c6bd3f2609a7342e6cb046e09f3e40f45242a5971904b021b5bb5c54610140808401919091527f5fb65bb339c6bd3f2609a7342e6cb046e09f3e40f45242a5971904b021b5bb5d546101608401527f5fb65bb339c6bd3f2609a7342e6cb046e09f3e40f45242a5971904b021b5bb5e54610180840152835190810193849052919290916101a08401917f5fb65bb339c6bd3f2609a7342e6cb046e09f3e40f45242a5971904b021b5bb5f90600a9082845b815481526020019060010190808311611c3457505050918352505060168201546020820152601782015460ff161515604080830191909152601883015460608301526019830154608080840191909152815190810190915260a090910190601a830160046000835b82821015611d3257604080516101408101909152600a8084028601906000835b82821015611d1f576040805160a08101918290529085840190600590826000855b825461010083900a900460ff16815260206001928301818104948501949093039092029101808411611cdd579050505050505081526020019060010190611cbc565b5050505081526020019060010190611c9c565b50505090825250604282015460208201526040805160c0810182529101906043830160068282826020028201915b815481526020019060010190808311611d60575050509183525050604982015460ff1615156020820152604a820154604080830191909152805161014081019182905260609092019190604b840190600a9082845b815481526020019060010190808311611db557505050918352505060558201546020820152605682015460408083019190915260578301546060830152605883015460ff1615156080830152605983015460a0830152605a83015460c0830152605b83015460e083015280516101408101918290526101009092019190605c840190600a9082845b815481526020019060010190808311611e3d575050505050815260200160668201548152602001606782015481525050905090565b6060611e7c613d48565b6013016000838152602001908152602001600020805480602002602001604051908101604052809291908181526020016000905b82821015611f2c576000848152602090819020604080516080810190915260048502909101805482526001810154919290919083019060ff168015611ef757611ef7614357565b8015611f0557611f05614357565b81526020016002820154815260200160038201548152505081526020019060010190611eb0565b505050509050919050565b6000611f41613d48565b54600160a01b900460ff16919050565b6060611f5b613d48565b600401805480602002602001604051908101604052809291908181526020018280548015610b0b5760200282019190600052602060002090815481526020019060010190808311610af7575050505050905090565b611fb86140ac565b60408051606081019091527fb997f4d26de83b05e27fc6c6b9d295ba414ad9dfbfc3edc3b418ee775927d06860036000835b82821015610c6d57604080516080810190915260148302850160046000835b82821015612063578382600502016040518060a00160405290816000820154815260200160018201548152602001600282015481526020016003820154815260200160048201548152505081526020019060010190612009565b5050505081526020019060010190611fea565b606061208283836152bf565b6001600160401b038111156120995761209961513a565b6040519080825280602002602001820160405280156120d257816020015b6120bf6140d9565b8152602001906001900390816120b75790505b509050825b82811015610aad576120e7613d48565b60120160006120f4613d48565b6008018381548110612108576121086152d6565b60009182526020808320909101546001600160a01b039081168452838201949094526040928301909120825161012081018452815460ff8082161515835261010091829004909616938201939093526001820154938101939093526002810154606084015260038101546080840152600481015460a0840152600581015460c0840152600681015460e084015260070154909216151591810191909152826121b086846152bf565b815181106121c0576121c06152d6565b602002602001018190525080806121d6906152ec565b9150506120d7565b6060816001600160401b038111156121f8576121f861513a565b60405190808252806020026020018201604052801561223157816020015b61221e613f2b565b8152602001906001900390816122165790505b50905060005b82811015610aad57612247613d48565b601401600085858481811061225e5761225e6152d6565b602090810292909201358352508181019290925260409081016000208151610160810183528154815260018201546001600160a01b031693810193909352600281015491830191909152600380820154606084015260048201546080840152600582015460a0840152600682015460c0840152600782015460e0840152600882015461010084019160ff909116908111156122fb576122fb614357565b600381111561230c5761230c614357565b815260200160098201548152602001600a82015481525050828281518110612336576123366152d6565b6020026020010181905250808061234c906152ec565b915050612237565b6060816001600160401b0381111561236e5761236e61513a565b6040519080825280602002602001820160405280156123a757816020015b612394613d6c565b81526020019060019003908161238c5790505b50905060005b82811015610aad576123bd613d48565b600e0160008585848181106123d4576123d46152d6565b905060200201358152602001908152602001600020604051806101a00160405290816000820160009054906101000a900460ff161515151581526020016001820154815260200160028201548152602001600382015481526020016004820160009054906101000a900460ff16600381111561245257612452614357565b600381111561246357612463614357565b815260058201546020820152600682015460408201526007820154606082015260088201546080820152600982015460ff908116151560a0830152600a83015460c0830152600b83015416151560e0820152600c909101546101009091015282518390839081106124d6576124d66152d6565b602002602001018190525080806124ec906152ec565b9150506123ad565b60006124fe613d48565b6001600160a01b03909216600090815260129290920160205250604090206006015490565b600061252d613d48565b60080154919050565b60606000612542613d48565b60150160008481526020019081526020016000208054806020026020016040519081016040528092919081815260200182805480156125a057602002820191906000526020600020905b81548152602001906001019080831161258c575b5050505050905080516001600160401b038111156125c0576125c061513a565b6040519080825280602002602001820160405280156125f957816020015b6125e6614132565b8152602001906001900390816125de5790505b50915060005b815181101561265a5761262a82828151811061261d5761261d6152d6565b602002602001015161399a565b83828151811061263c5761263c6152d6565b60200260200101819052508080612652906152ec565b9150506125ff565b5050919050565b606061266d83836152bf565b6001600160401b038111156126845761268461513a565b6040519080825280602002602001820160405280156126bd57816020015b6126aa613e49565b8152602001906001900390816126a25790505b509050825b82811015610aad576126d2613d48565b600c0160006126df613d48565b60060183815481106126f3576126f36152d6565b60009182526020808320909101548352828101939093526040918201902081516101a08101835281546001600160a01b03168152600182015493810193909352600281015491830191909152600381015460608301526004808201546080840152600582015460a0840152600682015460c0840152600782015460e084015260088201546101008401526009820154610120840152600a820154610140840152600b82015461016084019160ff909116908111156127b3576127b3614357565b60048111156127c4576127c4614357565b8152600b9190910154610100900460ff161515602090910152826127e886846152bf565b815181106127f8576127f86152d6565b6020026020010181905250808061280e906152ec565b9150506126c2565b6060816001600160401b038111156128305761283061513a565b60405190808252806020026020018201604052801561286957816020015b612856613e49565b81526020019060019003908161284e5790505b50905060005b82811015610aad5761287f613d48565b600c016000858584818110612896576128966152d6565b6020908102929092013583525081810192909252604090810160002081516101a08101835281546001600160a01b03168152600182015493810193909352600281015491830191909152600381015460608301526004808201546080840152600582015460a0840152600682015460c0840152600782015460e084015260088201546101008401526009820154610120840152600a820154610140840152600b82015461016084019160ff9091169081111561295457612954614357565b600481111561296557612965614357565b8152600b9190910154610100900460ff1615156020909101528251839083908110612992576129926152d6565b602002602001018190525080806129a8906152ec565b91505061286f565b60606129bc83836152bf565b6001600160401b038111156129d3576129d361513a565b6040519080825280602002602001820160405280156129fc578160200160208202803683370190505b509050825b82811015610aad57612a11613d48565b6006018181548110612a2557612a256152d6565b9060005260206000200154828583612a3d91906152bf565b81518110612a4d57612a4d6152d6565b602090810291909101015280612a62816152ec565b915050612a01565b6000612a74613d48565b6006018281548110610eef57610eef6152d6565b612ad76040518061012001604052806060815260200160008152602001600081526020016000815260200160008152602001600081526020016000815260200160008152602001600081525090565b7fc8b32c67c130c3ffee82ae8b12efdcc4a3964d2cf86dd6ece89dca12a93c02448281548110612b0957612b096152d6565b906000526020600020906009020160405180610120016040529081600082018054612b3390615305565b80601f0160208091040260200160405190810160405280929190818152602001828054612b5f90615305565b8015612bac5780601f10612b8157610100808354040283529160200191612bac565b820191906000526020600020905b815481529060010190602001808311612b8f57829003601f168201915b50505050508152602001600182015481526020016002820154815260200160038201548152602001600482015481526020016005820154815260200160068201548152602001600782015481526020016008820154815250509050919050565b6000612c16613d48565b600a0154905090565b612c2761423b565b6040805160c08101918290527f5fb65bb339c6bd3f2609a7342e6cb046e09f3e40f45242a5971904b021b5bb968054825290916006907f5fb65bb339c6bd3f2609a7342e6cb046e09f3e40f45242a5971904b021b5bb9760208501808311610af7575050505050905090565b6000612c9d613d48565b6008018281548110612cb157612cb16152d6565b6000918252602090912001546001600160a01b031692915050565b6000612cd6613d48565b60060154919050565b612ce7613d6c565b612cef613d48565b6000838152600e91909101602090815260409182902082516101a081018452815460ff9081161515825260018301549382019390935260028201549381019390935260038082015460608501526004820154919260808501921690811115612d5957612d59614357565b6003811115612d6a57612d6a614357565b815260058201546020820152600682015460408201526007820154606082015260088201546080820152600982015460ff908116151560a0830152600a83015460c0830152600b83015416151560e0820152600c909101546101009091015292915050565b6060612dd9613d48565b6015016000838152602001908152602001600020805480602002602001604051908101604052809291908181526020018280548015612e3757602002820191906000526020600020905b815481526020019060010190808311612e23575b50505050509050919050565b6000612e4d613d48565b60070154919050565b6000612e60613d48565b600092835260100160205250604090205490565b612e7c614259565b612e84613d48565b60130160008481526020019081526020016000208281548110612ea957612ea96152d6565b60009182526020918290206040805160808101909152600490920201805482526001810154919290919083019060ff168015612ee757612ee7614357565b8015612ef557612ef5614357565b8152600282015460208201526003909101546040909101529392505050565b60606000805b612f2384610f01565b811015612f6d576000612f368583612e74565b602001518015612f4857612f48614357565b03612f5b57612f58600183615339565b91505b612f66600182615339565b9050612f1a565b50806001600160401b03811115612f8657612f8661513a565b604051908082528060200260200182016040528015612fbf57816020015b612fac613f2b565b815260200190600190039081612fa45790505b50915060005b612fce84610f01565b81101561265a576000612fe18583612e74565b9050600060208201518015612ff857612ff8614357565b036130e857613005613d48565b8151600090815260149190910160209081526040918290208251610160810184528154815260018201546001600160a01b031692810192909252600281015492820192909252600380830154606083015260048301546080830152600583015460a0830152600683015460c0830152600783015460e0830152600883015491929161010084019160ff909116908111156130a1576130a1614357565b60038111156130b2576130b2614357565b815260200160098201548152602001600a820154815250508483815181106130dc576130dc6152d6565b60200260200101819052505b506130f4600182615339565b9050612fc5565b6131036140d9565b61310b613d48565b6001600160a01b0392831660009081526012919091016020908152604091829020825161012081018452815460ff8082161515835261010091829004909716938201939093526001820154938101939093526002810154606084015260038101546080840152600481015460a0840152600581015460c0840152600681015460e0840152600701549093161515928101929092525090565b606081516001600160401b038111156131be576131be61513a565b6040519080825280602002602001820160405280156131f757816020015b6131e4614132565b8152602001906001900390816131dc5790505b50905060005b82518110156134f7576000306001600160a01b0316638465ad44858481518110613229576132296152d6565b60200260200101516040518263ffffffff1660e01b815260040161324f91815260200190565b6101a060405180830381865afa15801561326d573d6000803e3d6000fd5b505050506040513d601f19601f82011682018060405250810190613291919061539e565b60208101516040516331a9108f60e11b815260048101919091529091506000903090636352211e90602401602060405180830381865afa9250505080156132f5575060408051601f3d908101601f191682019092526132f29181019061546b565b60015b61335e57613301615488565b806308c379a00361332657506133156154a4565b806133205750613328565b50613361565b505b3d808015613352576040519150601f19603f3d011682016040523d82523d6000602084013e613357565b606091505b5050613361565b90505b6040518060c0016040528083815260200173__$6b7b4f300876ea7c4892437e01c3ce569a$__631ec2b886856040518263ffffffff1660e01b81526004016133a9919061552d565b60a060405180830381865af41580156133c6573d6000803e3d6000fd5b505050506040513d601f19601f820116820180604052508101906133ea919061553c565b815260200173__$6b7b4f300876ea7c4892437e01c3ce569a$__6329fa32f7856040518263ffffffff1660e01b8152600401613426919061552d565b60a060405180830381865af4158015613443573d6000803e3d6000fd5b505050506040513d601f19601f82011682018060405250810190613467919061553c565b8152602001826001600160a01b03168152602001613483613d48565b6010016000856020015181526020019081526020016000205481526020016134a9613d48565b601101600085602001518152602001908152602001600020548152508484815181106134d7576134d76152d6565b6020026020010181905250505080806134ef906152ec565b9150506131fd565b50919050565b606061350983836152bf565b6001600160401b038111156135205761352061513a565b60405190808252806020026020018201604052801561355957816020015b613546614132565b81526020019060019003908161353e5790505b509050825b82811015610aad57604051630be72d8360e01b8152600481018290526000903090630be72d83906024016101a060405180830381865afa1580156135a6573d6000803e3d6000fd5b505050506040513d601f19601f820116820180604052508101906135ca919061539e565b60208101516040516331a9108f60e11b815260048101919091529091506000903090636352211e90602401602060405180830381865afa92505050801561362e575060408051601f3d908101601f1916820190925261362b9181019061546b565b60015b6136975761363a615488565b806308c379a00361365f575061364e6154a4565b806136595750613661565b5061369a565b505b3d80801561368b576040519150601f19603f3d011682016040523d82523d6000602084013e613690565b606091505b505061369a565b90505b6040518060c0016040528083815260200173__$6b7b4f300876ea7c4892437e01c3ce569a$__631ec2b886856040518263ffffffff1660e01b81526004016136e2919061552d565b60a060405180830381865af41580156136ff573d6000803e3d6000fd5b505050506040513d601f19601f82011682018060405250810190613723919061553c565b815260200173__$6b7b4f300876ea7c4892437e01c3ce569a$__6329fa32f7856040518263ffffffff1660e01b815260040161375f919061552d565b60a060405180830381865af415801561377c573d6000803e3d6000fd5b505050506040513d601f19601f820116820180604052508101906137a0919061553c565b8152602001826001600160a01b031681526020016137bc613d48565b6010016000856020015181526020019081526020016000205481526020016137e2613d48565b60208086015160009081526011929092019052604090205490528461380788866152bf565b81518110613817576138176152d6565b60200260200101819052505050808061382f906152ec565b91505061355e565b6040805160a08101825260008082526020820181905291810182905260608101829052608081019190915261386a613d48565b6000928352600f016020908152604092839020835160a081018552815460ff161515815260018201549281019290925260028101546001600160a01b0390811694830194909452600381015460608301526004015490921660808301525090565b60606138d783836152bf565b6001600160401b038111156138ee576138ee61513a565b604051908082528060200260200182016040528015613917578160200160208202803683370190505b509050825b82811015610aad5761392c613d48565b6008018181548110613940576139406152d6565b6000918252602090912001546001600160a01b03168261396086846152bf565b81518110613970576139706152d6565b6001600160a01b039092166020928302919091019091015280613992816152ec565b91505061391c565b6139a2614132565b6040516321196b5160e21b8152600481018390526000903090638465ad44906024016101a060405180830381865afa1580156139e2573d6000803e3d6000fd5b505050506040513d601f19601f82011682018060405250810190613a06919061539e565b60208101516040516331a9108f60e11b815260048101919091529091506000903090636352211e90602401602060405180830381865afa925050508015613a6a575060408051601f3d908101601f19168201909252613a679181019061546b565b60015b613ad357613a76615488565b806308c379a003613a9b5750613a8a6154a4565b80613a955750613a9d565b50613ad6565b505b3d808015613ac7576040519150601f19603f3d011682016040523d82523d6000602084013e613acc565b606091505b5050613ad6565b90505b6040518060c0016040528083815260200173__$6b7b4f300876ea7c4892437e01c3ce569a$__631ec2b886856040518263ffffffff1660e01b8152600401613b1e919061552d565b60a060405180830381865af4158015613b3b573d6000803e3d6000fd5b505050506040513d601f19601f82011682018060405250810190613b5f919061553c565b815260200173__$6b7b4f300876ea7c4892437e01c3ce569a$__6329fa32f7856040518263ffffffff1660e01b8152600401613b9b919061552d565b60a060405180830381865af4158015613bb8573d6000803e3d6000fd5b505050506040513d601f19601f82011682018060405250810190613bdc919061553c565b8152602001826001600160a01b03168152602001613bf8613d48565b601001600085602001518152602001908152602001600020548152602001613c1e613d48565b6011016000856020015181526020019081526020016000205481525092505050919050565b6060613c4f83836152bf565b6001600160401b03811115613c6657613c6661513a565b604051908082528060200260200182016040528015613c8f578160200160208202803683370190505b509050825b82811015610aad57613ca4613d48565b6007018181548110613cb857613cb86152d6565b9060005260206000200154828583613cd091906152bf565b81518110613ce057613ce06152d6565b602090810291909101015280613cf5816152ec565b915050613c94565b6000613d07613d48565b60020154905090565b6000613d437fc8fcad8db84d3cc18b4c41d551ea0ee66dd599cde068d998e57d5e09332c1320546001600160a01b031690565b905090565b7fcb7f1a525606efcbba7baaf9b0b55c468d0fd558cbf767967f538834dfa1232e90565b604051806101a0016040528060001515815260200160008152602001600081526020016000815260200160006003811115613da957613da9614357565b81526020016000815260200160008152602001600081526020016000815260200160001515815260200160008152602001600015158152602001600081525090565b604051806080016040528060008152602001600081526020016000815260200160006001600160a01b031681525090565b60405180608001604052806004905b613e33614273565b815260200190600190039081613e2b5790505090565b604051806101a0016040528060006001600160a01b031681526020016000815260200160008152602001600081526020016000815260200160008152602001600081526020016000815260200160008152602001600081526020016000815260200160006004811115613ebe57613ebe614357565b8152600060209091015290565b6040518060800160405280613ede613e49565b8152602001613eeb613d6c565b81526040805160a081018252600080825260208281018290529282018190526060820181905260808201529101908152602001613f26613deb565b905290565b6040518061016001604052806000815260200160006001600160a01b0316815260200160008152602001600081526020016000815260200160008152602001600081526020016000815260200160006003811115613f8b57613f8b614357565b815260200160008152602001600081525090565b60405180610440016040528060001515815260200160001515815260200160008152602001600081526020016000815260200160008152602001600081526020016000815260200160008152602001600081526020016000815260200160008152602001600081526020016140126142a1565b815260200160008152602001600015158152602001600081526020016000815260200161403d613e1c565b81526020016000815260200161405161423b565b8152600060208201819052604082015260600161406c6142a1565b8152602001600081526020016000815260200160008152602001600015158152602001600081526020016000815260200160008152602001613f8b6142a1565b60405180606001604052806003905b6140c36142c0565b8152602001906001900390816140bb5790505090565b60405180610120016040528060001515815260200160006001600160a01b031681526020016000815260200160008152602001600081526020016000815260200160008152602001600081526020016000151581525090565b604080516102608101909152600060c0820181815260e08301829052610100830182905261012083018290526101408301829052610160830182905261018083018290526101a083018290526101c083018290526101e0830182905261020083018290526102208301829052610240830191909152819081526020016141e06040518060a0016040528060008152602001600081526020016000815260200160008152602001600081525090565b81526020016142176040518060a0016040528060008152602001600081526020016000815260200160008152602001600081525090565b815260200160006001600160a01b0316815260200160008152602001600081525090565b6040518060c001604052806006906020820280368337509192915050565b604080516080810190915260008082526020820190613f8b565b604051806101400160405280600a905b61428b614317565b8152602001906001900390816142835790505090565b604051806101400160405280600a906020820280368337509192915050565b60405180608001604052806004905b6143016040518060a0016040528060008152602001600081526020016000815260200160008152602001600081525090565b8152602001906001900390816142cf5790505090565b6040518060a001604052806005906020820280368337509192915050565b6000806040838503121561434857600080fd5b50508035926020909101359150565b634e487b7160e01b600052602160045260246000fd5b6004811061437d5761437d614357565b9052565b80511515825260208101516020830152604081015160408301526060810151606083015260808101516143b7608084018261436d565b5060a081015160a083015260c081015160c083015260e081015160e0830152610100808201518184015250610120808201516143f68285018215159052565b505061014081810151908301526101608082015115159083015261018090810151910152565b6020808252825182820181905260009190848201906040850190845b8181101561445f5761444b838551614381565b928401926101a09290920191600101614438565b50909695505050505050565b6020808252825182820181905260009190848201906040850190845b8181101561445f57835183529284019291840191600101614487565b6000610120825181855280518083870152600092505b808310156144db576020838301015161014084880101526020830192506144b9565b808311156144ee57600061014082880101525b6020850151602087015260408501516040870152606085015160608701526080850151608087015260a085015160a087015260c085015160c087015260e085015160e087015261010092508285015183870152610140601f19601f830116870101935050505092915050565b6000602080830181845280855180835260408601915060408160051b870101925083870160005b828110156145af57603f1988860301845261459d8583516144a3565b94509285019290850190600101614581565b5092979650505050505050565b6000602082840312156145ce57600080fd5b5035919050565b8051825260208082015190830152604080820151908301526060908101516001600160a01b0316910152565b60808101610fd182846145d5565b8060005b60048110156146865781518460005b600a81101561466c5782518260005b600581101561465357825160ff16825260209283019290910190600101614631565b5050506020929092019160a09190910190600101614622565b505050610640939093019260209190910190600101614613565b50505050565b6119008101610fd1828461460f565b6005811061437d5761437d614357565b80516001600160a01b031682526020810151602083015260408101516040830152606081015160608301526080810151608083015260a081015160a083015260c081015160c083015260e081015160e0830152610100808201518184015250610120808201518184015250610140808201518184015250610160808201516147358285018261469b565b50506101808181015180151584830152614686565b6101a08101610fd182846146ab565b6000806020838503121561476c57600080fd5b82356001600160401b038082111561478357600080fd5b818501915085601f83011261479757600080fd5b8135818111156147a657600080fd5b8660208260051b85010111156147bb57600080fd5b60209290920196919550909350505050565b8051825260208101516147eb60208401826001600160a01b03169052565b5060408101516040830152606081015160608301526080810151608083015260a081015160a083015260c081015160c083015260e081015160e08301526101008082015161483b8285018261436d565b5050610120818101519083015261014090810151910152565b600081518084526020808501945080840160005b8381101561488f5761487b8783516147cd565b610160969096019590820190600101614868565b509495945050505050565b6000602080830181845280855180835260408601915060408160051b870101925083870160005b828110156145af57603f198886030184526148dd858351614854565b945092850192908501906001016148c1565b805115158252602080820151908301526040808201516001600160a01b03908116918401919091526060808301519084015260809182015116910152565b602080825282518282018190526000919060409081850190868401855b828110156149ac57815161495f8582516146ab565b868101516149716101a0870182614381565b50858101516149846103408701826148ef565b50606001516149976103e08601826145d5565b5061046093909301929085019060010161494a565b5091979650505050505050565b6020808252825182820181905260009190848201906040850190845b8181101561445f576149e88385516145d5565b92840192608092909201916001016149d5565b6020808252825182820181905260009190848201906040850190845b8181101561445f57614a2a8385516148ef565b9284019260a09290920191600101614a17565b6101608101610fd182846147cd565b6006811061437d5761437d614357565b600b811061437d5761437d614357565b600f811061437d5761437d614357565b80511515825260208101516020830152604081015160408301526060810151614aa86060840182614a4c565b506080810151614abb6080840182614a5c565b5060a081015160a083015260c0810151614ae060c08401826001600160a01b03169052565b5060e0810151614af360e0840182614a6c565b506101008181015190830152610120808201519083015261014080820151908301526101608082015190830152610180808201516001600160a01b03811682850152614686565b614b45828251614a7c565b60208181015180516101a0850152808201516101c08501526040808201516101e08601526060808301516102008701526080928301516102208701528185015180516102408801529384015161026087015290830151610280860152828101516102a0860152918101516102c0850152908201516001600160a01b03166102e084015281015161030083015260a0015161032090910152565b600081518084526020808501945080840160005b8381101561488f57614c05878351614b3a565b610340969096019590820190600101614bf2565b6000602080830181845280855180835260408601915060408160051b870101925083870160005b828110156145af57603f19888603018452614c5c858351614bde565b94509285019290850190600101614c40565b8060005b600a811015614686578151845260209384019390910190600101614c72565b8060005b6006811015614686578151845260209384019390910190600101614c95565b81511515815261212081016020830151614cd2602084018215159052565b5060408301516040830152606083015160608301526080830151608083015260a083015160a083015260c083015160c083015260e083015160e08301526101008084015181840152506101208084015181840152506101408084015181840152506101608084015181840152506101808084015181840152506101a080840151614d5e82850182614c6e565b50506101c08301516102e081818501526101e08501519150610300614d868186018415159052565b61020086015192506103208381870152610220870151935061034084818801526102408801519450610360614dbd8189018761460f565b610260890151611c608901526102808901519550614ddf611c80890187614c91565b6102a08901511515611d408901526102c0890151611d60890152848901519550614e0d611d80890187614c6e565b92880151611ec088015290870151611ee0870152860151611f00860152850151801515611f208601529150614e3f9050565b50610380830151611f408301526103a0830151611f608301526103c0830151611f808301526103e0830151614e78611fa0840182614c6e565b506104008301516120e0830152610420909201516121009091015290565b80518252602081015160018110614eaf57614eaf614357565b602083015260408181015190830152606090810151910152565b6020808252825182820181905260009190848201906040850190845b8181101561445f57614ef8838551614e96565b9284019260809290920191600101614ee5565b610780810181836000805b6003811015614f9357825184835b6004811015614f7957614f6382845180518252602081015160208301526040810151604083015260608101516060830152608081015160808301525050565b6020929092019160a09190910190600101614f24565b505050610280939093019260209290920191600101614f16565b5050505092915050565b80511515825260018060a01b03602082015116602083015260408101516040830152606081015160608301526080810151608083015260a081015160a083015260c081015160c083015260e081015160e0830152610100808201516146868285018215159052565b6020808252825182820181905260009190848201906040850190845b8181101561445f57615034838551614f9d565b928401926101209290920191600101615021565b60208152600061505b6020830184614854565b9392505050565b6001600160a01b038116811461507757600080fd5b50565b60006020828403121561508c57600080fd5b813561505b81615062565b60208152600061505b6020830184614bde565b6020808252825182820181905260009190848201906040850190845b8181101561445f576150d98385516146ab565b928401926101a092909201916001016150c6565b60208152600061505b60208301846144a3565b60c08101610fd18284614c91565b6101a08101610fd18284614381565b60808101610fd18284614e96565b6101208101610fd18284614f9d565b634e487b7160e01b600052604160045260246000fd5b601f8201601f191681016001600160401b03811182821017156151755761517561513a565b6040525050565b6040516101a081016001600160401b038111828210171561519f5761519f61513a565b60405290565b600060208083850312156151b857600080fd5b82356001600160401b03808211156151cf57600080fd5b818501915085601f8301126151e357600080fd5b8135818111156151f5576151f561513a565b8060051b915060405161520a85840182615150565b8181529183018401918481018884111561522357600080fd5b938501935b8385101561523f5784358152938501938501615228565b50979650505050505050565b60a08101610fd182846148ef565b6020808252825182820181905260009190848201906040850190845b8181101561445f5783516001600160a01b031683529284019291840191600101615275565b6103408101610fd18284614b3a565b634e487b7160e01b600052601160045260246000fd5b6000828210156152d1576152d16152a9565b500390565b634e487b7160e01b600052603260045260246000fd5b6000600182016152fe576152fe6152a9565b5060010190565b600181811c9082168061531957607f821691505b6020821081036134f757634e487b7160e01b600052602260045260246000fd5b6000821982111561534c5761534c6152a9565b500190565b8051801515811461536157600080fd5b919050565b80516006811061536157600080fd5b8051600b811061536157600080fd5b805161536181615062565b8051600f811061536157600080fd5b60006101a082840312156153b157600080fd5b6153b961517c565b6153c283615351565b815260208301516020820152604083015160408201526153e460608401615366565b60608201526153f560808401615375565b608082015260a083015160a082015261541060c08401615384565b60c082015261542160e0840161538f565b60e08201526101008381015190820152610120808401519082015261014080840151908201526101608084015190820152610180615460818501615384565b908201529392505050565b60006020828403121561547d57600080fd5b815161505b81615062565b600060033d11156154a15760046000803e5060005160e01c5b90565b600060443d10156154b25790565b6040516003193d81016004833e81513d6001600160401b0381602484011181841117156154e157505050505090565b82850191508151818111156154f95750505050505090565b843d87010160208285010111156155135750505050505090565b61552260208286010187615150565b509095945050505050565b6101a08101610fd18284614a7c565b600060a0828403121561554e57600080fd5b60405160a081018181106001600160401b03821117156155705761557061513a565b80604052508251815260208301516020820152604083015160408201526060830151606082015260808301516080820152809150509291505056fea26469706673582212204ff0fc0a27b26a6be2a82528b242183973faa5cc64df22115b21b020c9837e1e64736f6c634300080d0033",
    "sourcePath": "/Users/lele/Downloads/eth-master/contracts/facets/DFGetterFacet.sol",
    "compiler": {
        "name": "solc",
        "version": "0.8.13+commit.abaa5c0e"
    },
    "functionHashes": {
        "TOKEN_MINT_END_TIMESTAMP()": "13831479",
        "adminAddress()": "fc6f9468",
        "artifactIdToPlanetId(uint256)": "da40b311",
        "artifactIdToVoyageId(uint256)": "1a3971c6",
        "bulkGetArtifacts(uint256,uint256)": "ec935da2",
        "bulkGetArtifactsByIds(uint256[])": "e654848a",
        "bulkGetPlanetArrivals(uint256,uint256)": "40a72788",
        "bulkGetPlanetArrivalsByIds(uint256[])": "3f9d7c49",
        "bulkGetPlanetArtifacts(uint256[])": "54113a1e",
        "bulkGetPlanetIds(uint256,uint256)": "aaca42e9",
        "bulkGetPlanets(uint256,uint256)": "975de613",
        "bulkGetPlanetsByIds(uint256[])": "98f94a8e",
        "bulkGetPlanetsDataByIds(uint256[])": "45510f22",
        "bulkGetPlanetsExtendedInfo(uint256,uint256)": "04d74a39",
        "bulkGetPlanetsExtendedInfo2ByIds(uint256[])": "4743be23",
        "bulkGetPlanetsExtendedInfoByIds(uint256[])": "78622ae6",
        "bulkGetPlayerIds(uint256,uint256)": "f6d5775a",
        "bulkGetPlayers(uint256,uint256)": "6c7ffeec",
        "bulkGetRevealedCoordsByIds(uint256[])": "46d7789d",
        "bulkGetRevealedPlanetIds(uint256,uint256)": "fa37ca45",
        "bulkGetVoyagesByIds(uint256[])": "745297cc",
        "getArtifactById(uint256)": "f9231d92",
        "getArtifactPointValues()": "bdc56af5",
        "getArtifactsOnPlanet(uint256)": "90960189",
        "getCumulativeRarities()": "63ffb9ee",
        "getDefaultStats()": "08d2e95a",
        "getGameConstants()": "542df7c7",
        "getNPlanets()": "c68b8126",
        "getNPlayers()": "8a05b329",
        "getNRevealedPlanets()": "d4cc63e7",
        "getPlanetArrival(uint256)": "52b07fb8",
        "getPlanetArrivals(uint256)": "dacb6135",
        "getPlanetEvent(uint256,uint256)": "dac40ae7",
        "getPlanetEventsCount(uint256)": "3ee52a91",
        "getPlanetLevelThresholds()": "05b86be5",
        "getPlayerSpaceJunkLimit(address)": "80cd44d5",
        "getRevealCooldown()": "865e1d3c",
        "getRevealedCoords(uint256)": "0e1d2115",
        "getSnarkConstants()": "4d618eb1",
        "getTypeWeights()": "19519983",
        "getUpgrades()": "695bd00c",
        "paused()": "5c975abb",
        "planetArrivals(uint256)": "76af38b4",
        "planetArtifacts(uint256)": "d3a3f551",
        "planetDefaultStats(uint256)": "b5549e64",
        "planetEvents(uint256)": "5633aacd",
        "planetEventsCount()": "bb4908f2",
        "planetIds(uint256)": "ad489091",
        "planetLevelsCount()": "fb9b90c2",
        "planets(uint256)": "26c1e750",
        "planetsExtendedInfo(uint256)": "ccf738e9",
        "planetsExtendedInfo2(uint256)": "f1e28ee0",
        "playerIds(uint256)": "c012b112",
        "players(address)": "e2eb41ff",
        "revealedCoords(uint256)": "edb7ffe4",
        "revealedPlanetIds(uint256)": "2a9b1a32",
        "worldRadius()": "4eb0e959"
    },
    "gasEstimates": {
        "creation": {
            "codeDepositCost": "4397000",
            "executionCost": "5103",
            "totalCost": "4402103"
        },
        "external": {
            "TOKEN_MINT_END_TIMESTAMP()": "2439",
            "adminAddress()": "2501",
            "artifactIdToPlanetId(uint256)": "2600",
            "artifactIdToVoyageId(uint256)": "2623",
            "bulkGetArtifacts(uint256,uint256)": "infinite",
            "bulkGetArtifactsByIds(uint256[])": "infinite",
            "bulkGetPlanetArrivals(uint256,uint256)": "infinite",
            "bulkGetPlanetArrivalsByIds(uint256[])": "infinite",
            "bulkGetPlanetArtifacts(uint256[])": "infinite",
            "bulkGetPlanetIds(uint256,uint256)": "infinite",
            "bulkGetPlanets(uint256,uint256)": "infinite",
            "bulkGetPlanetsByIds(uint256[])": "infinite",
            "bulkGetPlanetsDataByIds(uint256[])": "infinite",
            "bulkGetPlanetsExtendedInfo(uint256,uint256)": "infinite",
            "bulkGetPlanetsExtendedInfo2ByIds(uint256[])": "infinite",
            "bulkGetPlanetsExtendedInfoByIds(uint256[])": "infinite",
            "bulkGetPlayerIds(uint256,uint256)": "infinite",
            "bulkGetPlayers(uint256,uint256)": "infinite",
            "bulkGetRevealedCoordsByIds(uint256[])": "infinite",
            "bulkGetRevealedPlanetIds(uint256,uint256)": "infinite",
            "bulkGetVoyagesByIds(uint256[])": "infinite",
            "getArtifactById(uint256)": "infinite",
            "getArtifactPointValues()": "infinite",
            "getArtifactsOnPlanet(uint256)": "infinite",
            "getCumulativeRarities()": "infinite",
            "getDefaultStats()": "infinite",
            "getGameConstants()": "infinite",
            "getNPlanets()": "2459",
            "getNPlayers()": "2461",
            "getNRevealedPlanets()": "2438",
            "getPlanetArrival(uint256)": "24702",
            "getPlanetArrivals(uint256)": "infinite",
            "getPlanetEvent(uint256,uint256)": "11589",
            "getPlanetEventsCount(uint256)": "2601",
            "getPlanetLevelThresholds()": "infinite",
            "getPlayerSpaceJunkLimit(address)": "2671",
            "getRevealCooldown()": "2383",
            "getRevealedCoords(uint256)": "9316",
            "getSnarkConstants()": "13496",
            "getTypeWeights()": "infinite",
            "getUpgrades()": "infinite",
            "paused()": "2439",
            "planetArrivals(uint256)": "24745",
            "planetArtifacts(uint256)": "infinite",
            "planetDefaultStats(uint256)": "infinite",
            "planetEvents(uint256)": "infinite",
            "planetEventsCount()": "2460",
            "planetIds(uint256)": "4678",
            "planetLevelsCount()": "2458",
            "planets(uint256)": "29093",
            "planetsExtendedInfo(uint256)": "29129",
            "planetsExtendedInfo2(uint256)": "11546",
            "playerIds(uint256)": "4741",
            "players(address)": "18294",
            "revealedCoords(uint256)": "9336",
            "revealedPlanetIds(uint256)": "4701",
            "worldRadius()": "2461"
        }
    }
}