{
    "contractName": "DFInitialize",
    "abi": [
        {
            "inputs": [
                {
                    "internalType": "bool",
                    "name": "whitelistEnabled",
                    "type": "bool"
                },
                {
                    "internalType": "string",
                    "name": "artifactBaseURI",
                    "type": "string"
                },
                {
                    "components": [
                        {
                            "internalType": "bool",
                            "name": "START_PAUSED",
                            "type": "bool"
                        },
                        {
                            "internalType": "bool",
                            "name": "ADMIN_CAN_ADD_PLANETS",
                            "type": "bool"
                        },
                        {
                            "internalType": "uint256",
                            "name": "LOCATION_REVEAL_COOLDOWN",
                            "type": "uint256"
                        },
                        {
                            "internalType": "uint256",
                            "name": "TOKEN_MINT_END_TIMESTAMP",
                            "type": "uint256"
                        },
                        {
                            "internalType": "bool",
                            "name": "WORLD_RADIUS_LOCKED",
                            "type": "bool"
                        },
                        {
                            "internalType": "uint256",
                            "name": "WORLD_RADIUS_MIN",
                            "type": "uint256"
                        },
                        {
                            "internalType": "bool",
                            "name": "DISABLE_ZK_CHECKS",
                            "type": "bool"
                        },
                        {
                            "internalType": "uint256",
                            "name": "PLANETHASH_KEY",
                            "type": "uint256"
                        },
                        {
                            "internalType": "uint256",
                            "name": "SPACETYPE_KEY",
                            "type": "uint256"
                        },
                        {
                            "internalType": "uint256",
                            "name": "BIOMEBASE_KEY",
                            "type": "uint256"
                        },
                        {
                            "internalType": "bool",
                            "name": "PERLIN_MIRROR_X",
                            "type": "bool"
                        },
                        {
                            "internalType": "bool",
                            "name": "PERLIN_MIRROR_Y",
                            "type": "bool"
                        },
                        {
                            "internalType": "uint256",
                            "name": "PERLIN_LENGTH_SCALE",
                            "type": "uint256"
                        },
                        {
                            "internalType": "uint256",
                            "name": "MAX_NATURAL_PLANET_LEVEL",
                            "type": "uint256"
                        },
                        {
                            "internalType": "uint256",
                            "name": "TIME_FACTOR_HUNDREDTHS",
                            "type": "uint256"
                        },
                        {
                            "internalType": "uint256",
                            "name": "PERLIN_THRESHOLD_1",
                            "type": "uint256"
                        },
                        {
                            "internalType": "uint256",
                            "name": "PERLIN_THRESHOLD_2",
                            "type": "uint256"
                        },
                        {
                            "internalType": "uint256",
                            "name": "PERLIN_THRESHOLD_3",
                            "type": "uint256"
                        },
                        {
                            "internalType": "uint256",
                            "name": "INIT_PERLIN_MIN",
                            "type": "uint256"
                        },
                        {
                            "internalType": "uint256",
                            "name": "INIT_PERLIN_MAX",
                            "type": "uint256"
                        },
                        {
                            "internalType": "uint256",
                            "name": "SPAWN_RIM_AREA",
                            "type": "uint256"
                        },
                        {
                            "internalType": "uint256",
                            "name": "BIOME_THRESHOLD_1",
                            "type": "uint256"
                        },
                        {
                            "internalType": "uint256",
                            "name": "BIOME_THRESHOLD_2",
                            "type": "uint256"
                        },
                        {
                            "internalType": "uint256[10]",
                            "name": "PLANET_LEVEL_THRESHOLDS",
                            "type": "uint256[10]"
                        },
                        {
                            "internalType": "uint256",
                            "name": "PLANET_RARITY",
                            "type": "uint256"
                        },
                        {
                            "internalType": "bool",
                            "name": "PLANET_TRANSFER_ENABLED",
                            "type": "bool"
                        },
                        {
                            "internalType": "uint8[5][10][4]",
                            "name": "PLANET_TYPE_WEIGHTS",
                            "type": "uint8[5][10][4]"
                        },
                        {
                            "internalType": "uint256",
                            "name": "SILVER_SCORE_VALUE",
                            "type": "uint256"
                        },
                        {
                            "internalType": "uint256[6]",
                            "name": "ARTIFACT_POINT_VALUES",
                            "type": "uint256[6]"
                        },
                        {
                            "internalType": "uint256",
                            "name": "PHOTOID_ACTIVATION_DELAY",
                            "type": "uint256"
                        },
                        {
                            "internalType": "bool",
                            "name": "SPACE_JUNK_ENABLED",
                            "type": "bool"
                        },
                        {
                            "internalType": "uint256",
                            "name": "SPACE_JUNK_LIMIT",
                            "type": "uint256"
                        },
                        {
                            "internalType": "uint256[10]",
                            "name": "PLANET_LEVEL_JUNK",
                            "type": "uint256[10]"
                        },
                        {
                            "internalType": "uint256",
                            "name": "ABANDON_SPEED_CHANGE_PERCENT",
                            "type": "uint256"
                        },
                        {
                            "internalType": "uint256",
                            "name": "ABANDON_RANGE_CHANGE_PERCENT",
                            "type": "uint256"
                        },
                        {
                            "internalType": "bool",
                            "name": "CAPTURE_ZONES_ENABLED",
                            "type": "bool"
                        },
                        {
                            "internalType": "uint256",
                            "name": "CAPTURE_ZONE_COUNT",
                            "type": "uint256"
                        },
                        {
                            "internalType": "uint256",
                            "name": "CAPTURE_ZONE_CHANGE_BLOCK_INTERVAL",
                            "type": "uint256"
                        },
                        {
                            "internalType": "uint256",
                            "name": "CAPTURE_ZONE_RADIUS",
                            "type": "uint256"
                        },
                        {
                            "internalType": "uint256[10]",
                            "name": "CAPTURE_ZONE_PLANET_LEVEL_SCORE",
                            "type": "uint256[10]"
                        },
                        {
                            "internalType": "uint256",
                            "name": "CAPTURE_ZONE_HOLD_BLOCKS_REQUIRED",
                            "type": "uint256"
                        },
                        {
                            "internalType": "uint256",
                            "name": "CAPTURE_ZONES_PER_5000_WORLD_RADIUS",
                            "type": "uint256"
                        }
                    ],
                    "internalType": "struct InitArgs",
                    "name": "initArgs",
                    "type": "tuple"
                }
            ],
            "name": "init",
            "outputs": [],
            "stateMutability": "nonpayable",
            "type": "function"
        },
        {
            "inputs": [],
            "name": "initializeDefaults",
            "outputs": [],
            "stateMutability": "nonpayable",
            "type": "function"
        },
        {
            "inputs": [],
            "name": "initializeUpgrades",
            "outputs": [],
            "stateMutability": "nonpayable",
            "type": "function"
        }
    ],
    "bytecode": "608060405234801561001057600080fd5b5061251b806100206000396000f3fe608060405234801561001057600080fd5b50600436106100415760003560e01c806357e20bfd146100465780639f2e9d0e14610050578063f40fac8314610063575b600080fd5b61004e61006b565b005b61004e61005e366004612358565b610af1565b61004e6114a8565b60408051610160810182526008610120820190815267105cdd195c9bda5960c21b6101408301528152620186a06020808301919091526101a19282019290925260636060820152604b608082015261019060a0820152600060c0820181905260e0820181905261010082018190527fc8b32c67c130c3ffee82ae8b12efdcc4a3964d2cf86dd6ece89dca12a93c024480546001810182559181905282518051919460099093027fc9b072c5b1473488519053c3783b2c0a796915cd6e69332ee32a11878701a8e4019261014392849290910190611ba4565b5060208281015160018084019190915560408085015160028501556060808601516003860155608080870151600487015560a080880151600588015560c080890151600689015560e0808a015160078a0155610100998a0151600890990198909855845161016081018652600b61012082019081526a213937bbb710223bb0b93360a91b610140830152815262061a80818901526103419581019590955260b193850193909352604b9184019190915261019090830152603890820152620186a0938101939093529282018390528354928301845560008481528190208251805193946009029091019261023a9284920190611ba4565b506020820151816001015560408201518160020155606082015181600301556080820151816004015560a0820151816005015560c0820151816006015560e082015181600701556101008201518160080155505080604051806101200160405280604051806040016040528060098152602001682932b210223bb0b93360b91b815250815260200162186a0081526020016104e2815260200161013b8152602001604b815260200161012c815260200160a781526020016207a1208152602001600281525090806001815401808255809150506001900390600052602060002090600902016000909190919091506000820151816000019080519060200190610344929190611ba4565b506020820151816001015560408201518160020155606082015181600301556080820151816004015560a0820151816005015560c0820151816006015560e0820151816007015561010082015181600801555050806040518061012001604052806040518060400160405280600b81526020016a2bb434ba3290223bb0b93360a91b8152508152602001625b8d808152602001610683815260200161024f8152602001604b815260200161012c81526020016101a18152602001622625a08152602001600381525090806001815401808255809150506001900390600052602060002090600902016000909190919091506000820151816000019080519060200190610451929190611ba4565b506020820151816001015560408201518160020155606082015181600301556080820151816004015560a0820151816005015560c0820151816006015560e0820151816007015561010082015181600801555050806040518061012001604052806040518060400160405280600b81526020016a2cb2b63637bb9029ba30b960a91b815250815260200163017d7840815260200161082381526020016104018152602001604b815260200161012c8152602001610341815260200162b71b00815260200160048152509080600181540180825580915050600190039060005260206000209060090201600090919091909150600082015181600001908051906020019061055f929190611ba4565b506020820151816001015560408201518160020155606082015181600301556080820151816004015560a0820151816005015560c0820151816006015560e0820151816007015561010082015181600801555050806040518061012001604052806040518060400160405280600981526020016821363ab29029ba30b960b91b81525081526020016305f5e10081526020016109c481526020016106c68152602001604b815260200160c8815260200161068381526020016302faf080815260200160058152509080600181540180825580915050600190039060005260206000209060090201600090919091909150600082015181600001908051906020019061066b929190611ba4565b506020820151816001015560408201518160020155606082015181600301556080820151816004015560a0820151816005015560c0820151816006015560e0820151816007015561010082015181600801555050806040518061012001604052806040518060400160405280600581526020016411da585b9d60da1b81525081526020016311e1a3008152602001610b658152602001610b168152602001604b815260200160c88152602001610ada81526020016305f5e1008152602001600781525090806001815401808255809150506001900390600052602060002090600902016000909190919091506000820151816000019080519060200190610773929190611ba4565b506020820151816001015560408201518160020155606082015181600301556080820151816004015560a0820151816005015560c0820151816006015560e0820151816007015561010082015181600801555050806040518061012001604052806040518060400160405280600a81526020016914dd5c195c99da585b9d60b21b8152508152602001631dcd65008152602001610d05815260200161113e8152602001604b815260200160c88152602001610ada8152602001630bebc2008152602001600a81525090806001815401808255809150506001900390600052602060002090600902016000909190919091506000820151816000019080519060200190610880929190611ba4565b506020820151816001015560408201518160020155606082015181600301556080820151816004015560a0820151816005015560c0820151816006015560e0820151816007015561010082015181600801555050806040518061012001604052806040518060400160405280600a815260200169556e6c6162656c65643160b01b81525081526020016329b927008152602001610ea681526020016118a28152602001604b815260200160c88152602001610ada81526020016311e1a300815260200160148152509080600181540180825580915050600190039060005260206000209060090201600090919091909150600082015181600001908051906020019061098d929190611ba4565b506020820151816001015560408201518160020155606082015181600301556080820151816004015560a0820151816005015560c0820151816006015560e0820151816007015561010082015181600801555050806040518061012001604052806040518060400160405280600a8152602001692ab73630b132b632b21960b11b8152508152602001632faf08008152602001611047815260200161227d8152602001604b815260200160c88152602001610ada81526020016317d784008152602001601981525090806001815401808255809150506001900390600052602060002090600902016000909190919091506000820151816000019080519060200190610a9a929190611ba4565b506020820151816001015560408201518160020155606082015181600301556080820151816004015560a0820151816005015560c0820151816006015560e082015181600701556101008201518160080155505050565b7fc8fcad8db84d3cc18b4c41d551ea0ee66dd599cde068d998e57d5e09332c131f60209081527f699d9daa71b280d05a152715774afa0a81a312594b2d731d6b0b2552b7d6f69f8054600160ff1991821681179092557ff97e938d8af42f52387bb74b8b526fda8f184cc2aa534340a8d75a88fbecc77580548216831790557f65d510a5d8f7ef134ec444f7f34ee808c8eeb5177cdfd16be0c40fe1ab43369580548216831790557f5622121b47b8cd0120c4efe45dd5483242f54a3d49bd7679be565d47694918c380548216831790557fb0f299ecb5b93181be17d5e233721498930c5361f367b1d41c5b827d4fe4d38080548216831790557f806e5513950c43892aa01780f899fe3e3229f9425b66a2610b01231f5799f44e805482168317905563780e9d6360e01b60009081527fc564b00dd622489e8872cfaa1fdbe51ee7adef071bfa99bc1effdc20162fa70a805490921690921790556040805192830190819052918190527fc8fcad8db84d3cc18b4c41d551ea0ee66dd599cde068d998e57d5e09332c131c91610ca9917f99574a7094154bb123ae6ae102096f0bf9679b85a5cd1e727aaa0ae5f132e6b19190611ba4565b50604080516020810191829052600090819052610ce7917f99574a7094154bb123ae6ae102096f0bf9679b85a5cd1e727aaa0ae5f132e6b291611ba4565b508251610d1a907f99574a7094154bb123ae6ae102096f0bf9679b85a5cd1e727aaa0ae5f132e6b3906020860190611ba4565b507fcb7f1a525606efcbba7baaf9b0b55c468d0fd558cbf767967f538834dfa1232e80546001600160a01b031916301790557f69a2c502475bdd85d96bf3a0299d27e0c75b294faa4041a1d71dc144ef660eba805460ff191685151517815566b1a2bc2ec5000090600101557f69a2c502475bdd85d96bf3a0299d27e0c75b294faa4041a1d71dc144ef660ebf805460ff19169055662386f26fc100007f69a2c502475bdd85d96bf3a0299d27e0c75b294faa4041a1d71dc144ef660ec055600a7fcb7f1a525606efcbba7baaf9b0b55c468d0fd558cbf767967f538834dfa123308190556102e0830151610e31917fcb7f1a525606efcbba7baaf9b0b55c468d0fd558cbf767967f538834dfa123319190611c28565b5060c08201517f2849cb27302bb32c0c7252ab45487d42296bcddad804f932e0b0589e515a9374805460ff191691151591909117905560e0820151610e937f2849cb27302bb32c0c7252ab45487d42296bcddad804f932e0b0589e515a937490565b60010155610100828101517f2849cb27302bb32c0c7252ab45487d42296bcddad804f932e0b0589e515a9376556101208301517f2849cb27302bb32c0c7252ab45487d42296bcddad804f932e0b0589e515a9377556101408301517f2849cb27302bb32c0c7252ab45487d42296bcddad804f932e0b0589e515a9378805461016086015161ff00199315159390931661ffff19909116179115159092021790556101808201517f2849cb27302bb32c0c7252ab45487d42296bcddad804f932e0b0589e515a9374600501556020820151610f6b611b80565b805460ff19169115159190911790556080820151610f87611b80565b80549115156101000261ff001990921691909117905560a0820151610faa611b80565b600101556101a0820151610fbc611b80565b600201556101c0820151610fce611b80565b600301556101e0820151610fe0611b80565b60040155610200820151610ff2611b80565b60050155610220820151611004611b80565b60060155610240820151611016611b80565b60070155610260820151611028611b80565b6008015561028082015161103a611b80565b600901556102a082015161104c611b80565b600a01556102c082015161105e611b80565b600b0155610300820151611070611b80565b60160155610320820151611082611b80565b601701805460ff19169115159190911790556103a08201516110a2611b80565b6018015560408201516110b3611b80565b601901556103408201516110c5611b80565b601a019060046110d6929190611c62565b508161036001516110e5611b80565b604201556103808201516110f7611b80565b604301906006611108929190611ca9565b50816103c00151611117611b80565b604901805460ff19169115159190911790556103e0820151611137611b80565b604a0155610400820151611149611b80565b604b0190600a61115a929190611cd6565b50816104200151611169611b80565b6055015561044082015161117b611b80565b6056015543611188611b80565b6057015561046082015161119a611b80565b605801805460ff19169115159190911790556104808201516111ba611b80565b605901556104a08201516111cc611b80565b605a01556104c08201516111de611b80565b605b01556104e08201516111f0611b80565b605c0190600a611201929190611cd6565b50816105000151611210611b80565b60660155610520820151611222611b80565b606701556104a08201516112369043612426565b7fcb7f1a525606efcbba7baaf9b0b55c468d0fd558cbf767967f538834dfa123455560a08201517fcb7f1a525606efcbba7baaf9b0b55c468d0fd558cbf767967f538834dfa123375581517fcb7f1a525606efcbba7baaf9b0b55c468d0fd558cbf767967f538834dfa1232e8054911515600160a01b0260ff60a01b1990921691909117905560608201517fcb7f1a525606efcbba7baaf9b0b55c468d0fd558cbf767967f538834dfa1232f556112eb61006b565b6112f36114a8565b6040805161014081018252600080825260208201819052918101829052606081018290526080810182905260a0810182905260c0810182905260e081018290526101008101829052610120810191909152611371907fcb7f1a525606efcbba7baaf9b0b55c468d0fd558cbf767967f538834dfa1233390600a611d03565b5060005b7fcb7f1a525606efcbba7baaf9b0b55c468d0fd558cbf767967f538834dfa1233154811015611445576103008301517fcb7f1a525606efcbba7baaf9b0b55c468d0fd558cbf767967f538834dfa12332907fcb7f1a525606efcbba7baaf9b0b55c468d0fd558cbf767967f538834dfa1232e60030183815481106113fb576113fb61243e565b906000526020600020015463010000006114159190612454565b61141f9190612476565b81546001818101845560009384526020909320015561143e9082612426565b9050611375565b5073__$6b7b4f300876ea7c4892437e01c3ce569a$__63eaae46536040518163ffffffff1660e01b815260040160006040518083038186803b15801561148a57600080fd5b505af415801561149e573d6000803e3d6000fd5b5050505050505050565b60007fb997f4d26de83b05e27fc6c6b9d295ba414ad9dfbfc3edc3b418ee775927d06890506040518060a00160405280607881526020016078815260200160648152602001606481526020016078815250816000600281111561150d5761150d612495565b6003811061151d5761151d61243e565b6014020160006005020160008201518160000155602082015181600101556040820151816002015560608201518160030155608082015181600401559050506040518060a00160405280607881526020016078815260200160648152602001606481526020016078815250816000600281111561159c5761159c612495565b600381106115ac576115ac61243e565b6014020160016005020160008201518160000155602082015181600101556040820151816002015560608201518160030155608082015181600401559050506040518060a00160405280607881526020016078815260200160648152602001606481526020016078815250816000600281111561162b5761162b612495565b6003811061163b5761163b61243e565b6014020160026005020160008201518160000155602082015181600101556040820151816002015560608201518160030155608082015181600401559050506040518060a0016040528060788152602001607881526020016064815260200160648152602001607881525081600060028111156116ba576116ba612495565b600381106116ca576116ca61243e565b6014020160036005020160008201518160000155602082015181600101556040820151816002015560608201518160030155608082015181600401559050506040518060a001604052806078815260200160788152602001607d8152602001606481526020016064815250816001600281111561174957611749612495565b600381106117595761175961243e565b6014020160006005020160008201518160000155602082015181600101556040820151816002015560608201518160030155608082015181600401559050506040518060a001604052806078815260200160788152602001607d815260200160648152602001606481525081600160028111156117d8576117d8612495565b600381106117e8576117e861243e565b6014020160016005020160008201518160000155602082015181600101556040820151816002015560608201518160030155608082015181600401559050506040518060a001604052806078815260200160788152602001607d8152602001606481526020016064815250816001600281111561186757611867612495565b600381106118775761187761243e565b6014020160026005020160008201518160000155602082015181600101556040820151816002015560608201518160030155608082015181600401559050506040518060a001604052806078815260200160788152602001607d815260200160648152602001606481525081600160028111156118f6576118f6612495565b600381106119065761190661243e565b6014020160036005020160008201518160000155602082015181600101556040820151816002015560608201518160030155608082015181600401559050506040518060a0016040528060788152602001607881526020016064815260200160af815260200160648152508160028081111561198457611984612495565b600381106119945761199461243e565b6014020160006005020160008201518160000155602082015181600101556040820151816002015560608201518160030155608082015181600401559050506040518060a0016040528060788152602001607881526020016064815260200160af8152602001606481525081600280811115611a1257611a12612495565b60038110611a2257611a2261243e565b6014020160016005020160008201518160000155602082015181600101556040820151816002015560608201518160030155608082015181600401559050506040518060a0016040528060788152602001607881526020016064815260200160af8152602001606481525081600280811115611aa057611aa0612495565b60038110611ab057611ab061243e565b6014020160026005020160008201518160000155602082015181600101556040820151816002015560608201518160030155608082015181600401559050506040518060a0016040528060788152602001607881526020016064815260200160af8152602001606481525081600280811115611b2e57611b2e612495565b60038110611b3e57611b3e61243e565b60140201600360050201600082015181600001556020820151816001015560408201518160020155606082015181600301556080820151816004015590505050565b7f5fb65bb339c6bd3f2609a7342e6cb046e09f3e40f45242a5971904b021b5bb5390565b828054611bb0906124ab565b90600052602060002090601f016020900481019282611bd25760008555611c18565b82601f10611beb57805160ff1916838001178555611c18565b82800160010185558215611c18579182015b82811115611c18578251825591602001919060010190611bfd565b50611c24929150611d43565b5090565b828054828255906000526020600020908101928215611c185791602002820182811115611c18578251825591602001919060010190611bfd565b602883019183908215611c9d579160200282015b82811115611c9d578251611c8d908390600a611d58565b50916020019190600a0190611c76565b50611c24929150611d9e565b8260068101928215611c185791602002820182811115611c18578251825591602001919060010190611bfd565b82600a8101928215611c185791602002820182811115611c18578251825591602001919060010190611bfd565b828054828255906000526020600020908101928215611c18579160200282015b82811115611c18578251829060ff16905591602001919060010190611d23565b5b80821115611c245760008155600101611d44565b82600a8101928215611d92579160200282015b82811115611d92578251611d829083906005611dbb565b5091602001919060010190611d6b565b50611c24929150611d44565b80821115611c24576000611db28282611e49565b50600a01611d9e565b600183019183908215611c185791602002820160005b83821115611e0f57835183826101000a81548160ff021916908360ff1602179055509260200192600101602081600001049283019260010302611dd1565b8015611e3c5782816101000a81549060ff0219169055600101602081600001049283019260010302611e0f565b5050611c24929150611d43565b50611e5890600a810190611d44565b50565b80358015158114611e6b57600080fd5b919050565b634e487b7160e01b600052604160045260246000fd5b604051610540810167ffffffffffffffff81118282101715611eaa57611eaa611e70565b60405290565b604051610140810167ffffffffffffffff81118282101715611eaa57611eaa611e70565b6040516080810167ffffffffffffffff81118282101715611eaa57611eaa611e70565b60405160a0810167ffffffffffffffff81118282101715611eaa57611eaa611e70565b604051601f8201601f1916810167ffffffffffffffff81118282101715611f4357611f43611e70565b604052919050565b600082601f830112611f5c57600080fd5b611f64611eb0565b80610140840185811115611f7757600080fd5b845b81811015611f91578035845260209384019301611f79565b509095945050505050565b6000601f8381840112611fae57600080fd5b611fb6611ed4565b80611900850186811115611fc957600080fd5b855b81811015612083578785820112611fe25760008081fd5b611fea611eb0565b8061064083018a811115611ffe5760008081fd5b835b8181101561206f578b898201126120175760008081fd5b61201f611ef7565b8060a083018e8111156120325760008081fd5b835b8181101561205c57803560ff8116811461204e5760008081fd5b845260209384019301612034565b505085525060209093019260a001612000565b505085525060209093019261064001611fcb565b50909695505050505050565b600082601f8301126120a057600080fd5b60405160c0810181811067ffffffffffffffff821117156120c3576120c3611e70565b6040528060c08401858111156120d857600080fd5b845b818110156120f25780358352602092830192016120da565b509195945050505050565b6000612220828403121561211057600080fd5b612118611e86565b905061212382611e5b565b815261213160208301611e5b565b6020820152604082013560408201526060820135606082015261215660808301611e5b565b608082015260a082013560a082015261217160c08301611e5b565b60c082015260e08281013590820152610100808301359082015261012080830135908201526101406121a4818401611e5b565b908201526101606121b6838201611e5b565b9082015261018082810135908201526101a080830135908201526101c080830135908201526101e08083013590820152610200808301359082015261022080830135908201526102408083013590820152610260808301359082015261028080830135908201526102a080830135908201526102c080830135908201526102e061224284828501611f4b565b9082015261042082810135610300830152610440612261818501611e5b565b61032084015261046061227686828701611f9c565b610340850152611d6085013561036085015261229686611d80870161208f565b610380850152611e408501356103a08501526122b5611e608601611e5b565b6103c0850152611e808501356103e08501526122d586611ea08701611f4b565b610400850152611fe085013583850152612000850135828501526122fc6120208601611e5b565b9084015250506120408201356104808201526120608201356104a08201526120808201356104c0820152612334836120a08401611f4b565b6104e08201526121e082013561050082015261220082013561052082015292915050565b6000806000612260848603121561236e57600080fd5b61237784611e5b565b925060208085013567ffffffffffffffff8082111561239557600080fd5b818701915087601f8301126123a957600080fd5b8135818111156123bb576123bb611e70565b6123cd601f8201601f19168501611f1a565b915080825288848285010111156123e357600080fd5b808484018584013760008482840101525080945050505061240785604086016120fd565b90509250925092565b634e487b7160e01b600052601160045260246000fd5b6000821982111561243957612439612410565b500190565b634e487b7160e01b600052603260045260246000fd5b60008261247157634e487b7160e01b600052601260045260246000fd5b500490565b600081600019048311821515161561249057612490612410565b500290565b634e487b7160e01b600052602160045260246000fd5b600181811c908216806124bf57607f821691505b6020821081036124df57634e487b7160e01b600052602260045260246000fd5b5091905056fea26469706673582212203bb2462bb9aa86f833aa02d2282d19bb5bb6558bae9b82e66bc31c002f02bcd564736f6c634300080d0033",
    "sourcePath": "/Users/lele/Downloads/eth-master/contracts/DFInitialize.sol",
    "compiler": {
        "name": "solc",
        "version": "0.8.13+commit.abaa5c0e"
    },
    "functionHashes": {
        "init(bool,string,(bool,bool,uint256,uint256,bool,uint256,bool,uint256,uint256,uint256,bool,bool,uint256,uint256,uint256,uint256,uint256,uint256,uint256,uint256,uint256,uint256,uint256,uint256[10],uint256,bool,uint8[5][10][4],uint256,uint256[6],uint256,bool,uint256,uint256[10],uint256,uint256,bool,uint256,uint256,uint256,uint256[10],uint256,uint256))": "9f2e9d0e",
        "initializeDefaults()": "57e20bfd",
        "initializeUpgrades()": "f40fac83"
    },
    "gasEstimates": {
        "creation": {
            "codeDepositCost": "1899800",
            "executionCost": "2005",
            "totalCost": "1901805"
        },
        "external": {
            "init(bool,string,(bool,bool,uint256,uint256,bool,uint256,bool,uint256,uint256,uint256,bool,bool,uint256,uint256,uint256,uint256,uint256,uint256,uint256,uint256,uint256,uint256,uint256,uint256[10],uint256,bool,uint8[5][10][4],uint256,uint256[6],uint256,bool,uint256,uint256[10],uint256,uint256,bool,uint256,uint256,uint256,uint256[10],uint256,uint256))": "infinite",
            "initializeDefaults()": "infinite",
            "initializeUpgrades()": "1329814"
        }
    }
}