{
    "contractName": "DFLobbyFacet",
    "abi": [
        {
            "anonymous": false,
            "inputs": [
                {
                    "indexed": false,
                    "internalType": "address",
                    "name": "ownerAddress",
                    "type": "address"
                },
                {
                    "indexed": false,
                    "internalType": "address",
                    "name": "lobbyAddress",
                    "type": "address"
                }
            ],
            "name": "LobbyCreated",
            "type": "event"
        },
        {
            "inputs": [
                {
                    "internalType": "address",
                    "name": "initAddress",
                    "type": "address"
                },
                {
                    "internalType": "bytes",
                    "name": "initData",
                    "type": "bytes"
                }
            ],
            "name": "createLobby",
            "outputs": [],
            "stateMutability": "nonpayable",
            "type": "function"
        }
    ],
    "bytecode": "608060405234801561001057600080fd5b506129ca806100206000396000f3fe60806040523480156200001157600080fd5b50600436106200002e5760003560e01c8063228f32a81462000033575b600080fd5b6200004a620000443660046200044a565b6200004c565b005b60007fcb7f1a525606efcbba7baaf9b0b55c468d0fd558cbf767967f538834dfa1232e546040516366ffd66360e11b81526307e4c70760e21b60048201526001600160a01b039091169150600090829063cdffacc690602401602060405180830381865afa158015620000c3573d6000803e3d6000fd5b505050506040513d601f19601f82011682018060405250810190620000e99190620004d6565b905060008282604051620000fd9062000423565b6001600160a01b03928316815291166020820152604001604051809103906000f08015801562000131573d6000803e3d6000fd5b5090506000836001600160a01b0316637a0ed6276040518163ffffffff1660e01b8152600401600060405180830381865afa15801562000175573d6000803e3d6000fd5b505050506040513d6000823e601f3d908101601f191682016040526200019f91908101906200059a565b9050600060018251620001b3919062000737565b67ffffffffffffffff811115620001ce57620001ce620004fd565b6040519080825280602002602001820160405280156200021d57816020015b60408051606080820183526000808352602083015291810191909152815260200190600190039081620001ed5790505b5090506000805b83518110156200031257856001600160a01b03168482815181106200024d576200024d62000751565b6020026020010151600001516001600160a01b031614620002fd57604051806060016040528085838151811062000288576200028862000751565b602090810291909101810151516001600160a01b031682520160008152602001858381518110620002bd57620002bd62000751565b602002602001015160200151815250838381518110620002e157620002e162000751565b60200260200101819052508180620002f99062000767565b9250505b80620003098162000767565b91505062000224565b506040516307e4c70760e21b81526001600160a01b03851690631f931c1c90620003479085908d908d908d90600401620007ac565b600060405180830381600087803b1580156200036257600080fd5b505af115801562000377573d6000803e3d6000fd5b505060405163f2fde38b60e01b81523360048201526001600160a01b038716925063f2fde38b9150602401600060405180830381600087803b158015620003bd57600080fd5b505af1158015620003d2573d6000803e3d6000fd5b5050604080513381526001600160a01b03881660208201527fa00aede238d74d7614a95aaeb03eb1d76760aee8bd95d80664dbb6e23de5b589935001905060405180910390a1505050505050505050565b6120df80620008b683390190565b6001600160a01b03811681146200044757600080fd5b50565b6000806000604084860312156200046057600080fd5b83356200046d8162000431565b9250602084013567ffffffffffffffff808211156200048b57600080fd5b818601915086601f830112620004a057600080fd5b813581811115620004b057600080fd5b876020828501011115620004c357600080fd5b6020830194508093505050509250925092565b600060208284031215620004e957600080fd5b8151620004f68162000431565b9392505050565b634e487b7160e01b600052604160045260246000fd5b6040805190810167ffffffffffffffff81118282101715620005395762000539620004fd565b60405290565b604051601f8201601f1916810167ffffffffffffffff811182821017156200056b576200056b620004fd565b604052919050565b600067ffffffffffffffff821115620005905762000590620004fd565b5060051b60200190565b60006020808385031215620005ae57600080fd5b825167ffffffffffffffff80821115620005c757600080fd5b818501915085601f830112620005dc57600080fd5b8151620005f3620005ed8262000573565b6200053f565b81815260059190911b830184019084810190888311156200061357600080fd5b8585015b838110156200071457805185811115620006315760008081fd5b86016040818c03601f19018113156200064a5760008081fd5b6200065462000513565b89830151620006638162000431565b81528282015188811115620006785760008081fd5b8084019350508c603f8401126200068f5760008081fd5b89830151620006a2620005ed8262000573565b81815260059190911b84018301908b8101908f831115620006c35760008081fd5b948401945b82861015620006fe57855194506001600160e01b031985168514620006ed5760008081fd5b848252948c0194908c0190620006c8565b838d015250508552505091860191860162000617565b5098975050505050505050565b634e487b7160e01b600052601160045260246000fd5b6000828210156200074c576200074c62000721565b500390565b634e487b7160e01b600052603260045260246000fd5b6000600182016200077c576200077c62000721565b5060010190565b81835281816020850137506000828201602090810191909152601f909101601f19169091010190565b60006060808301818452808851808352608092508286019150828160051b8701016020808c0160005b848110156200088157898403607f19018652815180516001600160a01b031685528381015189860190600381106200081d57634e487b7160e01b600052602160045260246000fd5b868601526040918201519186018a905281519081905290840190600090898701905b808310156200086b5783516001600160e01b03191682529286019260019290920191908601906200083f565b50978501979550505090820190600101620007d5565b50506001600160a01b038b16908801528681036040880152620008a681898b62000783565b9b9a505050505050505050505056fe6080604052604051620020df380380620020df833981016040819052620000269162000ddc565b6200003c826200015660201b620000b01760201c565b604080516001808252818301909252600091816020015b60408051606080820183526000808352602083015291810191909152815260200190600190039081620000535750506040805160018082528183019092529192506000919060208083019080368337019050509050631f931c1c60e01b81600081518110620000c657620000c662000e14565b6001600160e01b031990921660209283029190910182015260408051606081019091526001600160a01b038516815290810160008152602001828152508260008151811062000119576200011962000e14565b60200260200101819052506200014c82600060405180602001604052806000815250620001da60201b620001331760201c565b5050505062001067565b7fc8fcad8db84d3cc18b4c41d551ea0ee66dd599cde068d998e57d5e09332c132080546001600160a01b031981166001600160a01b038481169182179093556040516000805160206200204b833981519152939092169182907f8be0079c531659141344cd1fd0a4f28419497f9722a3daafe3b4186f6b6457e090600090a3505050565b7fc8fcad8db84d3cc18b4c41d551ea0ee66dd599cde068d998e57d5e09332c131e546000805160206200204b8339815191529061ffff811690819060009060071615620002395750600381901c60009081526001840160205260409020545b60005b8751811015620002d557620002bb83838a848151811062000261576200026162000e14565b6020026020010151600001518b858151811062000282576200028262000e14565b6020026020010151602001518c8681518110620002a357620002a362000e14565b6020026020010151604001516200036760201b60201c565b909350915080620002cc8162000e56565b9150506200023c565b50828214620002f25760028401805461ffff191661ffff84161790555b60078216156200031557600382901c600090815260018501602052604090208190555b7f8faa70878671ccd212d20771b795c50af8fd3ff6cf27f4bde57e5d4de0aeb6738787876040516200034a9392919062000ecf565b60405180910390a16200035e868662000b76565b50505050505050565b600080806000805160206200204b83398151915290506000845111620003e85760405162461bcd60e51b815260206004820152602b60248201527f4c69624469616d6f6e644375743a204e6f2073656c6563746f727320696e206660448201526a1858d95d081d1bc818dd5d60aa1b60648201526084015b60405180910390fd5b6000856002811115620003ff57620003ff62000e2a565b0362000585576200042a866040518060600160405280602481526020016200206b6024913962000d9b565b60005b84518110156200057e5760008582815181106200044e576200044e62000e14565b6020908102919091018101516001600160e01b03198116600090815291859052604090912054909150606081901c15620004f15760405162461bcd60e51b815260206004820152603560248201527f4c69624469616d6f6e644375743a2043616e2774206164642066756e6374696f60448201527f6e207468617420616c72656164792065786973747300000000000000000000006064820152608401620003df565b6001600160e01b031980831660008181526020879052604090206001600160601b031960608d901b168e17905560e060058e901b811692831c199c909c1690821c179a819003620005565760038c901c600090815260018601602052604081209b909b555b8b620005628162000e56565b9c50505050508080620005759062000e56565b9150506200042d565b5062000b6a565b60018560028111156200059c576200059c62000e2a565b03620007b557620005c786604051806060016040528060288152602001620020b76028913962000d9b565b60005b84518110156200057e576000858281518110620005eb57620005eb62000e14565b6020908102919091018101516001600160e01b03198116600090815291859052604090912054909150606081901c308103620006825760405162461bcd60e51b815260206004820152602f60248201527f4c69624469616d6f6e644375743a2043616e2774207265706c61636520696d6d60448201526e3aba30b1363290333ab731ba34b7b760891b6064820152608401620003df565b896001600160a01b0316816001600160a01b031603620006fa5760405162461bcd60e51b815260206004820152603860248201526000805160206200202b83398151915260448201527f6374696f6e20776974682073616d652066756e6374696f6e00000000000000006064820152608401620003df565b6001600160a01b038116620007675760405162461bcd60e51b815260206004820152603860248201526000805160206200202b83398151915260448201527f6374696f6e207468617420646f65736e277420657869737400000000000000006064820152608401620003df565b506001600160e01b031990911660009081526020849052604090206001600160601b03919091166001600160601b031960608a901b1617905580620007ac8162000e56565b915050620005ca565b6002856002811115620007cc57620007cc62000e2a565b0362000b11576001600160a01b03861615620008515760405162461bcd60e51b815260206004820152603660248201527f4c69624469616d6f6e644375743a2052656d6f7665206661636574206164647260448201527f657373206d7573742062652061646472657373283029000000000000000000006064820152608401620003df565b600388901c6007891660005b865181101562000aec5760008a90036200089e57826200087d8162000fd6565b60008181526001870160205260409020549b50935060079250620008ae9050565b81620008aa8162000fd6565b9250505b6000806000808a8581518110620008c957620008c962000e14565b6020908102919091018101516001600160e01b031981166000908152918a9052604090912054909150606081901c6200096b5760405162461bcd60e51b815260206004820152603760248201527f4c69624469616d6f6e644375743a2043616e27742072656d6f76652066756e6360448201527f74696f6e207468617420646f65736e27742065786973740000000000000000006064820152608401620003df565b30606082901c03620009d75760405162461bcd60e51b815260206004820152602e60248201527f4c69624469616d6f6e644375743a2043616e27742072656d6f766520696d6d7560448201526d3a30b1363290333ab731ba34b7b760911b6064820152608401620003df565b600587901b8f901b94506001600160e01b03198086169083161462000a29576001600160e01b03198516600090815260208a90526040902080546001600160601b0319166001600160601b0383161790555b6001600160e01b031991909116600090815260208990526040812055600381901c611fff16925060051b60e016905085821462000a90576000828152600188016020526040902080546001600160e01b031980841c19909116908516831c17905562000ab4565b80836001600160e01b031916901c816001600160e01b031960001b901c198e16179c505b8460000362000ad357600086815260018801602052604081208190559c505b505050808062000ae39062000e56565b9150506200085d565b508062000afb83600862000ff0565b62000b07919062001012565b9950505062000b6a565b60405162461bcd60e51b815260206004820152602760248201527f4c69624469616d6f6e644375743a20496e636f727265637420466163657443756044820152663a20b1ba34b7b760c91b6064820152608401620003df565b50959694955050505050565b6001600160a01b03821662000c005780511562000bfc5760405162461bcd60e51b815260206004820152603c60248201527f4c69624469616d6f6e644375743a205f696e697420697320616464726573732860448201527f3029206275745f63616c6c64617461206973206e6f7420656d707479000000006064820152608401620003df565b5050565b600081511162000c795760405162461bcd60e51b815260206004820152603d60248201527f4c69624469616d6f6e644375743a205f63616c6c6461746120697320656d707460448201527f7920627574205f696e6974206973206e6f7420616464726573732830290000006064820152608401620003df565b6001600160a01b038216301462000caf5762000caf826040518060600160405280602881526020016200208f6028913962000d9b565b600080836001600160a01b03168360405162000ccc91906200102d565b600060405180830381855af49150503d806000811462000d09576040519150601f19603f3d011682016040523d82523d6000602084013e62000d0e565b606091505b50915091508162000d955780511562000d3d578060405162461bcd60e51b8152600401620003df91906200104b565b60405162461bcd60e51b815260206004820152602660248201527f4c69624469616d6f6e644375743a205f696e69742066756e6374696f6e2072656044820152651d995c9d195960d21b6064820152608401620003df565b50505050565b813b818162000d955760405162461bcd60e51b8152600401620003df91906200104b565b80516001600160a01b038116811462000dd757600080fd5b919050565b6000806040838503121562000df057600080fd5b62000dfb8362000dbf565b915062000e0b6020840162000dbf565b90509250929050565b634e487b7160e01b600052603260045260246000fd5b634e487b7160e01b600052602160045260246000fd5b634e487b7160e01b600052601160045260246000fd5b60006001820162000e6b5762000e6b62000e40565b5060010190565b60005b8381101562000e8f57818101518382015260200162000e75565b8381111562000d955750506000910152565b6000815180845262000ebb81602086016020860162000e72565b601f01601f19169290920160200192915050565b60006060808301818452808751808352608092508286019150828160051b8701016020808b0160005b8481101562000fa457898403607f19018652815180516001600160a01b0316855283810151898601906003811062000f4057634e487b7160e01b600052602160045260246000fd5b868601526040918201519186018a905281519081905290840190600090898701905b8083101562000f8e5783516001600160e01b031916825292860192600192909201919086019062000f62565b5097850197955050509082019060010162000ef8565b50506001600160a01b038a1690880152868103604088015262000fc8818962000ea1565b9a9950505050505050505050565b60008162000fe85762000fe862000e40565b506000190190565b60008160001904831182151516156200100d576200100d62000e40565b500290565b6000821982111562001028576200102862000e40565b500190565b600082516200104181846020870162000e72565b9190910192915050565b60208152600062001060602083018462000ea1565b9392505050565b610fb480620010776000396000f3fe60806040523661000b57005b600080356001600160e01b0319168152600080516020610eeb8339815191526020819052604090912054819060601c8061008c5760405162461bcd60e51b815260206004820181905260248201527f4469616d6f6e643a2046756e6374696f6e20646f6573206e6f7420657869737460448201526064015b60405180910390fd5b3660008037600080366000845af43d6000803e8080156100ab573d6000f35b3d6000fd5b7fc8fcad8db84d3cc18b4c41d551ea0ee66dd599cde068d998e57d5e09332c132080546001600160a01b031981166001600160a01b03848116918217909355604051600080516020610eeb833981519152939092169182907f8be0079c531659141344cd1fd0a4f28419497f9722a3daafe3b4186f6b6457e090600090a3505050565b7fc8fcad8db84d3cc18b4c41d551ea0ee66dd599cde068d998e57d5e09332c131e54600080516020610eeb8339815191529061ffff8116908190600090600716156101905750600381901c60009081526001840160205260409020545b60005b87518110156102175761020083838a84815181106101b3576101b3610cb3565b6020026020010151600001518b85815181106101d1576101d1610cb3565b6020026020010151602001518c86815181106101ef576101ef610cb3565b6020026020010151604001516102a3565b90935091508061020f81610cdf565b915050610193565b508282146102335760028401805461ffff191661ffff84161790555b600782161561025557600382901c600090815260018501602052604090208190555b7f8faa70878671ccd212d20771b795c50af8fd3ff6cf27f4bde57e5d4de0aeb67387878760405161028893929190610d66565b60405180910390a161029a8686610a7f565b50505050505050565b60008080600080516020610eeb8339815191529050600084511161031d5760405162461bcd60e51b815260206004820152602b60248201527f4c69624469616d6f6e644375743a204e6f2073656c6563746f727320696e206660448201526a1858d95d081d1bc818dd5d60aa1b6064820152608401610083565b600085600281111561033157610331610cf8565b0361049e5761035886604051806060016040528060248152602001610f0b60249139610c92565b60005b845181101561049857600085828151811061037857610378610cb3565b6020908102919091018101516001600160e01b03198116600090815291859052604090912054909150606081901c156104115760405162461bcd60e51b815260206004820152603560248201527f4c69624469616d6f6e644375743a2043616e2774206164642066756e6374696f6044820152746e207468617420616c72656164792065786973747360581b6064820152608401610083565b6001600160e01b031980831660008181526020879052604090206001600160601b031960608d901b168e17905560e060058e901b811692831c199c909c1690821c179a8190036104755760038c901c600090815260018601602052604081209b909b555b8b61047f81610cdf565b9c5050505050808061049090610cdf565b91505061035b565b50610a73565b60018560028111156104b2576104b2610cf8565b036106e1576104d986604051806060016040528060288152602001610f5760289139610c92565b60005b84518110156104985760008582815181106104f9576104f9610cb3565b6020908102919091018101516001600160e01b03198116600090815291859052604090912054909150606081901c30810361058e5760405162461bcd60e51b815260206004820152602f60248201527f4c69624469616d6f6e644375743a2043616e2774207265706c61636520696d6d60448201526e3aba30b1363290333ab731ba34b7b760891b6064820152608401610083565b896001600160a01b0316816001600160a01b0316036106155760405162461bcd60e51b815260206004820152603860248201527f4c69624469616d6f6e644375743a2043616e2774207265706c6163652066756e60448201527f6374696f6e20776974682073616d652066756e6374696f6e00000000000000006064820152608401610083565b6001600160a01b0381166106915760405162461bcd60e51b815260206004820152603860248201527f4c69624469616d6f6e644375743a2043616e2774207265706c6163652066756e60448201527f6374696f6e207468617420646f65736e277420657869737400000000000000006064820152608401610083565b506001600160e01b031990911660009081526020849052604090206bffffffffffffffffffffffff919091166001600160601b031960608a901b16179055806106d981610cdf565b9150506104dc565b60028560028111156106f5576106f5610cf8565b03610a1b576001600160a01b038616156107705760405162461bcd60e51b815260206004820152603660248201527f4c69624469616d6f6e644375743a2052656d6f76652066616365742061646472604482015275657373206d757374206265206164647265737328302960501b6064820152608401610083565b600388901c6007891660005b86518110156109fb5760008a90036107b8578261079881610e66565b60008181526001870160205260409020549b509350600792506107c69050565b816107c281610e66565b9250505b6000806000808a85815181106107de576107de610cb3565b6020908102919091018101516001600160e01b031981166000908152918a9052604090912054909150606081901c61087e5760405162461bcd60e51b815260206004820152603760248201527f4c69624469616d6f6e644375743a2043616e27742072656d6f76652066756e6360448201527f74696f6e207468617420646f65736e27742065786973740000000000000000006064820152608401610083565b30606082901c036108e85760405162461bcd60e51b815260206004820152602e60248201527f4c69624469616d6f6e644375743a2043616e27742072656d6f766520696d6d7560448201526d3a30b1363290333ab731ba34b7b760911b6064820152608401610083565b600587901b8f901b94506001600160e01b03198086169083161461093e576001600160e01b03198516600090815260208a90526040902080546001600160601b0319166bffffffffffffffffffffffff83161790555b6001600160e01b031991909116600090815260208990526040812055600381901c611fff16925060051b60e01690508582146109a3576000828152600188016020526040902080546001600160e01b031980841c19909116908516831c1790556109c7565b80836001600160e01b031916901c816001600160e01b031960001b901c198e16179c505b846000036109e557600086815260018801602052604081208190559c505b50505080806109f390610cdf565b91505061077c565b5080610a08836008610e7d565b610a129190610e9c565b99505050610a73565b60405162461bcd60e51b815260206004820152602760248201527f4c69624469616d6f6e644375743a20496e636f727265637420466163657443756044820152663a20b1ba34b7b760c91b6064820152608401610083565b50959694955050505050565b6001600160a01b038216610b0657805115610b025760405162461bcd60e51b815260206004820152603c60248201527f4c69624469616d6f6e644375743a205f696e697420697320616464726573732860448201527f3029206275745f63616c6c64617461206973206e6f7420656d707479000000006064820152608401610083565b5050565b6000815111610b7d5760405162461bcd60e51b815260206004820152603d60248201527f4c69624469616d6f6e644375743a205f63616c6c6461746120697320656d707460448201527f7920627574205f696e6974206973206e6f7420616464726573732830290000006064820152608401610083565b6001600160a01b0382163014610baf57610baf82604051806060016040528060288152602001610f2f60289139610c92565b600080836001600160a01b031683604051610bca9190610eb4565b600060405180830381855af49150503d8060008114610c05576040519150601f19603f3d011682016040523d82523d6000602084013e610c0a565b606091505b509150915081610c8c57805115610c35578060405162461bcd60e51b81526004016100839190610ed0565b60405162461bcd60e51b815260206004820152602660248201527f4c69624469616d6f6e644375743a205f696e69742066756e6374696f6e2072656044820152651d995c9d195960d21b6064820152608401610083565b50505050565b813b8181610c8c5760405162461bcd60e51b81526004016100839190610ed0565b634e487b7160e01b600052603260045260246000fd5b634e487b7160e01b600052601160045260246000fd5b600060018201610cf157610cf1610cc9565b5060010190565b634e487b7160e01b600052602160045260246000fd5b60005b83811015610d29578181015183820152602001610d11565b83811115610c8c5750506000910152565b60008151808452610d52816020860160208601610d0e565b601f01601f19169290920160200192915050565b60006060808301818452808751808352608092508286019150828160051b8701016020808b0160005b84811015610e3657898403607f19018652815180516001600160a01b03168552838101518986019060038110610dd557634e487b7160e01b600052602160045260246000fd5b868601526040918201519186018a905281519081905290840190600090898701905b80831015610e215783516001600160e01b0319168252928601926001929092019190860190610df7565b50978501979550505090820190600101610d8f565b50506001600160a01b038a16908801528681036040880152610e588189610d3a565b9a9950505050505050505050565b600081610e7557610e75610cc9565b506000190190565b6000816000190483118215151615610e9757610e97610cc9565b500290565b60008219821115610eaf57610eaf610cc9565b500190565b60008251610ec6818460208701610d0e565b9190910192915050565b602081526000610ee36020830184610d3a565b939250505056fec8fcad8db84d3cc18b4c41d551ea0ee66dd599cde068d998e57d5e09332c131c4c69624469616d6f6e644375743a2041646420666163657420686173206e6f20636f64654c69624469616d6f6e644375743a205f696e6974206164647265737320686173206e6f20636f64654c69624469616d6f6e644375743a205265706c61636520666163657420686173206e6f20636f6465a26469706673582212207ca7ad56ea3f09db30a07acc06be0837c4d2edf736f609aca3699b3899fb7dd964736f6c634300080d00334c69624469616d6f6e644375743a2043616e2774207265706c6163652066756ec8fcad8db84d3cc18b4c41d551ea0ee66dd599cde068d998e57d5e09332c131c4c69624469616d6f6e644375743a2041646420666163657420686173206e6f20636f64654c69624469616d6f6e644375743a205f696e6974206164647265737320686173206e6f20636f64654c69624469616d6f6e644375743a205265706c61636520666163657420686173206e6f20636f6465a2646970667358221220020a8a8c01560760500842eeda304e707ab73f81fe56a06df70316c7a2adcd1764736f6c634300080d0033",
    "sourcePath": "/Users/lele/Downloads/eth-master/contracts/facets/DFLobbyFacet.sol",
    "compiler": {
        "name": "solc",
        "version": "0.8.13+commit.abaa5c0e"
    },
    "functionHashes": {
        "createLobby(address,bytes)": "228f32a8"
    },
    "gasEstimates": {
        "creation": {
            "codeDepositCost": "2139600",
            "executionCost": "2280",
            "totalCost": "2141880"
        },
        "external": {
            "createLobby(address,bytes)": "infinite"
        }
    }
}