{
    "contractName": "DFMoveFacet",
    "abi": [
        {
            "anonymous": false,
            "inputs": [
                {
                    "indexed": false,
                    "internalType": "address",
                    "name": "player",
                    "type": "address"
                },
                {
                    "indexed": false,
                    "internalType": "uint256",
                    "name": "arrivalId",
                    "type": "uint256"
                },
                {
                    "indexed": false,
                    "internalType": "uint256",
                    "name": "from",
                    "type": "uint256"
                },
                {
                    "indexed": false,
                    "internalType": "uint256",
                    "name": "to",
                    "type": "uint256"
                },
                {
                    "indexed": false,
                    "internalType": "uint256",
                    "name": "artifactId",
                    "type": "uint256"
                },
                {
                    "indexed": false,
                    "internalType": "uint256",
                    "name": "abandoning",
                    "type": "uint256"
                }
            ],
            "name": "ArrivalQueued",
            "type": "event"
        },
        {
            "inputs": [
                {
                    "components": [
                        {
                            "internalType": "bool",
                            "name": "isInitialized",
                            "type": "bool"
                        },
                        {
                            "internalType": "uint256",
                            "name": "id",
                            "type": "uint256"
                        },
                        {
                            "internalType": "uint256",
                            "name": "planetDiscoveredOn",
                            "type": "uint256"
                        },
                        {
                            "internalType": "enum ArtifactRarity",
                            "name": "rarity",
                            "type": "uint8"
                        },
                        {
                            "internalType": "enum Biome",
                            "name": "planetBiome",
                            "type": "uint8"
                        },
                        {
                            "internalType": "uint256",
                            "name": "mintedAtTimestamp",
                            "type": "uint256"
                        },
                        {
                            "internalType": "address",
                            "name": "discoverer",
                            "type": "address"
                        },
                        {
                            "internalType": "enum ArtifactType",
                            "name": "artifactType",
                            "type": "uint8"
                        },
                        {
                            "internalType": "uint256",
                            "name": "activations",
                            "type": "uint256"
                        },
                        {
                            "internalType": "uint256",
                            "name": "lastActivated",
                            "type": "uint256"
                        },
                        {
                            "internalType": "uint256",
                            "name": "lastDeactivated",
                            "type": "uint256"
                        },
                        {
                            "internalType": "uint256",
                            "name": "wormholeTo",
                            "type": "uint256"
                        },
                        {
                            "internalType": "address",
                            "name": "controller",
                            "type": "address"
                        }
                    ],
                    "internalType": "struct Artifact",
                    "name": "artifact",
                    "type": "tuple"
                },
                {
                    "components": [
                        {
                            "internalType": "address",
                            "name": "owner",
                            "type": "address"
                        },
                        {
                            "internalType": "uint256",
                            "name": "range",
                            "type": "uint256"
                        },
                        {
                            "internalType": "uint256",
                            "name": "speed",
                            "type": "uint256"
                        },
                        {
                            "internalType": "uint256",
                            "name": "defense",
                            "type": "uint256"
                        },
                        {
                            "internalType": "uint256",
                            "name": "population",
                            "type": "uint256"
                        },
                        {
                            "internalType": "uint256",
                            "name": "populationCap",
                            "type": "uint256"
                        },
                        {
                            "internalType": "uint256",
                            "name": "populationGrowth",
                            "type": "uint256"
                        },
                        {
                            "internalType": "uint256",
                            "name": "silverCap",
                            "type": "uint256"
                        },
                        {
                            "internalType": "uint256",
                            "name": "silverGrowth",
                            "type": "uint256"
                        },
                        {
                            "internalType": "uint256",
                            "name": "silver",
                            "type": "uint256"
                        },
                        {
                            "internalType": "uint256",
                            "name": "planetLevel",
                            "type": "uint256"
                        },
                        {
                            "internalType": "enum PlanetType",
                            "name": "planetType",
                            "type": "uint8"
                        },
                        {
                            "internalType": "bool",
                            "name": "isHomePlanet",
                            "type": "bool"
                        }
                    ],
                    "internalType": "struct Planet",
                    "name": "planet",
                    "type": "tuple"
                },
                {
                    "components": [
                        {
                            "internalType": "bool",
                            "name": "isInitialized",
                            "type": "bool"
                        },
                        {
                            "internalType": "uint256",
                            "name": "createdAt",
                            "type": "uint256"
                        },
                        {
                            "internalType": "uint256",
                            "name": "lastUpdated",
                            "type": "uint256"
                        },
                        {
                            "internalType": "uint256",
                            "name": "perlin",
                            "type": "uint256"
                        },
                        {
                            "internalType": "enum SpaceType",
                            "name": "spaceType",
                            "type": "uint8"
                        },
                        {
                            "internalType": "uint256",
                            "name": "upgradeState0",
                            "type": "uint256"
                        },
                        {
                            "internalType": "uint256",
                            "name": "upgradeState1",
                            "type": "uint256"
                        },
                        {
                            "internalType": "uint256",
                            "name": "upgradeState2",
                            "type": "uint256"
                        },
                        {
                            "internalType": "uint256",
                            "name": "hatLevel",
                            "type": "uint256"
                        },
                        {
                            "internalType": "bool",
                            "name": "hasTriedFindingArtifact",
                            "type": "bool"
                        },
                        {
                            "internalType": "uint256",
                            "name": "prospectedBlockNumber",
                            "type": "uint256"
                        },
                        {
                            "internalType": "bool",
                            "name": "destroyed",
                            "type": "bool"
                        },
                        {
                            "internalType": "uint256",
                            "name": "spaceJunk",
                            "type": "uint256"
                        }
                    ],
                    "internalType": "struct PlanetExtendedInfo",
                    "name": "planetExtendedInfo",
                    "type": "tuple"
                },
                {
                    "components": [
                        {
                            "internalType": "bool",
                            "name": "isInitialized",
                            "type": "bool"
                        },
                        {
                            "internalType": "uint256",
                            "name": "pausers",
                            "type": "uint256"
                        },
                        {
                            "internalType": "address",
                            "name": "invader",
                            "type": "address"
                        },
                        {
                            "internalType": "uint256",
                            "name": "invadeStartBlock",
                            "type": "uint256"
                        },
                        {
                            "internalType": "address",
                            "name": "capturer",
                            "type": "address"
                        }
                    ],
                    "internalType": "struct PlanetExtendedInfo2",
                    "name": "planetExtendedInfo2",
                    "type": "tuple"
                }
            ],
            "name": "applySpaceshipDepart",
            "outputs": [
                {
                    "components": [
                        {
                            "internalType": "address",
                            "name": "owner",
                            "type": "address"
                        },
                        {
                            "internalType": "uint256",
                            "name": "range",
                            "type": "uint256"
                        },
                        {
                            "internalType": "uint256",
                            "name": "speed",
                            "type": "uint256"
                        },
                        {
                            "internalType": "uint256",
                            "name": "defense",
                            "type": "uint256"
                        },
                        {
                            "internalType": "uint256",
                            "name": "population",
                            "type": "uint256"
                        },
                        {
                            "internalType": "uint256",
                            "name": "populationCap",
                            "type": "uint256"
                        },
                        {
                            "internalType": "uint256",
                            "name": "populationGrowth",
                            "type": "uint256"
                        },
                        {
                            "internalType": "uint256",
                            "name": "silverCap",
                            "type": "uint256"
                        },
                        {
                            "internalType": "uint256",
                            "name": "silverGrowth",
                            "type": "uint256"
                        },
                        {
                            "internalType": "uint256",
                            "name": "silver",
                            "type": "uint256"
                        },
                        {
                            "internalType": "uint256",
                            "name": "planetLevel",
                            "type": "uint256"
                        },
                        {
                            "internalType": "enum PlanetType",
                            "name": "planetType",
                            "type": "uint8"
                        },
                        {
                            "internalType": "bool",
                            "name": "isHomePlanet",
                            "type": "bool"
                        }
                    ],
                    "internalType": "struct Planet",
                    "name": "",
                    "type": "tuple"
                },
                {
                    "components": [
                        {
                            "internalType": "bool",
                            "name": "isInitialized",
                            "type": "bool"
                        },
                        {
                            "internalType": "uint256",
                            "name": "createdAt",
                            "type": "uint256"
                        },
                        {
                            "internalType": "uint256",
                            "name": "lastUpdated",
                            "type": "uint256"
                        },
                        {
                            "internalType": "uint256",
                            "name": "perlin",
                            "type": "uint256"
                        },
                        {
                            "internalType": "enum SpaceType",
                            "name": "spaceType",
                            "type": "uint8"
                        },
                        {
                            "internalType": "uint256",
                            "name": "upgradeState0",
                            "type": "uint256"
                        },
                        {
                            "internalType": "uint256",
                            "name": "upgradeState1",
                            "type": "uint256"
                        },
                        {
                            "internalType": "uint256",
                            "name": "upgradeState2",
                            "type": "uint256"
                        },
                        {
                            "internalType": "uint256",
                            "name": "hatLevel",
                            "type": "uint256"
                        },
                        {
                            "internalType": "bool",
                            "name": "hasTriedFindingArtifact",
                            "type": "bool"
                        },
                        {
                            "internalType": "uint256",
                            "name": "prospectedBlockNumber",
                            "type": "uint256"
                        },
                        {
                            "internalType": "bool",
                            "name": "destroyed",
                            "type": "bool"
                        },
                        {
                            "internalType": "uint256",
                            "name": "spaceJunk",
                            "type": "uint256"
                        }
                    ],
                    "internalType": "struct PlanetExtendedInfo",
                    "name": "",
                    "type": "tuple"
                },
                {
                    "components": [
                        {
                            "internalType": "bool",
                            "name": "isInitialized",
                            "type": "bool"
                        },
                        {
                            "internalType": "uint256",
                            "name": "pausers",
                            "type": "uint256"
                        },
                        {
                            "internalType": "address",
                            "name": "invader",
                            "type": "address"
                        },
                        {
                            "internalType": "uint256",
                            "name": "invadeStartBlock",
                            "type": "uint256"
                        },
                        {
                            "internalType": "address",
                            "name": "capturer",
                            "type": "address"
                        }
                    ],
                    "internalType": "struct PlanetExtendedInfo2",
                    "name": "",
                    "type": "tuple"
                }
            ],
            "stateMutability": "view",
            "type": "function"
        },
        {
            "inputs": [
                {
                    "internalType": "uint256[2]",
                    "name": "_a",
                    "type": "uint256[2]"
                },
                {
                    "internalType": "uint256[2][2]",
                    "name": "_b",
                    "type": "uint256[2][2]"
                },
                {
                    "internalType": "uint256[2]",
                    "name": "_c",
                    "type": "uint256[2]"
                },
                {
                    "internalType": "uint256[14]",
                    "name": "_input",
                    "type": "uint256[14]"
                }
            ],
            "name": "move",
            "outputs": [
                {
                    "internalType": "uint256",
                    "name": "",
                    "type": "uint256"
                }
            ],
            "stateMutability": "nonpayable",
            "type": "function"
        }
    ],
    "bytecode": "608060405234801561001057600080fd5b506144f0806100206000396000f3fe608060405234801561001057600080fd5b50600436106100365760003560e01c8063b3b4159f1461003b578063df52e92a14610061575b600080fd5b61004e610049366004613821565b610083565b6040519081526020015b60405180910390f35b61007461006f366004613bb5565b610824565b60405161005893929190613da4565b600061008d61092a565b54600160a01b900460ff16156100db5760405162461bcd60e51b815260206004820152600e60248201526d11d85b59481a5cc81c185d5cd95960921b60448201526064015b60405180910390fd5b73__$6b7b4f300876ea7c4892437e01c3ce569a$__6326c7e6186040518060a00160405280856005600e811061011357610113613e97565b60200201518152602001856006600e811061013057610130613e97565b60200201518152602001856007600e811061014d5761014d613e97565b60200201518152602001856008600e811061016a5761016a613e97565b60200201518152602001856009600e811061018757610187613e97565b602002015181525060006040518363ffffffff1660e01b81526004016101ae929190613ead565b602060405180830381865af41580156101cb573d6000803e3d6000fd5b505050506040513d601f19601f820116820180604052508101906101ef9190613ef2565b506000604051806101000160405280846000600e811061021157610211613e97565b60200201518152602001846001600e811061022e5761022e613e97565b60200201518152602001846004600e811061024b5761024b613e97565b6020020151815260200184600a600e811061026857610268613e97565b6020020151815260200184600b600e811061028557610285613e97565b6020020151815260200184600c600e81106102a2576102a2613e97565b6020020151815260200184600d600e81106102bf576102bf613e97565b60200201518152602001336001600160a01b031681525090506102e18161094e565b156102ee57600060e08201525b604083015160608401517f2849cb27302bb32c0c7252ab45487d42296bcddad804f932e0b0589e515a93745460ff166104b6576000604051806101400160405280856000015181526020018560200151815260200184815260200183815260200185604001518152602001876005600e811061036c5761036c613e97565b60200201518152602001876006600e811061038957610389613e97565b60200201518152602001876007600e81106103a6576103a6613e97565b60200201518152602001876008600e81106103c3576103c3613e97565b60200201518152602001876009600e81106103e0576103e0613e97565b60200201519052604051637e0bb90960e01b815290915073__$3d6e8b05f53a3662324d76e554a41ef6b3$__90637e0bb90990610427908c908c908c908790600401613f32565b602060405180830381865af4158015610444573d6000803e3d6000fd5b505050506040513d601f19601f820116820180604052508101906104689190613ef2565b6104b45760405162461bcd60e51b815260206004820152601760248201527f4661696c6564206d6f76652070726f6f6620636865636b00000000000000000060448201526064016100d2565b505b6104be61092a565b600901548111156105115760405162461bcd60e51b815260206004820181905260248201527f417474656d7074696e6720746f206d6f7665206f7574206f6620626f756e647360448201526064016100d2565b8251604051633f324cf360e01b8152600481019190915273__$5588a372fe54cd4953e82f0bc5932376ed$__90633f324cf39060240160006040518083038186803b15801561055f57600080fd5b505af4158015610573573d6000803e3d6000fd5b5050505061057f61092a565b600a01805490600061059083613fcc565b919050555061059d61092a565b6020808501516000908152600e929092019052604090205460ff16610638576020830151604051630facbb3f60e11b81526004810191909152602481018390526000604482015273__$5588a372fe54cd4953e82f0bc5932376ed$__90631f59767e9060640160006040518083038186803b15801561061b57600080fd5b505af415801561062f573d6000803e3d6000fd5b5050505061071e565b6020830151604051633f324cf360e01b8152600481019190915273__$5588a372fe54cd4953e82f0bc5932376ed$__90633f324cf39060240160006040518083038186803b15801561068957600080fd5b505af415801561069d573d6000803e3d6000fd5b50505050602083015160e0840151604051632fc653ed60e21b815260048101929092526001600160a01b0316602482015273__$6b7b4f300876ea7c4892437e01c3ce569a$__9063bf194fb49060440160006040518083038186803b15801561070557600080fd5b505af4158015610719573d6000803e3d6000fd5b505050505b610727836109fe565b73__$6b7b4f300876ea7c4892437e01c3ce569a$__63eaae46536040518163ffffffff1660e01b815260040160006040518083038186803b15801561076b57600080fd5b505af415801561077f573d6000803e3d6000fd5b505050507f927f8644a615619c5fa9893b76bfe497ea73d0a149963cc931126f78c4af7c57336107ad61092a565b600a01548551602087015160a088015160c0890151604051610802969594939291906001600160a01b03969096168652602086019490945260408501929092526060840152608083015260a082015260c00190565b60405180910390a161081261092a565b600a015493505050505b949350505050565b61082c613649565b6108346136cb565b6040805160a08101825260008082526020820181905291810182905260608101829052608081019190915285610180015115610877575084915083905082610920565b600a8760e00151600e81111561088f5761088f613ccf565b036108af5760028660c0018181516108a79190613ffb565b905250610917565b600c8760e00151600e8111156108c7576108c7613ccf565b036108e057600286610100018181516108a79190613ffb565b600e8760e00151600e8111156108f8576108f8613ccf565b0361091757426040860152602084018051906109138261401d565b9052505b50849150839050825b9450945094915050565b7fcb7f1a525606efcbba7baaf9b0b55c468d0fd558cbf767967f538834dfa1232e90565b600073__$08a8c16b42bbff68ac2e13e90bef3361ff$__639bc1a45261097261092a565b60160160008560a00151815260200190815260200160002060050160149054906101000a900460ff166040518263ffffffff1660e01b81526004016109b79190614044565b602060405180830381865af41580156109d4573d6000803e3d6000fd5b505050506040513d601f19601f820116820180604052508101906109f89190613ef2565b92915050565b610a0781610e8f565b600081604001516064610a1a9190614052565b9050600060019050600073__$6b7b4f300876ea7c4892437e01c3ce569a$__63aaad4d376040518163ffffffff1660e01b815260040160a060405180830381865af4158015610a6d573d6000803e3d6000fd5b505050506040513d601f19601f82011682018060405250810190610a919190614071565b9050600080610a9f86611284565b915091508115610aba57610ab38186613ffb565b9450600393505b610ac38661094e565b610ae857600080610ad3886114ef565b915091508115610ae557809450600295505b50505b610af1866116f5565b60608601516080870151600082610b0661092a565b8a516000908152600c919091016020526040902060040154610b2891906140e1565b7f5fb65bb339c6bd3f2609a7342e6cb046e09f3e40f45242a5971904b021b5bb9c5490915060ff168015610b625750610b608961094e565b155b15610b975760c089015115610b8e57600080600080610b808d611d43565b9c5091985096509450505050505b610b9789612256565b8851604080516324b751c760e21b815260048101929092528751602483015260208801516044830152870151606482015260608701516084820152608087015160a482015273__$6b7b4f300876ea7c4892437e01c3ce569a$__906392dd471c9060c40160006040518083038186803b158015610c1357600080fd5b505af4158015610c27573d6000803e3d6000fd5b505050506000610c3561092a565b8a516000908152600c919091016020526040902060020154610c57908a613ffb565b905080600003610c65575060015b610c6d61092a565b60130160008b6020015181526020019081526020016000206040518060800160405280610c9861092a565b600a0154815260200160008152602001610cb284426140f8565b8152426020918201528254600181810185556000948552938290208351600490920201908155908201518184018054939492939192909160ff191690838015610cfd57610cfd613ccf565b021790555060408201518160020155606082015181600301555050610d936040518061014001604052808c60e001516001600160a01b031681526020018c6000015181526020018c6020015181526020018c6040015181526020018b81526020018681526020018581526020018381526020018c60a0015181526020018a6003811115610d8c57610d8c613ccf565b90526123d4565b89516040805163b0c0263960e01b815260048101929092528851602483015260208901516044830152880151606482015260608801516084820152608088015160a482015273__$6b7b4f300876ea7c4892437e01c3ce569a$__9063b0c026399060c40160006040518083038186803b158015610e0f57600080fd5b505af4158015610e23573d6000803e3d6000fd5b5050505082610e3061092a565b600c0160008c6000015181526020019081526020016000206009016000828254610e5a91906140e1565b90915550829050610e6961092a565b9a516000908152600c909b016020526040909a2060040199909955505050505050505050565b610e988161094e565b15610fc057606081015115610eef5760405162461bcd60e51b815260206004820152601d60248201527f73686970206d6f766573206d757374206d6f7665203020656e6572677900000060448201526064016100d2565b608081015115610f415760405162461bcd60e51b815260206004820152601d60248201527f73686970206d6f766573206d757374206d6f766520302073696c76657200000060448201526064016100d2565b33610f4a61092a565b60a0830151600090815260169190910160205260409020600a01546001600160a01b031614610fbb5760405162461bcd60e51b815260206004820181905260248201527f796f752063616e206f6e6c79206d6f766520796f7572206f776e20736869707360448201526064016100d2565b611178565b8060600151610fcd61092a565b82516000908152600c919091016020526040902060040154116110495760405162461bcd60e51b815260206004820152602e60248201527f547269656420746f206d6f7665206d6f726520706f70756c6174696f6e20746860448201526d617420776861742065786973747360901b60648201526084016100d2565b61105161092a565b6020808301516000908152600e92909201905260409020600b015460ff1615801561109c575061107f61092a565b81516000908152600e9190910160205260409020600b015460ff16155b6110de5760405162461bcd60e51b81526020600482015260136024820152721c1b185b995d081a5cc819195cdd1c9bde5959606a1b60448201526064016100d2565b336110e761092a565b82516000908152600c9190910160205260409020546001600160a01b0316146111785760405162461bcd60e51b815260206004820152603860248201527f4f6e6c79206f776e6572206163636f756e742063616e20706572666f726d207460448201527f686174206f7065726174696f6e206f6e20706c616e65742e000000000000000060648201526084016100d2565b806080015161118561092a565b82516000908152600c91909101602052604090206009015410156111fe5760405162461bcd60e51b815260206004820152602a60248201527f547269656420746f206d6f7665206d6f72652073696c766572207468616e20776044820152696861742065786973747360b01b60648201526084016100d2565b60a08101511561128157600561121261092a565b602080840151600090815260159290920190526040902054106112815760405162461bcd60e51b815260206004820152602160248201527f746f6f206d616e7920617274696661637473206f6e207468697320706c616e656044820152601d60fa1b60648201526084016100d2565b50565b604080516101a081018252600080825260208201819052918101829052606081018290526080810182905260a0810182905260c0810182905260e08101829052610100810182905261012081018290526101408101829052610160810182905261018081018290528190835160405163c4e6f90960e01b815260009173__$6b7b4f300876ea7c4892437e01c3ce569a$__9163c4e6f9099161132c9160040190815260200190565b6101a060405180830381865af415801561134a573d6000803e3d6000fd5b505050506040513d601f19601f8201168201806040525081019061136e919061413c565b9050600073__$6b7b4f300876ea7c4892437e01c3ce569a$__63c4e6f90987602001516040518263ffffffff1660e01b81526004016113af91815260200190565b6101a060405180830381865af41580156113cd573d6000803e3d6000fd5b505050506040513d601f19601f820116820180604052508101906113f1919061413c565b82519091508015611417575060058260e00151600e81111561141557611415613ccf565b145b801561142b57508560200151826101600151145b1561143857819250611475565b8051801561145b575060058160e00151600e81111561145957611459613ccf565b145b801561146c57508551610160820151145b15611475578092505b8251156114e7576001945060006040518060c0016040528060018152602001600281526020016004815260200160088152602001601081526020016020815250905080846060015160058111156114ce576114ce613ccf565b600681106114de576114de613e97565b60200201519450505b505050915091565b60006115236040518060a0016040528060008152602001600081526020016000815260200160008152602001600081525090565b825160405163c4e6f90960e01b815260009173__$6b7b4f300876ea7c4892437e01c3ce569a$__9163c4e6f909916115619160040190815260200190565b6101a060405180830381865af415801561157f573d6000803e3d6000fd5b505050506040513d601f19601f820116820180604052508101906115a3919061413c565b805190915080156115c9575060078160e00151600e8111156115c7576115c7613ccf565b145b801561160557507f5fb65bb339c6bd3f2609a7342e6cb046e09f3e40f45242a5971904b021b5bb6b5461012082015161160290426140e1565b10155b156116ef57835160405163c918aebd60e01b815260048101919091526001935073__$08a8c16b42bbff68ac2e13e90bef3361ff$__9063c918aebd9060240160006040518083038186803b15801561165c57600080fd5b505af4158015611670573d6000803e3d6000fd5b50506040516329fa32f760e01b815273__$6b7b4f300876ea7c4892437e01c3ce569a$__92506329fa32f791506116ab908490600401614229565b60a060405180830381865af41580156116c8573d6000803e3d6000fd5b505050506040513d601f19601f820116820180604052508101906116ec9190614071565b91505b50915091565b60006116ff61092a565b60a08301516000908152601691909101602090815260409182902082516101a081018452815460ff9081161515825260018301549382019390935260028201549381019390935260038101549091606084019116600581111561176457611764613ccf565b600581111561177557611775613ccf565b81526020016003820160019054906101000a900460ff16600a81111561179d5761179d613ccf565b600a8111156117ae576117ae613ccf565b81526004820154602082015260058201546001600160a01b0381166040830152606090910190600160a01b900460ff16600e8111156117ef576117ef613ccf565b600e81111561180057611800613ccf565b815260068201546020820152600782015460408201526008820154606082015260098201546080820152600a909101546001600160a01b031660a0909101529050611849613649565b6118516136cb565b6040805160a081018252600080825260208201819052918101829052606081018290526080810191909152611ac28461188861092a565b87516000908152600c91909101602090815260409182902082516101a08101845281546001600160a01b03168152600182015492810192909252600281015492820192909252600382015460608201526004808301546080830152600583015460a0830152600683015460c0830152600783015460e083015260088301546101008301526009830154610120830152600a830154610140830152600b83015491929161016084019160ff9091169081111561194557611945613ccf565b600481111561195657611956613ccf565b8152600b9190910154610100900460ff16151560209091015261197761092a565b88516000908152600e91909101602090815260409182902082516101a081018452815460ff90811615158252600183015493820193909352600282015493810193909352600380820154606085015260048201549192608085019216908111156119e3576119e3613ccf565b60038111156119f4576119f4613ccf565b815260058201546020820152600682015460408201526007820154606082015260088201546080820152600982015460ff908116151560a0830152600a83015460c0830152600b83015416151560e0820152600c9091015461010090910152611a5b61092a565b89516000908152600f919091016020908152604091829020825160a081018452815460ff161515815260018201549281019290925260028101546001600160a01b039081169383019390935260038101546060830152600401549091166080820152610824565b9194509250905082611ad261092a565b600c0160008760000151815260200190815260200160002060008201518160000160006101000a8154816001600160a01b0302191690836001600160a01b031602179055506020820151816001015560408201518160020155606082015181600301556080820151816004015560a0820151816005015560c0820151816006015560e082015181600701556101008201518160080155610120820151816009015561014082015181600a015561016082015181600b0160006101000a81548160ff02191690836004811115611ba957611ba9613ccf565b02179055506101809190910151600b90910180549115156101000261ff001990921691909117905581611bda61092a565b86516000908152600e9190910160209081526040918290208351815490151560ff19918216178255918401516001808301919091559284015160028201556060840151600380830191909155608085015160048301805493959194909316918490811115611c4a57611c4a613ccf565b021790555060a0820151600582015560c0820151600682015560e08201516007820155610100820151600882015561012082015160098201805491151560ff19928316179055610140830151600a830155610160830151600b830180549115159190921617905561018090910151600c9091015580611cc761092a565b95516000908152600f90960160209081526040968790208251815460ff1916901515178155908201516001820155958101516002870180546001600160a01b03199081166001600160a01b0393841617909155606083015160038901556080909201516004909701805490921696169590951790945550505050565b6000806000611d7a6040518060a0016040528060008152602001600081526020016000815260200160008152602001600081525090565b611d8261092a565b85516000908152601391909101602052604090205415611dff5760405162461bcd60e51b815260206004820152603260248201527f43616e6e6f74206162616e646f6e206120706c616e65742074686174206861736044820152711034b731b7b6b4b733903b37bcb0b3b2b99760711b60648201526084016100d2565b611e0761092a565b85516000908152600c9190910160205260409020600b0154610100900460ff1615611e745760405162461bcd60e51b815260206004820152601a60248201527f43616e6e6f74206162616e646f6e20686f6d6520706c616e657400000000000060448201526064016100d2565b611e7c61092a565b85516000908152600c9190910160205260409020600401549350611e9e61092a565b85516000908152600c919091016020526040902060090154855190935073__$6b7b4f300876ea7c4892437e01c3ce569a$__906314f65d3b90611edf61092a565b88516000908152600c9190910160205260409020600a0154611eff61092a565b89516000908152600c9190910160205260409020600b015460ff16611f2261092a565b8a516000908152600e91909101602052604090206004015460ff167f5fb65bb339c6bd3f2609a7342e6cb046e09f3e40f45242a5971904b021b5bb53600301546040518663ffffffff1660e01b8152600401611f829594939291906142ed565b6101a060405180830381865af4158015611fa0573d6000803e3d6000fd5b505050506040513d601f19601f82011682018060405250810190611fc49190614330565b60800151611fd3906002614052565b915073__$6b7b4f300876ea7c4892437e01c3ce569a$__63df830d1f6040518163ffffffff1660e01b815260040160a060405180830381865af415801561201e573d6000803e3d6000fd5b505050506040513d601f19601f820116820180604052508101906120429190614071565b9050600073__$6b7b4f300876ea7c4892437e01c3ce569a$__63ce3b576b61206861092a565b600c016000896000015181526020019081526020016000206040518263ffffffff1660e01b815260040161209c91906143e0565b602060405180830381865af41580156120b9573d6000803e3d6000fd5b505050506040513d601f19601f820116820180604052508101906120dd919061448b565b86516040516348b0796f60e11b815291925073__$6b7b4f300876ea7c4892437e01c3ce569a$__91639160f2de9161211b9160040190815260200190565b602060405180830381865af4158015612138573d6000803e3d6000fd5b505050506040513d601f19601f8201168201806040525081019061215c9190613ef2565b1561216f5761216c600282613ffb565b90505b61217761092a565b336000908152601291909101602052604090206005015481106121ba57600061219e61092a565b33600090815260129190910160205260409020600501556121ef565b806121c361092a565b3360009081526012919091016020526040812060050180549091906121e99084906140e1565b90915550505b806121f861092a565b87516000908152600e9190910160205260408120600c019190915561221b61092a565b96516000908152600c909701602052604090962080546001600160a01b0319166001600160a01b039097169690961790955592949193509190565b61225e61092a565b336000908152601291909101602052604090206006015461227d61092a565b600e01600083602001518152602001908152602001600020600c01546122a161092a565b33600090815260129190910160205260409020600501546122c291906140f8565b11156123295760405162461bcd60e51b815260206004820152603060248201527f547269656420746f2074616b65206f6e206d6f7265207370616365206a756e6b60448201526f081d1a185b881e5bdd5c881b1a5b5a5d60821b60648201526084016100d2565b61233161092a565b600e01600082602001518152602001908152602001600020600c01546000146112815761235c61092a565b600e01600082602001518152602001908152602001600020600c015461238061092a565b3360009081526012919091016020526040812060050180549091906123a69084906140f8565b90915550600090506123b661092a565b6020808401516000908152600e92909201905260409020600c015550565b60006123de61092a565b6020808401516000908152600c92909201815260409182902082516101a08101845281546001600160a01b03168152600182015492810192909252600281015492820192909252600382015460608201526004808301546080830152600583015460a0830152600683015460c0830152600783015460e083015260088301546101008301526009830154610120830152600a830154610140830152600b83015491929161016084019160ff9091169081111561249c5761249c613ccf565b60048111156124ad576124ad613ccf565b8152602001600b820160019054906101000a900460ff161515151581525050905060006124ec8360a00151846080015184602001518560a00151612899565b9050600073__$08a8c16b42bbff68ac2e13e90bef3361ff$__639bc1a45261251261092a565b6016016000876101000151815260200190815260200160002060050160149054906101000a900460ff166040518263ffffffff1660e01b81526004016125589190614044565b602060405180830381865af4158015612575573d6000803e3d6000fd5b505050506040513d601f19601f820116820180604052508101906125999190613ef2565b905060008211806125a75750805b6125f35760405162461bcd60e51b815260206004820152601e60248201527f4e6f7420656e6f75676820666f7263657320746f206d616b65206d6f7665000060448201526064016100d2565b806125ff576001612606565b60a0840151155b6126615760405162461bcd60e51b815260206004820152602660248201527f737061636573686970206d6f766573206d757374206265203020656e65726779604482015265206d6f76657360d01b60648201526084016100d2565b60405180610160016040528061267561092a565b600a0154815260200185600001516001600160a01b0316815260200185602001518152602001856040015181526020018381526020018560c0015181526020014281526020018560e00151426126cb91906140f8565b815260200185610120015160038111156126e7576126e7613ccf565b81526020018561010001518152602001856060015181525061270761092a565b601401600061271461092a565b600a015481526020019081526020016000206000820151816000015560208201518160010160006101000a8154816001600160a01b0302191690836001600160a01b0316021790555060408201518160020155606082015181600301556080820151816004015560a0820151816005015560c0820151816006015560e082015181600701556101008201518160080160006101000a81548160ff021916908360038111156127c4576127c4613ccf565b0217905550610120820151600982015561014090910151600a90910155610100840151156128935761010084015160208501516040516306ee943360e51b815273__$6b7b4f300876ea7c4892437e01c3ce569a$__9263ddd286609261283592600401918252602082015260400190565b60006040518083038186803b15801561284d57600080fd5b505af4158015612861573d6000803e3d6000fd5b5050505061286d61092a565b600a015461287961092a565b610100860151600090815260119190910160205260409020555b50505050565b6000806128b86128b3866128ae876064614052565b612920565b612961565b905060006128c7846014612920565b905060006128dd6128d78961341f565b8461343d565b905081600f0b81600f0b1315612910576128ff6128fa8284613495565b6134c8565b67ffffffffffffffff169350612915565b600093505b505050949350505050565b60008160000361292f57600080fd5b600061293b84846134e4565b905060016001607f1b036001600160801b038216111561295a57600080fd5b9392505050565b60006840000000000000000082600f0b1261297b57600080fd5b683fffffffffffffffff1982600f0b121561299857506000919050565b6001607f1b60006780000000000000008416600f0b13156129ca5770016a09e667f3bcc908b2fb1366ea957d3e0260801c5b60008367400000000000000016600f0b13156129f7577001306fe0a31b7152de8d5a46305c85edec0260801c5b60008367200000000000000016600f0b1315612a24577001172b83c7d517adcdf7c8c50eb14a791f0260801c5b60008367100000000000000016600f0b1315612a515770010b5586cf9890f6298b92b71842a983630260801c5b60008367080000000000000016600f0b1315612a7e577001059b0d31585743ae7c548eb68ca417fd0260801c5b60008367040000000000000016600f0b1315612aab57700102c9a3e778060ee6f7caca4f7a29bde80260801c5b60008367020000000000000016600f0b1315612ad85770010163da9fb33356d84a66ae336dcdfa3f0260801c5b60008367010000000000000016600f0b1315612b0557700100b1afa5abcbed6129ab13ec11dc95430260801c5b600083668000000000000016600f0b1315612b315770010058c86da1c09ea1ff19d294cf2f679b0260801c5b600083664000000000000016600f0b1315612b5d577001002c605e2e8cec506d21bfc89a23a00f0260801c5b600083662000000000000016600f0b1315612b8957700100162f3904051fa128bca9c55c31e5df0260801c5b600083661000000000000016600f0b1315612bb5577001000b175effdc76ba38e31671ca9397250260801c5b600083660800000000000016600f0b1315612be157700100058ba01fb9f96d6cacd4b180917c3d0260801c5b600083660400000000000016600f0b1315612c0d5770010002c5cc37da9491d0985c348c68e7b30260801c5b600083660200000000000016600f0b1315612c39577001000162e525ee054754457d59952920260260801c5b600083660100000000000016600f0b1315612c655770010000b17255775c040618bf4a4ade83fc0260801c5b6000836580000000000016600f0b1315612c90577001000058b91b5bc9ae2eed81e9b7d4cfab0260801c5b6000836540000000000016600f0b1315612cbb57700100002c5c89d5ec6ca4d7c8acc017b7c90260801c5b6000836520000000000016600f0b1315612ce65770010000162e43f4f831060e02d839a9d16d0260801c5b6000836510000000000016600f0b1315612d1157700100000b1721bcfc99d9f890ea069117630260801c5b6000836508000000000016600f0b1315612d3c5770010000058b90cf1e6d97f9ca14dbcc16280260801c5b6000836504000000000016600f0b1315612d67577001000002c5c863b73f016468f6bac5ca2b0260801c5b6000836502000000000016600f0b1315612d9257700100000162e430e5a18f6119e3c02282a50260801c5b6000836501000000000016600f0b1315612dbd577001000000b1721835514b86e6d96efd1bfe0260801c5b60008364800000000016600f0b1315612de757700100000058b90c0b48c6be5df846c5b2ef0260801c5b60008364400000000016600f0b1315612e115770010000002c5c8601cc6b9e94213c72737a0260801c5b60008364200000000016600f0b1315612e3b577001000000162e42fff037df38aa2b219f060260801c5b60008364100000000016600f0b1315612e655770010000000b17217fba9c739aa5819f44f90260801c5b60008364080000000016600f0b1315612e8f577001000000058b90bfcdee5acd3c1cedc8230260801c5b60008364040000000016600f0b1315612eb957700100000002c5c85fe31f35a6a30da1be500260801c5b60008364020000000016600f0b1315612ee35770010000000162e42ff0999ce3541b9fffcf0260801c5b60008364010000000016600f0b1315612f0d57700100000000b17217f80f4ef5aadda455540260801c5b600083638000000016600f0b1315612f365770010000000058b90bfbf8479bd5a81b51ad0260801c5b600083634000000016600f0b1315612f5f577001000000002c5c85fdf84bd62ae30a74cc0260801c5b600083632000000016600f0b1315612f8857700100000000162e42fefb2fed257559bdaa0260801c5b600083631000000016600f0b1315612fb1577001000000000b17217f7d5a7716bba4a9ae0260801c5b600083630800000016600f0b1315612fda57700100000000058b90bfbe9ddbac5e109cce0260801c5b600083630400000016600f0b13156130035770010000000002c5c85fdf4b15de6f17eb0d0260801c5b600083630200000016600f0b131561302c577001000000000162e42fefa494f1478fde050260801c5b600083630100000016600f0b13156130555770010000000000b17217f7d20cf927c8e94c0260801c5b6000836280000016600f0b131561307d577001000000000058b90bfbe8f71cb4e4b33d0260801c5b6000836240000016600f0b13156130a557700100000000002c5c85fdf477b662b269450260801c5b6000836220000016600f0b13156130cd5770010000000000162e42fefa3ae53369388c0260801c5b6000836210000016600f0b13156130f557700100000000000b17217f7d1d351a389d400260801c5b6000836208000016600f0b131561311d5770010000000000058b90bfbe8e8b2d3d4ede0260801c5b6000836204000016600f0b1315613145577001000000000002c5c85fdf4741bea6e77e0260801c5b6000836202000016600f0b131561316d57700100000000000162e42fefa39fe95583c20260801c5b6000836201000016600f0b1315613195577001000000000000b17217f7d1cfb72b45e10260801c5b60008361800016600f0b13156131bc57700100000000000058b90bfbe8e7cc35c3f00260801c5b60008361400016600f0b13156131e35770010000000000002c5c85fdf473e242ea380260801c5b60008361200016600f0b131561320a577001000000000000162e42fefa39f02b772c0260801c5b60008361100016600f0b13156132315770010000000000000b17217f7d1cf7d83c1a0260801c5b60008361080016600f0b1315613258577001000000000000058b90bfbe8e7bdcbe2e0260801c5b60008361040016600f0b131561327f57700100000000000002c5c85fdf473dea871f0260801c5b60008361020016600f0b13156132a65770010000000000000162e42fefa39ef44d910260801c5b60008361010016600f0b13156132cd57700100000000000000b17217f7d1cf79e9490260801c5b600083608016600f0b13156132f35770010000000000000058b90bfbe8e7bce5440260801c5b600083604016600f0b1315613319577001000000000000002c5c85fdf473de6eca0260801c5b600083602016600f0b131561333f57700100000000000000162e42fefa39ef366f0260801c5b600083601016600f0b1315613365577001000000000000000b17217f7d1cf79afa0260801c5b600083600816600f0b131561338b57700100000000000000058b90bfbe8e7bcd6d0260801c5b600083600416600f0b13156133b15770010000000000000002c5c85fdf473de6b20260801c5b600083600216600f0b13156133d7577001000000000000000162e42fefa39ef3580260801c5b600083600116600f0b13156133fd5770010000000000000000b17217f7d1cf79ab0260801c5b600f83810b60401d603f03900b1c60016001607f1b038111156109f857600080fd5b6000677fffffffffffffff82111561343657600080fd5b5060401b90565b600081600f0b60000361344f57600080fd5b600082600f0b604085600f0b901b8161346a5761346a613fe5565b05905060016001607f1b0319811280159061348c575060016001607f1b038113155b61295a57600080fd5b6000600f82810b9084900b0360016001607f1b0319811280159061348c575060016001607f1b0381131561295a57600080fd5b60008082600f0b12156134da57600080fd5b50600f0b60401d90565b6000816000036134f357600080fd5b60006001600160c01b03841161351e5782604085901b8161351657613516613fe5565b049050613635565b60c084811c6401000000008110613537576020918201911c5b620100008110613549576010918201911c5b610100811061355a576008918201911c5b6010811061356a576004918201911c5b6004811061357a576002918201911c5b60028110613589576001820191505b60bf820360018603901c6001018260ff0387901b816135aa576135aa613fe5565b0492506001600160801b038311156135c157600080fd5b608085901c83026001600160801b038616840260c088901c604089901b828110156135ed576001820391505b608084901b92900382811015613604576001820391505b829003608084901c821461361a5761361a6144a4565b88818161362957613629613fe5565b04870196505050505050505b6001600160801b0381111561295a57600080fd5b604051806101a0016040528060006001600160a01b0316815260200160008152602001600081526020016000815260200160008152602001600081526020016000815260200160008152602001600081526020016000815260200160008152602001600060048111156136be576136be613ccf565b8152600060209091015290565b604051806101a001604052806000151581526020016000815260200160008152602001600081526020016000600381111561370857613708613ccf565b81526020016000815260200160008152602001600081526020016000815260200160001515815260200160008152602001600015158152602001600081525090565b634e487b7160e01b600052604160045260246000fd5b6040516101a0810167ffffffffffffffff811182821017156137845761378461374a565b60405290565b6040805190810167ffffffffffffffff811182821017156137845761378461374a565b6040516101c0810167ffffffffffffffff811182821017156137845761378461374a565b600082601f8301126137e257600080fd5b6137ea61378a565b8060408401858111156137fc57600080fd5b845b818110156138165780358452602093840193016137fe565b509095945050505050565b6000806000806102c080868803121561383957600080fd5b61384387876137d1565b9450604087605f88011261385657600080fd5b61385e61378a565b8060c089018a81111561387057600080fd5b838a015b81811015613895576138868c826137d1565b84526020909301928401613874565b508197506138a38b826137d1565b9650505050508661011f8701126138b957600080fd5b6138c16137ad565b9086019080888311156138d357600080fd5b61010088015b838110156138f15780358352602092830192016138d9565b509598949750929550505050565b801515811461128157600080fd5b8035613918816138ff565b919050565b6006811061128157600080fd5b80356139188161391d565b600b811061128157600080fd5b803561391881613935565b6001600160a01b038116811461128157600080fd5b80356139188161394d565b600f811061128157600080fd5b80356139188161396d565b6005811061128157600080fd5b803561391881613985565b60006101a082840312156139b057600080fd5b6139b8613760565b90506139c382613962565b81526020820135602082015260408201356040820152606082013560608201526080820135608082015260a082013560a082015260c082013560c082015260e082013560e0820152610100808301358183015250610120808301358183015250610140808301358183015250610160613a3d818401613992565b90820152610180613a4f83820161390d565b9082015292915050565b80356004811061391857600080fd5b60006101a08284031215613a7b57600080fd5b613a83613760565b9050613a8e8261390d565b8152602082013560208201526040820135604082015260608201356060820152613aba60808301613a59565b608082015260a082013560a082015260c082013560c082015260e082013560e0820152610100808301358183015250610120613af781840161390d565b908201526101408281013590820152610160613b1481840161390d565b818301525061018080830135818301525092915050565b600060a08284031215613b3d57600080fd5b60405160a0810181811067ffffffffffffffff82111715613b6057613b6061374a565b6040529050808235613b71816138ff565b8152602083810135908201526040830135613b8b8161394d565b6040820152606083810135908201526080830135613ba88161394d565b6080919091015292915050565b600080600080848603610580811215613bcd57600080fd5b6101a080821215613bdd57600080fd5b613be5613760565b9150613bf08761390d565b82526020870135602083015260408701356040830152613c126060880161392a565b6060830152613c2360808801613942565b608083015260a087013560a0830152613c3e60c08801613962565b60c0830152613c4f60e0880161397a565b60e08301526101008781013590830152610120808801359083015261014080880135908301526101608088013590830152610180613c8e818901613962565b8184015250819550613ca28882890161399d565b94505050613cb4866103408701613a68565b9150613cc4866104e08701613b2b565b905092959194509250565b634e487b7160e01b600052602160045260246000fd5b60058110613cf557613cf5613ccf565b9052565b60048110613cf557613cf5613ccf565b8051151582526020810151602083015260408101516040830152606081015160608301526080810151613d3f6080840182613cf9565b5060a081015160a083015260c081015160c083015260e081015160e083015261010080820151818401525061012080820151613d7e8285018215159052565b505061014081810151908301526101608082015115159083015261018090810151910152565b83516001600160a01b031681526103e081016020850151602083015260408501516040830152606085015160608301526080850151608083015260a085015160a083015260c085015160c083015260e085015160e083015261010080860151818401525061012080860151818401525061014080860151818401525061016080860151613e3382850182613ce5565b505061018085810151151590830152613e506101a0830185613d09565b82511515610340830152602083015161036083015260408301516001600160a01b0390811661038084015260608401516103a08401526080840151166103c083015261081c565b634e487b7160e01b600052603260045260246000fd5b60c08101818460005b6005811015613ed5578151835260209283019290910190600101613eb6565b50505082151560a08301529392505050565b8051613918816138ff565b600060208284031215613f0457600080fd5b815161295a816138ff565b8060005b6002811015612893578151845260209384019390910190600101613f13565b6102408101613f418287613f0f565b60408083018660005b6002811015613f7157613f5e838351613f0f565b9183019160209190910190600101613f4a565b50505050613f8260c0830185613f0f565b61010082018360005b600a811015613faa578151835260209283019290910190600101613f8b565b50505095945050505050565b634e487b7160e01b600052601160045260246000fd5b600060018201613fde57613fde613fb6565b5060010190565b634e487b7160e01b600052601260045260246000fd5b60008261401857634e487b7160e01b600052601260045260246000fd5b500490565b60008161402c5761402c613fb6565b506000190190565b600f8110613cf557613cf5613ccf565b602081016109f88284614034565b600081600019048311821515161561406c5761406c613fb6565b500290565b600060a0828403121561408357600080fd5b60405160a0810181811067ffffffffffffffff821117156140a6576140a661374a565b806040525082518152602083015160208201526040830151604082015260608301516060820152608083015160808201528091505092915050565b6000828210156140f3576140f3613fb6565b500390565b6000821982111561410b5761410b613fb6565b500190565b80516139188161391d565b805161391881613935565b80516139188161394d565b80516139188161396d565b60006101a0828403121561414f57600080fd5b614157613760565b61416083613ee7565b8152602083015160208201526040830151604082015261418260608401614110565b60608201526141936080840161411b565b608082015260a083015160a08201526141ae60c08401614126565b60c08201526141bf60e08401614131565b60e082015261010083810151908201526101208084015190820152610140808401519082015261016080840151908201526101806141fe818501614126565b908201529392505050565b60068110613cf557613cf5613ccf565b600b8110613cf557613cf5613ccf565b8151151581526101a081016020830151602083015260408301516040830152606083015161425a6060840182614209565b50608083015161426d6080840182614219565b5060a083015160a083015260c083015161429260c08401826001600160a01b03169052565b5060e08301516142a560e0840182614034565b506101008381015190830152610120808401519083015261014080840151908301526101608084015190830152610180928301516001600160a01b0316929091019190915290565b8581526020810185905260a081016143086040830186613ce5565b6143156060830185613cf9565b8260808301529695505050505050565b805161391881613985565b60006101a0828403121561434357600080fd5b61434b613760565b61435483614126565b81526020830151602082015260408301516040820152606083015160608201526080830151608082015260a083015160a082015260c083015160c082015260e083015160e08201526101008084015181830152506101208084015181830152506101408084015181830152506101606143ce818501614325565b908201526101806141fe848201613ee7565b81546001600160a01b031681526101a0810160018301546020830152600283015460408301526003830154606083015260048301546080830152600583015460a0830152600683015460c0830152600783015460e083015260088301546101008301526009830154610120830152600a830154610140830152600b83015461446f610160840160ff8316613ce5565b614484610180840160ff8360081c1615159052565b5092915050565b60006020828403121561449d57600080fd5b5051919050565b634e487b7160e01b600052600160045260246000fdfea26469706673582212203b52a953658c06da82bc9bc85029630617d47cefc333b482e8da17b3d7664d4b64736f6c634300080d0033",
    "sourcePath": "/Users/lele/Downloads/eth-master/contracts/facets/DFMoveFacet.sol",
    "compiler": {
        "name": "solc",
        "version": "0.8.13+commit.abaa5c0e"
    },
    "functionHashes": {
        "applySpaceshipDepart((bool,uint256,uint256,uint8,uint8,uint256,address,uint8,uint256,uint256,uint256,uint256,address),(address,uint256,uint256,uint256,uint256,uint256,uint256,uint256,uint256,uint256,uint256,uint8,bool),(bool,uint256,uint256,uint256,uint8,uint256,uint256,uint256,uint256,bool,uint256,bool,uint256),(bool,uint256,address,uint256,address))": "df52e92a",
        "move(uint256[2],uint256[2][2],uint256[2],uint256[14])": "b3b4159f"
    },
    "gasEstimates": {
        "creation": {
            "codeDepositCost": "3529600",
            "executionCost": "3958",
            "totalCost": "3533558"
        },
        "external": {
            "applySpaceshipDepart((bool,uint256,uint256,uint8,uint8,uint256,address,uint8,uint256,uint256,uint256,uint256,address),(address,uint256,uint256,uint256,uint256,uint256,uint256,uint256,uint256,uint256,uint256,uint8,bool),(bool,uint256,uint256,uint256,uint8,uint256,uint256,uint256,uint256,bool,uint256,bool,uint256),(bool,uint256,address,uint256,address))": "infinite",
            "move(uint256[2],uint256[2][2],uint256[2],uint256[14])": "infinite"
        },
        "internal": {
            "_abandonPlanet(struct DFPMoveArgs memory)": "infinite",
            "_checkMoveValidity(struct DFPMoveArgs memory)": "infinite",
            "_checkPhotoid(struct DFPMoveArgs memory)": "infinite",
            "_checkWormhole(struct DFPMoveArgs memory)": "infinite",
            "_createArrival(struct DFPCreateArrivalArgs memory)": "infinite",
            "_executeMove(struct DFPMoveArgs memory)": "infinite",
            "_getDecayedPop(uint256,uint256,uint256,uint256)": "infinite",
            "_isSpaceshipMove(struct DFPMoveArgs memory)": "infinite",
            "_removeSpaceshipEffectsFromOriginPlanet(struct DFPMoveArgs memory)": "infinite",
            "_transferPlanetSpaceJunkToPlayer(struct DFPMoveArgs memory)": "infinite"
        }
    }
}