{
    "contractName": "DFWhitelistFacet",
    "abi": [
        {
            "inputs": [
                {
                    "internalType": "uint256[]",
                    "name": "hashes",
                    "type": "uint256[]"
                }
            ],
            "name": "addKeys",
            "outputs": [],
            "stateMutability": "nonpayable",
            "type": "function"
        },
        {
            "inputs": [
                {
                    "internalType": "address",
                    "name": "toAdd",
                    "type": "address"
                }
            ],
            "name": "addToWhitelist",
            "outputs": [],
            "stateMutability": "nonpayable",
            "type": "function"
        },
        {
            "inputs": [
                {
                    "internalType": "uint256",
                    "name": "keyHash",
                    "type": "uint256"
                },
                {
                    "internalType": "address payable",
                    "name": "recipient",
                    "type": "address"
                }
            ],
            "name": "adminUseKey",
            "outputs": [],
            "stateMutability": "nonpayable",
            "type": "function"
        },
        {
            "inputs": [
                {
                    "internalType": "uint256",
                    "name": "newDrip",
                    "type": "uint256"
                }
            ],
            "name": "changeDrip",
            "outputs": [],
            "stateMutability": "nonpayable",
            "type": "function"
        },
        {
            "inputs": [
                {
                    "internalType": "uint256",
                    "name": "newReward",
                    "type": "uint256"
                }
            ],
            "name": "changeRelayerReward",
            "outputs": [],
            "stateMutability": "nonpayable",
            "type": "function"
        },
        {
            "inputs": [
                {
                    "internalType": "uint256[]",
                    "name": "keys",
                    "type": "uint256[]"
                }
            ],
            "name": "disableKeys",
            "outputs": [],
            "stateMutability": "nonpayable",
            "type": "function"
        },
        {
            "inputs": [],
            "name": "drip",
            "outputs": [
                {
                    "internalType": "uint256",
                    "name": "",
                    "type": "uint256"
                }
            ],
            "stateMutability": "view",
            "type": "function"
        },
        {
            "inputs": [],
            "name": "getNAllowed",
            "outputs": [
                {
                    "internalType": "uint256",
                    "name": "",
                    "type": "uint256"
                }
            ],
            "stateMutability": "view",
            "type": "function"
        },
        {
            "inputs": [
                {
                    "internalType": "uint256",
                    "name": "hashed",
                    "type": "uint256"
                }
            ],
            "name": "isKeyHashValid",
            "outputs": [
                {
                    "internalType": "bool",
                    "name": "",
                    "type": "bool"
                }
            ],
            "stateMutability": "view",
            "type": "function"
        },
        {
            "inputs": [
                {
                    "internalType": "address",
                    "name": "_addr",
                    "type": "address"
                }
            ],
            "name": "isWhitelisted",
            "outputs": [
                {
                    "internalType": "bool",
                    "name": "",
                    "type": "bool"
                }
            ],
            "stateMutability": "view",
            "type": "function"
        },
        {
            "inputs": [],
            "name": "relayerReward",
            "outputs": [
                {
                    "internalType": "uint256",
                    "name": "",
                    "type": "uint256"
                }
            ],
            "stateMutability": "view",
            "type": "function"
        },
        {
            "inputs": [
                {
                    "internalType": "address",
                    "name": "toRemove",
                    "type": "address"
                }
            ],
            "name": "removeFromWhitelist",
            "outputs": [],
            "stateMutability": "nonpayable",
            "type": "function"
        },
        {
            "inputs": [
                {
                    "internalType": "bool",
                    "name": "newRewardsEnabled",
                    "type": "bool"
                }
            ],
            "name": "setRelayerRewardsEnabled",
            "outputs": [],
            "stateMutability": "nonpayable",
            "type": "function"
        },
        {
            "inputs": [
                {
                    "internalType": "uint256[2]",
                    "name": "_a",
                    "type": "uint256[2]"
                },
                {
                    "internalType": "uint256[2][2]",
                    "name": "_b",
                    "type": "uint256[2][2]"
                },
                {
                    "internalType": "uint256[2]",
                    "name": "_c",
                    "type": "uint256[2]"
                },
                {
                    "internalType": "uint256[2]",
                    "name": "_input",
                    "type": "uint256[2]"
                }
            ],
            "name": "useKey",
            "outputs": [],
            "stateMutability": "nonpayable",
            "type": "function"
        }
    ],
    "bytecode": "608060405234801561001057600080fd5b50610e8d806100206000396000f3fe608060405234801561001057600080fd5b50600436106100ea5760003560e01c80637adb26771161008c5780639f678cca116100665780639f678cca146101c7578063c175559b146101cf578063cb2d392d146101d7578063e43252d7146101ea57600080fd5b80637adb26771461018e5780638ab1d681146101a15780638d82b0a4146101b457600080fd5b80633af32abf116100c85780633af32abf1461013f5780633f1e4244146101525780636ea15727146101685780636f3f80c91461017b57600080fd5b806320de1554146100ef578063265656de1461010457806332ad9ecd14610117575b600080fd5b6101026100fd366004610a5b565b6101fd565b005b610102610112366004610afb565b610213565b61012a610125366004610ba1565b610290565b60405190151581526020015b60405180910390f35b61012a61014d366004610bba565b6102b1565b61015a6102f8565b604051908152602001610136565b610102610176366004610ba1565b61030b565b610102610189366004610c2e565b610323565b61010261019c366004610afb565b6104a3565b6101026101af366004610bba565b610518565b6101026101c2366004610ba1565b610710565b61015a610728565b61015a61073b565b6101026101e5366004610cdc565b61074e565b6101026101f8366004610bba565b610774565b610205610864565b61020f82826108ed565b5050565b61021b610864565b60005b81518161ffff16101561020f576001610235610a1f565b6007016000848461ffff168151811061025057610250610cf9565b6020026020010151815260200190815260200160002060006101000a81548160ff021916908315150217905550808061028890610d25565b91505061021e565b600061029a610a1f565b600092835260070160205250604090205460ff1690565b60006102bb610a1f565b5460ff166102cb57506001919050565b6102d3610a1f565b6001600160a01b03909216600090815260029290920160205250604090205460ff1690565b6000610302610a1f565b60060154905090565b610313610864565b8061031c610a1f565b6006015550565b604051633f1884bf60e01b815273__$3d6e8b05f53a3662324d76e554a41ef6b3$__90633f1884bf90610360908790879087908790600401610d69565b602060405180830381865af415801561037d573d6000803e3d6000fd5b505050506040513d601f19601f820116820180604052508101906103a19190610df4565b6103f25760405162461bcd60e51b815260206004820152601c60248201527f4661696c65642077686974656c6973742070726f6f6620636865636b0000000060448201526064015b60405180910390fd5b80516020820151610401610a1f565b6001600160a01b0382166000908152600291909101602052604090205460ff161561042d57505061049d565b61043782826108ed565b61043f610a1f565b6005015460ff16801561045b57506001600160a01b0381163314155b1561049a57336108fc61046c610a1f565b600601546040518115909202916000818181858888f19350505050158015610498573d6000803e3d6000fd5b505b50505b50505050565b6104ab610864565b60005b815181101561020f5760006104c1610a1f565b60070160008484815181106104d8576104d8610cf9565b6020026020010151815260200190815260200160002060006101000a81548160ff021916908315150217905550808061051090610e11565b9150506104ae565b610520610864565b610528610a1f565b6001600160a01b0382166000908152600291909101602052604090205460ff166105a55760405162461bcd60e51b815260206004820152602860248201527f706c6179657220776173206e6f742077686974656c697374656420746f2062656044820152670ced2dc40eed2e8d60c31b60648201526084016103e9565b60006105af610a1f565b6001600160a01b038316600090815260029190910160205260408120805460ff1916921515929092179091555b6105e4610a1f565b6004015481101561020f57816001600160a01b0316610601610a1f565b600401828154811061061557610615610cf9565b6000918252602090912001546001600160a01b0316036106fe57610637610a1f565b6004016001610644610a1f565b600401546106529190610e2a565b8154811061066257610662610cf9565b6000918252602090912001546001600160a01b031661067f610a1f565b600401828154811061069357610693610cf9565b9060005260206000200160006101000a8154816001600160a01b0302191690836001600160a01b031602179055506106c9610a1f565b6004018054806106db576106db610e41565b600082815260209020810160001990810180546001600160a01b03191690550190555b8061070881610e11565b9150506105dc565b610718610864565b80610721610a1f565b6001015550565b6000610732610a1f565b60010154905090565b6000610745610a1f565b60040154919050565b610756610864565b8061075f610a1f565b600501805460ff191691151591909117905550565b61077c610864565b610784610a1f565b6001600160a01b0382166000908152600291909101602052604090205460ff16156107f15760405162461bcd60e51b815260206004820152601960248201527f706c6179657220697320616c726561647920616c6c6f7765640000000000000060448201526064016103e9565b60016107fb610a1f565b6001600160a01b038316600090815260029190910160205260409020805460ff191691151591909117905561082e610a1f565b6004018054600181018255600091825260209091200180546001600160a01b0319166001600160a01b0392909216919091179055565b7fc8fcad8db84d3cc18b4c41d551ea0ee66dd599cde068d998e57d5e09332c131c600401546001600160a01b031633146108eb5760405162461bcd60e51b815260206004820152602260248201527f4c69624469616d6f6e643a204d75737420626520636f6e7472616374206f776e60448201526132b960f11b60648201526084016103e9565b565b6108f5610a1f565b6000838152600791909101602052604090205460ff166109455760405162461bcd60e51b815260206004820152600b60248201526a696e76616c6964206b657960a81b60448201526064016103e9565b600161094f610a1f565b6001600160a01b038316600090815260029190910160205260409020805460ff1916911515919091179055610982610a1f565b60040180546001810182556000918252602082200180546001600160a01b0319166001600160a01b0384161790556109b8610a1f565b600084815260079190910160205260409020805460ff19169115159190911790556001600160a01b0381166108fc6109ee610a1f565b600101546040518115909202916000818181858888f19350505050158015610a1a573d6000803e3d6000fd5b505050565b7f69a2c502475bdd85d96bf3a0299d27e0c75b294faa4041a1d71dc144ef660eba90565b6001600160a01b0381168114610a5857600080fd5b50565b60008060408385031215610a6e57600080fd5b823591506020830135610a8081610a43565b809150509250929050565b634e487b7160e01b600052604160045260246000fd5b6040805190810167ffffffffffffffff81118282101715610ac457610ac4610a8b565b60405290565b604051601f8201601f1916810167ffffffffffffffff81118282101715610af357610af3610a8b565b604052919050565b60006020808385031215610b0e57600080fd5b823567ffffffffffffffff80821115610b2657600080fd5b818501915085601f830112610b3a57600080fd5b813581811115610b4c57610b4c610a8b565b8060051b9150610b5d848301610aca565b8181529183018401918481019088841115610b7757600080fd5b938501935b83851015610b9557843582529385019390850190610b7c565b98975050505050505050565b600060208284031215610bb357600080fd5b5035919050565b600060208284031215610bcc57600080fd5b8135610bd781610a43565b9392505050565b600082601f830112610bef57600080fd5b610bf7610aa1565b806040840185811115610c0957600080fd5b845b81811015610c23578035845260209384019301610c0b565b509095945050505050565b6000806000806101408587031215610c4557600080fd5b610c4f8686610bde565b9350604086605f870112610c6257600080fd5b610c6a610aa1565b8060c0880189811115610c7c57600080fd5b8389015b81811015610ca157610c928b82610bde565b84526020909301928401610c80565b50819650610caf8a82610bde565b955050505050610cc3866101008701610bde565b905092959194509250565b8015158114610a5857600080fd5b600060208284031215610cee57600080fd5b8135610bd781610cce565b634e487b7160e01b600052603260045260246000fd5b634e487b7160e01b600052601160045260246000fd5b600061ffff808316818103610d3c57610d3c610d0f565b6001019392505050565b8060005b600281101561049d578151845260209384019390910190600101610d4a565b6101408101610d788287610d46565b6040808301866000805b6002808210610d915750610dcb565b835185845b83811015610db4578251825260209283019290910190600101610d96565b505050938501935060209290920191600101610d82565b5050505050610ddd60c0830185610d46565b610deb610100830184610d46565b95945050505050565b600060208284031215610e0657600080fd5b8151610bd781610cce565b600060018201610e2357610e23610d0f565b5060010190565b600082821015610e3c57610e3c610d0f565b500390565b634e487b7160e01b600052603160045260246000fdfea2646970667358221220f33a3f57af2351d50a889a9d485ef601179fe96ce396a4e8edbc576b64ba31f364736f6c634300080d0033",
    "sourcePath": "/Users/lele/Downloads/eth-master/contracts/facets/DFWhitelistFacet.sol",
    "compiler": {
        "name": "solc",
        "version": "0.8.13+commit.abaa5c0e"
    },
    "functionHashes": {
        "addKeys(uint256[])": "265656de",
        "addToWhitelist(address)": "e43252d7",
        "adminUseKey(uint256,address)": "20de1554",
        "changeDrip(uint256)": "8d82b0a4",
        "changeRelayerReward(uint256)": "6ea15727",
        "disableKeys(uint256[])": "7adb2677",
        "drip()": "9f678cca",
        "getNAllowed()": "c175559b",
        "isKeyHashValid(uint256)": "32ad9ecd",
        "isWhitelisted(address)": "3af32abf",
        "relayerReward()": "3f1e4244",
        "removeFromWhitelist(address)": "8ab1d681",
        "setRelayerRewardsEnabled(bool)": "cb2d392d",
        "useKey(uint256[2],uint256[2][2],uint256[2],uint256[2])": "6f3f80c9"
    },
    "gasEstimates": {
        "creation": {
            "codeDepositCost": "745000",
            "executionCost": "779",
            "totalCost": "745779"
        },
        "external": {
            "addKeys(uint256[])": "infinite",
            "addToWhitelist(address)": "infinite",
            "adminUseKey(uint256,address)": "infinite",
            "changeDrip(uint256)": "24599",
            "changeRelayerReward(uint256)": "24599",
            "disableKeys(uint256[])": "infinite",
            "drip()": "2370",
            "getNAllowed()": "2392",
            "isKeyHashValid(uint256)": "2557",
            "isWhitelisted(address)": "infinite",
            "relayerReward()": "2393",
            "removeFromWhitelist(address)": "infinite",
            "setRelayerRewardsEnabled(bool)": "26797",
            "useKey(uint256[2],uint256[2][2],uint256[2],uint256[2])": "infinite"
        },
        "internal": {
            "_useKey(uint256,address payable)": "infinite"
        }
    }
}