{
    "contractName": "LibArtifactUtils",
    "abi": [
        {
            "anonymous": false,
            "inputs": [
                {
                    "indexed": false,
                    "internalType": "address",
                    "name": "player",
                    "type": "address"
                },
                {
                    "indexed": false,
                    "internalType": "uint256",
                    "name": "artifactId",
                    "type": "uint256"
                },
                {
                    "indexed": false,
                    "internalType": "uint256",
                    "name": "loc",
                    "type": "uint256"
                }
            ],
            "name": "ArtifactActivated",
            "type": "event"
        },
        {
            "anonymous": false,
            "inputs": [
                {
                    "indexed": false,
                    "internalType": "address",
                    "name": "player",
                    "type": "address"
                },
                {
                    "indexed": false,
                    "internalType": "uint256",
                    "name": "artifactId",
                    "type": "uint256"
                },
                {
                    "indexed": false,
                    "internalType": "uint256",
                    "name": "loc",
                    "type": "uint256"
                }
            ],
            "name": "ArtifactDeactivated",
            "type": "event"
        },
        {
            "anonymous": false,
            "inputs": [
                {
                    "indexed": false,
                    "internalType": "address",
                    "name": "player",
                    "type": "address"
                },
                {
                    "indexed": false,
                    "internalType": "uint256",
                    "name": "loc",
                    "type": "uint256"
                },
                {
                    "indexed": false,
                    "internalType": "uint256",
                    "name": "branch",
                    "type": "uint256"
                },
                {
                    "indexed": false,
                    "internalType": "uint256",
                    "name": "toBranchLevel",
                    "type": "uint256"
                }
            ],
            "name": "PlanetUpgraded",
            "type": "event"
        },
        {
            "inputs": [
                {
                    "internalType": "uint256",
                    "name": "locationId",
                    "type": "uint256"
                },
                {
                    "components": [
                        {
                            "internalType": "bool",
                            "name": "isInitialized",
                            "type": "bool"
                        },
                        {
                            "internalType": "uint256",
                            "name": "createdAt",
                            "type": "uint256"
                        },
                        {
                            "internalType": "uint256",
                            "name": "lastUpdated",
                            "type": "uint256"
                        },
                        {
                            "internalType": "uint256",
                            "name": "perlin",
                            "type": "uint256"
                        },
                        {
                            "internalType": "enum SpaceType",
                            "name": "spaceType",
                            "type": "SpaceType"
                        },
                        {
                            "internalType": "uint256",
                            "name": "upgradeState0",
                            "type": "uint256"
                        },
                        {
                            "internalType": "uint256",
                            "name": "upgradeState1",
                            "type": "uint256"
                        },
                        {
                            "internalType": "uint256",
                            "name": "upgradeState2",
                            "type": "uint256"
                        },
                        {
                            "internalType": "uint256",
                            "name": "hatLevel",
                            "type": "uint256"
                        },
                        {
                            "internalType": "bool",
                            "name": "hasTriedFindingArtifact",
                            "type": "bool"
                        },
                        {
                            "internalType": "uint256",
                            "name": "prospectedBlockNumber",
                            "type": "uint256"
                        },
                        {
                            "internalType": "bool",
                            "name": "destroyed",
                            "type": "bool"
                        },
                        {
                            "internalType": "uint256",
                            "name": "spaceJunk",
                            "type": "uint256"
                        }
                    ],
                    "internalType": "struct PlanetExtendedInfo",
                    "name": "info",
                    "type": "tuple"
                },
                {
                    "components": [
                        {
                            "internalType": "address",
                            "name": "owner",
                            "type": "address"
                        },
                        {
                            "internalType": "uint256",
                            "name": "range",
                            "type": "uint256"
                        },
                        {
                            "internalType": "uint256",
                            "name": "speed",
                            "type": "uint256"
                        },
                        {
                            "internalType": "uint256",
                            "name": "defense",
                            "type": "uint256"
                        },
                        {
                            "internalType": "uint256",
                            "name": "population",
                            "type": "uint256"
                        },
                        {
                            "internalType": "uint256",
                            "name": "populationCap",
                            "type": "uint256"
                        },
                        {
                            "internalType": "uint256",
                            "name": "populationGrowth",
                            "type": "uint256"
                        },
                        {
                            "internalType": "uint256",
                            "name": "silverCap",
                            "type": "uint256"
                        },
                        {
                            "internalType": "uint256",
                            "name": "silverGrowth",
                            "type": "uint256"
                        },
                        {
                            "internalType": "uint256",
                            "name": "silver",
                            "type": "uint256"
                        },
                        {
                            "internalType": "uint256",
                            "name": "planetLevel",
                            "type": "uint256"
                        },
                        {
                            "internalType": "enum PlanetType",
                            "name": "planetType",
                            "type": "PlanetType"
                        },
                        {
                            "internalType": "bool",
                            "name": "isHomePlanet",
                            "type": "bool"
                        }
                    ],
                    "internalType": "struct Planet",
                    "name": "planet",
                    "type": "tuple"
                }
            ],
            "name": "checkFindArtifact",
            "outputs": [
                {
                    "internalType": "bool",
                    "name": "",
                    "type": "bool"
                }
            ],
            "stateMutability": "view",
            "type": "function"
        },
        {
            "inputs": [
                {
                    "internalType": "uint256",
                    "name": "locationId",
                    "type": "uint256"
                }
            ],
            "name": "containsGear",
            "outputs": [
                {
                    "internalType": "bool",
                    "name": "",
                    "type": "bool"
                }
            ],
            "stateMutability": "view",
            "type": "function"
        },
        {
            "inputs": [
                {
                    "internalType": "enum ArtifactType",
                    "name": "artifactType",
                    "type": "ArtifactType"
                }
            ],
            "name": "isSpaceship",
            "outputs": [
                {
                    "internalType": "bool",
                    "name": "",
                    "type": "bool"
                }
            ],
            "stateMutability": "pure",
            "type": "function"
        }
    ],
    "bytecode": "6135fb61003a600b82828239805160001a60731461002d57634e487b7160e01b600052600060045260246000fd5b30600052607381538281f3fe73000000000000000000000000000000000000000030146080604052600436106100a85760003560e01c8063a7d0cc3011610070578063a7d0cc3014610158578063c918aebd14610178578063cc1612db14610198578063e76aa429146101ab578063fa96074f146101cb57600080fd5b80632e3fdd26146100ad57806370e0f0ce146100d557806376293ff1146100f75780639513a2ad146101255780639bc1a45214610145575b600080fd5b6100c06100bb366004612b32565b6101eb565b60405190151581526020015b60405180910390f35b8180156100e157600080fd5b506100f56100f0366004612b4b565b61035c565b005b81801561010357600080fd5b50610117610112366004612bcd565b6106ed565b6040519081526020016100cc565b81801561013157600080fd5b506100f5610140366004612c3d565b610cb3565b6100c0610153366004612c76565b610f52565b81801561016457600080fd5b506100f5610173366004612c9a565b610f8e565b81801561018457600080fd5b506100f5610193366004612b32565b611420565b6100c06101a6366004612dcf565b611846565b8180156101b757600080fd5b506100f56101c6366004612b32565b611aeb565b8180156101d757600080fd5b506101176101e6366004612ec5565b611cb0565b6000806101f6611e80565b601501600084815260200190815260200160002080548060200260200160405190810160405280929190818152602001828054801561025457602002820191906000526020600020905b815481526020019060010190808311610240575b5050505050905060005b8151811015610352576000306001600160a01b0316638465ad4484848151811061028a5761028a612efc565b60200260200101516040518263ffffffff1660e01b81526004016102b091815260200190565b6101a060405180830381865afa1580156102ce573d6000803e3d6000fd5b505050506040513d601f19601f820116820180604052508101906102f29190612f51565b9050600d8160e00151600e81111561030c5761030c61301e565b14801561032f57508061018001516001600160a01b0316336001600160a01b0316145b1561033f57506001949350505050565b508061034a8161304a565b91505061025e565b5060009392505050565b6000610366611e80565b6000848152600c919091016020526040902090506003600b82015460ff1660048111156103955761039561301e565b146103f35760405162461bcd60e51b8152602060048201526024808201527f63616e206f6e6c792077697468647261772066726f6d2074726164696e6720706044820152636f73747360e01b60648201526084015b60405180910390fd5b6103fb611e80565b6000848152600e9190910160205260409020600b015460ff16156104315760405162461bcd60e51b81526004016103ea90613063565b80546001600160a01b0316331461049e5760405162461bcd60e51b815260206004820152602b60248201527f796f752063616e206f6e6c792077697468647261772066726f6d206120706c6160448201526a3732ba103cb7ba9037bbb760a91b60648201526084016103ea565b6040516305256e1960e41b8152600481018490526024810183905260009073__$6b7b4f300876ea7c4892437e01c3ce569a$__90635256e190906044016101a060405180830381865af41580156104f9573d6000803e3d6000fd5b505050506040513d601f19601f8201168201806040525081019061051d9190612f51565b805190915061053e5760405162461bcd60e51b81526004016103ea90613090565b806060015160058111156105545761055461301e565b82600a0154116105cc5760405162461bcd60e51b815260206004820152603d60248201527f737061636574696d6520726970206e6f74206869676820656e6f756768206c6560448201527f76656c20746f207769746864726177207468697320617274696661637400000060648201526084016103ea565b6105d98160e00151610f52565b156106265760405162461bcd60e51b815260206004820152601a60248201527f63616e6e6f74207769746864726177207370616365736869707300000000000060448201526064016103ea565b6040516306ee943360e51b8152600481018490526024810185905273__$6b7b4f300876ea7c4892437e01c3ce569a$__9063ddd286609060440160006040518083038186803b15801561067857600080fd5b505af415801561068c573d6000803e3d6000fd5b5050604051634c88c16d60e11b81526004810186905233602482015230925063991182da9150604401600060405180830381600087803b1580156106cf57600080fd5b505af11580156106e3573d6000803e3d6000fd5b5050505050505050565b6000806106f8611e80565b83516000908152600c91909101602052604081209150610716611e80565b84516000908152600e919091016020908152604091829020865183516101a081018552825460ff908116151582526001840154948201949094526002830154948101949094526003808301546060860152600483015492955061090a9491939192869260808501929116908111156107905761079061301e565b60038111156107a1576107a161301e565b8152602001600582015481526020016006820154815260200160078201548152602001600882015481526020016009820160009054906101000a900460ff16151515158152602001600a8201548152602001600b820160009054906101000a900460ff16151515158152602001600c8201548152505084604051806101a00160405290816000820160009054906101000a90046001600160a01b03166001600160a01b03166001600160a01b03168152602001600182015481526020016002820154815260200160038201548152602001600482015481526020016005820154815260200160068201548152602001600782015481526020016008820154815260200160098201548152602001600a8201548152602001600b820160009054906101000a900460ff1660048111156108db576108db61301e565b60048111156108ec576108ec61301e565b8152600b9190910154610100900460ff161515602090910152611846565b61091357600080fd5b600480820154602086015160405163145bd58b60e31b815260009373__$6b7b4f300876ea7c4892437e01c3ce569a$__9363a2deac589361095c9360ff909216929091016130e7565b602060405180830381865af4158015610979573d6000803e3d6000fd5b505050506040513d601f19601f8201168201806040525081019061099d9190613102565b905060008560000151866040015184600a0154406040516020016109e69392919092835260609190911b6bffffffffffffffffffffffff19166020830152603482015260540190565b60408051601f19818403018152919052805160209091012060048401549091506000908190610a1b908490869060ff16611ea4565b915091506000604051806101000160405280858152602001336001600160a01b031681526020018a60000151815260200173__$6b7b4f300876ea7c4892437e01c3ce569a$__632ebe903f8a600a015486610a76919061311d565b6040518263ffffffff1660e01b8152600401610a9491815260200190565b602060405180830381865af4158015610ab1573d6000803e3d6000fd5b505050506040513d601f19601f82011682018060405250810190610ad59190613135565b6005811115610ae657610ae661301e565b815260200186600a811115610afd57610afd61301e565b815260200184600e811115610b1457610b1461301e565b81526040808c01516001600160a01b0316602083015260009181018290525163d72fd41160e01b815291925090309063d72fd41190610b57908590600401613180565b6101a0604051808303816000875af1158015610b77573d6000803e3d6000fd5b505050506040513d601f19601f82011682018060405250810190610b9b9190612f51565b60208101518b51604051637418b16160e11b81526004810192909252602482015290915073__$6b7b4f300876ea7c4892437e01c3ce569a$__9063e83162c29060440160006040518083038186803b158015610bf657600080fd5b505af4158015610c0a573d6000803e3d6000fd5b50505060098801805460ff1916600117905550610c447f5fb65bb339c6bd3f2609a7342e6cb046e09f3e40f45242a5971904b021b5bb5390565b60430181606001516005811115610c5d57610c5d61301e565b60068110610c6d57610c6d612efc565b0154610c77611e80565b336000908152601291909101602052604081206004018054909190610c9d90849061311d565b9091555050602001519998505050505050505050565b6000610cbd611e80565b6000858152600c91909101602052604081209150610cd9611e80565b60008581526016919091016020526040908190209051633f2a750d60e11b8152600481018790526024810186905290915073__$6b7b4f300876ea7c4892437e01c3ce569a$__90637e54ea1a90604401602060405180830381865af4158015610d46573d6000803e3d6000fd5b505050506040513d601f19601f82011682018060405250810190610d6a9190613207565b610dcf5760405162461bcd60e51b815260206004820152603060248201527f63616e27742061637469766520616e206172746966616374206f6e206120706c60448201526f30b732ba1034ba13b9903737ba1037b760811b60648201526084016103ea565b6005810154610de790600160a01b900460ff16610f52565b15610dfd57610df885858484612020565b610f34565b604080516101a081018252825460ff90811615158252600184015460208301526002840154928201929092526003830154610f349288928892889288929188916060840191166005811115610e5457610e5461301e565b6005811115610e6557610e6561301e565b81526020016003820160019054906101000a900460ff16600a811115610e8d57610e8d61301e565b600a811115610e9e57610e9e61301e565b81526004820154602082015260058201546001600160a01b0381166040830152606090910190600160a01b900460ff16600e811115610edf57610edf61301e565b600e811115610ef057610ef061301e565b815260068201546020820152600782015460408201526008820154606082015260098201546080820152600a909101546001600160a01b031660a090910152612347565b600681018054906000610f468361304a565b91905055505050505050565b6000600a82600e811115610f6857610f6861301e565b10158015610f885750600e82600e811115610f8557610f8561301e565b11155b92915050565b6000610f98611e80565b6000858152600c91909101602052604090209050610fb4611e80565b6000858152600e9190910160205260409020600b015460ff1615610fea5760405162461bcd60e51b81526004016103ea90613063565b6003600b82015460ff1660048111156110055761100561301e565b1461105c5760405162461bcd60e51b815260206004820152602160248201527f63616e206f6e6c79206465706f736974206f6e2074726164696e6720706f73746044820152607360f81b60648201526084016103ea565b6040516331a9108f60e11b81526004810184905233903090636352211e90602401602060405180830381865afa15801561109a573d6000803e3d6000fd5b505050506040513d601f19601f820116820180604052508101906110be9190613224565b6001600160a01b0316146111235760405162461bcd60e51b815260206004820152602660248201527f796f752063616e206f6e6c79206465706f73697420617274696661637473207960448201526537ba9037bbb760d11b60648201526084016103ea565b80546001600160a01b0316331461118d5760405162461bcd60e51b815260206004820152602860248201527f796f752063616e206f6e6c79206465706f736974206f6e206120706c616e6574604482015267103cb7ba9037bbb760c11b60648201526084016103ea565b6040516321196b5160e21b8152600481018490526000903090638465ad44906024016101a060405180830381865afa1580156111cd573d6000803e3d6000fd5b505050506040513d601f19601f820116820180604052508101906111f19190612f51565b9050806060015160058111156112095761120961301e565b82600a0154116112815760405162461bcd60e51b815260206004820152603c60248201527f737061636574696d6520726970206e6f74206869676820656e6f756768206c6560448201527f76656c20746f206465706f73697420746869732061727469666163740000000060648201526084016103ea565b61128e8160e00151610f52565b156112db5760405162461bcd60e51b815260206004820152601960248201527f63616e6e6f74206465706f73697420737061636573686970730000000000000060448201526064016103ea565b60056112e5611e80565b600087815260159190910160205260409020541061134f5760405162461bcd60e51b815260206004820152602160248201527f746f6f206d616e7920617274696661637473206f6e207468697320706c616e656044820152601d60fa1b60648201526084016103ea565b604051637418b16160e11b8152600481018590526024810186905273__$6b7b4f300876ea7c4892437e01c3ce569a$__9063e83162c29060440160006040518083038186803b1580156113a157600080fd5b505af41580156113b5573d6000803e3d6000fd5b5050604051634c88c16d60e11b8152600481018790526001600160a01b038616602482015230925063991182da9150604401600060405180830381600087803b15801561140157600080fd5b505af1158015611415573d6000803e3d6000fd5b505050505050505050565b600061142a611e80565b6000838152600c919091016020526040902080549091506001600160a01b031633146114be5760405162461bcd60e51b815260206004820152603b60248201527f796f75206d757374206f776e2074686520706c616e657420796f75206172652060448201527f646561637469766174696e6720616e206172746966616374206f6e000000000060648201526084016103ea565b6114c6611e80565b6000838152600e9190910160205260409020600b015460ff16156114fc5760405162461bcd60e51b81526004016103ea90613063565b60405163c4e6f90960e01b81526004810183905260009073__$6b7b4f300876ea7c4892437e01c3ce569a$__9063c4e6f909906024016101a060405180830381865af4158015611550573d6000803e3d6000fd5b505050506040513d601f19601f820116820180604052508101906115749190612f51565b80519091506115db5760405162461bcd60e51b815260206004820152602d60248201527f74686973206172746966616374206973206e6f7420616374697661746564206f60448201526c1b881d1a1a5cc81c1b185b995d609a1b60648201526084016103ea565b42610140820152600061016082015260208101516040517ffc7424381711b1ad7e6b795168cb10ae460022f5f20ce53e9aeb8d4c950dfe5d91611622913391908790613241565b60405180910390a1604051630810557d60e21b8152309063204155f49061164d90849060040161331b565b600060405180830381600087803b15801561166757600080fd5b505af115801561167b573d6000803e3d6000fd5b50600092506006915061168b9050565b8260e00151600e8111156116a1576116a161301e565b14806116c2575060078260e00151600e8111156116c0576116c061301e565b145b9050801561173b5760208201516040516306ee943360e51b815260048101919091526024810185905273__$6b7b4f300876ea7c4892437e01c3ce569a$__9063ddd286609060440160006040518083038186803b15801561172257600080fd5b505af4158015611736573d6000803e3d6000fd5b505050505b73__$6b7b4f300876ea7c4892437e01c3ce569a$__63b0c026398573__$6b7b4f300876ea7c4892437e01c3ce569a$__631ec2b886866040518263ffffffff1660e01b815260040161178d919061331b565b60a060405180830381865af41580156117aa573d6000803e3d6000fd5b505050506040513d601f19601f820116820180604052508101906117ce919061332a565b604080516001600160e01b031960e086901b168152600481019390935281516024840152602082015160448401528101516064830152606081015160848301526080015160a482015260c40160006040518083038186803b15801561183257600080fd5b505af41580156106e3573d6000803e3d6000fd5b6000826101200151156118ac5760405162461bcd60e51b815260206004820152602860248201527f617274696661637420616c7265616479206d696e7465642066726f6d207468696044820152671cc81c1b185b995d60c21b60648201526084016103ea565b81516001600160a01b0316331461191c5760405162461bcd60e51b815260206004820152602e60248201527f796f752063616e206f6e6c792066696e6420617274696661637473206f6e207060448201526d3630b732ba39903cb7ba9037bbb760911b60648201526084016103ea565b8261014001516000036119715760405162461bcd60e51b815260206004820152601760248201527f706c616e6574206e657665722070726f7370656374656400000000000000000060448201526064016103ea565b43836101400151106119e45760405162461bcd60e51b815260206004820152603660248201527f63616e206f6e6c792063616c6c2066696e64417274696661637420616674657260448201527510383937b9b832b1ba32b2213637b1b5a73ab6b132b960511b60648201526084016103ea565b8261014001514311611a385760405162461bcd60e51b815260206004820152601d60248201527f696e76616c69642070726f73706563746564426c6f636b4e756d62657200000060448201526064016103ea565b61010083610140015143611a4c91906133a8565b10611a995760405162461bcd60e51b815260206004820152601760248201527f706c616e65742070726f7370656374206578706972656400000000000000000060448201526064016103ea565b82610160015115611abc5760405162461bcd60e51b81526004016103ea90613063565b611ac5846101eb565b611ae15760405162461bcd60e51b81526004016103ea906133bf565b5060019392505050565b6000611af5611e80565b6000838152600c91909101602052604081209150611b11611e80565b6000848152600e9190910160205260409020600b81015490915060ff1615611b4b5760405162461bcd60e51b81526004016103ea90613063565b6002600b83015460ff166004811115611b6657611b6661301e565b14611bc55760405162461bcd60e51b815260206004820152602960248201527f796f752063616e27742066696e6420616e206172746966616374206f6e2074686044820152681a5cc81c1b185b995d60ba1b60648201526084016103ea565b611bce836101eb565b611bea5760405162461bcd60e51b81526004016103ea906133bf565b81546001600160a01b03163314611c435760405162461bcd60e51b815260206004820152601860248201527f796f75206d757374206f776e207468697320706c616e6574000000000000000060448201526064016103ea565b600a81015415611ca55760405162461bcd60e51b815260206004820152602760248201527f7468697320706c616e65742068617320616c7265616479206265656e2070726f6044820152661cdc1958dd195960ca1b60648201526084016103ea565b43600a909101555050565b6000600e82600e811115611cc657611cc661301e565b11158015611ce65750600a82600e811115611ce357611ce361301e565b10155b611cef57600080fd5b600084611cfa611e80565b600b018054906000611d0b8361304a565b9091555060408051602081019390935282015260600160408051601f1981840301815282825280516020918201206101008401835280845233918401919091529082018790529150600090606081018281526020016000815260200185600e811115611d7957611d7961301e565b815230602082018190526001600160a01b038816604092830152905163d72fd41160e01b815291925060009163d72fd41190611db9908590600401613180565b6101a0604051808303816000875af1158015611dd9573d6000803e3d6000fd5b505050506040513d601f19601f82011682018060405250810190611dfd9190612f51565b6020810151604051637418b16160e11b815291925073__$6b7b4f300876ea7c4892437e01c3ce569a$__9163e83162c291611e45918b90600401918252602082015260400190565b60006040518083038186803b158015611e5d57600080fd5b505af4158015611e71573d6000803e3d6000fd5b50949998505050505050505050565b7fcb7f1a525606efcbba7baaf9b0b55c468d0fd558cbf767967f538834dfa1232e90565b60008080611eb360ff87613418565b9050600060ff610100611ec6848a6133a8565b611ed0919061342c565b611eda9190613418565b905060046027831015611eef57506001611ff2565b604e831015611f0057506002611ff2565b609c831015611f1157506004611ff2565b60ab831015611f2257506005611ff2565b60ba831015611f3357506006611ff2565b60c9831015611f4457506007611ff2565b60d8831015611f5557506008611ff2565b60e7831015611f6657506009611ff2565b600787600a811115611f7a57611f7a61301e565b03611f8757506006611fee565b600987600a811115611f9b57611f9b61301e565b03611fa857506007611fee565b600887600a811115611fbc57611fbc61301e565b03611fc957506008611fee565b600a87600a811115611fdd57611fdd61301e565b03611fea57506009611fee565b5060055b5060075b6000600483101561200557506002612012565b6010831015612012575060015b909890975095505050505050565b600061202a611e80565b6000868152600e91909101602052604090209050600b6005830154600160a01b900460ff16600e8111156120605761206061301e565b03612340576006820154156120cb5760405162461bcd60e51b815260206004820152602b60248201527f6372657363656e742063616e6e6f7420626520616374697661746564206d6f7260448201526a65207468616e206f6e636560a81b60648201526084016103ea565b6001600b84015460ff1660048111156120e6576120e661301e565b036121485760405162461bcd60e51b815260206004820152602c60248201527f63616e6e6f74207475726e20612073696c766572206d696e6520696e746f206160448201526b2073696c766572206d696e6560a01b60648201526084016103ea565b82546001600160a01b0316156121b65760405162461bcd60e51b815260206004820152602d60248201527f63616e206f6e6c79206163746976617465206372657363656e74206f6e20756e60448201526c6f776e656420706c616e65747360981b60648201526084016103ea565b600183600a015410156122165760405162461bcd60e51b815260206004820152602260248201527f706c616e6574206c6576656c206d757374206265206d6f7265207468616e206f6044820152616e6560f01b60648201526084016103ea565b4260078301819055600883015560098301546000036122f457600160098401819055600a8401546004838101547f5fb65bb339c6bd3f2609a7342e6cb046e09f3e40f45242a5971904b021b5bb56546040516314f65d3b60e01b815260009573__$6b7b4f300876ea7c4892437e01c3ce569a$__956314f65d3b956122a6958e95929460ff909116929101613440565b6101a060405180830381865af41580156122c4573d6000803e3d6000fd5b505050506040513d601f19601f820116820180604052508101906122e8919061348c565b61010001516008850155505b600b8301805460ff191660011790556040517f760658b7f8d52e2bfb26775ec9abda96f1ce4582d7415cfe87d28e7550bd493c9061233790339087908990613241565b60405180910390a15b5050505050565b6000612351611e80565b6000878152600e919091016020526040902083549091506001600160a01b031633146123e55760405162461bcd60e51b815260206004820152603960248201527f796f75206d757374206f776e2074686520706c616e657420796f75206172652060448201527f61637469766174696e6720616e206172746966616374206f6e0000000000000060648201526084016103ea565b60405163c4e6f90960e01b81526004810187905273__$6b7b4f300876ea7c4892437e01c3ce569a$__9063c4e6f909906024016101a060405180830381865af4158015612436573d6000803e3d6000fd5b505050506040513d601f19601f8201168201806040525081019061245a9190612f51565b51156124c35760405162461bcd60e51b815260206004820152603260248201527f746865726520697320616c726561647920616e206163746976652061727469666044820152711858dd081bdb881d1a1a5cc81c1b185b995d60721b60648201526084016103ea565b600b81015460ff16156124e85760405162461bcd60e51b81526004016103ea90613063565b81516125065760405162461bcd60e51b81526004016103ea90613090565b60006040518061014001604052806018815260200160008152602001600081526020016000815260200160008152602001600481526020016004815260200160188152602001601881526020016018815250905042818460e00151600e8111156125725761257261301e565b600a811061258257612582612efc565b602002015161259290603c61353c565b61259d90603c61353c565b8461014001516125ad919061311d565b106125fa5760405162461bcd60e51b815260206004820152601e60248201527f74686973206172746966616374206973206f6e206120636f6f6c646f776e000060448201526064016103ea565b426101208401526040516000907f760658b7f8d52e2bfb26775ec9abda96f1ce4582d7415cfe87d28e7550bd493c906126389033908a908c90613241565b60405180910390a160058460e00151600e8111156126585761265861301e565b036127c557856000036126ca5760405162461bcd60e51b815260206004820152603460248201527f796f75206d7573742070726f76696465206120776f726d686f6c65546f20746f604482015273206163746976617465206120776f726d686f6c6560601b60648201526084016103ea565b336126d3611e80565b6000888152600c9190910160205260409020546001600160a01b0316146127575760405162461bcd60e51b815260206004820152603260248201527f796f752063616e206f6e6c7920637265617465206120776f726d686f6c65207460448201527137903090383630b732ba103cb7ba9037bbb760711b60648201526084016103ea565b61275f611e80565b6000878152600e9190910160205260409020600b015460ff16156127b85760405162461bcd60e51b815260206004820152601060248201526f1c1b185b995d0819195cdd1c9bde595960821b60448201526064016103ea565b61016084018690526128b7565b60088460e00151600e8111156127dd576127dd61301e565b036128425784600a0154846060015160058111156127fd576127fd61301e565b61280890600261353c565b10156128265760405162461bcd60e51b81526004016103ea9061355b565b50600584015460048501556007840154600985015560016128b7565b60098460e00151600e81111561285a5761285a61301e565b036128b75784600a01548460600151600581111561287a5761287a61301e565b61288590600261353c565b10156128a35760405162461bcd60e51b81526004016103ea9061355b565b50600b8201805460ff191660019081179091555b80156129c35742610140850152604051630810557d60e21b8152309063204155f4906128e790879060040161331b565b600060405180830381600087803b15801561290157600080fd5b505af1158015612915573d6000803e3d6000fd5b505050507ffc7424381711b1ad7e6b795168cb10ae460022f5f20ce53e9aeb8d4c950dfe5d33888a60405161294c93929190613241565b60405180910390a16040516306ee943360e51b8152600481018890526024810189905273__$6b7b4f300876ea7c4892437e01c3ce569a$__9063ddd286609060440160006040518083038186803b1580156129a657600080fd5b505af41580156129ba573d6000803e3d6000fd5b50505050612a19565b604051630810557d60e21b8152309063204155f4906129e690879060040161331b565b600060405180830381600087803b158015612a0057600080fd5b505af1158015612a14573d6000803e3d6000fd5b505050505b73__$6b7b4f300876ea7c4892437e01c3ce569a$__6392dd471c8973__$6b7b4f300876ea7c4892437e01c3ce569a$__631ec2b886886040518263ffffffff1660e01b8152600401612a6b919061331b565b60a060405180830381865af4158015612a88573d6000803e3d6000fd5b505050506040513d601f19601f82011682018060405250810190612aac919061332a565b604080516001600160e01b031960e086901b168152600481019390935281516024840152602082015160448401528101516064830152606081015160848301526080015160a482015260c40160006040518083038186803b158015612b1057600080fd5b505af4158015612b24573d6000803e3d6000fd5b505050505050505050505050565b600060208284031215612b4457600080fd5b5035919050565b60008060408385031215612b5e57600080fd5b50508035926020909101359150565b6040516101a0810167ffffffffffffffff81118282101715612b9f57634e487b7160e01b600052604160045260246000fd5b60405290565b6001600160a01b0381168114612bba57600080fd5b50565b8035612bc881612ba5565b919050565b600060608284031215612bdf57600080fd5b6040516060810181811067ffffffffffffffff82111715612c1057634e487b7160e01b600052604160045260246000fd5b806040525082358152602083013560208201526040830135612c3181612ba5565b60408201529392505050565b600080600060608486031215612c5257600080fd5b505081359360208301359350604090920135919050565b600f8110612bba57600080fd5b600060208284031215612c8857600080fd5b8135612c9381612c69565b9392505050565b600080600060608486031215612caf57600080fd5b83359250602084013591506040840135612cc881612ba5565b809150509250925092565b8015158114612bba57600080fd5b8035612bc881612cd3565b803560048110612bc857600080fd5b60058110612bba57600080fd5b8035612bc881612cfb565b60006101a08284031215612d2657600080fd5b612d2e612b6d565b9050612d3982612bbd565b81526020820135602082015260408201356040820152606082013560608201526080820135608082015260a082013560a082015260c082013560c082015260e082013560e0820152610100808301358183015250610120808301358183015250610140808301358183015250610160612db3818401612d08565b90820152610180612dc5838201612ce1565b9082015292915050565b6000806000838503610360811215612de657600080fd5b843593506101a080601f1983011215612dfe57600080fd5b612e06612b6d565b9150612e1460208701612ce1565b8252604086013560208301526060860135604083015260808601356060830152612e4060a08701612cec565b608083015260c086013560a083015260e086013560c08301526101008087013560e084015261012080880135828501526101409150612e80828901612ce1565b818501525061016080880135828501526101809150612ea0828901612ce1565b9084015290860135908201529150612ebc856101c08601612d13565b90509250925092565b600080600060608486031215612eda57600080fd5b833592506020840135612eec81612ba5565b91506040840135612cc881612c69565b634e487b7160e01b600052603260045260246000fd5b8051612bc881612cd3565b805160068110612bc857600080fd5b8051600b8110612bc857600080fd5b8051612bc881612ba5565b8051612bc881612c69565b60006101a08284031215612f6457600080fd5b612f6c612b6d565b612f7583612f12565b81526020830151602082015260408301516040820152612f9760608401612f1d565b6060820152612fa860808401612f2c565b608082015260a083015160a0820152612fc360c08401612f3b565b60c0820152612fd460e08401612f46565b60e08201526101008381015190820152610120808401519082015261014080840151908201526101608084015190820152610180613013818501612f3b565b908201529392505050565b634e487b7160e01b600052602160045260246000fd5b634e487b7160e01b600052601160045260246000fd5b60006001820161305c5761305c613034565b5060010190565b6020808252601390820152721c1b185b995d081a5cc819195cdd1c9bde5959606a1b604082015260600190565b60208082526023908201527f74686973206172746966616374206973206e6f74206f6e207468697320706c616040820152621b995d60ea1b606082015260800190565b600481106130e3576130e361301e565b9052565b604081016130f582856130d3565b8260208301529392505050565b60006020828403121561311457600080fd5b612c9382612f2c565b6000821982111561313057613130613034565b500190565b60006020828403121561314757600080fd5b612c9382612f1d565b600681106130e3576130e361301e565b600b81106130e3576130e361301e565b600f81106130e3576130e361301e565b60006101008201905082518252602083015160018060a01b03808216602085015260408501516040850152606085015191506131bf6060850183613150565b608085015191506131d36080850183613160565b60a085015191506131e760a0850183613170565b8060c08601511660c08501528060e08601511660e0850152505092915050565b60006020828403121561321957600080fd5b8151612c9381612cd3565b60006020828403121561323657600080fd5b8151612c9381612ba5565b6001600160a01b039390931683526020830191909152604082015260600190565b8051151582526020810151602083015260408101516040830152606081015161328e6060840182613150565b5060808101516132a16080840182613160565b5060a081015160a083015260c08101516132c660c08401826001600160a01b03169052565b5060e08101516132d960e0840182613170565b506101008181015190830152610120808201519083015261014080820151908301526101608082015190830152610180908101516001600160a01b0316910152565b6101a08101610f888284613262565b600060a0828403121561333c57600080fd5b60405160a0810181811067ffffffffffffffff8211171561336d57634e487b7160e01b600052604160045260246000fd5b806040525082518152602083015160208201526040830151604082015260608301516060820152608083015160808201528091505092915050565b6000828210156133ba576133ba613034565b500390565b60208082526023908201527f676561722073686970206d7573742062652070726573656e74206f6e20706c616040820152621b995d60ea1b606082015260800190565b634e487b7160e01b600052601260045260246000fd5b60008261342757613427613402565b500690565b60008261343b5761343b613402565b500490565b8581526020810185905260a081016005851061345e5761345e61301e565b84604083015261347160608301856130d3565b8260808301529695505050505050565b8051612bc881612cfb565b60006101a0828403121561349f57600080fd5b6134a7612b6d565b6134b083612f3b565b81526020830151602082015260408301516040820152606083015160608201526080830151608082015260a083015160a082015260c083015160c082015260e083015160e082015261010080840151818301525061012080840151818301525061014080840151818301525061016061352a818501613481565b90820152610180613013848201612f12565b600081600019048311821515161561355657613556613034565b500290565b60208082526044908201527f6172746966616374206973206e6f7420706f77657266756c20656e6f7567682060408201527f746f206170706c792065666665637420746f207468697320706c616e6574206c606082015263195d995b60e21b608082015260a0019056fea26469706673582212207b1611685a3ea8b3f157d2194c6c4e0d6227316ef410ce0cde13d6c6285f6e2564736f6c634300080d0033",
    "sourcePath": "/Users/lele/Downloads/eth-master/contracts/libraries/LibArtifactUtils.sol",
    "compiler": {
        "name": "solc",
        "version": "0.8.13+commit.abaa5c0e"
    },
    "functionHashes": {
        "activateArtifact(uint256,uint256,uint256)": "9513a2ad",
        "checkFindArtifact(uint256,PlanetExtendedInfo,Planet)": "cc1612db",
        "containsGear(uint256)": "2e3fdd26",
        "createAndPlaceSpaceship(uint256,address,ArtifactType)": "fa96074f",
        "deactivateArtifact(uint256)": "c918aebd",
        "depositArtifact(uint256,uint256,address)": "a7d0cc30",
        "findArtifact(DFPFindArtifactArgs)": "76293ff1",
        "isSpaceship(ArtifactType)": "9bc1a452",
        "prospectPlanet(uint256)": "e76aa429",
        "withdrawArtifact(uint256,uint256)": "70e0f0ce"
    },
    "gasEstimates": {
        "creation": {
            "codeDepositCost": "2763800",
            "executionCost": "3043",
            "totalCost": "2766843"
        },
        "external": {
            "activateArtifact(uint256,uint256,uint256)": "infinite",
            "checkFindArtifact(uint256,PlanetExtendedInfo,Planet)": "infinite",
            "containsGear(uint256)": "infinite",
            "createAndPlaceSpaceship(uint256,address,ArtifactType)": "infinite",
            "deactivateArtifact(uint256)": "infinite",
            "depositArtifact(uint256,uint256,address)": "infinite",
            "findArtifact(DFPFindArtifactArgs)": "infinite",
            "isSpaceship(ArtifactType)": "514",
            "prospectPlanet(uint256)": "infinite",
            "withdrawArtifact(uint256,uint256)": "infinite"
        },
        "internal": {
            "activateNonSpaceshipArtifact(uint256,uint256,uint256,struct Planet storage pointer,struct Artifact memory)": "infinite",
            "activateSpaceshipArtifact(uint256,uint256,struct Planet storage pointer,struct Artifact storage pointer)": "infinite",
            "gameConstants()": "infinite",
            "gs()": "15"
        }
    }
}