{
    "contractName": "LibGameUtils",
    "abi": [
        {
            "inputs": [
                {
                    "internalType": "bytes",
                    "name": "_b",
                    "type": "bytes"
                },
                {
                    "internalType": "uint256",
                    "name": "_startByte",
                    "type": "uint256"
                },
                {
                    "internalType": "uint256",
                    "name": "_endByte",
                    "type": "uint256"
                }
            ],
            "name": "_calculateByteUInt",
            "outputs": [
                {
                    "internalType": "uint256",
                    "name": "_byteUInt",
                    "type": "uint256"
                }
            ],
            "stateMutability": "pure",
            "type": "function"
        },
        {
            "inputs": [
                {
                    "internalType": "uint256",
                    "name": "location",
                    "type": "uint256"
                },
                {
                    "internalType": "uint256",
                    "name": "level",
                    "type": "uint256"
                },
                {
                    "internalType": "enum PlanetType",
                    "name": "planetType",
                    "type": "PlanetType"
                },
                {
                    "internalType": "enum SpaceType",
                    "name": "spaceType",
                    "type": "SpaceType"
                },
                {
                    "internalType": "uint256",
                    "name": "TIME_FACTOR_HUNDREDTHS",
                    "type": "uint256"
                }
            ],
            "name": "_defaultPlanet",
            "outputs": [
                {
                    "components": [
                        {
                            "internalType": "address",
                            "name": "owner",
                            "type": "address"
                        },
                        {
                            "internalType": "uint256",
                            "name": "range",
                            "type": "uint256"
                        },
                        {
                            "internalType": "uint256",
                            "name": "speed",
                            "type": "uint256"
                        },
                        {
                            "internalType": "uint256",
                            "name": "defense",
                            "type": "uint256"
                        },
                        {
                            "internalType": "uint256",
                            "name": "population",
                            "type": "uint256"
                        },
                        {
                            "internalType": "uint256",
                            "name": "populationCap",
                            "type": "uint256"
                        },
                        {
                            "internalType": "uint256",
                            "name": "populationGrowth",
                            "type": "uint256"
                        },
                        {
                            "internalType": "uint256",
                            "name": "silverCap",
                            "type": "uint256"
                        },
                        {
                            "internalType": "uint256",
                            "name": "silverGrowth",
                            "type": "uint256"
                        },
                        {
                            "internalType": "uint256",
                            "name": "silver",
                            "type": "uint256"
                        },
                        {
                            "internalType": "uint256",
                            "name": "planetLevel",
                            "type": "uint256"
                        },
                        {
                            "internalType": "enum PlanetType",
                            "name": "planetType",
                            "type": "PlanetType"
                        },
                        {
                            "internalType": "bool",
                            "name": "isHomePlanet",
                            "type": "bool"
                        }
                    ],
                    "internalType": "struct Planet",
                    "name": "_planet",
                    "type": "tuple"
                }
            ],
            "stateMutability": "view",
            "type": "function"
        },
        {
            "inputs": [
                {
                    "internalType": "enum SpaceType",
                    "name": "spaceType",
                    "type": "SpaceType"
                },
                {
                    "internalType": "uint256",
                    "name": "biomebase",
                    "type": "uint256"
                }
            ],
            "name": "_getBiome",
            "outputs": [
                {
                    "internalType": "enum Biome",
                    "name": "",
                    "type": "Biome"
                }
            ],
            "stateMutability": "view",
            "type": "function"
        },
        {
            "inputs": [
                {
                    "internalType": "uint256",
                    "name": "_location",
                    "type": "uint256"
                },
                {
                    "internalType": "uint256",
                    "name": "_perlin",
                    "type": "uint256"
                }
            ],
            "name": "_getPlanetLevelTypeAndSpaceType",
            "outputs": [
                {
                    "internalType": "uint256",
                    "name": "",
                    "type": "uint256"
                },
                {
                    "internalType": "enum PlanetType",
                    "name": "",
                    "type": "PlanetType"
                },
                {
                    "internalType": "enum SpaceType",
                    "name": "",
                    "type": "SpaceType"
                }
            ],
            "stateMutability": "view",
            "type": "function"
        },
        {
            "inputs": [],
            "name": "_getRadius",
            "outputs": [
                {
                    "internalType": "uint256",
                    "name": "",
                    "type": "uint256"
                }
            ],
            "stateMutability": "view",
            "type": "function"
        },
        {
            "inputs": [
                {
                    "components": [
                        {
                            "internalType": "bool",
                            "name": "isInitialized",
                            "type": "bool"
                        },
                        {
                            "internalType": "uint256",
                            "name": "id",
                            "type": "uint256"
                        },
                        {
                            "internalType": "uint256",
                            "name": "planetDiscoveredOn",
                            "type": "uint256"
                        },
                        {
                            "internalType": "enum ArtifactRarity",
                            "name": "rarity",
                            "type": "ArtifactRarity"
                        },
                        {
                            "internalType": "enum Biome",
                            "name": "planetBiome",
                            "type": "Biome"
                        },
                        {
                            "internalType": "uint256",
                            "name": "mintedAtTimestamp",
                            "type": "uint256"
                        },
                        {
                            "internalType": "address",
                            "name": "discoverer",
                            "type": "address"
                        },
                        {
                            "internalType": "enum ArtifactType",
                            "name": "artifactType",
                            "type": "ArtifactType"
                        },
                        {
                            "internalType": "uint256",
                            "name": "activations",
                            "type": "uint256"
                        },
                        {
                            "internalType": "uint256",
                            "name": "lastActivated",
                            "type": "uint256"
                        },
                        {
                            "internalType": "uint256",
                            "name": "lastDeactivated",
                            "type": "uint256"
                        },
                        {
                            "internalType": "uint256",
                            "name": "wormholeTo",
                            "type": "uint256"
                        },
                        {
                            "internalType": "address",
                            "name": "controller",
                            "type": "address"
                        }
                    ],
                    "internalType": "struct Artifact",
                    "name": "artifact",
                    "type": "tuple"
                }
            ],
            "name": "_getUpgradeForArtifact",
            "outputs": [
                {
                    "components": [
                        {
                            "internalType": "uint256",
                            "name": "popCapMultiplier",
                            "type": "uint256"
                        },
                        {
                            "internalType": "uint256",
                            "name": "popGroMultiplier",
                            "type": "uint256"
                        },
                        {
                            "internalType": "uint256",
                            "name": "rangeMultiplier",
                            "type": "uint256"
                        },
                        {
                            "internalType": "uint256",
                            "name": "speedMultiplier",
                            "type": "uint256"
                        },
                        {
                            "internalType": "uint256",
                            "name": "defMultiplier",
                            "type": "uint256"
                        }
                    ],
                    "internalType": "struct Upgrade",
                    "name": "",
                    "type": "tuple"
                }
            ],
            "stateMutability": "pure",
            "type": "function"
        },
        {
            "inputs": [
                {
                    "internalType": "uint256",
                    "name": "_loc",
                    "type": "uint256"
                }
            ],
            "name": "_locationIdValid",
            "outputs": [
                {
                    "internalType": "bool",
                    "name": "",
                    "type": "bool"
                }
            ],
            "stateMutability": "view",
            "type": "function"
        },
        {
            "inputs": [],
            "name": "abandoningUpgrade",
            "outputs": [
                {
                    "components": [
                        {
                            "internalType": "uint256",
                            "name": "popCapMultiplier",
                            "type": "uint256"
                        },
                        {
                            "internalType": "uint256",
                            "name": "popGroMultiplier",
                            "type": "uint256"
                        },
                        {
                            "internalType": "uint256",
                            "name": "rangeMultiplier",
                            "type": "uint256"
                        },
                        {
                            "internalType": "uint256",
                            "name": "speedMultiplier",
                            "type": "uint256"
                        },
                        {
                            "internalType": "uint256",
                            "name": "defMultiplier",
                            "type": "uint256"
                        }
                    ],
                    "internalType": "struct Upgrade",
                    "name": "",
                    "type": "tuple"
                }
            ],
            "stateMutability": "view",
            "type": "function"
        },
        {
            "inputs": [
                {
                    "internalType": "uint256",
                    "name": "planetLevel",
                    "type": "uint256"
                }
            ],
            "name": "artifactRarityFromPlanetLevel",
            "outputs": [
                {
                    "internalType": "enum ArtifactRarity",
                    "name": "",
                    "type": "ArtifactRarity"
                }
            ],
            "stateMutability": "pure",
            "type": "function"
        },
        {
            "inputs": [
                {
                    "internalType": "uint256",
                    "name": "locationId",
                    "type": "uint256"
                },
                {
                    "internalType": "address",
                    "name": "sender",
                    "type": "address"
                }
            ],
            "name": "checkPlanetDOS",
            "outputs": [],
            "stateMutability": "view",
            "type": "function"
        },
        {
            "inputs": [],
            "name": "defaultUpgrade",
            "outputs": [
                {
                    "components": [
                        {
                            "internalType": "uint256",
                            "name": "popCapMultiplier",
                            "type": "uint256"
                        },
                        {
                            "internalType": "uint256",
                            "name": "popGroMultiplier",
                            "type": "uint256"
                        },
                        {
                            "internalType": "uint256",
                            "name": "rangeMultiplier",
                            "type": "uint256"
                        },
                        {
                            "internalType": "uint256",
                            "name": "speedMultiplier",
                            "type": "uint256"
                        },
                        {
                            "internalType": "uint256",
                            "name": "defMultiplier",
                            "type": "uint256"
                        }
                    ],
                    "internalType": "struct Upgrade",
                    "name": "",
                    "type": "tuple"
                }
            ],
            "stateMutability": "pure",
            "type": "function"
        },
        {
            "inputs": [
                {
                    "internalType": "uint256",
                    "name": "locationId",
                    "type": "uint256"
                }
            ],
            "name": "getActiveArtifact",
            "outputs": [
                {
                    "components": [
                        {
                            "internalType": "bool",
                            "name": "isInitialized",
                            "type": "bool"
                        },
                        {
                            "internalType": "uint256",
                            "name": "id",
                            "type": "uint256"
                        },
                        {
                            "internalType": "uint256",
                            "name": "planetDiscoveredOn",
                            "type": "uint256"
                        },
                        {
                            "internalType": "enum ArtifactRarity",
                            "name": "rarity",
                            "type": "ArtifactRarity"
                        },
                        {
                            "internalType": "enum Biome",
                            "name": "planetBiome",
                            "type": "Biome"
                        },
                        {
                            "internalType": "uint256",
                            "name": "mintedAtTimestamp",
                            "type": "uint256"
                        },
                        {
                            "internalType": "address",
                            "name": "discoverer",
                            "type": "address"
                        },
                        {
                            "internalType": "enum ArtifactType",
                            "name": "artifactType",
                            "type": "ArtifactType"
                        },
                        {
                            "internalType": "uint256",
                            "name": "activations",
                            "type": "uint256"
                        },
                        {
                            "internalType": "uint256",
                            "name": "lastActivated",
                            "type": "uint256"
                        },
                        {
                            "internalType": "uint256",
                            "name": "lastDeactivated",
                            "type": "uint256"
                        },
                        {
                            "internalType": "uint256",
                            "name": "wormholeTo",
                            "type": "uint256"
                        },
                        {
                            "internalType": "address",
                            "name": "controller",
                            "type": "address"
                        }
                    ],
                    "internalType": "struct Artifact",
                    "name": "",
                    "type": "tuple"
                }
            ],
            "stateMutability": "view",
            "type": "function"
        },
        {
            "inputs": [
                {
                    "internalType": "uint256",
                    "name": "locationId",
                    "type": "uint256"
                },
                {
                    "internalType": "uint256",
                    "name": "artifactId",
                    "type": "uint256"
                }
            ],
            "name": "getPlanetArtifact",
            "outputs": [
                {
                    "components": [
                        {
                            "internalType": "bool",
                            "name": "isInitialized",
                            "type": "bool"
                        },
                        {
                            "internalType": "uint256",
                            "name": "id",
                            "type": "uint256"
                        },
                        {
                            "internalType": "uint256",
                            "name": "planetDiscoveredOn",
                            "type": "uint256"
                        },
                        {
                            "internalType": "enum ArtifactRarity",
                            "name": "rarity",
                            "type": "ArtifactRarity"
                        },
                        {
                            "internalType": "enum Biome",
                            "name": "planetBiome",
                            "type": "Biome"
                        },
                        {
                            "internalType": "uint256",
                            "name": "mintedAtTimestamp",
                            "type": "uint256"
                        },
                        {
                            "internalType": "address",
                            "name": "discoverer",
                            "type": "address"
                        },
                        {
                            "internalType": "enum ArtifactType",
                            "name": "artifactType",
                            "type": "ArtifactType"
                        },
                        {
                            "internalType": "uint256",
                            "name": "activations",
                            "type": "uint256"
                        },
                        {
                            "internalType": "uint256",
                            "name": "lastActivated",
                            "type": "uint256"
                        },
                        {
                            "internalType": "uint256",
                            "name": "lastDeactivated",
                            "type": "uint256"
                        },
                        {
                            "internalType": "uint256",
                            "name": "wormholeTo",
                            "type": "uint256"
                        },
                        {
                            "internalType": "address",
                            "name": "controller",
                            "type": "address"
                        }
                    ],
                    "internalType": "struct Artifact",
                    "name": "",
                    "type": "tuple"
                }
            ],
            "stateMutability": "view",
            "type": "function"
        },
        {
            "inputs": [
                {
                    "components": [
                        {
                            "internalType": "address",
                            "name": "owner",
                            "type": "address"
                        },
                        {
                            "internalType": "uint256",
                            "name": "range",
                            "type": "uint256"
                        },
                        {
                            "internalType": "uint256",
                            "name": "speed",
                            "type": "uint256"
                        },
                        {
                            "internalType": "uint256",
                            "name": "defense",
                            "type": "uint256"
                        },
                        {
                            "internalType": "uint256",
                            "name": "population",
                            "type": "uint256"
                        },
                        {
                            "internalType": "uint256",
                            "name": "populationCap",
                            "type": "uint256"
                        },
                        {
                            "internalType": "uint256",
                            "name": "populationGrowth",
                            "type": "uint256"
                        },
                        {
                            "internalType": "uint256",
                            "name": "silverCap",
                            "type": "uint256"
                        },
                        {
                            "internalType": "uint256",
                            "name": "silverGrowth",
                            "type": "uint256"
                        },
                        {
                            "internalType": "uint256",
                            "name": "silver",
                            "type": "uint256"
                        },
                        {
                            "internalType": "uint256",
                            "name": "planetLevel",
                            "type": "uint256"
                        },
                        {
                            "internalType": "enum PlanetType",
                            "name": "planetType",
                            "type": "PlanetType"
                        },
                        {
                            "internalType": "bool",
                            "name": "isHomePlanet",
                            "type": "bool"
                        }
                    ],
                    "internalType": "struct Planet",
                    "name": "planet",
                    "type": "tuple"
                }
            ],
            "name": "getPlanetDefaultSpaceJunk",
            "outputs": [
                {
                    "internalType": "uint256",
                    "name": "",
                    "type": "uint256"
                }
            ],
            "stateMutability": "view",
            "type": "function"
        },
        {
            "inputs": [
                {
                    "components": [
                        {
                            "internalType": "bool",
                            "name": "isInitialized",
                            "type": "bool"
                        },
                        {
                            "internalType": "uint256",
                            "name": "id",
                            "type": "uint256"
                        },
                        {
                            "internalType": "uint256",
                            "name": "planetDiscoveredOn",
                            "type": "uint256"
                        },
                        {
                            "internalType": "enum ArtifactRarity",
                            "name": "rarity",
                            "type": "ArtifactRarity"
                        },
                        {
                            "internalType": "enum Biome",
                            "name": "planetBiome",
                            "type": "Biome"
                        },
                        {
                            "internalType": "uint256",
                            "name": "mintedAtTimestamp",
                            "type": "uint256"
                        },
                        {
                            "internalType": "address",
                            "name": "discoverer",
                            "type": "address"
                        },
                        {
                            "internalType": "enum ArtifactType",
                            "name": "artifactType",
                            "type": "ArtifactType"
                        },
                        {
                            "internalType": "uint256",
                            "name": "activations",
                            "type": "uint256"
                        },
                        {
                            "internalType": "uint256",
                            "name": "lastActivated",
                            "type": "uint256"
                        },
                        {
                            "internalType": "uint256",
                            "name": "lastDeactivated",
                            "type": "uint256"
                        },
                        {
                            "internalType": "uint256",
                            "name": "wormholeTo",
                            "type": "uint256"
                        },
                        {
                            "internalType": "address",
                            "name": "controller",
                            "type": "address"
                        }
                    ],
                    "internalType": "struct Artifact",
                    "name": "artifact",
                    "type": "tuple"
                }
            ],
            "name": "isActivated",
            "outputs": [
                {
                    "internalType": "bool",
                    "name": "",
                    "type": "bool"
                }
            ],
            "stateMutability": "pure",
            "type": "function"
        },
        {
            "inputs": [
                {
                    "internalType": "uint256",
                    "name": "_location",
                    "type": "uint256"
                }
            ],
            "name": "isDefBoost",
            "outputs": [
                {
                    "internalType": "bool",
                    "name": "",
                    "type": "bool"
                }
            ],
            "stateMutability": "pure",
            "type": "function"
        },
        {
            "inputs": [
                {
                    "internalType": "uint256",
                    "name": "_location",
                    "type": "uint256"
                }
            ],
            "name": "isHalfSpaceJunk",
            "outputs": [
                {
                    "internalType": "bool",
                    "name": "",
                    "type": "bool"
                }
            ],
            "stateMutability": "pure",
            "type": "function"
        },
        {
            "inputs": [
                {
                    "internalType": "uint256",
                    "name": "_location",
                    "type": "uint256"
                }
            ],
            "name": "isPopCapBoost",
            "outputs": [
                {
                    "internalType": "bool",
                    "name": "",
                    "type": "bool"
                }
            ],
            "stateMutability": "pure",
            "type": "function"
        },
        {
            "inputs": [
                {
                    "internalType": "uint256",
                    "name": "_location",
                    "type": "uint256"
                }
            ],
            "name": "isPopGroBoost",
            "outputs": [
                {
                    "internalType": "bool",
                    "name": "",
                    "type": "bool"
                }
            ],
            "stateMutability": "pure",
            "type": "function"
        },
        {
            "inputs": [
                {
                    "internalType": "uint256",
                    "name": "_location",
                    "type": "uint256"
                }
            ],
            "name": "isRangeBoost",
            "outputs": [
                {
                    "internalType": "bool",
                    "name": "",
                    "type": "bool"
                }
            ],
            "stateMutability": "pure",
            "type": "function"
        },
        {
            "inputs": [
                {
                    "internalType": "uint256",
                    "name": "_location",
                    "type": "uint256"
                }
            ],
            "name": "isSpeedBoost",
            "outputs": [
                {
                    "internalType": "bool",
                    "name": "",
                    "type": "bool"
                }
            ],
            "stateMutability": "pure",
            "type": "function"
        },
        {
            "inputs": [
                {
                    "internalType": "uint256[5]",
                    "name": "perlinFlags",
                    "type": "uint256[5]"
                },
                {
                    "internalType": "bool",
                    "name": "checkingBiome",
                    "type": "bool"
                }
            ],
            "name": "revertIfBadSnarkPerlinFlags",
            "outputs": [
                {
                    "internalType": "bool",
                    "name": "",
                    "type": "bool"
                }
            ],
            "stateMutability": "view",
            "type": "function"
        },
        {
            "inputs": [
                {
                    "internalType": "uint256",
                    "name": "perlin",
                    "type": "uint256"
                }
            ],
            "name": "spaceTypeFromPerlin",
            "outputs": [
                {
                    "internalType": "enum SpaceType",
                    "name": "",
                    "type": "SpaceType"
                }
            ],
            "stateMutability": "view",
            "type": "function"
        },
        {
            "inputs": [
                {
                    "components": [
                        {
                            "internalType": "bool",
                            "name": "isInitialized",
                            "type": "bool"
                        },
                        {
                            "internalType": "uint256",
                            "name": "id",
                            "type": "uint256"
                        },
                        {
                            "internalType": "uint256",
                            "name": "planetDiscoveredOn",
                            "type": "uint256"
                        },
                        {
                            "internalType": "enum ArtifactRarity",
                            "name": "rarity",
                            "type": "ArtifactRarity"
                        },
                        {
                            "internalType": "enum Biome",
                            "name": "planetBiome",
                            "type": "Biome"
                        },
                        {
                            "internalType": "uint256",
                            "name": "mintedAtTimestamp",
                            "type": "uint256"
                        },
                        {
                            "internalType": "address",
                            "name": "discoverer",
                            "type": "address"
                        },
                        {
                            "internalType": "enum ArtifactType",
                            "name": "artifactType",
                            "type": "ArtifactType"
                        },
                        {
                            "internalType": "uint256",
                            "name": "activations",
                            "type": "uint256"
                        },
                        {
                            "internalType": "uint256",
                            "name": "lastActivated",
                            "type": "uint256"
                        },
                        {
                            "internalType": "uint256",
                            "name": "lastDeactivated",
                            "type": "uint256"
                        },
                        {
                            "internalType": "uint256",
                            "name": "wormholeTo",
                            "type": "uint256"
                        },
                        {
                            "internalType": "address",
                            "name": "controller",
                            "type": "address"
                        }
                    ],
                    "internalType": "struct Artifact",
                    "name": "artifact",
                    "type": "tuple"
                }
            ],
            "name": "timeDelayUpgrade",
            "outputs": [
                {
                    "components": [
                        {
                            "internalType": "uint256",
                            "name": "popCapMultiplier",
                            "type": "uint256"
                        },
                        {
                            "internalType": "uint256",
                            "name": "popGroMultiplier",
                            "type": "uint256"
                        },
                        {
                            "internalType": "uint256",
                            "name": "rangeMultiplier",
                            "type": "uint256"
                        },
                        {
                            "internalType": "uint256",
                            "name": "speedMultiplier",
                            "type": "uint256"
                        },
                        {
                            "internalType": "uint256",
                            "name": "defMultiplier",
                            "type": "uint256"
                        }
                    ],
                    "internalType": "struct Upgrade",
                    "name": "",
                    "type": "tuple"
                }
            ],
            "stateMutability": "pure",
            "type": "function"
        }
    ],
    "bytecode": "61387061003a600b82828239805160001a60731461002d57634e487b7160e01b600052600060045260246000fd5b30600052607381538281f3fe73000000000000000000000000000000000000000030146080604052600436106101e45760003560e01c806392dd471c1161010e578063c4e6f909116100ac578063df830d1f1161007b578063df830d1f146104b8578063e83162c2146104c0578063eaae4653146104e0578063fb364ca2146104f557600080fd5b8063c4e6f9091461045f578063c8d503ea14610472578063ce3b576b14610485578063ddd286601461049857600080fd5b8063aaad4d37116100e8578063aaad4d3714610405578063b0c026391461040d578063b806b8591461042d578063bf194fb41461044c57600080fd5b806392dd471c146103bb5780639a07ea0d146103dd578063a2deac58146103e557600080fd5b80637308c818116101865780638d4decca116101555780638d4decca1461036057806390d6ddc2146103825780639160f2de1461039557806391e66a71146103a857600080fd5b80637308c818146102ec5780637e54ea1a1461030c5780637ed2b0e81461032c5780638265fa261461034d57600080fd5b806326c7e618116101c257806326c7e6181461028657806329fa32f7146102995780632ebe903f146102ac5780635256e190146102cc57600080fd5b8063019585da146101e957806314f65d3b146102115780631ec2b88614610231575b600080fd5b6101fc6101f7366004612d6f565b610508565b60405190151581526020015b60405180910390f35b61022461021f366004612da6565b610554565b6040516102089190612e1e565b61024461023f366004612fbb565b610bfa565b6040516102089190600060a082019050825182526020830151602083015260408301516040830152606083015160608301526080830151608083015292915050565b6101fc610294366004613088565b61129a565b6102446102a7366004612fbb565b611564565b6102bf6102ba366004612d6f565b61168d565b6040516102089190613125565b6102df6102da366004613133565b6116dc565b6040516102089190613175565b6102ff6102fa366004612d6f565b6117d2565b6040516102089190613248565b81801561031857600080fd5b506101fc610327366004613133565b61186d565b61033f61033a366004613256565b6118f7565b604051908152602001610208565b6101fc61035b366004612d6f565b611962565b61037361036e366004613133565b61199e565b604051610208939291906132fc565b6101fc610390366004612d6f565b611d89565b6101fc6103a3366004612d6f565b611dc5565b6101fc6103b6366004612d6f565b611e01565b8180156103c757600080fd5b506103db6103d636600461331d565b611e3d565b005b61033f611f18565b6103f86103f33660046133aa565b61201e565b60405161020891906133d4565b6102446120fa565b81801561041957600080fd5b506103db61042836600461331d565b612133565b6101fc61043b366004612fbb565b610120810151610140909101511090565b6103db61045a3660046133e2565b6121f5565b6102df61046d366004612d6f565b6123ed565b6101fc610480366004612d6f565b6124f2565b61033f610493366004613412565b612549565b8180156104a457600080fd5b506103db6104b3366004613133565b61259e565b610244612877565b8180156104cc57600080fd5b506103db6104db366004613133565b6128f9565b8180156104ec57600080fd5b506103db61293f565b6101fc610503366004612d6f565b612984565b6000808260405160200161051e91815260200190565b6040516020818303038152906040529050601081600d81518110610544576105446134c2565b016020015160f81c109392505050565b61055c612c2c565b60007fc8b32c67c130c3ffee82ae8b12efdcc4a3964d2cf86dd6ece89dca12a93c02448681548110610590576105906134c2565b600091825260208220600990910201915060038560038111156105b5576105b5612df4565b149050600060028660038111156105ce576105ce612df4565b149050600060018760038111156105e7576105e7612df4565b6000875261014087018b905260018087015460a0890152600287015460c0890152600387015460208901526004870154604089015260058701546060890152600787015460e08901529114915088600481111561064657610646612df4565b036106575760068401546101008601525b6106608a611d89565b1561067c5760028560a00181815161067891906134ee565b9052505b6106858a611e01565b156106a15760028560c00181815161069d91906134ee565b9052505b6106aa8a611962565b156106c6576002856020018181516106c291906134ee565b9052505b6106cf8a612984565b156106eb576002856040018181516106e791906134ee565b9052505b6106f48a610508565b156107105760028560600181815161070c91906134ee565b9052505b82156107bd5760208501516107269060026134ee565b6020860152604085015161073b9060026134ee565b604086015260a08501516107509060026134ee565b60a086015260c08501516107659060026134ee565b60c086015260e085015161077a9060026134ee565b60e08601526101008501516107909060026134ee565b61010086015260608501516014906107a99060036134ee565b6107b39190613523565b606086015261098d565b81156108a2576002856020015160036107d691906134ee565b6107e09190613523565b602086015260408501516002906107f89060036134ee565b6108029190613523565b604086015260a085015160029061081a9060036134ee565b6108249190613523565b60a086015260c085015160029061083c9060036134ee565b6108469190613523565b60c086015260e085015160029061085e9060036134ee565b6108689190613523565b60e08601526101008501516002906108819060036134ee565b61088b9190613523565b61010086015260608501516107b390600490613523565b801561098d576004856020015160056108bb91906134ee565b6108c59190613523565b602086015260408501516004906108dd9060056134ee565b6108e79190613523565b604086015260a08501516004906108ff9060056134ee565b6109099190613523565b60a086015260c08501516004906109219060056134ee565b61092b9190613523565b60c086015260e08501516004906109439060056134ee565b61094d9190613523565b60e08601526101008501516004906109669060056134ee565b6109709190613523565b610100860152606085015161098790600290613523565b60608601525b61016085018860048111156109a4576109a4612df4565b908160048111156109b7576109b7612df4565b90525060018860048111156109ce576109ce612df4565b03610a065760028560e0018181516109e691906134ee565b905250606085018051600291906109fe908390613523565b905250610ab1565b6004886004811115610a1a57610a1a612df4565b03610a6957600285604001818151610a329190613523565b90525060e085018051600a9190610a4a9083906134ee565b905250600060c086015260a085018051600591906109fe9083906134ee565b6003886004811115610a7d57610a7d612df4565b03610ab157600285606001818151610a959190613523565b90525060e08501805160029190610aad9083906134ee565b9052505b606484600801548660a00151610ac791906134ee565b610ad19190613523565b60808601528215610af757601485608001818151610aef91906134ee565b905250610b2d565b8115610b1057600a85608001818151610aef91906134ee565b8015610b2d57600485608001818151610b2991906134ee565b9052505b6004886004811115610b4157610b41612df4565b03610b5d57600285608001818151610b599190613523565b9052505b6001886004811115610b7157610b71612df4565b03610b8e5760028560e00151610b879190613523565b6101208601525b610b99606487613523565b85604001818151610baa91906134ee565b905250610bb8606487613523565b8560c001818151610bc991906134ee565b905250610bd7606487613523565b8561010001818151610be991906134ee565b905250939998505050505050505050565b610c02612cae565b60068260e00151600e811115610c1a57610c1a612df4565b03610cb55760006040518060c00160405280606481526020016096815260200160c8815260200161012c81526020016101c2815260200161028a81525090506040518060a00160405280606481526020016064815260200160148152602001601481526020018285606001516005811115610c9757610c97612df4565b60068110610ca757610ca76134c2565b602002015190529392505050565b60078260e00151600e811115610ccd57610ccd612df4565b03610d475760006040518060c00160405280606481526020016032815260200160288152602001601e815260200160148152602001600a81525090506040518060a00160405280606481526020016064815260200160648152602001606481526020018285606001516005811115610c9757610c97612df4565b60058260e00151600e811115610d5f57610d5f612df4565b10610d97576040518060a001604052806064815260200160648152602001606481526020016064815260200160648152509050919050565b6040805160a08101825260648082526020820181905291810182905260608101829052608081019190915260018360e00151600e811115610dda57610dda612df4565b03610e1257600581600001818151610df29190613545565b90525060208101805160059190610e0a908390613545565b905250610ea6565b60028360e00151600e811115610e2a57610e2a612df4565b03610e4257600581606001818151610e0a9190613545565b60038360e00151600e811115610e5a57610e5a612df4565b03610e7257600581604001818151610e0a9190613545565b60048360e00151600e811115610e8a57610e8a612df4565b03610ea657600581608001818151610ea29190613545565b9052505b60018360800151600a811115610ebe57610ebe612df4565b03610ef657600581606001818151610ed69190613545565b90525060808101805160059190610eee908390613545565b905250611164565b60028360800151600a811115610f0e57610f0e612df4565b03610f5357600581608001818151610f269190613545565b90525080516005908290610f3b908390613545565b90525060208101805160059190610eee908390613545565b60038360800151600a811115610f6b57610f6b612df4565b03610fb357600581600001818151610f839190613545565b90525060208101805160059190610f9b908390613545565b90525060408101805160059190610eee908390613545565b60048360800151600a811115610fcb57610fcb612df4565b03610fe357600581608001818151610f9b9190613545565b60058360800151600a811115610ffb57610ffb612df4565b0361101357600581606001818151610f9b9190613545565b60068360800151600a81111561102b5761102b612df4565b0361104357600a81606001818151610eee9190613545565b60078360800151600a81111561105b5761105b612df4565b0361107357600a81604001818151610eee9190613545565b60088360800151600a81111561108b5761108b612df4565b036110a357600a81608001818151610eee9190613545565b60098360800151600a8111156110bb576110bb612df4565b036110eb57600a816000018181516110d39190613545565b905250602081018051600a9190610eee908390613545565b600a8360800151600a81111561110357611103612df4565b036111645760058160400181815161111b9190613545565b90525060608101805160059190611133908390613545565b90525080516005908290611148908390613545565b90525060208101805160059190611160908390613545565b9052505b600060028460600151600581111561117e5761117e612df4565b6111889190613523565b611193906001613545565b90506111a060018261355d565b6111ab9060646134ee565b82516111b790836134ee565b6111c1919061355d565b82526111ce60018261355d565b6111d99060646134ee565b60208301516111e890836134ee565b6111f2919061355d565b602083015261120260018261355d565b61120d9060646134ee565b606083015161121c90836134ee565b611226919061355d565b606083015261123660018261355d565b6112419060646134ee565b604083015161125090836134ee565b61125a919061355d565b604083015261126a60018261355d565b6112759060646134ee565b608083015161128490836134ee565b61128e919061355d565b60808301525092915050565b7f2849cb27302bb32c0c7252ab45487d42296bcddad804f932e0b0589e515a9375548251600091146113135760405162461bcd60e51b815260206004820152601760248201527f62616420706c616e657468617368206d696d63206b657900000000000000000060448201526064015b60405180910390fd5b811561138b577f2849cb27302bb32c0c7252ab45487d42296bcddad804f932e0b0589e515a9377546020840151146113865760405162461bcd60e51b815260206004820152601660248201527562616420737061636574797065206d696d63206b657960501b604482015260640161130a565b6113f8565b7f2849cb27302bb32c0c7252ab45487d42296bcddad804f932e0b0589e515a9376546020840151146113f85760405162461bcd60e51b815260206004820152601660248201527562616420737061636574797065206d696d63206b657960501b604482015260640161130a565b7f2849cb27302bb32c0c7252ab45487d42296bcddad804f932e0b0589e515a93795460408401511461146c5760405162461bcd60e51b815260206004820152601760248201527f626164207065726c696e206c656e677468207363616c65000000000000000000604482015260640161130a565b7f2849cb27302bb32c0c7252ab45487d42296bcddad804f932e0b0589e515a937854606084015160011460ff9091161515146114e05760405162461bcd60e51b81526020600482015260136024820152720c4c2c840e0cae4d8d2dc40dad2e4e4dee440f606b1b604482015260640161130a565b7f2849cb27302bb32c0c7252ab45487d42296bcddad804f932e0b0589e515a937854608084015161010090910460ff16151560019091141461155a5760405162461bcd60e51b8152602060048201526013602482015272626164207065726c696e206d6972726f72207960681b604482015260640161130a565b5060015b92915050565b61156c612cae565b60078260e00151600e81111561158457611584612df4565b036116855760006040518060c001604052806064815260200160c8815260200160c8815260200160c8815260200160c8815260200160c8815250905060006040518060c00160405280606481526020016101f481526020016103e881526020016105dc81526020016107d081526020016109c481525090506040518060a001604052806064815260200160648152602001838660600151600581111561162c5761162c612df4565b6006811061163c5761163c6134c2565b60200201518152602001828660600151600581111561165d5761165d612df4565b6006811061166d5761166d6134c2565b60200201518152602001606481525092505050919050565b61155e6120fa565b60006001821161169f57506001919050565b600382116116af57506002919050565b600582116116bf57506003919050565b600782116116cf57506004919050565b506005919050565b919050565b6116e4612cdd565b60005b6116ef6129c0565b600085815260159190910160205260409020548110156117c257826117126129c0565b60150160008681526020019081526020016000208281548110611737576117376134c2565b9060005260206000200154036117b0576040516321196b5160e21b8152600481018490523090638465ad44906024016101a060405180830381865afa158015611784573d6000803e3d6000fd5b505050506040513d601f19601f820116820180604052508101906117a891906135ab565b91505061155e565b806117ba8161366d565b9150506116e7565b506117cb6129e4565b9392505050565b7f5fb65bb339c6bd3f2609a7342e6cb046e09f3e40f45242a5971904b021b5bb5954600090821061180557506003919050565b7f5fb65bb339c6bd3f2609a7342e6cb046e09f3e40f45242a5971904b021b5bb5854821061183557506002919050565b7f5fb65bb339c6bd3f2609a7342e6cb046e09f3e40f45242a5971904b021b5bb5754821061186557506001919050565b506000919050565b6000805b6118796129c0565b600085815260159190910160205260409020548110156118ed578261189c6129c0565b601501600086815260200190815260200160002082815481106118c1576118c16134c2565b9060005260206000200154036118db57600191505061155e565b806118e58161366d565b915050611871565b5060009392505050565b6000825b82811161195a5761190c818461355d565b6119189061010061376a565b85828151811061192a5761192a6134c2565b016020015161193c919060f81c6134ee565b6119469083613545565b9150806119528161366d565b9150506118fb565b509392505050565b6000808260405160200161197891815260200190565b6040516020818303038152906040529050601081600b81518110610544576105446134c2565b6000806000806119ad856117d2565b90506000866040516020016119c491815260200190565b604051602081830303815290604052905060006119e482600460066118f7565b905060008060016119f36129c0565b60030154611a01919061355d565b90505b611a0c6129c0565b6003018181548110611a2057611a206134c2565b9060005260206000200154831015611a3a57809150611a4c565b80611a4481613776565b915050611a04565b506000846003811115611a6157611a61612df4565b148015611a6e5750600481115b15611a77575060045b6001846003811115611a8b57611a8b612df4565b148015611a985750600581115b15611aa1575060055b7f5fb65bb339c6bd3f2609a7342e6cb046e09f3e40f45242a5971904b021b5bb5554811115611aee57507f5fb65bb339c6bd3f2609a7342e6cb046e09f3e40f45242a5971904b021b5bb55545b6000807f5fb65bb339c6bd3f2609a7342e6cb046e09f3e40f45242a5971904b021b5bb6d866003811115611b2457611b24612df4565b60ff1660048110611b3757611b376134c2565b600a020183600a8110611b4c57611b4c6134c2565b6040805160a0810191829052929190910190600590826000855b825461010083900a900460ff16815260206001928301818104948501949093039092029101808411611b6657905050505050509050611ba3612d51565b6000805b60058160ff161015611bee57838160ff1660058110611bc857611bc86134c2565b6020020151611bda9060ff1683613545565b915080611be68161378d565b915050611ba7565b508251611bfe9060ff168261355d565b825260015b60058160ff161015611c8657838160ff1660058110611c2457611c246134c2565b602002015160ff1683611c386001846137ac565b60ff1660058110611c4b57611c4b6134c2565b6020020151611c5a919061355d565b838260ff1660058110611c6f57611c6f6134c2565b602002015280611c7e8161378d565b915050611c03565b5060005b60058160ff161015611cf35781838260ff1660058110611cac57611cac6134c2565b6020020151611cbd906101006134ee565b611cc79190613523565b838260ff1660058110611cdc57611cdc6134c2565b602002015280611ceb8161378d565b915050611c8a565b5050600086600881518110611d0a57611d0a6134c2565b016020015160f81c905060005b60058160ff161015611d7457828160ff1660058110611d3857611d386134c2565b60200201518260ff1610611d62578060ff166004811115611d5b57611d5b612df4565b9450611d74565b80611d6c8161378d565b915050611d17565b50939c929b5095995090975050505050505050565b60008082604051602001611d9f91815260200190565b6040516020818303038152906040529050601081600981518110610544576105446134c2565b60008082604051602001611ddb91815260200190565b6040516020818303038152906040529050601081600e81518110610544576105446134c2565b60008082604051602001611e1791815260200190565b6040516020818303038152906040529050601081600a81518110610544576105446134c2565b6000611e476129c0565b6000848152600c919091016020526040902082516005820154919250606491611e7091906134ee565b611e7a9190613523565b600582015560208201516006820154606491611e95916134ee565b611e9f9190613523565b600682015560408201516001820154606491611eba916134ee565b611ec49190613523565b600182015560608201516002820154606491611edf916134ee565b611ee99190613523565b600282015560808201516003820154606491611f04916134ee565b611f0e9190613523565b6003909101555050565b600080611f236129c0565b600801547f5fb65bb339c6bd3f2609a7342e6cb046e09f3e40f45242a5971904b021b5bb54549091506000611f598360146134ee565b611f616129c0565b600501600481548110611f7657611f766134c2565b9060005260206000200154611f8b9190613545565b9050600061013a611f9a6129c0565b600401600481548110611faf57611faf6134c2565b906000526020600020015483611fc591906134ee565b611fd09060646134ee565b611fda9190613523565b90506000611ff7611ff2611fed84612a62565b612a80565b612aa2565b67ffffffffffffffff16905083811015612015575091949350505050565b95945050505050565b6000600383600381111561203457612034612df4565b036120415750600a61155e565b600083600381111561205557612055612df4565b6120609060036134ee565b7f5fb65bb339c6bd3f2609a7342e6cb046e09f3e40f45242a5971904b021b5bb5d5490915083101561209e57612097600182613545565b90506120e0565b7f5fb65bb339c6bd3f2609a7342e6cb046e09f3e40f45242a5971904b021b5bb5e548310156120d257612097600282613545565b6120dd600382613545565b90505b80600a8111156120f2576120f2612df4565b949350505050565b612102612cae565b6040518060a00160405280606481526020016064815260200160648152602001606481526020016064815250905090565b600061213d6129c0565b6000848152600c919091016020526040902082516005820154919250906121659060646134ee565b61216f9190613523565b6005820155602082015160068201546121899060646134ee565b6121939190613523565b6006820155604082015160018201546121ad9060646134ee565b6121b79190613523565b6001820155606082015160028201546121d19060646134ee565b6121db9190613523565b600282015560808201516003820154611f049060646134ee565b60008060005b6122036129c0565b6000868152601391909101602052604090205460ff8216101561234157600061222a6129c0565b60130160008781526020019081526020016000208260ff1681548110612252576122526134c2565b600091825260209091206001600490920201015460ff16801561227757612277612df4565b0361232f576122846129c0565b6000868152600c9190910160205260409020546001600160a01b03166122a86129c0565b60140160006122b56129c0565b60130160008981526020019081526020016000208460ff16815481106122dd576122dd6134c2565b6000918252602080832060049092029091015483528201929092526040019020600101546001600160a01b03160361232157826123198161378d565b93505061232f565b8161232b8161378d565b9250505b806123398161378d565b9150506121fb565b5061234a6129c0565b6000858152600c9190910160205260409020546001600160a01b03908116908416036123985760068260ff16106123935760405162461bcd60e51b815260040161130a906137cf565b6123bb565b60068160ff16106123bb5760405162461bcd60e51b815260040161130a906137cf565b600c6123c782846137ff565b60ff16106123e75760405162461bcd60e51b815260040161130a906137cf565b50505050565b6123f5612cdd565b60005b6124006129c0565b600084815260159190910160205260409020548110156124e957600030638465ad4461242a6129c0565b6015016000878152602001908152602001600020848154811061244f5761244f6134c2565b90600052602060002001546040518263ffffffff1660e01b815260040161247891815260200190565b6101a060405180830381865afa158015612496573d6000803e3d6000fd5b505050506040513d601f19601f820116820180604052508101906124ba91906135ab565b61012081015161014082015191925011156124d6579392505050565b50806124e18161366d565b9150506123f8565b5061155e6129e4565b7f5fb65bb339c6bd3f2609a7342e6cb046e09f3e40f45242a5971904b021b5bb6954600090612541907f30644e72e131a029b85045b68181585d2833e84879b9709143e1f593f0000001613523565b909110919050565b60008161018001511561255e57506000919050565b6101408201517f5fb65bb339c6bd3f2609a7342e6cb046e09f3e40f45242a5971904b021b5bb9e90600a8110612596576125966134c2565b015492915050565b60006125a86129c0565b600083815260159190910160205260408120549150805b828110156127b257846125d06129c0565b601501600086815260200190815260200160002082815481106125f5576125f56134c2565b9060005260206000200154036127a057600030638465ad446126156129c0565b6015016000888152602001908152602001600020848154811061263a5761263a6134c2565b90600052602060002001546040518263ffffffff1660e01b815260040161266391815260200190565b6101a060405180830381865afa158015612681573d6000803e3d6000fd5b505050506040513d601f19601f820116820180604052508101906126a591906135ab565b610120810151610140820151919250111561271d5760405162461bcd60e51b815260206004820152603260248201527f796f752063616e6e6f742074616b6520616e20616374697661746564206172746044820152711a599858dd081bd9998818481c1b185b995d60721b606482015260840161130a565b6127256129c0565b60008681526015919091016020526040902061274260018661355d565b81548110612752576127526134c2565b90600052602060002001546127656129c0565b6015016000878152602001908152602001600020838154811061278a5761278a6134c2565b60009182526020909120015550600191506127b2565b806127aa8161366d565b9150506125bf565b50806128155760405162461bcd60e51b815260206004820152602c60248201527f7468697320617274696661637420776173206e6f742070726573656e74206f6e60448201526b081d1a1a5cc81c1b185b995d60a21b606482015260840161130a565b600061281f6129c0565b6000868152601091909101602052604090205561283a6129c0565b60008481526015919091016020526040902080548061285b5761285b613824565b6001900381819060005260206000200160009055905550505050565b61287f612cae565b6040518060a0016040528060648152602001606481526020016128bf7f5fb65bb339c6bd3f2609a7342e6cb046e09f3e40f45242a5971904b021b5bb5390565b6056015481527f5fb65bb339c6bd3f2609a7342e6cb046e09f3e40f45242a5971904b021b5bba85460208201526064604090910152919050565b806129026129c0565b6000848152601091909101602052604090205561291d6129c0565b6000918252601501602090815260408220805460018101825590835291200155565b7f5fb65bb339c6bd3f2609a7342e6cb046e09f3e40f45242a5971904b021b5bb5354610100900460ff1661298257612975611f18565b61297d6129c0565b600901555b565b6000808260405160200161299a91815260200190565b6040516020818303038152906040529050601081600c81518110610544576105446134c2565b7fcb7f1a525606efcbba7baaf9b0b55c468d0fd558cbf767967f538834dfa1232e90565b6129ec612cdd565b604080516101a0810182526000808252602082018190529181018290529060608201908152602001600081526000602082018190526040820181905260609091019081526020016000815260200160008152602001600081526020016000815260200160006001600160a01b0316815250905090565b6000677fffffffffffffff821115612a7957600080fd5b5060401b90565b60008082600f0b1215612a9257600080fd5b61155e604083600f0b901b612abe565b60008082600f0b1215612ab457600080fd5b50600f0b60401d90565b600081600003612ad057506000919050565b816001600160801b8210612ae95760809190911c9060401b5b680100000000000000008210612b045760409190911c9060201b5b6401000000008210612b1b5760209190911c9060101b5b620100008210612b305760109190911c9060081b5b6101008210612b445760089190911c9060041b5b60108210612b575760049190911c9060021b5b60088210612b635760011b5b6001818581612b7457612b7461350d565b048201901c90506001818581612b8c57612b8c61350d565b048201901c90506001818581612ba457612ba461350d565b048201901c90506001818581612bbc57612bbc61350d565b048201901c90506001818581612bd457612bd461350d565b048201901c90506001818581612bec57612bec61350d565b048201901c90506001818581612c0457612c0461350d565b048201901c90506000818581612c1c57612c1c61350d565b04905080821061195a5780612015565b604051806101a0016040528060006001600160a01b031681526020016000815260200160008152602001600081526020016000815260200160008152602001600081526020016000815260200160008152602001600081526020016000815260200160006004811115612ca157612ca1612df4565b8152600060209091015290565b6040518060a0016040528060008152602001600081526020016000815260200160008152602001600081525090565b604080516101a0810182526000808252602082018190529181018290529060608201908152602001600081526000602082018190526040820181905260609091019081526020016000815260200160008152602001600081526020016000815260200160006001600160a01b031681525090565b6040518060a001604052806005906020820280368337509192915050565b600060208284031215612d8157600080fd5b5035919050565b8035600581106116d757600080fd5b8035600481106116d757600080fd5b600080600080600060a08688031215612dbe57600080fd5b8535945060208601359350612dd560408701612d88565b9250612de360608701612d97565b949793965091946080013592915050565b634e487b7160e01b600052602160045260246000fd5b60058110612e1a57612e1a612df4565b9052565b81516001600160a01b031681526101a081016020830151602083015260408301516040830152606083015160608301526080830151608083015260a083015160a083015260c083015160c083015260e083015160e083015261010080840151818401525061012080840151818401525061014080840151818401525061016080840151612ead82850182612e0a565b505061018083810151801515848301525b505092915050565b634e487b7160e01b600052604160045260246000fd5b6040516101a0810167ffffffffffffffff81118282101715612f0057612f00612ec6565b60405290565b604051601f8201601f1916810167ffffffffffffffff81118282101715612f2f57612f2f612ec6565b604052919050565b8015158114612f4557600080fd5b50565b80356116d781612f37565b60068110612f4557600080fd5b80356116d781612f53565b600b8110612f4557600080fd5b80356116d781612f6b565b6001600160a01b0381168114612f4557600080fd5b80356116d781612f83565b600f8110612f4557600080fd5b80356116d781612fa3565b60006101a08284031215612fce57600080fd5b612fd6612edc565b612fdf83612f48565b8152602083013560208201526040830135604082015261300160608401612f60565b606082015261301260808401612f78565b608082015260a083013560a082015261302d60c08401612f98565b60c082015261303e60e08401612fb0565b60e0820152610100838101359082015261012080840135908201526101408084013590820152610160808401359082015261018061307d818501612f98565b908201529392505050565b60008060c0838503121561309b57600080fd5b83601f8401126130aa57600080fd5b60405160a0810181811067ffffffffffffffff821117156130cd576130cd612ec6565b6040528060a08501868111156130e257600080fd5b855b818110156130fc5780358352602092830192016130e4565b5082945061310981612f48565b93505050509250929050565b60068110612e1a57612e1a612df4565b6020810161155e8284613115565b6000806040838503121561314657600080fd5b50508035926020909101359150565b600b8110612e1a57612e1a612df4565b600f8110612e1a57612e1a612df4565b8151151581526101a08101602083015160208301526040830151604083015260608301516131a66060840182613115565b5060808301516131b96080840182613155565b5060a083015160a083015260c08301516131de60c08401826001600160a01b03169052565b5060e08301516131f160e0840182613165565b506101008381015190830152610120808401519083015261014080840151908301526101608084015190830152610180808401516001600160a01b03811682850152612ebe565b60048110612e1a57612e1a612df4565b6020810161155e8284613238565b60008060006060848603121561326b57600080fd5b833567ffffffffffffffff8082111561328357600080fd5b818601915086601f83011261329757600080fd5b81356020828211156132ab576132ab612ec6565b6132bd601f8301601f19168201612f06565b925081835288818386010111156132d357600080fd5b818185018285013760009183018101919091529097908601359650604090950135949350505050565b838152606081016133106020830185612e0a565b6120f26040830184613238565b60008082840360c081121561333157600080fd5b8335925060a0601f198201121561334757600080fd5b5060405160a0810181811067ffffffffffffffff8211171561336b5761336b612ec6565b80604052506020840135815260408401356020820152606084013560408201526080840135606082015260a08401356080820152809150509250929050565b600080604083850312156133bd57600080fd5b6133c683612d97565b946020939093013593505050565b6020810161155e8284613155565b600080604083850312156133f557600080fd5b82359150602083013561340781612f83565b809150509250929050565b60006101a0828403121561342557600080fd5b61342d612edc565b61343683612f98565b81526020830135602082015260408301356040820152606083013560608201526080830135608082015260a083013560a082015260c083013560c082015260e083013560e08201526101008084013581830152506101208084013581830152506101408084013581830152506101606134b0818501612d88565b9082015261018061307d848201612f48565b634e487b7160e01b600052603260045260246000fd5b634e487b7160e01b600052601160045260246000fd5b6000816000190483118215151615613508576135086134d8565b500290565b634e487b7160e01b600052601260045260246000fd5b60008261354057634e487b7160e01b600052601260045260246000fd5b500490565b60008219821115613558576135586134d8565b500190565b60008282101561356f5761356f6134d8565b500390565b80516116d781612f37565b80516116d781612f53565b80516116d781612f6b565b80516116d781612f83565b80516116d781612fa3565b60006101a082840312156135be57600080fd5b6135c6612edc565b6135cf83613574565b815260208301516020820152604083015160408201526135f16060840161357f565b60608201526136026080840161358a565b608082015260a083015160a082015261361d60c08401613595565b60c082015261362e60e084016135a0565b60e0820152610100838101519082015261012080840151908201526101408084015190820152610160808401519082015261018061307d818501613595565b60006001820161367f5761367f6134d8565b5060010190565b600181815b808511156136c15781600019048211156136a7576136a76134d8565b808516156136b457918102915b93841c939080029061368b565b509250929050565b6000826136d85750600161155e565b816136e55750600061155e565b81600181146136fb576002811461370557613721565b600191505061155e565b60ff841115613716576137166134d8565b50506001821b61155e565b5060208310610133831016604e8410600b8410161715613744575081810a61155e565b61374e8383613686565b8060001904821115613762576137626134d8565b029392505050565b60006117cb83836136c9565b600081613785576137856134d8565b506000190190565b600060ff821660ff81036137a3576137a36134d8565b60010192915050565b600060ff821660ff8416808210156137c6576137c66134d8565b90039392505050565b602080825260169082015275141b185b995d081a5cc81c985d194b5b1a5b5a5d195960521b604082015260600190565b600060ff821660ff84168060ff0382111561381c5761381c6134d8565b019392505050565b634e487b7160e01b600052603160045260246000fdfea26469706673582212206bf304f57aaefa4c5831bf2a840b97204e8cc97e844d5dace95a51f022d3345c64736f6c634300080d0033",
    "sourcePath": "/Users/lele/Downloads/eth-master/contracts/libraries/LibGameUtils.sol",
    "compiler": {
        "name": "solc",
        "version": "0.8.13+commit.abaa5c0e"
    },
    "functionHashes": {
        "_buffPlanet(uint256,Upgrade)": "92dd471c",
        "_calculateByteUInt(bytes,uint256,uint256)": "7ed2b0e8",
        "_debuffPlanet(uint256,Upgrade)": "b0c02639",
        "_defaultPlanet(uint256,uint256,PlanetType,SpaceType,uint256)": "14f65d3b",
        "_getBiome(SpaceType,uint256)": "a2deac58",
        "_getPlanetLevelTypeAndSpaceType(uint256,uint256)": "8d4decca",
        "_getRadius()": "9a07ea0d",
        "_getUpgradeForArtifact(Artifact)": "1ec2b886",
        "_locationIdValid(uint256)": "c8d503ea",
        "_putArtifactOnPlanet(uint256,uint256)": "e83162c2",
        "_takeArtifactOffPlanet(uint256,uint256)": "ddd28660",
        "abandoningUpgrade()": "df830d1f",
        "artifactRarityFromPlanetLevel(uint256)": "2ebe903f",
        "checkPlanetDOS(uint256,address)": "bf194fb4",
        "defaultUpgrade()": "aaad4d37",
        "getActiveArtifact(uint256)": "c4e6f909",
        "getPlanetArtifact(uint256,uint256)": "5256e190",
        "getPlanetDefaultSpaceJunk(Planet)": "ce3b576b",
        "isActivated(Artifact)": "b806b859",
        "isArtifactOnPlanet(uint256,uint256)": "7e54ea1a",
        "isDefBoost(uint256)": "019585da",
        "isHalfSpaceJunk(uint256)": "9160f2de",
        "isPopCapBoost(uint256)": "90d6ddc2",
        "isPopGroBoost(uint256)": "91e66a71",
        "isRangeBoost(uint256)": "8265fa26",
        "isSpeedBoost(uint256)": "fb364ca2",
        "revertIfBadSnarkPerlinFlags(uint256[5],bool)": "26c7e618",
        "spaceTypeFromPerlin(uint256)": "7308c818",
        "timeDelayUpgrade(Artifact)": "29fa32f7",
        "updateWorldRadius()": "eaae4653"
    },
    "gasEstimates": {
        "creation": {
            "codeDepositCost": "2889600",
            "executionCost": "3193",
            "totalCost": "2892793"
        },
        "external": {
            "_buffPlanet(uint256,Upgrade)": "infinite",
            "_calculateByteUInt(bytes,uint256,uint256)": "infinite",
            "_debuffPlanet(uint256,Upgrade)": "infinite",
            "_defaultPlanet(uint256,uint256,PlanetType,SpaceType,uint256)": "infinite",
            "_getBiome(SpaceType,uint256)": "5082",
            "_getPlanetLevelTypeAndSpaceType(uint256,uint256)": "infinite",
            "_getRadius()": "infinite",
            "_getUpgradeForArtifact(Artifact)": "infinite",
            "_locationIdValid(uint256)": "2510",
            "_putArtifactOnPlanet(uint256,uint256)": "infinite",
            "_takeArtifactOffPlanet(uint256,uint256)": "infinite",
            "abandoningUpgrade()": "4844",
            "artifactRarityFromPlanetLevel(uint256)": "541",
            "checkPlanetDOS(uint256,address)": "infinite",
            "defaultUpgrade()": "623",
            "getActiveArtifact(uint256)": "infinite",
            "getPlanetArtifact(uint256,uint256)": "infinite",
            "getPlanetDefaultSpaceJunk(Planet)": "infinite",
            "isActivated(Artifact)": "infinite",
            "isArtifactOnPlanet(uint256,uint256)": "infinite",
            "isDefBoost(uint256)": "470",
            "isHalfSpaceJunk(uint256)": "512",
            "isPopCapBoost(uint256)": "490",
            "isPopGroBoost(uint256)": "534",
            "isRangeBoost(uint256)": "535",
            "isSpeedBoost(uint256)": "533",
            "revertIfBadSnarkPerlinFlags(uint256[5],bool)": "infinite",
            "spaceTypeFromPerlin(uint256)": "6777",
            "timeDelayUpgrade(Artifact)": "infinite",
            "updateWorldRadius()": "infinite"
        },
        "internal": {
            "_nullArtifact()": "infinite",
            "_randomArtifactTypeAndLevelBonus(uint256,enum Biome,enum SpaceType)": "infinite",
            "gameConstants()": "infinite",
            "gs()": "15",
            "snarkConstants()": "infinite"
        }
    }
}