{
    "contractName": "LibLazyUpdate",
    "abi": [
        {
            "inputs": [
                {
                    "internalType": "uint256",
                    "name": "currentTimestamp",
                    "type": "uint256"
                },
                {
                    "components": [
                        {
                            "internalType": "address",
                            "name": "owner",
                            "type": "address"
                        },
                        {
                            "internalType": "uint256",
                            "name": "range",
                            "type": "uint256"
                        },
                        {
                            "internalType": "uint256",
                            "name": "speed",
                            "type": "uint256"
                        },
                        {
                            "internalType": "uint256",
                            "name": "defense",
                            "type": "uint256"
                        },
                        {
                            "internalType": "uint256",
                            "name": "population",
                            "type": "uint256"
                        },
                        {
                            "internalType": "uint256",
                            "name": "populationCap",
                            "type": "uint256"
                        },
                        {
                            "internalType": "uint256",
                            "name": "populationGrowth",
                            "type": "uint256"
                        },
                        {
                            "internalType": "uint256",
                            "name": "silverCap",
                            "type": "uint256"
                        },
                        {
                            "internalType": "uint256",
                            "name": "silverGrowth",
                            "type": "uint256"
                        },
                        {
                            "internalType": "uint256",
                            "name": "silver",
                            "type": "uint256"
                        },
                        {
                            "internalType": "uint256",
                            "name": "planetLevel",
                            "type": "uint256"
                        },
                        {
                            "internalType": "enum PlanetType",
                            "name": "planetType",
                            "type": "PlanetType"
                        },
                        {
                            "internalType": "bool",
                            "name": "isHomePlanet",
                            "type": "bool"
                        }
                    ],
                    "internalType": "struct Planet",
                    "name": "planet",
                    "type": "tuple"
                },
                {
                    "components": [
                        {
                            "internalType": "bool",
                            "name": "isInitialized",
                            "type": "bool"
                        },
                        {
                            "internalType": "uint256",
                            "name": "createdAt",
                            "type": "uint256"
                        },
                        {
                            "internalType": "uint256",
                            "name": "lastUpdated",
                            "type": "uint256"
                        },
                        {
                            "internalType": "uint256",
                            "name": "perlin",
                            "type": "uint256"
                        },
                        {
                            "internalType": "enum SpaceType",
                            "name": "spaceType",
                            "type": "SpaceType"
                        },
                        {
                            "internalType": "uint256",
                            "name": "upgradeState0",
                            "type": "uint256"
                        },
                        {
                            "internalType": "uint256",
                            "name": "upgradeState1",
                            "type": "uint256"
                        },
                        {
                            "internalType": "uint256",
                            "name": "upgradeState2",
                            "type": "uint256"
                        },
                        {
                            "internalType": "uint256",
                            "name": "hatLevel",
                            "type": "uint256"
                        },
                        {
                            "internalType": "bool",
                            "name": "hasTriedFindingArtifact",
                            "type": "bool"
                        },
                        {
                            "internalType": "uint256",
                            "name": "prospectedBlockNumber",
                            "type": "uint256"
                        },
                        {
                            "internalType": "bool",
                            "name": "destroyed",
                            "type": "bool"
                        },
                        {
                            "internalType": "uint256",
                            "name": "spaceJunk",
                            "type": "uint256"
                        }
                    ],
                    "internalType": "struct PlanetExtendedInfo",
                    "name": "planetExtendedInfo",
                    "type": "tuple"
                },
                {
                    "components": [
                        {
                            "internalType": "bool",
                            "name": "isInitialized",
                            "type": "bool"
                        },
                        {
                            "internalType": "uint256",
                            "name": "pausers",
                            "type": "uint256"
                        },
                        {
                            "internalType": "address",
                            "name": "invader",
                            "type": "address"
                        },
                        {
                            "internalType": "uint256",
                            "name": "invadeStartBlock",
                            "type": "uint256"
                        },
                        {
                            "internalType": "address",
                            "name": "capturer",
                            "type": "address"
                        }
                    ],
                    "internalType": "struct PlanetExtendedInfo2",
                    "name": "planetExtendedInfo2",
                    "type": "tuple"
                },
                {
                    "components": [
                        {
                            "internalType": "uint256",
                            "name": "id",
                            "type": "uint256"
                        },
                        {
                            "internalType": "enum PlanetEventType",
                            "name": "eventType",
                            "type": "PlanetEventType"
                        },
                        {
                            "internalType": "uint256",
                            "name": "timeTrigger",
                            "type": "uint256"
                        },
                        {
                            "internalType": "uint256",
                            "name": "timeAdded",
                            "type": "uint256"
                        }
                    ],
                    "internalType": "struct PlanetEventMetadata[]",
                    "name": "events",
                    "type": "tuple[]"
                }
            ],
            "name": "applyPendingEvents",
            "outputs": [
                {
                    "components": [
                        {
                            "internalType": "address",
                            "name": "owner",
                            "type": "address"
                        },
                        {
                            "internalType": "uint256",
                            "name": "range",
                            "type": "uint256"
                        },
                        {
                            "internalType": "uint256",
                            "name": "speed",
                            "type": "uint256"
                        },
                        {
                            "internalType": "uint256",
                            "name": "defense",
                            "type": "uint256"
                        },
                        {
                            "internalType": "uint256",
                            "name": "population",
                            "type": "uint256"
                        },
                        {
                            "internalType": "uint256",
                            "name": "populationCap",
                            "type": "uint256"
                        },
                        {
                            "internalType": "uint256",
                            "name": "populationGrowth",
                            "type": "uint256"
                        },
                        {
                            "internalType": "uint256",
                            "name": "silverCap",
                            "type": "uint256"
                        },
                        {
                            "internalType": "uint256",
                            "name": "silverGrowth",
                            "type": "uint256"
                        },
                        {
                            "internalType": "uint256",
                            "name": "silver",
                            "type": "uint256"
                        },
                        {
                            "internalType": "uint256",
                            "name": "planetLevel",
                            "type": "uint256"
                        },
                        {
                            "internalType": "enum PlanetType",
                            "name": "planetType",
                            "type": "PlanetType"
                        },
                        {
                            "internalType": "bool",
                            "name": "isHomePlanet",
                            "type": "bool"
                        }
                    ],
                    "internalType": "struct Planet",
                    "name": "",
                    "type": "tuple"
                },
                {
                    "components": [
                        {
                            "internalType": "bool",
                            "name": "isInitialized",
                            "type": "bool"
                        },
                        {
                            "internalType": "uint256",
                            "name": "createdAt",
                            "type": "uint256"
                        },
                        {
                            "internalType": "uint256",
                            "name": "lastUpdated",
                            "type": "uint256"
                        },
                        {
                            "internalType": "uint256",
                            "name": "perlin",
                            "type": "uint256"
                        },
                        {
                            "internalType": "enum SpaceType",
                            "name": "spaceType",
                            "type": "SpaceType"
                        },
                        {
                            "internalType": "uint256",
                            "name": "upgradeState0",
                            "type": "uint256"
                        },
                        {
                            "internalType": "uint256",
                            "name": "upgradeState1",
                            "type": "uint256"
                        },
                        {
                            "internalType": "uint256",
                            "name": "upgradeState2",
                            "type": "uint256"
                        },
                        {
                            "internalType": "uint256",
                            "name": "hatLevel",
                            "type": "uint256"
                        },
                        {
                            "internalType": "bool",
                            "name": "hasTriedFindingArtifact",
                            "type": "bool"
                        },
                        {
                            "internalType": "uint256",
                            "name": "prospectedBlockNumber",
                            "type": "uint256"
                        },
                        {
                            "internalType": "bool",
                            "name": "destroyed",
                            "type": "bool"
                        },
                        {
                            "internalType": "uint256",
                            "name": "spaceJunk",
                            "type": "uint256"
                        }
                    ],
                    "internalType": "struct PlanetExtendedInfo",
                    "name": "",
                    "type": "tuple"
                },
                {
                    "components": [
                        {
                            "internalType": "bool",
                            "name": "isInitialized",
                            "type": "bool"
                        },
                        {
                            "internalType": "uint256",
                            "name": "pausers",
                            "type": "uint256"
                        },
                        {
                            "internalType": "address",
                            "name": "invader",
                            "type": "address"
                        },
                        {
                            "internalType": "uint256",
                            "name": "invadeStartBlock",
                            "type": "uint256"
                        },
                        {
                            "internalType": "address",
                            "name": "capturer",
                            "type": "address"
                        }
                    ],
                    "internalType": "struct PlanetExtendedInfo2",
                    "name": "",
                    "type": "tuple"
                },
                {
                    "internalType": "uint256[24]",
                    "name": "",
                    "type": "uint256[24]"
                }
            ],
            "stateMutability": "view",
            "type": "function"
        },
        {
            "inputs": [
                {
                    "internalType": "uint256",
                    "name": "updateToTime",
                    "type": "uint256"
                },
                {
                    "components": [
                        {
                            "internalType": "address",
                            "name": "owner",
                            "type": "address"
                        },
                        {
                            "internalType": "uint256",
                            "name": "range",
                            "type": "uint256"
                        },
                        {
                            "internalType": "uint256",
                            "name": "speed",
                            "type": "uint256"
                        },
                        {
                            "internalType": "uint256",
                            "name": "defense",
                            "type": "uint256"
                        },
                        {
                            "internalType": "uint256",
                            "name": "population",
                            "type": "uint256"
                        },
                        {
                            "internalType": "uint256",
                            "name": "populationCap",
                            "type": "uint256"
                        },
                        {
                            "internalType": "uint256",
                            "name": "populationGrowth",
                            "type": "uint256"
                        },
                        {
                            "internalType": "uint256",
                            "name": "silverCap",
                            "type": "uint256"
                        },
                        {
                            "internalType": "uint256",
                            "name": "silverGrowth",
                            "type": "uint256"
                        },
                        {
                            "internalType": "uint256",
                            "name": "silver",
                            "type": "uint256"
                        },
                        {
                            "internalType": "uint256",
                            "name": "planetLevel",
                            "type": "uint256"
                        },
                        {
                            "internalType": "enum PlanetType",
                            "name": "planetType",
                            "type": "PlanetType"
                        },
                        {
                            "internalType": "bool",
                            "name": "isHomePlanet",
                            "type": "bool"
                        }
                    ],
                    "internalType": "struct Planet",
                    "name": "planet",
                    "type": "tuple"
                },
                {
                    "components": [
                        {
                            "internalType": "bool",
                            "name": "isInitialized",
                            "type": "bool"
                        },
                        {
                            "internalType": "uint256",
                            "name": "createdAt",
                            "type": "uint256"
                        },
                        {
                            "internalType": "uint256",
                            "name": "lastUpdated",
                            "type": "uint256"
                        },
                        {
                            "internalType": "uint256",
                            "name": "perlin",
                            "type": "uint256"
                        },
                        {
                            "internalType": "enum SpaceType",
                            "name": "spaceType",
                            "type": "SpaceType"
                        },
                        {
                            "internalType": "uint256",
                            "name": "upgradeState0",
                            "type": "uint256"
                        },
                        {
                            "internalType": "uint256",
                            "name": "upgradeState1",
                            "type": "uint256"
                        },
                        {
                            "internalType": "uint256",
                            "name": "upgradeState2",
                            "type": "uint256"
                        },
                        {
                            "internalType": "uint256",
                            "name": "hatLevel",
                            "type": "uint256"
                        },
                        {
                            "internalType": "bool",
                            "name": "hasTriedFindingArtifact",
                            "type": "bool"
                        },
                        {
                            "internalType": "uint256",
                            "name": "prospectedBlockNumber",
                            "type": "uint256"
                        },
                        {
                            "internalType": "bool",
                            "name": "destroyed",
                            "type": "bool"
                        },
                        {
                            "internalType": "uint256",
                            "name": "spaceJunk",
                            "type": "uint256"
                        }
                    ],
                    "internalType": "struct PlanetExtendedInfo",
                    "name": "planetExtendedInfo",
                    "type": "tuple"
                },
                {
                    "components": [
                        {
                            "internalType": "bool",
                            "name": "isInitialized",
                            "type": "bool"
                        },
                        {
                            "internalType": "uint256",
                            "name": "pausers",
                            "type": "uint256"
                        },
                        {
                            "internalType": "address",
                            "name": "invader",
                            "type": "address"
                        },
                        {
                            "internalType": "uint256",
                            "name": "invadeStartBlock",
                            "type": "uint256"
                        },
                        {
                            "internalType": "address",
                            "name": "capturer",
                            "type": "address"
                        }
                    ],
                    "internalType": "struct PlanetExtendedInfo2",
                    "name": "planetExtendedInfo2",
                    "type": "tuple"
                }
            ],
            "name": "updatePlanet",
            "outputs": [
                {
                    "components": [
                        {
                            "internalType": "address",
                            "name": "owner",
                            "type": "address"
                        },
                        {
                            "internalType": "uint256",
                            "name": "range",
                            "type": "uint256"
                        },
                        {
                            "internalType": "uint256",
                            "name": "speed",
                            "type": "uint256"
                        },
                        {
                            "internalType": "uint256",
                            "name": "defense",
                            "type": "uint256"
                        },
                        {
                            "internalType": "uint256",
                            "name": "population",
                            "type": "uint256"
                        },
                        {
                            "internalType": "uint256",
                            "name": "populationCap",
                            "type": "uint256"
                        },
                        {
                            "internalType": "uint256",
                            "name": "populationGrowth",
                            "type": "uint256"
                        },
                        {
                            "internalType": "uint256",
                            "name": "silverCap",
                            "type": "uint256"
                        },
                        {
                            "internalType": "uint256",
                            "name": "silverGrowth",
                            "type": "uint256"
                        },
                        {
                            "internalType": "uint256",
                            "name": "silver",
                            "type": "uint256"
                        },
                        {
                            "internalType": "uint256",
                            "name": "planetLevel",
                            "type": "uint256"
                        },
                        {
                            "internalType": "enum PlanetType",
                            "name": "planetType",
                            "type": "PlanetType"
                        },
                        {
                            "internalType": "bool",
                            "name": "isHomePlanet",
                            "type": "bool"
                        }
                    ],
                    "internalType": "struct Planet",
                    "name": "",
                    "type": "tuple"
                },
                {
                    "components": [
                        {
                            "internalType": "bool",
                            "name": "isInitialized",
                            "type": "bool"
                        },
                        {
                            "internalType": "uint256",
                            "name": "createdAt",
                            "type": "uint256"
                        },
                        {
                            "internalType": "uint256",
                            "name": "lastUpdated",
                            "type": "uint256"
                        },
                        {
                            "internalType": "uint256",
                            "name": "perlin",
                            "type": "uint256"
                        },
                        {
                            "internalType": "enum SpaceType",
                            "name": "spaceType",
                            "type": "SpaceType"
                        },
                        {
                            "internalType": "uint256",
                            "name": "upgradeState0",
                            "type": "uint256"
                        },
                        {
                            "internalType": "uint256",
                            "name": "upgradeState1",
                            "type": "uint256"
                        },
                        {
                            "internalType": "uint256",
                            "name": "upgradeState2",
                            "type": "uint256"
                        },
                        {
                            "internalType": "uint256",
                            "name": "hatLevel",
                            "type": "uint256"
                        },
                        {
                            "internalType": "bool",
                            "name": "hasTriedFindingArtifact",
                            "type": "bool"
                        },
                        {
                            "internalType": "uint256",
                            "name": "prospectedBlockNumber",
                            "type": "uint256"
                        },
                        {
                            "internalType": "bool",
                            "name": "destroyed",
                            "type": "bool"
                        },
                        {
                            "internalType": "uint256",
                            "name": "spaceJunk",
                            "type": "uint256"
                        }
                    ],
                    "internalType": "struct PlanetExtendedInfo",
                    "name": "",
                    "type": "tuple"
                },
                {
                    "components": [
                        {
                            "internalType": "bool",
                            "name": "isInitialized",
                            "type": "bool"
                        },
                        {
                            "internalType": "uint256",
                            "name": "pausers",
                            "type": "uint256"
                        },
                        {
                            "internalType": "address",
                            "name": "invader",
                            "type": "address"
                        },
                        {
                            "internalType": "uint256",
                            "name": "invadeStartBlock",
                            "type": "uint256"
                        },
                        {
                            "internalType": "address",
                            "name": "capturer",
                            "type": "address"
                        }
                    ],
                    "internalType": "struct PlanetExtendedInfo2",
                    "name": "",
                    "type": "tuple"
                }
            ],
            "stateMutability": "pure",
            "type": "function"
        }
    ],
    "bytecode": "611e0861003a600b82828239805160001a60731461002d57634e487b7160e01b600052600060045260246000fd5b30600052607381538281f3fe73000000000000000000000000000000000000000030146080604052600436106100405760003560e01c806355363bda14610045578063aceff28014610070575b600080fd5b61005861005336600461193c565b610093565b60405161006793929190611b41565b60405180910390f35b61008361007e366004611b74565b610115565b6040516100679493929190611ca8565b61009b61153c565b6100a36115be565b6040805160a0810182526000808252602082018190529181018290526060810182905260808101919091526100da87878787610493565b600186610160015160048111156100f3576100f361198f565b03610103576101038787876105fb565b50505060408201939093529092909190565b61011d61153c565b6101256115be565b6040805160a08101825260008082526020820181905291810182905260608101829052608081019190915261015861163d565b61016061163d565b6000806000805b8951158061017757508b61016001515b61047e57600019915060005b8a5181101561025257828b828151811061019f5761019f611d07565b602002602001015160400151101561024057600160005b86811015610213578c83815181106101d0576101d0611d07565b6020026020010151600001518882601881106101ee576101ee611d07565b6020020151036102015760009150610213565b8061020b81611d33565b9150506101b6565b50801561023e578b828151811061022c5761022c611d07565b60200260200101516040015193508192505b505b8061024a81611d33565b915050610183565b508d8a828151811061026657610266611d07565b6020026020010151604001511115801561028257508160001914155b15610475576102b08a828151811061029c5761029c611d07565b6020026020010151604001518e8e8e610093565b919e509c509a5060008a82815181106102cb576102cb611d07565b60200260200101516020015160008111156102e8576102e861198f565b03610475578981815181106102ff576102ff611d07565b60200260200101516000015185858061031790611d33565b96506018811061032957610329611d07565b6020020152600061043a8e8d7fcb7f1a525606efcbba7baaf9b0b55c468d0fd558cbf767967f538834dfa1232e60140160008f878151811061036d5761036d611d07565b6020908102919091018101515182528181019290925260409081016000208151610160810183528154815260018201546001600160a01b031693810193909352600281015491830191909152600380820154606084015260048201546080840152600582015460a0840152600682015460c0840152600782015460e0840152600882015461010084019160ff9091169081111561040c5761040c61198f565b600381111561041d5761041d61198f565b815260200160098201548152602001600a8201548152505061070a565b9e50905080156104735780868561045081611d33565b965061045d90600c611d4c565b6018811061046d5761046d611d07565b60200201525b505b8d821115610167575b509a9c999b5097995090979650505050505050565b82516001600160a01b0316156105f55760006104c36104b1866108c7565b6104be85604001516108c7565b6108e5565b905060006104d160016108c7565b9050600061054d61054761052161051c61050a6105046104f2600319610920565b6104ff8d60c001516108c7565b61094c565b8861094c565b6105178b60a001516108c7565b610982565b6109d9565b6104ff6105416105348b60a001516108c7565b6105178c608001516108c7565b866108e5565b83610a34565b9050600061056f61056a6105648960a001516108c7565b84610982565b610a67565b67ffffffffffffffff169050600085602001511180156105925750866080015181115b156105a057505050506105f5565b60808701819052600487610160015160048111156105c0576105c061198f565b14806105d0575060008560200151115b156105f0578660a00151876080015111156105f05760a087015160808801525b505050505b50505050565b600182610160015160048111156106145761061461198f565b1461067f5760405162461bcd60e51b815260206004820152603160248201527f43616e206f6e6c79207570646174652073696c766572206f6e2073696c766572604482015270081c1c9bd91d58da5b99c81c1b185b995d607a1b606482015260840160405180910390fd5b81516001600160a01b031661069357505050565b8160e0015182610120015110156107055760008160400151846106b69190611d64565b90506000818461010001516106cb9190611d7b565b905060008460e0015190506000828661012001516106e99190611d4c565b90508082106106f857806106fa565b815b610120870152505050505b505050565b600061071461153c565b84600001516001600160a01b031683602001516001600160a01b03160361075357826080015185608001516107499190611d4c565b6080860152610839565b6003836101000151600381111561076c5761076c61198f565b146108395760608501516080840151610786906064611d7b565b6107909190611db0565b856080015111156107c957606085015160808401516107b0906064611d7b565b6107ba9190611db0565b85608001516107499190611d64565b60208301516001600160a01b0316156107e65782602001516107e9565b84515b6001600160a01b031685526060850151608086015160649161080a91611d7b565b6108149190611db0565b83608001516108239190611d64565b6080860181905260000361083957600160808601525b600485610160015160048111156108525761085261198f565b1480610862575060008460200151115b15610882578460a00151856080015111156108825760a085015160808601525b60e085015160a084015161012087015160009161089e91611d4c565b90508082106108ad57806108af565b815b61012088810191909152949094015196945050505050565b6000677fffffffffffffff8211156108de57600080fd5b5060401b90565b6000600f82810b9084900b0360016001607f1b03198112801590610910575060016001607f1b038113155b61091957600080fd5b9392505050565b6000677fffffffffffffff1982121580156109435750677fffffffffffffff8213155b6108de57600080fd5b6000600f83810b9083900b0260401d60016001607f1b03198112801590610910575060016001607f1b0381131561091957600080fd5b600081600f0b60000361099457600080fd5b600082600f0b604085600f0b901b816109af576109af611d9a565b05905060016001607f1b03198112801590610910575060016001607f1b0381131561091957600080fd5b6000600160461b82600f0b126109ee57600080fd5b683fffffffffffffffff1982600f0b1215610a0b57506000919050565b610a2e608083600f0b700171547652b82fe1777d0ffda0d23a7d1202901d610a83565b92915050565b6000600f83810b9083900b0160016001607f1b03198112801590610910575060016001607f1b0381131561091957600080fd5b60008082600f0b1215610a7957600080fd5b50600f0b60401d90565b6000600160461b82600f0b12610a9857600080fd5b683fffffffffffffffff1982600f0b1215610ab557506000919050565b6001607f1b60006780000000000000008416600f0b1315610ae75770016a09e667f3bcc908b2fb1366ea957d3e0260801c5b60008367400000000000000016600f0b1315610b14577001306fe0a31b7152de8d5a46305c85edec0260801c5b60008367200000000000000016600f0b1315610b41577001172b83c7d517adcdf7c8c50eb14a791f0260801c5b60008367100000000000000016600f0b1315610b6e5770010b5586cf9890f6298b92b71842a983630260801c5b60008367080000000000000016600f0b1315610b9b577001059b0d31585743ae7c548eb68ca417fd0260801c5b60008367040000000000000016600f0b1315610bc857700102c9a3e778060ee6f7caca4f7a29bde80260801c5b60008367020000000000000016600f0b1315610bf55770010163da9fb33356d84a66ae336dcdfa3f0260801c5b60008367010000000000000016600f0b1315610c2257700100b1afa5abcbed6129ab13ec11dc95430260801c5b600083668000000000000016600f0b1315610c4e5770010058c86da1c09ea1ff19d294cf2f679b0260801c5b600083664000000000000016600f0b1315610c7a577001002c605e2e8cec506d21bfc89a23a00f0260801c5b600083662000000000000016600f0b1315610ca657700100162f3904051fa128bca9c55c31e5df0260801c5b600083661000000000000016600f0b1315610cd2577001000b175effdc76ba38e31671ca9397250260801c5b600083660800000000000016600f0b1315610cfe57700100058ba01fb9f96d6cacd4b180917c3d0260801c5b600083660400000000000016600f0b1315610d2a5770010002c5cc37da9491d0985c348c68e7b30260801c5b600083660200000000000016600f0b1315610d56577001000162e525ee054754457d59952920260260801c5b600083660100000000000016600f0b1315610d825770010000b17255775c040618bf4a4ade83fc0260801c5b6000836580000000000016600f0b1315610dad577001000058b91b5bc9ae2eed81e9b7d4cfab0260801c5b6000836540000000000016600f0b1315610dd857700100002c5c89d5ec6ca4d7c8acc017b7c90260801c5b6000836520000000000016600f0b1315610e035770010000162e43f4f831060e02d839a9d16d0260801c5b6000836510000000000016600f0b1315610e2e57700100000b1721bcfc99d9f890ea069117630260801c5b6000836508000000000016600f0b1315610e595770010000058b90cf1e6d97f9ca14dbcc16280260801c5b6000836504000000000016600f0b1315610e84577001000002c5c863b73f016468f6bac5ca2b0260801c5b6000836502000000000016600f0b1315610eaf57700100000162e430e5a18f6119e3c02282a50260801c5b6000836501000000000016600f0b1315610eda577001000000b1721835514b86e6d96efd1bfe0260801c5b60008364800000000016600f0b1315610f0457700100000058b90c0b48c6be5df846c5b2ef0260801c5b60008364400000000016600f0b1315610f2e5770010000002c5c8601cc6b9e94213c72737a0260801c5b60008364200000000016600f0b1315610f58577001000000162e42fff037df38aa2b219f060260801c5b60008364100000000016600f0b1315610f825770010000000b17217fba9c739aa5819f44f90260801c5b60008364080000000016600f0b1315610fac577001000000058b90bfcdee5acd3c1cedc8230260801c5b60008364040000000016600f0b1315610fd657700100000002c5c85fe31f35a6a30da1be500260801c5b60008364020000000016600f0b13156110005770010000000162e42ff0999ce3541b9fffcf0260801c5b60008364010000000016600f0b131561102a57700100000000b17217f80f4ef5aadda455540260801c5b600083638000000016600f0b13156110535770010000000058b90bfbf8479bd5a81b51ad0260801c5b600083634000000016600f0b131561107c577001000000002c5c85fdf84bd62ae30a74cc0260801c5b600083632000000016600f0b13156110a557700100000000162e42fefb2fed257559bdaa0260801c5b600083631000000016600f0b13156110ce577001000000000b17217f7d5a7716bba4a9ae0260801c5b600083630800000016600f0b13156110f757700100000000058b90bfbe9ddbac5e109cce0260801c5b600083630400000016600f0b13156111205770010000000002c5c85fdf4b15de6f17eb0d0260801c5b600083630200000016600f0b1315611149577001000000000162e42fefa494f1478fde050260801c5b600083630100000016600f0b13156111725770010000000000b17217f7d20cf927c8e94c0260801c5b6000836280000016600f0b131561119a577001000000000058b90bfbe8f71cb4e4b33d0260801c5b6000836240000016600f0b13156111c257700100000000002c5c85fdf477b662b269450260801c5b6000836220000016600f0b13156111ea5770010000000000162e42fefa3ae53369388c0260801c5b6000836210000016600f0b131561121257700100000000000b17217f7d1d351a389d400260801c5b6000836208000016600f0b131561123a5770010000000000058b90bfbe8e8b2d3d4ede0260801c5b6000836204000016600f0b1315611262577001000000000002c5c85fdf4741bea6e77e0260801c5b6000836202000016600f0b131561128a57700100000000000162e42fefa39fe95583c20260801c5b6000836201000016600f0b13156112b2577001000000000000b17217f7d1cfb72b45e10260801c5b60008361800016600f0b13156112d957700100000000000058b90bfbe8e7cc35c3f00260801c5b60008361400016600f0b13156113005770010000000000002c5c85fdf473e242ea380260801c5b60008361200016600f0b1315611327577001000000000000162e42fefa39f02b772c0260801c5b60008361100016600f0b131561134e5770010000000000000b17217f7d1cf7d83c1a0260801c5b60008361080016600f0b1315611375577001000000000000058b90bfbe8e7bdcbe2e0260801c5b60008361040016600f0b131561139c57700100000000000002c5c85fdf473dea871f0260801c5b60008361020016600f0b13156113c35770010000000000000162e42fefa39ef44d910260801c5b60008361010016600f0b13156113ea57700100000000000000b17217f7d1cf79e9490260801c5b600083608016600f0b13156114105770010000000000000058b90bfbe8e7bce5440260801c5b600083604016600f0b1315611436577001000000000000002c5c85fdf473de6eca0260801c5b600083602016600f0b131561145c57700100000000000000162e42fefa39ef366f0260801c5b600083601016600f0b1315611482577001000000000000000b17217f7d1cf79afa0260801c5b600083600816600f0b13156114a857700100000000000000058b90bfbe8e7bcd6d0260801c5b600083600416600f0b13156114ce5770010000000000000002c5c85fdf473de6b20260801c5b600083600216600f0b13156114f4577001000000000000000162e42fefa39ef3580260801c5b600083600116600f0b131561151a5770010000000000000000b17217f7d1cf79ab0260801c5b600f83810b60401d603f03900b1c60016001607f1b03811115610a2e57600080fd5b604051806101a0016040528060006001600160a01b0316815260200160008152602001600081526020016000815260200160008152602001600081526020016000815260200160008152602001600081526020016000815260200160008152602001600060048111156115b1576115b161198f565b8152600060209091015290565b604051806101a00160405280600015158152602001600081526020016000815260200160008152602001600060038111156115fb576115fb61198f565b81526020016000815260200160008152602001600081526020016000815260200160001515815260200160008152602001600015158152602001600081525090565b6040518061030001604052806018906020820280368337509192915050565b634e487b7160e01b600052604160045260246000fd5b6040516101a0810167ffffffffffffffff811182821017156116965761169661165c565b60405290565b6040516080810167ffffffffffffffff811182821017156116965761169661165c565b604051601f8201601f1916810167ffffffffffffffff811182821017156116e8576116e861165c565b604052919050565b80356001600160a01b038116811461170757600080fd5b919050565b80356005811061170757600080fd5b8035801515811461170757600080fd5b60006101a0828403121561173e57600080fd5b611746611672565b9050611751826116f0565b81526020820135602082015260408201356040820152606082013560608201526080820135608082015260a082013560a082015260c082013560c082015260e082013560e08201526101008083013581830152506101208083013581830152506101408083013581830152506101606117cb81840161170c565b908201526101806117dd83820161171b565b9082015292915050565b80356004811061170757600080fd5b60006101a0828403121561180957600080fd5b611811611672565b905061181c8261171b565b8152602082013560208201526040820135604082015260608201356060820152611848608083016117e7565b608082015260a082013560a082015260c082013560c082015260e082013560e082015261010080830135818301525061012061188581840161171b565b9082015261014082810135908201526101606118a281840161171b565b818301525061018080830135818301525092915050565b600060a082840312156118cb57600080fd5b60405160a0810181811067ffffffffffffffff821117156118ee576118ee61165c565b6040529050806118fd8361171b565b815260208301356020820152611915604084016116f0565b604082015260608301356060820152611930608084016116f0565b60808201525092915050565b600080600080610400858703121561195357600080fd5b84359350611964866020870161172b565b9250611974866101c087016117f6565b91506119848661036087016118b9565b905092959194509250565b634e487b7160e01b600052602160045260246000fd5b600581106119b5576119b561198f565b9052565b80516001600160a01b031682526020810151602083015260408101516040830152606081015160608301526080810151608083015260a081015160a083015260c081015160c083015260e081015160e083015261010080820151818401525061012080820151818401525061014080820151818401525061016080820151611a43828501826119a5565b505061018081810151801515848301526105f5565b600481106119b5576119b561198f565b8051151582526020810151602083015260408101516040830152606081015160608301526080810151611a9e6080840182611a58565b5060a081015160a083015260c081015160c083015260e081015160e083015261010080820151818401525061012080820151611add8285018215159052565b505061014081810151908301526101608082015115159083015261018090810151910152565b805115158252602080820151908301526040808201516001600160a01b03908116918401919091526060808301519084015260809182015116910152565b6103e08101611b5082866119b9565b611b5e6101a0830185611a68565b611b6c610340830184611b03565b949350505050565b60008060008060006104208688031215611b8d57600080fd5b853594506020611b9f8882890161172b565b9450611baf886101c089016117f6565b9350611bbf8861036089016118b9565b925061040087013567ffffffffffffffff80821115611bdd57600080fd5b818901915089601f830112611bf157600080fd5b813581811115611c0357611c0361165c565b611c11848260051b016116bf565b818152848101925060079190911b83018401908b821115611c3157600080fd5b928401925b81841015611c96576080848d031215611c4f5760008081fd5b611c5761169c565b843581528585013560018110611c6d5760008081fd5b818701526040858101359082015260608086013590820152835260809093019291840191611c36565b80955050505050509295509295909350565b6106e08101611cb782876119b9565b611cc56101a0830186611a68565b611cd3610340830185611b03565b6103e082018360005b6018811015611cfb578151835260209283019290910190600101611cdc565b50505095945050505050565b634e487b7160e01b600052603260045260246000fd5b634e487b7160e01b600052601160045260246000fd5b600060018201611d4557611d45611d1d565b5060010190565b60008219821115611d5f57611d5f611d1d565b500190565b600082821015611d7657611d76611d1d565b500390565b6000816000190483118215151615611d9557611d95611d1d565b500290565b634e487b7160e01b600052601260045260246000fd5b600082611dcd57634e487b7160e01b600052601260045260246000fd5b50049056fea264697066735822122019858403e48c71deb0e4901c778ef50f7929275a6573e982dc1b6076e525779664736f6c634300080d0033",
    "sourcePath": "/Users/lele/Downloads/eth-master/contracts/libraries/LibLazyUpdate.sol",
    "compiler": {
        "name": "solc",
        "version": "0.8.13+commit.abaa5c0e"
    },
    "functionHashes": {
        "applyPendingEvents(uint256,Planet,PlanetExtendedInfo,PlanetExtendedInfo2,PlanetEventMetadata[])": "aceff280",
        "updatePlanet(uint256,Planet,PlanetExtendedInfo,PlanetExtendedInfo2)": "55363bda"
    },
    "gasEstimates": {
        "creation": {
            "codeDepositCost": "1537600",
            "executionCost": "1641",
            "totalCost": "1539241"
        },
        "external": {
            "applyPendingEvents(uint256,Planet,PlanetExtendedInfo,PlanetExtendedInfo2,PlanetEventMetadata[])": "infinite",
            "updatePlanet(uint256,Planet,PlanetExtendedInfo,PlanetExtendedInfo2)": "infinite"
        },
        "internal": {
            "_updatePopulation(uint256,struct Planet memory,struct PlanetExtendedInfo memory,struct PlanetExtendedInfo2 memory)": "infinite",
            "_updateSilver(uint256,struct Planet memory,struct PlanetExtendedInfo memory)": "infinite",
            "applyArrival(struct Planet memory,struct PlanetExtendedInfo2 memory,struct ArrivalData memory)": "infinite",
            "gs()": "infinite"
        }
    }
}