{
    "contractName": "LibPlanet",
    "abi": [
        {
            "anonymous": false,
            "inputs": [
                {
                    "indexed": false,
                    "internalType": "address",
                    "name": "player",
                    "type": "address"
                },
                {
                    "indexed": false,
                    "internalType": "uint256",
                    "name": "artifactId",
                    "type": "uint256"
                },
                {
                    "indexed": false,
                    "internalType": "uint256",
                    "name": "loc",
                    "type": "uint256"
                }
            ],
            "name": "ArtifactActivated",
            "type": "event"
        },
        {
            "anonymous": false,
            "inputs": [
                {
                    "indexed": false,
                    "internalType": "address",
                    "name": "player",
                    "type": "address"
                },
                {
                    "indexed": false,
                    "internalType": "uint256",
                    "name": "artifactId",
                    "type": "uint256"
                },
                {
                    "indexed": false,
                    "internalType": "uint256",
                    "name": "loc",
                    "type": "uint256"
                }
            ],
            "name": "ArtifactDeactivated",
            "type": "event"
        },
        {
            "anonymous": false,
            "inputs": [
                {
                    "indexed": false,
                    "internalType": "address",
                    "name": "player",
                    "type": "address"
                },
                {
                    "indexed": false,
                    "internalType": "uint256",
                    "name": "loc",
                    "type": "uint256"
                },
                {
                    "indexed": false,
                    "internalType": "uint256",
                    "name": "branch",
                    "type": "uint256"
                },
                {
                    "indexed": false,
                    "internalType": "uint256",
                    "name": "toBranchLevel",
                    "type": "uint256"
                }
            ],
            "name": "PlanetUpgraded",
            "type": "event"
        },
        {
            "inputs": [
                {
                    "components": [
                        {
                            "internalType": "bool",
                            "name": "isInitialized",
                            "type": "bool"
                        },
                        {
                            "internalType": "uint256",
                            "name": "id",
                            "type": "uint256"
                        },
                        {
                            "internalType": "uint256",
                            "name": "planetDiscoveredOn",
                            "type": "uint256"
                        },
                        {
                            "internalType": "enum ArtifactRarity",
                            "name": "rarity",
                            "type": "ArtifactRarity"
                        },
                        {
                            "internalType": "enum Biome",
                            "name": "planetBiome",
                            "type": "Biome"
                        },
                        {
                            "internalType": "uint256",
                            "name": "mintedAtTimestamp",
                            "type": "uint256"
                        },
                        {
                            "internalType": "address",
                            "name": "discoverer",
                            "type": "address"
                        },
                        {
                            "internalType": "enum ArtifactType",
                            "name": "artifactType",
                            "type": "ArtifactType"
                        },
                        {
                            "internalType": "uint256",
                            "name": "activations",
                            "type": "uint256"
                        },
                        {
                            "internalType": "uint256",
                            "name": "lastActivated",
                            "type": "uint256"
                        },
                        {
                            "internalType": "uint256",
                            "name": "lastDeactivated",
                            "type": "uint256"
                        },
                        {
                            "internalType": "uint256",
                            "name": "wormholeTo",
                            "type": "uint256"
                        },
                        {
                            "internalType": "address",
                            "name": "controller",
                            "type": "address"
                        }
                    ],
                    "internalType": "struct Artifact",
                    "name": "artifact",
                    "type": "tuple"
                },
                {
                    "components": [
                        {
                            "internalType": "address",
                            "name": "owner",
                            "type": "address"
                        },
                        {
                            "internalType": "uint256",
                            "name": "range",
                            "type": "uint256"
                        },
                        {
                            "internalType": "uint256",
                            "name": "speed",
                            "type": "uint256"
                        },
                        {
                            "internalType": "uint256",
                            "name": "defense",
                            "type": "uint256"
                        },
                        {
                            "internalType": "uint256",
                            "name": "population",
                            "type": "uint256"
                        },
                        {
                            "internalType": "uint256",
                            "name": "populationCap",
                            "type": "uint256"
                        },
                        {
                            "internalType": "uint256",
                            "name": "populationGrowth",
                            "type": "uint256"
                        },
                        {
                            "internalType": "uint256",
                            "name": "silverCap",
                            "type": "uint256"
                        },
                        {
                            "internalType": "uint256",
                            "name": "silverGrowth",
                            "type": "uint256"
                        },
                        {
                            "internalType": "uint256",
                            "name": "silver",
                            "type": "uint256"
                        },
                        {
                            "internalType": "uint256",
                            "name": "planetLevel",
                            "type": "uint256"
                        },
                        {
                            "internalType": "enum PlanetType",
                            "name": "planetType",
                            "type": "PlanetType"
                        },
                        {
                            "internalType": "bool",
                            "name": "isHomePlanet",
                            "type": "bool"
                        }
                    ],
                    "internalType": "struct Planet",
                    "name": "planet",
                    "type": "tuple"
                },
                {
                    "components": [
                        {
                            "internalType": "bool",
                            "name": "isInitialized",
                            "type": "bool"
                        },
                        {
                            "internalType": "uint256",
                            "name": "createdAt",
                            "type": "uint256"
                        },
                        {
                            "internalType": "uint256",
                            "name": "lastUpdated",
                            "type": "uint256"
                        },
                        {
                            "internalType": "uint256",
                            "name": "perlin",
                            "type": "uint256"
                        },
                        {
                            "internalType": "enum SpaceType",
                            "name": "spaceType",
                            "type": "SpaceType"
                        },
                        {
                            "internalType": "uint256",
                            "name": "upgradeState0",
                            "type": "uint256"
                        },
                        {
                            "internalType": "uint256",
                            "name": "upgradeState1",
                            "type": "uint256"
                        },
                        {
                            "internalType": "uint256",
                            "name": "upgradeState2",
                            "type": "uint256"
                        },
                        {
                            "internalType": "uint256",
                            "name": "hatLevel",
                            "type": "uint256"
                        },
                        {
                            "internalType": "bool",
                            "name": "hasTriedFindingArtifact",
                            "type": "bool"
                        },
                        {
                            "internalType": "uint256",
                            "name": "prospectedBlockNumber",
                            "type": "uint256"
                        },
                        {
                            "internalType": "bool",
                            "name": "destroyed",
                            "type": "bool"
                        },
                        {
                            "internalType": "uint256",
                            "name": "spaceJunk",
                            "type": "uint256"
                        }
                    ],
                    "internalType": "struct PlanetExtendedInfo",
                    "name": "planetExtendedInfo",
                    "type": "tuple"
                },
                {
                    "components": [
                        {
                            "internalType": "bool",
                            "name": "isInitialized",
                            "type": "bool"
                        },
                        {
                            "internalType": "uint256",
                            "name": "pausers",
                            "type": "uint256"
                        },
                        {
                            "internalType": "address",
                            "name": "invader",
                            "type": "address"
                        },
                        {
                            "internalType": "uint256",
                            "name": "invadeStartBlock",
                            "type": "uint256"
                        },
                        {
                            "internalType": "address",
                            "name": "capturer",
                            "type": "address"
                        }
                    ],
                    "internalType": "struct PlanetExtendedInfo2",
                    "name": "planetExtendedInfo2",
                    "type": "tuple"
                }
            ],
            "name": "applySpaceshipArrive",
            "outputs": [
                {
                    "components": [
                        {
                            "internalType": "address",
                            "name": "owner",
                            "type": "address"
                        },
                        {
                            "internalType": "uint256",
                            "name": "range",
                            "type": "uint256"
                        },
                        {
                            "internalType": "uint256",
                            "name": "speed",
                            "type": "uint256"
                        },
                        {
                            "internalType": "uint256",
                            "name": "defense",
                            "type": "uint256"
                        },
                        {
                            "internalType": "uint256",
                            "name": "population",
                            "type": "uint256"
                        },
                        {
                            "internalType": "uint256",
                            "name": "populationCap",
                            "type": "uint256"
                        },
                        {
                            "internalType": "uint256",
                            "name": "populationGrowth",
                            "type": "uint256"
                        },
                        {
                            "internalType": "uint256",
                            "name": "silverCap",
                            "type": "uint256"
                        },
                        {
                            "internalType": "uint256",
                            "name": "silverGrowth",
                            "type": "uint256"
                        },
                        {
                            "internalType": "uint256",
                            "name": "silver",
                            "type": "uint256"
                        },
                        {
                            "internalType": "uint256",
                            "name": "planetLevel",
                            "type": "uint256"
                        },
                        {
                            "internalType": "enum PlanetType",
                            "name": "planetType",
                            "type": "PlanetType"
                        },
                        {
                            "internalType": "bool",
                            "name": "isHomePlanet",
                            "type": "bool"
                        }
                    ],
                    "internalType": "struct Planet",
                    "name": "",
                    "type": "tuple"
                },
                {
                    "components": [
                        {
                            "internalType": "bool",
                            "name": "isInitialized",
                            "type": "bool"
                        },
                        {
                            "internalType": "uint256",
                            "name": "createdAt",
                            "type": "uint256"
                        },
                        {
                            "internalType": "uint256",
                            "name": "lastUpdated",
                            "type": "uint256"
                        },
                        {
                            "internalType": "uint256",
                            "name": "perlin",
                            "type": "uint256"
                        },
                        {
                            "internalType": "enum SpaceType",
                            "name": "spaceType",
                            "type": "SpaceType"
                        },
                        {
                            "internalType": "uint256",
                            "name": "upgradeState0",
                            "type": "uint256"
                        },
                        {
                            "internalType": "uint256",
                            "name": "upgradeState1",
                            "type": "uint256"
                        },
                        {
                            "internalType": "uint256",
                            "name": "upgradeState2",
                            "type": "uint256"
                        },
                        {
                            "internalType": "uint256",
                            "name": "hatLevel",
                            "type": "uint256"
                        },
                        {
                            "internalType": "bool",
                            "name": "hasTriedFindingArtifact",
                            "type": "bool"
                        },
                        {
                            "internalType": "uint256",
                            "name": "prospectedBlockNumber",
                            "type": "uint256"
                        },
                        {
                            "internalType": "bool",
                            "name": "destroyed",
                            "type": "bool"
                        },
                        {
                            "internalType": "uint256",
                            "name": "spaceJunk",
                            "type": "uint256"
                        }
                    ],
                    "internalType": "struct PlanetExtendedInfo",
                    "name": "",
                    "type": "tuple"
                },
                {
                    "components": [
                        {
                            "internalType": "bool",
                            "name": "isInitialized",
                            "type": "bool"
                        },
                        {
                            "internalType": "uint256",
                            "name": "pausers",
                            "type": "uint256"
                        },
                        {
                            "internalType": "address",
                            "name": "invader",
                            "type": "address"
                        },
                        {
                            "internalType": "uint256",
                            "name": "invadeStartBlock",
                            "type": "uint256"
                        },
                        {
                            "internalType": "address",
                            "name": "capturer",
                            "type": "address"
                        }
                    ],
                    "internalType": "struct PlanetExtendedInfo2",
                    "name": "",
                    "type": "tuple"
                }
            ],
            "stateMutability": "pure",
            "type": "function"
        },
        {
            "inputs": [
                {
                    "internalType": "uint256",
                    "name": "_location",
                    "type": "uint256"
                },
                {
                    "internalType": "uint256",
                    "name": "_perlin",
                    "type": "uint256"
                },
                {
                    "internalType": "uint256",
                    "name": "_radius",
                    "type": "uint256"
                }
            ],
            "name": "checkPlayerInit",
            "outputs": [
                {
                    "internalType": "bool",
                    "name": "",
                    "type": "bool"
                }
            ],
            "stateMutability": "view",
            "type": "function"
        },
        {
            "inputs": [
                {
                    "internalType": "uint256",
                    "name": "_location",
                    "type": "uint256"
                },
                {
                    "internalType": "uint256",
                    "name": "_perlin",
                    "type": "uint256"
                },
                {
                    "internalType": "bool",
                    "name": "_isHomePlanet",
                    "type": "bool"
                }
            ],
            "name": "getDefaultInitPlanetArgs",
            "outputs": [
                {
                    "components": [
                        {
                            "internalType": "uint256",
                            "name": "location",
                            "type": "uint256"
                        },
                        {
                            "internalType": "uint256",
                            "name": "perlin",
                            "type": "uint256"
                        },
                        {
                            "internalType": "uint256",
                            "name": "level",
                            "type": "uint256"
                        },
                        {
                            "internalType": "uint256",
                            "name": "TIME_FACTOR_HUNDREDTHS",
                            "type": "uint256"
                        },
                        {
                            "internalType": "enum SpaceType",
                            "name": "spaceType",
                            "type": "SpaceType"
                        },
                        {
                            "internalType": "enum PlanetType",
                            "name": "planetType",
                            "type": "PlanetType"
                        },
                        {
                            "internalType": "bool",
                            "name": "isHomePlanet",
                            "type": "bool"
                        }
                    ],
                    "internalType": "struct DFPInitPlanetArgs",
                    "name": "",
                    "type": "tuple"
                }
            ],
            "stateMutability": "view",
            "type": "function"
        },
        {
            "inputs": [
                {
                    "internalType": "uint256",
                    "name": "location",
                    "type": "uint256"
                },
                {
                    "internalType": "uint256",
                    "name": "timestamp",
                    "type": "uint256"
                }
            ],
            "name": "getRefreshedPlanet",
            "outputs": [
                {
                    "components": [
                        {
                            "internalType": "address",
                            "name": "owner",
                            "type": "address"
                        },
                        {
                            "internalType": "uint256",
                            "name": "range",
                            "type": "uint256"
                        },
                        {
                            "internalType": "uint256",
                            "name": "speed",
                            "type": "uint256"
                        },
                        {
                            "internalType": "uint256",
                            "name": "defense",
                            "type": "uint256"
                        },
                        {
                            "internalType": "uint256",
                            "name": "population",
                            "type": "uint256"
                        },
                        {
                            "internalType": "uint256",
                            "name": "populationCap",
                            "type": "uint256"
                        },
                        {
                            "internalType": "uint256",
                            "name": "populationGrowth",
                            "type": "uint256"
                        },
                        {
                            "internalType": "uint256",
                            "name": "silverCap",
                            "type": "uint256"
                        },
                        {
                            "internalType": "uint256",
                            "name": "silverGrowth",
                            "type": "uint256"
                        },
                        {
                            "internalType": "uint256",
                            "name": "silver",
                            "type": "uint256"
                        },
                        {
                            "internalType": "uint256",
                            "name": "planetLevel",
                            "type": "uint256"
                        },
                        {
                            "internalType": "enum PlanetType",
                            "name": "planetType",
                            "type": "PlanetType"
                        },
                        {
                            "internalType": "bool",
                            "name": "isHomePlanet",
                            "type": "bool"
                        }
                    ],
                    "internalType": "struct Planet",
                    "name": "",
                    "type": "tuple"
                },
                {
                    "components": [
                        {
                            "internalType": "bool",
                            "name": "isInitialized",
                            "type": "bool"
                        },
                        {
                            "internalType": "uint256",
                            "name": "createdAt",
                            "type": "uint256"
                        },
                        {
                            "internalType": "uint256",
                            "name": "lastUpdated",
                            "type": "uint256"
                        },
                        {
                            "internalType": "uint256",
                            "name": "perlin",
                            "type": "uint256"
                        },
                        {
                            "internalType": "enum SpaceType",
                            "name": "spaceType",
                            "type": "SpaceType"
                        },
                        {
                            "internalType": "uint256",
                            "name": "upgradeState0",
                            "type": "uint256"
                        },
                        {
                            "internalType": "uint256",
                            "name": "upgradeState1",
                            "type": "uint256"
                        },
                        {
                            "internalType": "uint256",
                            "name": "upgradeState2",
                            "type": "uint256"
                        },
                        {
                            "internalType": "uint256",
                            "name": "hatLevel",
                            "type": "uint256"
                        },
                        {
                            "internalType": "bool",
                            "name": "hasTriedFindingArtifact",
                            "type": "bool"
                        },
                        {
                            "internalType": "uint256",
                            "name": "prospectedBlockNumber",
                            "type": "uint256"
                        },
                        {
                            "internalType": "bool",
                            "name": "destroyed",
                            "type": "bool"
                        },
                        {
                            "internalType": "uint256",
                            "name": "spaceJunk",
                            "type": "uint256"
                        }
                    ],
                    "internalType": "struct PlanetExtendedInfo",
                    "name": "",
                    "type": "tuple"
                },
                {
                    "components": [
                        {
                            "internalType": "bool",
                            "name": "isInitialized",
                            "type": "bool"
                        },
                        {
                            "internalType": "uint256",
                            "name": "pausers",
                            "type": "uint256"
                        },
                        {
                            "internalType": "address",
                            "name": "invader",
                            "type": "address"
                        },
                        {
                            "internalType": "uint256",
                            "name": "invadeStartBlock",
                            "type": "uint256"
                        },
                        {
                            "internalType": "address",
                            "name": "capturer",
                            "type": "address"
                        }
                    ],
                    "internalType": "struct PlanetExtendedInfo2",
                    "name": "",
                    "type": "tuple"
                },
                {
                    "internalType": "uint256[12]",
                    "name": "eventsToRemove",
                    "type": "uint256[12]"
                },
                {
                    "internalType": "uint256[12]",
                    "name": "artifactsToAdd",
                    "type": "uint256[12]"
                }
            ],
            "stateMutability": "view",
            "type": "function"
        }
    ],
    "bytecode": "6139a761003a600b82828239805160001a60731461002d57634e487b7160e01b600052600060045260246000fd5b30600052607381538281f3fe73000000000000000000000000000000000000000030146080604052600436106100b35760003560e01c806373a853811161007b57806373a85381146101635780637f1ac31c146101835780638f0742bf146101a5578063e01f8926146101c9578063eb75e284146101e9578063f35f65131461020c57600080fd5b80631f59767e146100b85780632237b572146100da5780632caa23fc146101035780633f324cf314610123578063443a397c14610143575b600080fd5b8180156100c457600080fd5b506100d86100d33660046127c6565b61022c565b005b6100ed6100e83660046127c6565b61036f565b6040516100fa9190612839565b60405180910390f35b81801561010f57600080fd5b506100d861011e366004612973565b61055e565b81801561012f57600080fd5b506100d861013e366004612a0f565b61094a565b81801561014f57600080fd5b506100d861015e366004612a28565b610eac565b81801561016f57600080fd5b506100d861017e366004612a28565b61110d565b610196610191366004612c7f565b61176d565b6040516100fa93929190612f13565b6101b86101b3366004612a28565b61186d565b6040516100fa959493929190612f69565b8180156101d557600080fd5b506100d86101e436600461300a565b611f0d565b6101fc6101f73660046130f8565b6120ee565b60405190151581526020016100fa565b81801561021857600080fd5b506100d8610227366004613124565b612426565b60405163646a81f560e11b81526004810184905273__$6b7b4f300876ea7c4892437e01c3ce569a$__9063c8d503ea90602401602060405180830381865af415801561027c573d6000803e3d6000fd5b505050506040513d601f19601f820116820180604052508101906102a0919061317c565b6102f15760405162461bcd60e51b815260206004820152601b60248201527f4e6f7420612076616c696420706c616e6574206c6f636174696f6e000000000060448201526064015b60405180910390fd5b60006102fe84848461036f565b90506103098161055e565b610311612600565b6006018054600181810183556000928352602090922001859055610333612600565b60050182604001518154811061034b5761034b6131a0565b90600052602060002001600082825461036491906131cc565b909155505050505050565b610377612624565b6040516346a6f66560e11b815260048101859052602481018490526000908190819073__$6b7b4f300876ea7c4892437e01c3ce569a$__90638d4decca90604401606060405180830381865af41580156103d5573d6000803e3d6000fd5b505050506040513d601f19601f820116820180604052508101906103f991906131fa565b92509250925084156104d15782156104615760405162461bcd60e51b815260206004820152602560248201527f43616e206f6e6c7920696e697469616c697a65206f6e20706c616e6574206c65604482015264076656c20360dc1b60648201526084016102e8565b6000826004811115610475576104756127ff565b146104d15760405162461bcd60e51b815260206004820152602660248201527f43616e206f6e6c7920696e697469616c697a65206f6e20726567756c617220706044820152656c616e65747360d01b60648201526084016102e8565b6040518060e001604052808881526020018781526020018481526020016105157f5fb65bb339c6bd3f2609a7342e6cb046e09f3e40f45242a5971904b021b5bb5390565b600301548152602001826003811115610530576105306127ff565b8152602001836004811115610547576105476127ff565b815260200186151581525093505050509392505050565b6000610568612600565b82516000908152600c91909101602052604081209150610586612600565b83516000908152600e919091016020526040812091506105a4612600565b84516000908152600f9190910160205260409020825490915060ff161561060d5760405162461bcd60e51b815260206004820152601d60248201527f506c616e657420697320616c726561647920696e697469616c697a656400000060448201526064016102e8565b600073__$6b7b4f300876ea7c4892437e01c3ce569a$__6314f65d3b866000015187604001518860a0015189608001518a606001516040518663ffffffff1660e01b8152600401610662959493929190613232565b6101a060405180830381865af4158015610680573d6000803e3d6000fd5b505050506040513d601f19601f820116820180604052508101906106a49190613327565b805185546001600160a01b0319166001600160a01b03909116178555610180810151600b8601805461ff001981166101009315158402908117835560208501516001808b0191909155604086015160028b0155606086015160038b015560808601516004808c019190915560a087015160058c015560c087015160068c015560e087015160078c01559486015160088b015561012086015160098b0155610140860151600a8b0155610160860151959650929361ffff1990921660ff199091161791908490811115610778576107786127ff565b02179055508254600160ff1991821681178555602087015160038087019190915560808801516004870180549194909391169184908111156107bc576107bc6127ff565b021790555042600180850182905560028501919091556000600585018190556006850181905560078501819055835460ff1916821784559083015560c08501511561082f57600b8401805461ff00191661010017905583546001600160a01b0319163317845561c3506004850155610943565b60405163ce3b576b60e01b815273__$6b7b4f300876ea7c4892437e01c3ce569a$__9063ce3b576b90610866908790600401613344565b602060405180830381865af4158015610883573d6000803e3d6000fd5b505050506040513d601f19601f820116820180604052508101906108a791906133ef565b600c84015584516040516348b0796f60e11b8152600481019190915273__$6b7b4f300876ea7c4892437e01c3ce569a$__90639160f2de90602401602060405180830381865af41580156108ff573d6000803e3d6000fd5b505050506040513d601f19601f82011682018060405250810190610923919061317c565b1561094357600283600c01600082825461093d9190613408565b90915550505b5050505050565b610952612600565b6000828152600e91909101602052604090205460ff166109b45760405162461bcd60e51b815260206004820152601f60248201527f506c616e657420686173206e6f74206265656e20696e697469616c697a65640060448201526064016102e8565b60008060008060006109c6864261186d565b94509450945094509450846109d9612600565b600c01600088815260200190815260200160002060008201518160000160006101000a8154816001600160a01b0302191690836001600160a01b031602179055506020820151816001015560408201518160020155606082015181600301556080820151816004015560a0820151816005015560c0820151816006015560e082015181600701556101008201518160080155610120820151816009015561014082015181600a015561016082015181600b0160006101000a81548160ff02191690836004811115610aac57610aac6127ff565b02179055506101809190910151600b90910180549115156101000261ff001990921691909117905583610add612600565b6000888152600e9190910160209081526040918290208351815490151560ff19918216178255918401516001808301919091559284015160028201556060840151600380830191909155608085015160048301805493959194909316918490811115610b4b57610b4b6127ff565b021790555060a0820151600582015560c0820151600682015560e08201516007820155610100820151600882015561012082015160098201805491151560ff19928316179055610140830151600a830155610160830151600b830180549115159190921617905561018090910151600c9091015582610bc8612600565b6000888152600f91909101602090815260408083208451815460ff19169015151781559184015160018301558301516002820180546001600160a01b03199081166001600160a01b03938416179091556060850151600384015560809094015160049092018054909416911617909155610c40612600565b60008881526013919091016020526040812091505b600c811015610da65760005b8254811015610d93578482600c8110610c7c57610c7c6131a0565b6020020151838281548110610c9357610c936131a0565b90600052602060002090600402016000015403610d815782548390610cba9060019061342a565b81548110610cca57610cca6131a0565b9060005260206000209060040201838281548110610cea57610cea6131a0565b600091825260209091208254600490920201908155600180830154818301805460ff90921692909160ff191690838015610d2657610d266127ff565b0217905550600282810154908201556003918201549101558254839080610d4f57610d4f613441565b60008281526020812060046000199093019283020181815560018101805460ff19169055600281018290556003015590555b80610d8b81613457565b915050610c61565b5080610d9e81613457565b915050610c55565b5060005b600c811015610ea2578281600c8110610dc557610dc56131a0565b602002015115610e90576000610dd9612600565b60110160008584600c8110610df057610df06131a0565b602002015181526020019081526020016000208190555073__$6b7b4f300876ea7c4892437e01c3ce569a$__63e83162c28483600c8110610e3357610e336131a0565b60200201518a6040518363ffffffff1660e01b8152600401610e5f929190918252602082015260400190565b60006040518083038186803b158015610e7757600080fd5b505af4158015610e8b573d6000803e3d6000fd5b505050505b80610e9a81613457565b915050610daa565b5050505050505050565b6000610eb6612600565b6000848152600c91909101602052604081209150610ed2612600565b6000858152600e919091016020526040902082549091506001600160a01b03163314610f405760405162461bcd60e51b815260206004820152601860248201527f796f75206d757374206f776e207468697320706c616e6574000000000000000060448201526064016102e8565b6003600b83015460ff166004811115610f5b57610f5b6127ff565b14610fbc5760405162461bcd60e51b815260206004820152602b60248201527f63616e206f6e6c792077697468647261772073696c7665722066726f6d20747260448201526a6164696e6720706f73747360a81b60648201526084016102e8565b600b81015460ff16156110075760405162461bcd60e51b81526020600482015260136024820152721c1b185b995d081a5cc819195cdd1c9bde5959606a1b60448201526064016102e8565b82826009015410156110775760405162461bcd60e51b815260206004820152603360248201527f747269656420746f207769746864726177206d6f72652073696c766572207468604482015272185b88195e1a5cdd1cc81bdb881c1b185b995d606a1b60648201526084016102e8565b8282600901600082825461108b919061342a565b909155506000905061109f6103e885613408565b905060647f5fb65bb339c6bd3f2609a7342e6cb046e09f3e40f45242a5971904b021b5bb53604201546110d29083613470565b6110dc9190613408565b9050806110e7612600565b33600090815260129190910160205260408120600401805490919061093d9084906131cc565b6000611117612600565b6000848152600c91909101602052604081209150611133612600565b6000858152600e919091016020526040902082549091506001600160a01b031633146111c75760405162461bcd60e51b815260206004820152603860248201527f4f6e6c79206f776e6572206163636f756e742063616e20706572666f726d207460448201527f686174206f7065726174696f6e206f6e20706c616e65742e000000000000000060648201526084016102e8565b600a820154806112325760405162461bcd60e51b815260206004820152603060248201527f506c616e6574206c6576656c206973206e6f74206869676820656e6f7567682060448201526f666f722074686973207570677261646560801b60648201526084016102e8565b600384106112825760405162461bcd60e51b815260206004820152601860248201527f55706772616465206272616e6368206e6f742076616c6964000000000000000060448201526064016102e8565b6000600b84015460ff16600481111561129d5761129d6127ff565b146112ea5760405162461bcd60e51b815260206004820181905260248201527f43616e206f6e6c79207570677261646520726567756c617220706c616e65747360448201526064016102e8565b600b82015460ff16156113355760405162461bcd60e51b81526020600482015260136024820152721c1b185b995d081a5cc819195cdd1c9bde5959606a1b60448201526064016102e8565b600082600701548360060154846005015461135091906131cc565b61135a91906131cc565b90506000600484015460ff166003811115611377576113776127ff565b1480156113845750600381105b806113b257506001600484015460ff1660038111156113a5576113a56127ff565b1480156113b25750600481105b806113e057506002600484015460ff1660038111156113d3576113d36127ff565b1480156113e05750600581105b8061140e57506003600484015460ff166003811115611401576114016127ff565b14801561140e5750600581105b61145a5760405162461bcd60e51b815260206004820152601960248201527f506c616e6574206174206d617820746f74616c206c6576656c0000000000000060448201526064016102e8565b60008561146c5750600583015461148e565b6001860361147f5750600683015461148e565b6002860361148e575060078301545b600481106114de5760405162461bcd60e51b815260206004820152601c60248201527f55706772616465206272616e636820616c7265616479206d617865640000000060448201526064016102e8565b60007fb997f4d26de83b05e27fc6c6b9d295ba414ad9dfbfc3edc3b418ee775927d0688760038110611512576115126131a0565b601402018260048110611527576115276131a0565b600502016040518060a00160405290816000820154815260200160018201548152602001600282015481526020016003820154815260200160048201548152505090506000606484600161157b91906131cc565b600789015461158b906014613470565b6115959190613470565b61159f9190613408565b905080876009015410156115f55760405162461bcd60e51b815260206004820152601e60248201527f496e73756666696369656e742073696c76657220746f2075706772616465000060448201526064016102e8565b604080516324b751c760e21b8152600481018b9052835160248201526020840151604482015290830151606482015260608301516084820152608083015160a482015273__$6b7b4f300876ea7c4892437e01c3ce569a$__906392dd471c9060c40160006040518083038186803b15801561166f57600080fd5b505af4158015611683573d6000803e3d6000fd5b505050508087600901600082825461169b919061342a565b909155508890506116c65760018660050160008282546116bb91906131cc565b909155506117069050565b600188036116e35760018660060160008282546116bb91906131cc565b6002880361170657600186600701600082825461170091906131cc565b90915550505b7f60152808f08b8da56b8e54e6c434937a71e3fea4878fa466a3c2b514d76f5e50338a8a6117358760016131cc565b604080516001600160a01b039095168552602085019390935291830152606082015260800160405180910390a1505050505050505050565b611775612673565b61177d6126e8565b6040805160a081018252600080825260208201819052918101829052606081018290526080810191909152856101800151156117c0575084915083905082611863565b600a8760e00151600e8111156117d8576117d86127ff565b036117f85760028660c0018181516117f09190613470565b90525061185a565b600c8760e00151600e811115611810576118106127ff565b0361182957600286610100018181516117f09190613470565b600e8760e00151600e811115611841576118416127ff565b0361185a576020840180519061185682613457565b9052505b50849150839050825b9450945094915050565b611875612673565b61187d6126e8565b6040805160a0810182526000808252602082018190529181018290526060810182905260808101919091526118b0612767565b6118b8612767565b60006118c2612600565b6000898152600c91909101602090815260409182902082516101a08101845281546001600160a01b03168152600182015492810192909252600281015492820192909252600382015460608201526004808301546080830152600583015460a0830152600683015460c0830152600783015460e083015260088301546101008301526009830154610120830152600a830154610140830152600b83015491929161016084019160ff9091169081111561197d5761197d6127ff565b600481111561198e5761198e6127ff565b8152600b9190910154610100900460ff161515602090910152905060006119b3612600565b60008a8152600e91909101602090815260409182902082516101a081018452815460ff9081161515825260018301549382019390935260028201549381019390935260038082015460608501526004820154919260808501921690811115611a1d57611a1d6127ff565b6003811115611a2e57611a2e6127ff565b815260058201546020820152600682015460408201526007820154606082015260088201546080820152600982015460ff908116151560a0830152600a83015460c0830152600b83015416151560e0820152600c909101546101009091015290506000611a99612600565b60008b8152600f919091016020908152604091829020825160a081018452815460ff161515815260018201549281019290925260028101546001600160a01b0390811693830193909352600381015460608301526004015490911660808201529050611b03612786565b6000611b0d612600565b60130160008d8152602001908152602001600020805480602002602001604051908101604052809291908181526020016000905b82821015611bbd576000848152602090819020604080516080810190915260048502909101805482526001810154919290919083019060ff168015611b8857611b886127ff565b8015611b9657611b966127ff565b81526020016002820154815260200160038201548152505081526020019060010190611b41565b5050604051630159dfe560e71b815292935073__$297e9ac071e9ac6293c6053b482b9007d7$__9263aceff2809250611c0391508e90899089908990889060040161348f565b6106e060405180830381865af4158015611c21573d6000803e3d6000fd5b505050506040513d601f19601f82011682018060405250810190611c45919061365d565b9297509095509350915060005b600c811015611cd357828160188110611c6d57611c6d6131a0565b60200201518882600c8110611c8457611c846131a0565b602002015282611c9582600c6131cc565b60188110611ca557611ca56131a0565b60200201518782600c8110611cbc57611cbc6131a0565b602002015280611ccb81613457565b915050611c52565b5060005b600c811015611e77576000611cea612600565b60160160008984600c8110611d0157611d016131a0565b60200201518152602001908152602001600020604051806101a00160405290816000820160009054906101000a900460ff1615151515815260200160018201548152602001600282015481526020016003820160009054906101000a900460ff166005811115611d7357611d736127ff565b6005811115611d8457611d846127ff565b81526020016003820160019054906101000a900460ff16600a811115611dac57611dac6127ff565b600a811115611dbd57611dbd6127ff565b81526004820154602082015260058201546001600160a01b0381166040830152606090910190600160a01b900460ff16600e811115611dfe57611dfe6127ff565b600e811115611e0f57611e0f6127ff565b815260068201546020820152600782015460408201526008820154606082015260098201546080820152600a909101546001600160a01b031660a0909101529050611e5c8188888861176d565b91985096509450819050611e6f81613457565b915050611cd7565b50604051632a9b1ded60e11b815273__$297e9ac071e9ac6293c6053b482b9007d7$__906355363bda90611eb5908e90899089908990600401613718565b6103e060405180830381865af4158015611ed3573d6000803e3d6000fd5b505050506040513d601f19601f82011682018060405250810190611ef79190613752565b919b509950975050505050509295509295909350565b7f2849cb27302bb32c0c7252ab45487d42296bcddad804f932e0b0589e515a93745460ff16612000576040516325efbb3960e11b815273__$3d6e8b05f53a3662324d76e554a41ef6b3$__90634bdf767290611f739088908890889088906004016137be565b602060405180830381865af4158015611f90573d6000803e3d6000fd5b505050506040513d601f19601f82011682018060405250810190611fb4919061317c565b6120005760405162461bcd60e51b815260206004820152601760248201527f4661696c656420696e69742070726f6f6620636865636b00000000000000000060448201526064016102e8565b81516020808401516040805160a08082018352606080890151835260808901519583019590955287015191810191909152909173__$6b7b4f300876ea7c4892437e01c3ce569a$__916326c7e6189181018760066020020151815260200187600760088110612071576120716131a0565b602002015181525060006040518363ffffffff1660e01b8152600401612098929190613842565b602060405180830381865af41580156120b5573d6000803e3d6000fd5b505050506040513d601f19601f820116820180604052508101906120d9919061317c565b506120e582828561022c565b50505050505050565b60006120f8612600565b336000908152601291909101602052604090205460ff161561215c5760405162461bcd60e51b815260206004820152601d60248201527f506c6179657220697320616c726561647920696e697469616c697a656400000060448201526064016102e8565b612164612600565b600901548211156121d35760405162461bcd60e51b815260206004820152603360248201527f496e69742072616469757320697320626967676572207468616e207468652063604482015272757272656e7420776f726c642072616469757360681b60648201526084016102e8565b7f5fb65bb339c6bd3f2609a7342e6cb046e09f3e40f45242a5971904b021b5bb5c54156122d95760646002612206612600565b600901546122149190613962565b6122209061013a613470565b61222a9190613408565b7f5fb65bb339c6bd3f2609a7342e6cb046e09f3e40f45242a5971904b021b5bb5c546064612259600286613962565b6122659061013a613470565b61226f9190613408565b61227991906131cc565b10156122d95760405162461bcd60e51b815260206004820152602960248201527f506c617965722063616e206f6e6c7920737061776e2061742074686520756e6960448201526876657273652072696d60b81b60648201526084016102e8565b7f5fb65bb339c6bd3f2609a7342e6cb046e09f3e40f45242a5971904b021b5bb5a548310156123705760405162461bcd60e51b815260206004820152603a60248201527f496e6974206e6f7420616c6c6f77656420696e207065726c696e2076616c756560448201527f206c657373207468616e20494e49545f5045524c494e5f4d494e00000000000060648201526084016102e8565b7f5fb65bb339c6bd3f2609a7342e6cb046e09f3e40f45242a5971904b021b5bb5b54831061241c5760405162461bcd60e51b815260206004820152604d60248201527f496e6974206e6f7420616c6c6f77656420696e207065726c696e2076616c756560448201527f2067726561746572207468616e206f7220657175616c20746f2074686520494e60648201526c092a8bea08aa498929cbe9a82b609b1b608482015260a4016102e8565b5060019392505050565b80156124d5577f5fb65bb339c6bd3f2609a7342e6cb046e09f3e40f45242a5971904b021b5bb6c54612456612600565b3360009081526012919091016020526040902060030154612477904261342a565b116124d55760405162461bcd60e51b815260206004820152602860248201527f7761697420666f7220636f6f6c646f776e206265666f72652072657665616c6960448201526737339030b3b0b4b760c11b60648201526084016102e8565b6124dd612600565b6000868152600d9190910160205260409020541561253d5760405162461bcd60e51b815260206004820152601960248201527f4c6f636174696f6e20616c72656164792072657665616c65640000000000000060448201526064016102e8565b612545612600565b6007018054600181018255600091825260209182902001869055604080516080810182528781529182018590528101839052336060820152612585612600565b6000878152600d91909101602090815260409182902083518155908301516001820155908201516002820155606090910151600390910180546001600160a01b0319166001600160a01b03909216919091179055426125e2612600565b33600090815260129190910160205260409020600301555050505050565b7fcb7f1a525606efcbba7baaf9b0b55c468d0fd558cbf767967f538834dfa1232e90565b6040518060e00160405280600081526020016000815260200160008152602001600081526020016000600381111561265e5761265e6127ff565b815260200160005b8152600060209091015290565b604051806101a0016040528060006001600160a01b031681526020016000815260200160008152602001600081526020016000815260200160008152602001600081526020016000815260200160008152602001600081526020016000815260200160006004811115612666576126666127ff565b604051806101a0016040528060001515815260200160008152602001600081526020016000815260200160006003811115612725576127256127ff565b81526020016000815260200160008152602001600081526020016000815260200160001515815260200160008152602001600015158152602001600081525090565b604051806101800160405280600c906020820280368337509192915050565b6040518061030001604052806018906020820280368337509192915050565b80151581146127b357600080fd5b50565b80356127c1816127a5565b919050565b6000806000606084860312156127db57600080fd5b833592506020840135915060408401356127f4816127a5565b809150509250925092565b634e487b7160e01b600052602160045260246000fd5b60048110612825576128256127ff565b9052565b60058110612825576128256127ff565b600060e0820190508251825260208301516020830152604083015160408301526060830151606083015260808301516128756080840182612815565b5060a083015161288860a0840182612829565b5060c0928301511515919092015290565b634e487b7160e01b600052604160045260246000fd5b6040516101a0810167ffffffffffffffff811182821017156128d3576128d3612899565b60405290565b60405160a0810167ffffffffffffffff811182821017156128d3576128d3612899565b6040805190810167ffffffffffffffff811182821017156128d3576128d3612899565b604051610100810167ffffffffffffffff811182821017156128d3576128d3612899565b600481106127b357600080fd5b80356127c181612943565b600581106127b357600080fd5b80356127c18161295b565b600060e0828403121561298557600080fd5b60405160e0810181811067ffffffffffffffff821117156129a8576129a8612899565b80604052508235815260208301356020820152604083013560408201526060830135606082015260808301356129dd81612943565b608082015260a08301356129f08161295b565b60a082015260c0830135612a03816127a5565b60c08201529392505050565b600060208284031215612a2157600080fd5b5035919050565b60008060408385031215612a3b57600080fd5b50508035926020909101359150565b8035600681106127c157600080fd5b8035600b81106127c157600080fd5b6001600160a01b03811681146127b357600080fd5b80356127c181612a68565b8035600f81106127c157600080fd5b60006101a08284031215612aaa57600080fd5b612ab26128af565b9050612abd82612a7d565b81526020820135602082015260408201356040820152606082013560608201526080820135608082015260a082013560a082015260c082013560c082015260e082013560e0820152610100808301358183015250610120808301358183015250610140808301358183015250610160612b37818401612968565b90820152610180612b498382016127b6565b9082015292915050565b60006101a08284031215612b6657600080fd5b612b6e6128af565b9050612b79826127b6565b8152602082013560208201526040820135604082015260608201356060820152612ba560808301612950565b608082015260a082013560a082015260c082013560c082015260e082013560e0820152610100808301358183015250610120612be28184016127b6565b908201526101408281013590820152610160612bff8184016127b6565b818301525061018080830135818301525092915050565b600060a08284031215612c2857600080fd5b612c306128d9565b90508135612c3d816127a5565b8152602082810135908201526040820135612c5781612a68565b6040820152606082810135908201526080820135612c7481612a68565b608082015292915050565b600080600080848603610580811215612c9757600080fd5b6101a080821215612ca757600080fd5b612caf6128af565b9150612cba876127b6565b82526020870135602083015260408701356040830152612cdc60608801612a4a565b6060830152612ced60808801612a59565b608083015260a087013560a0830152612d0860c08801612a7d565b60c0830152612d1960e08801612a88565b60e08301526101008781013590830152610120808801359083015261014080880135908301526101608088013590830152610180612d58818901612a7d565b8184015250819550612d6c88828901612a97565b94505050612d7e866103408701612b53565b9150612d8e866104e08701612c16565b905092959194509250565b80516001600160a01b031682526020810151602083015260408101516040830152606081015160608301526080810151608083015260a081015160a083015260c081015160c083015260e081015160e083015261010080820151818401525061012080820151818401525061014080820151818401525061016080820151612e2382850182612829565b505061018081810151801515848301525b50505050565b8051151582526020810151602083015260408101516040830152606081015160608301526080810151612e706080840182612815565b5060a081015160a083015260c081015160c083015260e081015160e083015261010080820151818401525061012080820151612eaf8285018215159052565b505061014081810151908301526101608082015115159083015261018090810151910152565b805115158252602080820151908301526040808201516001600160a01b03908116918401919091526060808301519084015260809182015116910152565b6103e08101612f228286612d99565b612f306101a0830185612e3a565b612f3e610340830184612ed5565b949350505050565b8060005b600c811015612e34578151845260209384019390910190600101612f4a565b6106e08101612f788288612d99565b612f866101a0830187612e3a565b612f94610340830186612ed5565b612fa26103e0830185612f46565b612fb0610560830184612f46565b9695505050505050565b600082601f830112612fcb57600080fd5b612fd36128fc565b806040840185811115612fe557600080fd5b845b81811015612fff578035845260209384019301612fe7565b509095945050505050565b6000806000806000610220868803121561302357600080fd5b61302d8787612fba565b9450604087605f88011261304057600080fd5b6130486128fc565b8060c089018a81111561305a57600080fd5b838a015b8181101561307f576130708c82612fba565b8452602090930192840161305e565b5081975061308d8b82612fba565b9650505050508661011f8701126130a357600080fd5b6130ab61291f565b806102008801898111156130be57600080fd5b61010089015b818110156130dc5780358452602093840193016130c4565b508194506130e9816127b6565b93505050509295509295909350565b60008060006060848603121561310d57600080fd5b505081359360208301359350604090920135919050565b600080600080600060a0868803121561313c57600080fd5b853594506020860135935060408601359250606086013591506080860135613163816127a5565b809150509295509295909350565b80516127c1816127a5565b60006020828403121561318e57600080fd5b8151613199816127a5565b9392505050565b634e487b7160e01b600052603260045260246000fd5b634e487b7160e01b600052601160045260246000fd5b600082198211156131df576131df6131b6565b500190565b80516127c18161295b565b80516127c181612943565b60008060006060848603121561320f57600080fd5b8351925060208401516132218161295b565b60408501519092506127f481612943565b8581526020810185905260a0810161324d6040830186612829565b61325a6060830185612815565b8260808301529695505050505050565b80516127c181612a68565b60006101a0828403121561328857600080fd5b6132906128af565b905061329b8261326a565b81526020820151602082015260408201516040820152606082015160608201526080820151608082015260a082015160a082015260c082015160c082015260e082015160e08201526101008083015181830152506101208083015181830152506101408083015181830152506101606133158184016131e4565b90820152610180612b49838201613171565b60006101a0828403121561333a57600080fd5b6131998383613275565b81546001600160a01b031681526101a0810160018301546020830152600283015460408301526003830154606083015260048301546080830152600583015460a0830152600683015460c0830152600783015460e083015260088301546101008301526009830154610120830152600a830154610140830152600b8301546133d3610160840160ff8316612829565b6133e8610180840160ff8360081c1615159052565b5092915050565b60006020828403121561340157600080fd5b5051919050565b60008261342557634e487b7160e01b600052601260045260246000fd5b500490565b60008282101561343c5761343c6131b6565b500390565b634e487b7160e01b600052603160045260246000fd5b600060018201613469576134696131b6565b5060010190565b600081600019048311821515161561348a5761348a6131b6565b500290565b600061042080830188845260206134a88186018a612d99565b6134b66101c0860189612e3a565b6134c4610360860188612ed5565b6104008501929092528451908190526104408401918086019160005b8181101561352c578351805186528381015160018110613502576135026127ff565b868501526040818101519087015260609081015190860152608090940193928201926001016134e0565b50929a9950505050505050505050565b60006101a0828403121561354f57600080fd5b6135576128af565b905061356282613171565b815260208201516020820152604082015160408201526060820151606082015261358e608083016131ef565b608082015260a082015160a082015260c082015160c082015260e082015160e08201526101008083015181830152506101206135cb818401613171565b9082015261014082810151908201526101606135e8818401613171565b818301525061018080830151818301525092915050565b600060a0828403121561361157600080fd5b6136196128d9565b90508151613626816127a5565b815260208281015190820152604082015161364081612a68565b6040820152606082810151908201526080820151612c7481612a68565b6000806000806106e080868803121561367557600080fd5b61367f8787613275565b945061368f876101a0880161353c565b935061369f8761034088016135ff565b9250866103ff8701126136b157600080fd5b604051610300810181811067ffffffffffffffff821117156136d5576136d5612899565b6040529086019080888311156136ea57600080fd5b6103e088015b838110156137085780518252602091820191016136f0565b5050809250505092959194509250565b848152610400810161372d6020830186612d99565b61373b6101c0830185612e3a565b613749610360830184612ed5565b95945050505050565b60008060006103e0848603121561376857600080fd5b6137728585613275565b9250613782856101a0860161353c565b91506137928561034086016135ff565b90509250925092565b8060005b6002811015612e3457815184526020938401939091019060010161379f565b61020081016137cd828761379b565b60408083018660005b60028110156137fd576137ea83835161379b565b91830191602091909101906001016137d6565b5050505061380e60c083018561379b565b61010082018360005b6008811015613836578151835260209283019290910190600101613817565b50505095945050505050565b60c08101818460005b600581101561386a57815183526020928301929091019060010161384b565b50505082151560a08301529392505050565b600181815b808511156138b757816000190482111561389d5761389d6131b6565b808516156138aa57918102915b93841c9390800290613881565b509250929050565b6000826138ce5750600161395c565b816138db5750600061395c565b81600181146138f157600281146138fb57613917565b600191505061395c565b60ff84111561390c5761390c6131b6565b50506001821b61395c565b5060208310610133831016604e8410600b841016171561393a575081810a61395c565b613944838361387c565b8060001904821115613958576139586131b6565b0290505b92915050565b600061319960ff8416836138bf56fea2646970667358221220eb742d870b7edb4dfde171f3b2d1391c3113d5b1c3df7a9dcba853b6432976d764736f6c634300080d0033",
    "sourcePath": "/Users/lele/Downloads/eth-master/contracts/libraries/LibPlanet.sol",
    "compiler": {
        "name": "solc",
        "version": "0.8.13+commit.abaa5c0e"
    },
    "functionHashes": {
        "_initializePlanet(DFPInitPlanetArgs)": "2caa23fc",
        "applySpaceshipArrive(Artifact,Planet,PlanetExtendedInfo,PlanetExtendedInfo2)": "7f1ac31c",
        "checkPlayerInit(uint256,uint256,uint256)": "eb75e284",
        "getDefaultInitPlanetArgs(uint256,uint256,bool)": "2237b572",
        "getRefreshedPlanet(uint256,uint256)": "8f0742bf",
        "initializePlanet(uint256[2],uint256[2][2],uint256[2],uint256[8],bool)": "e01f8926",
        "initializePlanetWithDefaults(uint256,uint256,bool)": "1f59767e",
        "refreshPlanet(uint256)": "3f324cf3",
        "revealLocation(uint256,uint256,uint256,uint256,bool)": "f35f6513",
        "upgradePlanet(uint256,uint256)": "73a85381",
        "withdrawSilver(uint256,uint256)": "443a397c"
    },
    "gasEstimates": {
        "creation": {
            "codeDepositCost": "2951800",
            "executionCost": "3270",
            "totalCost": "2955070"
        },
        "external": {
            "_initializePlanet(DFPInitPlanetArgs)": "infinite",
            "applySpaceshipArrive(Artifact,Planet,PlanetExtendedInfo,PlanetExtendedInfo2)": "infinite",
            "checkPlayerInit(uint256,uint256,uint256)": "infinite",
            "getDefaultInitPlanetArgs(uint256,uint256,bool)": "infinite",
            "getRefreshedPlanet(uint256,uint256)": "infinite",
            "initializePlanet(uint256[2],uint256[2][2],uint256[2],uint256[8],bool)": "infinite",
            "initializePlanetWithDefaults(uint256,uint256,bool)": "infinite",
            "refreshPlanet(uint256)": "infinite",
            "revealLocation(uint256,uint256,uint256,uint256,bool)": "infinite",
            "upgradePlanet(uint256,uint256)": "infinite",
            "withdrawSilver(uint256,uint256)": "infinite"
        },
        "internal": {
            "gameConstants()": "infinite",
            "gs()": "15",
            "snarkConstants()": "infinite"
        }
    }
}